:020000040800F2
:100000004006002001010008D9280008D528000872
:10001000D7280008690A00084529000800000000E8
:1000200000000000000000000000000013010008B4
:100030007B0A00080000000017010008EF280008F4
:100040001B0100081B0100081B0100081B01000820
:100050001B0100081B0100081B0100081B01000810
:100060001B0100081B010008A30A00086D0A000814
:100070001B0100081B0100081B010008790A000889
:100080001B0100081B0100081B0100081B010008E0
:100090001B0100081B0100081B010008A90A000839
:1000A0001B0100081B0100081B0100081B010008C0
:1000B0001B0100081B0100081B0100081B010008B0
:1000C0001B0100081B0100081B0100081B010008A0
:1000D0001B0100081B0100081B0100081B01000890
:1000E0007D0A00081B0100081B010008DFF80CD086
:1000F00000F010FC00480047C14B000840060020FB
:100100000648804706480047FEE7FEE7FEE7FEE7B1
:10011000FEE7FEE7FEE7FEE7FEE7FEE7FD28000854
:10012000ED0000082DE9F05F0546002092469B4651
:1001300088460646814640241BE0284641464746FD
:10014000224600F020F853465A46C01A914110D377
:1001500011461846224600F0F9FA2D1A67EB0108FD
:100160004F4622460120002100F0F0FA17EB00096B
:100170004E41201EA4F10104DFDC484631462A46E8
:100180004346BDE8F09F202A04DB203A21FA02F022
:100190000021704721FA02F3D040C2F120029140C1
:1001A00008431946704700000649074A086850434B
:1001B00043F2390210440860400870470149086062
:1001C000704700007C0000206D4EC641F0B480EA0C
:1001D0000102D40F4200B2EB410F02D202460846A0
:1001E00011464A0042D0C30DDDB2C1F3C752AD1A69
:1001F000202D35DAC1F3160141F4000204B1524258
:10020000C5F1200602FA06F12A411044B3EBD05F93
:1002100023D0C4B1012DA0EBC35009DCF0BC4FF0DA
:10022000004202EAC352DBB200F5000000F0B8BAA7
:10023000400000F1807000EBC350A0F1807040EAF4
:10024000D170490009E0490841EAC071A0EBC350F0
:1002500000F50000400800EBC350F0BC00F097BA76
:100260006142012202EB4101001BF6E7F0BC70473E
:1002700081F00041AAE780F00040A7E780EA010290
:1002800010B502F00043400022D04A001FD0010EFA
:1002900001EB1261C0F35600C2F3560240F40000B5
:1002A00042F40002A0FB022000047F39140400D0B5
:1002B000401C50EA124001D44000491EC2B20C0654
:1002C00004EBD010401C4008802A02D003E000203C
:1002D00010BD20F00100002900DA0020184310BDF5
:1002E00030B480EA010202F0004530F0004221F013
:1002F000004013D090B1C30DD40DC2F31601C0F36A
:100300001600E41A41F4000140F400027D349142E9
:1003100001D3641C00E04900002C02DA30BC00204C
:1003200070474FF400000023914201D3891A034320
:1003300040084FEA4101F7D151B1914202D14FF04B
:10034000004105E002D24FF0010101E06FF0010130
:1003500003EBC450284430BC00F019BA420005D069
:10036000C0F3C7525242914201DC0020704700EBBB
:10037000C15070472DE9FE4F804681EA0300C00F4F
:100380000C46009021F0004123F00045B8EB02003C
:10039000A94105D24046214690461C460B460246DE
:1003A00023F00040104347D0270DC7F30A00C3F3E2
:1003B0000A510290401A019040286BDAC3F31300EF
:1003C00040F4801B0098924620B10023D2EB030A30
:1003D00063EB0B0B01985946C0F14002504600F008
:1003E000B5F906460D4650465946019A00F0BDF94A
:1003F00010EB08006141002487EA115284EAE77398
:100400001A4340D0009A62B3019A012A4FEA075278
:1004100015DC001B61EB02014FF0004202EA0752BB
:10042000CDE90042001C41F5801132462B4600F018
:1004300023FA03B0BDE8F08F40462146F9E7001BE0
:1004400061EB0201001C41F5801300185B4120188C
:10045000A2F5001747EB030140EAD570B6196D41CC
:1004600011E06D084FEA360645EAC0754FEA0752BB
:10047000001B61EB0201001C41F5801149084FEAA5
:1004800030000019514132462B4603B0BDE8F04F11
:1004900000F0E3B90098012240000023D0EB0202F3
:1004A00063EBE073009821464FEAE074B8EB00007C
:1004B00061EB0401E9E783F000435BE781F0004171
:1004C00058E72DE9FE4F81EA030404F0004421F0CF
:1004D000004100944FF0000B23F0004350EA010468
:1004E0005ED052EA03045BD0C3F30A54C1F30A5549
:1004F0002C44A4F2F3340194A0FB0254C1F3130181
:1005000041F48011C3F3130343F4801301FB02444D
:1005100000FB034E840A970A44EA815447EA835752
:10052000A4FB076802958D0A05FB07854FEA932C0B
:1005300004FB0C542705029D4FEA065847EA16377C
:10054000B5EB08056EEB070C870E920E47EA811794
:1005500042EA8312A7FB0201B6EB0B0164EB000435
:100560002B0D43EA0C335E1844EB1C50DA4651461F
:10057000E7FB0201C5F313044FEA0B3343EA1453BC
:100580004FEA0432019C43EA0603A4F10C040294EE
:10059000009CCDE900B400F06FF903B0BDE8F08F26
:1005A00000200146F9E72DE9F04D81EA030404F04B
:1005B000004B21F0004514464FF0000A23F00041A3
:1005C00050EA050220D054EA01021DD0C5F30A57B3
:1005D0000246C5F31303C1F31300C1F30A5640F4F6
:1005E000801543F48013A7EB0608101BD64608F2CB
:1005F000FD3873EB050002D308F1010801E0921801
:100600005B41B8F1000F03DA00200146BDE8F08D30
:1006100000204FF48011064684460EE0171B73EB52
:10062000050705D3121B63EB050306434CEA010CD7
:1006300049084FEA300092185B4150EA0107EDD1BA
:1006400052EA030012D082EA040083EA050108435B
:1006500005D0101BAB4106D20122002306E0002288
:100660004FF0004302E06FF0010253101AEB060056
:100670004CEB085110EB0A0041EB0B01BDE8F04DCB
:1006800000F0EBB8C10F80EAE0700844CA07962377
:10069000002100F085B896230022114600F080B8B2
:1006A00030B4044696230800214604D0B62330BC5B
:1006B000002200F075B820460021F8E700F0004263
:1006C00020F00040C10DC0F3160040F400007F2967
:1006D00001DA00207047962903DCC1F19601C84079
:1006E00001E096398840002AF4D04042704700F07B
:1006F000004230F000400AD0C10D01F56071C0F336
:10070000160042EA0151C208400711437047002019
:100710000146704701F0004330B421F0004150EA37
:10072000010206D00A0DA2F56072C1F31301002A7E
:1007300002DC30BC00207047440F44EAC104C10011
:10074000E01830BC00EBC25000F021B8202A04DBD6
:10075000203A00FA02F1002070479140C2F12003D4
:1007600020FA03F3194390407047202A06DBCB1789
:10077000203A41FA02F043EAE07306E041FA02F35C
:10078000D040C2F120029140084319467047002929
:10079000A8BF7047401C490008BF20F00100704707
:1007A00010B4B0FA80FC00FA0CF050EA010404BF67
:1007B00010BC704749B1CCF1200421FA04F411FABD
:1007C0000CF118BF012121430843A3EB0C01CB1D01
:1007D0004FEA00614FEA102042BF002010BC704772
:1007E00000EBC35010440029A4BF10BC7047401C4C
:1007F000490008BF20F0010010BC7047F0B4002889
:1008000002DCF0BC00207047C0F3C751C0F31600F3
:1008100040F40000CA0701D14000491E3F2202EB0C
:100820006105002211464FF4000626FA01F3134435
:10083000D418844201D8001B1A464000491C1729CD
:10084000F3DD5100814202D24FF0FF3100E0002180
:1008500002EBC550F0BCFFF79ABF10B5141E73F140
:10086000000408DA401C41F1000192185B411A4370
:1008700001D120F0010010BD2DE9F04D92469B46BC
:1008800011B1B1FA81F202E0B0FA80F22032904662
:10089000FFF75CFF04460F4640EA0A0041EA0B01FD
:1008A00053465A46084313D0114653EA010019D063
:1008B000C8F140025046FFF766FC05460E4650461A
:1008C00059464246FFF742FF084305D0012004E0A5
:1008D00020463946BDE8F08D0020054346EAE07623
:1008E0002C4337430A986305E40AA0EB0800002272
:1008F000FD0A44EA47540A3002D500200146E9E7E0
:10090000010510196941DDE9084500196941BDE893
:10091000F04DA2E7064C074D06E0E06840F0010309
:1009200094E8070098471034AC42F6D3FFF7E2FB97
:10093000D0510008F051000870B504460068816885
:10094000C943C9071CD1816821F00101816000F011
:1009500005FE05460FE000BF00F000FE401B022828
:1009600009D9A06A40F01000A062E06A40F00100DE
:10097000E062012070BD20688068C043C007EBD0F2
:10098000002070BD10B50146406A826A12F0500F17
:1009900005D0006A026BBDE8104008461047816A26
:1009A00041F40071816201688968C1F342410729FD
:1009B0000CD1C16851B9816A21F480718162816A68
:1009C000C90403D4816A41F00101816200F034F965
:1009D00010BD10B5406A816A41F040018162C16A70
:1009E00041F00401C16200F029F910BD10B5406A60
:1009F00000F023F910BD0000F8B50026044600966B
:100A000000688168C943C90728D0816841F00101A5
:100A10008160134813490068B0FBF1F000E0401E0C
:100A200000900028FBD100F099FD054611E000BFC1
:100A300000F094FD401B02280BD9A06A40F0100082
:100A4000A062E06A40F00100E06284F824600120C6
:100A5000F8BD20688068C043C007E9D10020F8BD18
:100A60000000002040420F00FEE70000014800F0B7
:100A7000A3BA0000E80100207047704710B54FF49A
:100A8000806000F073FC4FF4006000F06FFC4FF4E6
:100A9000805000F06BFCBDE810404FF4005000F0B7
:100AA00065BC102000F062BC10B5202000F05EFC98
:100AB000402000F05BFC802000F058FC4FF4807078
:100AC00000F054FCBDE810404FF4007000F04EBC44
:100AD000F8B50025009590F82420AE46012A1ED0D6
:100AE000012280F824204A681F244FF47873072AD3
:100AF00017D20668776B93FAA3FCBCFA8CFC521EE3
:100B000002FB0CFC04FA0CF4A74393FAA3F3B3FA28
:100B100083F30C685A439440274377632DE0022007
:100B2000F8BD06680D2A14D2376B93FAA3FCBCFA01
:100B30008CFCD21F02FB0CFC04FA0CF4A74393FAC2
:100B4000A3F3B3FA83F30C685A4394402743376303
:100B500013E0F76A93FAA3FCBCFA8CFC0D3A02FB93
:100B60000CFC04FA0CF4A74393FAA3F3B3FA83F34F
:100B70000C685A4394402743F7620A6838230724D5
:100B800006680A2A14D3F76893FAA3FCBCFA8CFC13
:100B90000A3A02FB0CFC04FA0CF4A74393FAA3F301
:100BA000B3FA83F38C685A4394402743F76012E00A
:100BB000376993FAA3FCBCFA8CFC02FB0CFC04FA28
:100BC0000CF4A74393FAA3F3B3FA83F38C685A4364
:100BD0009440274337610A68102A01D0112A20D196
:100BE000124B02689A4217D193681B0219D493687A
:100BF00043F4000393600968102912D10C490D4A8F
:100C00000968B1FBF2F101EB8101490000E0491EE6
:100C100000910029FBD104E0816A41F0200181624A
:100C2000012580F824E02846F8BD0000002401409A
:100C30000000002040420F007047704770470000DE
:100C40002DE9F04104004FF0000514D0A06A002601
:100C500028B9E66284F82460204600F08BF820462C
:100C6000FFF76AFEA16A01F01001014304D0A06AF7
:100C700040F01000A06277E0A16A21F4885141F0B1
:100C80000201A1626268E16902270A43E16897FAFA
:100C9000A7F70B46B7FA87F7B9400A43A1684FF4A4
:100CA0008077B94208D0012906D00021D4F814C0B9
:100CB000BCF1010F02D00AE03946F7E7F3B1A36AAD
:100CC00043F02003A362E36A43F00103E362236875
:100CD000D3F804C02CF4694C4CEA010CC3F804C0EE
:100CE00021688B68DFF884C003EA0C0313438B6030
:100CF000A168B94210D001290ED016E04FF4604C23
:100D0000A3699CFAACFCBCFA8CFC5B1E03FA0CF3E6
:100D10000B4343F40061DAE74FF47001256991FA5F
:100D2000A1F1B1FA81F16D1E8D402168CB6A23F4E7
:100D300070032B43CB62216889680D4B19409142A7
:100D400008D1E662A16A21F0020141F00101A1622D
:100D5000BDE8F081A06A20F0020040F01000A0621F
:100D6000E06A40F00100E0620120F1E7FDF7E1FFF9
:100D7000FE0E1FFF30B505460068174985B0884252
:100D800027D11648816941F4007181618069694603
:100D900000F4007004900E20009003200190104891
:100DA00000F0F0FA104C0F488021206000206060B5
:100DB000C4E9020189002161890061612021C4E93F
:100DC0000610204600F02EFA08B102F0E3F92C627A
:100DD000656205B030BD00000024014000100240F3
:100DE0000008014008000240E801002070B50446F8
:100DF00090F8240001280DD0012084F8240020461A
:100E0000FFF7FAFD02004FF0000005D084F824003F
:100E1000104670BD022070BDA16A40F201239943C3
:100E200041F48071A1621F4D23681F49AB4218D164
:100E30000E6816F4702F14D0A66A46F48016A662C7
:100E40000E68760505D5A66A26F4005646F4805647
:100E5000A662A66AF6040AD5E66A26F00606E662E7
:100E600006E0A66A26F48016A6625E68E9E7E062FC
:100E700084F824006FF00200186020688368C3F3D0
:100E80004243072B05D1A84208D1096811F4702FFD
:100E900004D0816841F480118160B9E7816841F430
:100EA000A001F9E700280140042401402DE9F047A2
:100EB000894604463B4900683B4F0E1D90468842D8
:100EC00001D0B84207D1306810F4702F03D001254B
:100ED0002846BDE8F08794F8240001280CD00120B2
:100EE00084F824002046FFF787FD05004FF000003E
:100EF00004D084F82400EBE70220EAE7A16A40F678
:100F00000162914341F48071A1622168B94218D114
:100F1000326812F4702F14D0A16A41F48011A162DA
:100F20003168490505D5A16A21F4005141F4805189
:100F3000A162A16AC9040AD5E16A21F00601E16251
:100F400006E0A26A22F48012A2624968E9E7E06240
:100F500084F82400216A15488862216A1448C8620E
:100F6000216A1448086321686FF002000860206855
:100F7000816841F480718160216843464A464C3162
:100F8000206A00F077F920688168C1F3424107299F
:100F9000816803D041F48011816099E741F4A00198
:100FA000FAE70000002401400028014085090008FC
:100FB000ED090008D30900082DE9F05FDFF8608231
:100FC0000446D8F80020DFF858B2954D944E944F5F
:100FD0000068DFF84C92DFF848A20BF1080B1C35D3
:100FE000303644374FF400614FF4004C4FF4002E7C
:100FF00009F158090AF16C0A584501D1082316E095
:10100000A84201D1802312E0B04201D10B460EE08C
:10101000B84201D163460AE0484501D1734606E073
:10102000504502D14FF4000301E04FF000631A4233
:1010300031D00268D24312072DD4026822F0080290
:1010400002602068584501D1082114E0A84201D16E
:10105000802110E0B0420ED0B84201D161460AE0D2
:10106000484501D1714606E0504502D14FF40001D8
:1010700001E04FF00061C8F80410606B40F001001F
:101080006063042084F82100002084F82000216B94
:1010900009B1204688476248D0F800C04FF480610B
:1010A00020680A010B044FF4802E584502D14FF0FE
:1010B000040816E0A84202D14FF0400811E0B04207
:1010C00001D188460DE0B84201D1904609E048457B
:1010D00001D1F04605E0504502D14FF4800800E010
:1010E00098461CEA080F33D0D0F800C06FEA0C0C09
:1010F0005FEA4C7C2CD4D0F800C05FEA8C6C05D43D
:10110000D0F800C02CF0040CC0F800C0206858458E
:1011100001D1042113E0A84201D140210FE0B042E7
:101120000DD0B84201D1114609E0484501D17146C0
:1011300005E0504502D14FF4800100E019463848DF
:101140004160112084F82100E16A09B120468847F6
:10115000334AD2F800C05B46206851154FF4005B5B
:101160004FF4003E984202D14FF0020817E0A84227
:1011700002D14FF0200812E0B04201D188460EE0C3
:10118000B84201D1D8460AE0484501D1F04606E010
:10119000504502D14FF4001801E04FF000781CEAEE
:1011A000080F3BD0D0F800C06FEA0C0C5FEA8C7CD3
:1011B00034D4D0F800C05FEA8C6C05D4D0F800C0FD
:1011C0002CF0020CC0F800C02068984201D1022126
:1011D00014E0A84201D1202110E0B0420ED0B84264
:1011E00001D159460AE0484501D1714606E0504513
:1011F00002D14FF4001101E04FF000715160606BBB
:101200006063012084F82100002084F82000A16A96
:10121000002903D02046BDE8F05F0847BDE8F09FF5
:101220000000024070B520B190F82110002411B1E7
:1012300003E0012070BD80F82040022180F82110D9
:1012400003681A6843F6F0718A43D0E9011529430F
:10125000D0E9035635432943456929438569294324
:10126000C5692943114319604463012180F82110A5
:10127000002070BD70B5044690F82000012823D0EE
:10128000012084F82000022084F8210020680568ED
:1012900025F001050560204601F06CFF206801681B
:1012A00041F0020101602068016841F00401016021
:1012B0002068016841F0080101602068016841F080
:1012C00001010160002070BD022070BD31B500F049
:1012D00045F9044600F042F90099001B8842F9D311
:1012E00038BD000010B50146B0F5007F23DA1D4877
:1012F0001D4C402926D00BDC102913D020291AD1EF
:1013000000F01EF90128208919D020F0020011E018
:10131000802910D100F014F9012820891ED020F076
:10132000080007E0102100F00BF90128208903D004
:1013300020F00100208110BD40F00100FAE740F0EC
:101340000200F7E7402100F0FBF80128208902D0D5
:1013500020F00400EEE740F00400EBE740F0080066
:10136000E8E700000008014008000020044910B52B
:101370000A68024202D00860FFF7B4FF10BD000007
:10138000140401402DE9F84FDFF890A100220AF182
:10139000040B144601274FF00F090BF1040E00BF98
:1013A0000B6807FA04F52B40AB4274D1DFF870C12B
:1013B0004E68A6EB0C0866452BD00DDC032E34D00E
:1013C00005DC36B3012E19D0022E2FD11BE0112ED1
:1013D00016D0122E2AD119E0B8F5881F19D006DCD4
:1013E000B8F5803F15D0B8F5801F1FD111E0B8F5D2
:1013F000001F0ED0B8F5041F18D10AE0CA6815E026
:10140000CA68121D12E0CA6808320FE0CA680C32BE
:101410000CE08A682AB1012A4FF0080203D0456126
:1014200004E0042202E0056100E00022FF2B01D865
:10143000064601E000F104064FEA840501D9A5F152
:101440002005D6F800C009FA05F82CEA080C02FAC3
:1014500005F54CEA050CC6F800C04D68ED0057D5FF
:10146000304DAE6946F00106AE61AD6924F0030669
:1014700005F0010500952C4D06EB050CDCF8085035
:10148000A6074FEA167809FA08F6B543274EB04288
:1014900002D1002610E03BE0254EB04201D10126EA
:1014A0000AE0244EB04201D1022605E0224EB042AD
:1014B00001D1032600E0042606FA08F62E43CCF8F4
:1014C00008604D68DAF80060ED03554601D51E430B
:1014D00000E09E432E604D68DBF80060AD035D4682
:1014E00001D51E4300E09E432E604D68DEF800608B
:1014F000ED02754601D51E4300E09E432E604D6807
:10150000AD020E4D2E6801D51E4300E09E432E60B5
:10151000641C102CFFF444AFBDE8F88F00040140B8
:1015200000001110001002400000014000080140BE
:10153000000C014000100140001401400C04014067
:101540008068084000D001207047C2684A40C260ED
:1015500070470AB1016170470904FBE70148006860
:10156000704700007400002070B5040004D094F8A7
:101570003500002510B106E0012070BD84F834501C
:10158000204600F06BFA242084F8350020680168BA
:1015900021F00101016000F093FC01462848226817
:1015A000B1FBF0F05060274A6368934206D94FF4CC
:1015B000967358434FF47A73B0FBF3F02368401CE2
:1015C00018626068904208D84000B1FBF0F0C0F3A8
:1015D0000B01042916D2042014E0A26852B100EBDA
:1015E000C00202EB0010B1FBF0F040F440400105F6
:1015F00007D007E000EB4000B1FBF0F040F4004002
:10160000F5E701202168C861D4E907010843216892
:101610000860D4E90310084321688860D4E9050113
:1016200008432168C8602068016841F00101016039
:10163000A563202084F8350084F83650002070BD62
:1016400040420F00A08601002DE9FF4F044690F8AC
:10165000350081B099468B460125202873D142F28E
:10166000107301224849204602F051FA00286AD13D
:1016700094F83400012866D0012084F834002068F2
:10168000016821F400610160242084F835000026FF
:10169000A66320272068016841F4807101604B46F1
:1016A00000224FF00111204602F031FA00285CD1EF
:1016B00021680BF0FE000861FFF750FF21688046AB
:1016C00048694969C0F3400094F83520C1F380218E
:1016D0004FF0A00A14E000BFB9F1000F05D0FFF7EA
:1016E0003DFFA0EB0801494501D984F835A02168E8
:1016F00048694969C0F3400094F83520C1F380215E
:10170000084301D1A02AE7D184F8357020684169E7
:10171000C943890718D4016841F400710160206849
:1017200041698069009042F21073012216492046F7
:1017300002F0EDF9C8B984F8357084F834600020FF
:1017400005B0BDE8F08F1DE0016841F40071016053
:101750002068416921F48061416142F210730122E5
:101760000949204602F0D3F908B10320E8E72846EA
:1017700003996D1C88428DD384F8357084F83460E9
:101780000120DDE70220DBE7020010002DE9F84F21
:1017900004460AA8984690E8600294F835009246FC
:1017A0008B4620287BD1002D61D0002E5FD042F2E5
:1017B000107301226949204602F0A9F90028F1D1ED
:1017C00094F8340001286AD0012084F8340020689D
:1017D000016821F400610160222084F83500402076
:1017E00084F836000027A7634346524659462046F0
:1017F000CDF8009002F0A2F828B1A06B84F8347004
:10180000042834D072E0012E1AD02068DFF850810D
:10181000022E01682ED041F4806101602068416988
:1018200080690090032E74D8012E18D0022E2ED07D
:101830004B4600224146204602F069F980BB42E057
:101840002068016821F48061016072B620684169F6
:1018500081690091016841F40071016062B64946F6
:10186000204602F041FAE0B1A06B20283ED00120D2
:10187000BDE8F88F41F40061016072B620684169EB
:1018800081690091016821F48061016062B64B4674
:1018900000224146204602F03AF908B905E05AE034
:1018A00024E02068006928704CE072B62068016866
:1018B00041F40071016020680069287062B62068F8
:1018C000006968703EE02068016821F48061016071
:1018D00072B62068006905F8010B761EB6B24B4659
:1018E00000224146204602F012F908B10320BFE76A
:1018F0002068016841F4007101602068006905F802
:10190000010B62B62068006905F8010BB61E15E0F0
:10191000FFE74946204602F0E7F90028A4D12068F5
:10192000006905F8010B2068761EB6B24169C9430B
:10193000490704D4006905F8010B761EB6B2002EE3
:101940007FF470AF202084F8350084F8367084F876
:10195000347000208CE702208AE7000002001000AB
:10196000040001002DE9F84F0446DDE90A6590F80E
:101970003500DDF83080994692468B46202868D1A4
:10198000002E64D0002D62D042F210730122324941
:10199000204602F0BCF8E8BB94F83400012858D087
:1019A000012084F834002068016821F4006101609E
:1019B000212084F83500402084F836000027A763F2
:1019C0004B46524659462046CDF8008002F03EF87C
:1019D00028B1A06B84F83470042838D007E0414661
:1019E000204602F059F928B1A06B04282AD0032020
:1019F000BDE8F88F216816F8010B086120686D1E9C
:101A0000ADB24169C943490707D445B116F8011B76
:101A1000016100E01DE06D1EADB2002DDFD1414639
:101A2000204602F039F90028DED154F8350B016860
:101A300041F400710160202004F81E09E777677700
:101A40000020D5E72068016841F4007101600120A1
:101A5000CEE70220CCE700000200100000B50068CD
:101A60000D4985B0884215D1012002904FF44060A5
:101A70000090122001900320039069460748FFF769
:101A800081FC0748C16941F48001C161C06900F46B
:101A90008000049005B000BD00580040000C0140DB
:101AA0000010024002480168491C016070470000B4
:101AB00074000020074810B5016841F01001016072
:101AC000032000F08BF8002000F006F800F016F874
:101AD000002010BD0020024010B5044600F0EAF9D5
:101AE0004FF47A71B0FBF1F000F0DCFE00222146E9
:101AF000501E00F053F8002010BD00001F4808B52C
:101B0000816941F001018161806900F0010000906C
:101B1000032000F063F8002211466FF00B0000F084
:101B20003DF8002211466FF00A0000F037F800225D
:101B300011466FF0090000F031F800221146501FE5
:101B400000F02CF800221146101F00F027F80022A8
:101B50001146901E00F022F800221146501E00F09F
:101B60001DF80748416821F0E06141F08061416063
:101B7000416821F0E061416008BD000000100240B2
:101B80000000014000F01F02012191404009800047
:101B900000F1E020C0F8001170470000F0B40E4BD7
:101BA0001B680C46C3F30223C3F10705042D00D9BB
:101BB0000425191D072901D2002300E0DB1E0126A0
:101BC00006FA05F1491E214099409E40761E1640B6
:101BD0003143F0BC01F060BC0CED00E0064900F0C0
:101BE000070208684FF6FF03184040EA0220034A44
:101BF00010430860704700000CED00E00000FA059B
:101C00002DE9F84305460078454CC00774D0E069DB
:101C100040F08050E061E069424E00F0805000905A
:101C2000306840F480703060FFF798FC074604E0AD
:101C3000FFF794FCC01B642833D83068C005F7D583
:101C4000206A10F4407051D0A98801F4407181429B
:101C50004CD0206A0126310491FAA1F2B2FA82F244
:101C60009300314A20F440701344C3F8006491FAA1
:101C7000A1F1B1FA81F102EB81010023C1F8003436
:101C80002062C00732D0FFF769FC074641F288396D
:101C90004FF0020808E000BFFFF760FCC11B494598
:101CA00002D90320BDE8F88398FAA8F1B1FA81F1CE
:101CB00041F040014046B6EB511F01D121680BE0D5
:101CC00090FAA0F1B1FA81F141F04001B0EB511F5F
:101CD00001D1216A00E0616A98FAA8F0B0FA80F0B8
:101CE00000F01F0206FA02F00142D5D0206A6968AE
:101CF00020F44070084320622878800705D560688A
:101D0000A96820F44040084360602878C00605D5E3
:101D10006068E96820F48000084360600020C1E743
:101D20000010024000700040000042422DE9F047E0
:101D3000DFF8708105460E46D8F8000000F0070075
:101D4000B0420CD2D8F8001021F007013143C8F896
:101D50000010D8F8000000F00700B04277D12878D2
:101D6000514C800705D56068A96820F0F000084351
:101D700060602878C00759D06968012001290DD01A
:101D8000022929D05FF0020393FAA3F2B2FA82F299
:101D900042F02002520904D0226803E04FF40033DD
:101DA000F2E7626A93FAA3F3B3FA83F303F01F0333
:101DB000984002424BD0606820F003000843606006
:101DC000FFF7CCFB6968074641F2883001290DD046
:101DD0000229814617D025E04FF00073D4E700BFF9
:101DE000FFF7BCFBC11B494501D918E0814660687B
:101DF000C0F381000128F3D118E000BFFFF7AEFB6C
:101E0000C11B49450BD86068C0F381000228F5D199
:101E10000CE000BFFFF7A2FBC11B494502D903201C
:101E2000BDE8F087606810F00C0FF3D1D8F800100F
:101E3000404601F00701B1420BD9016821F00701CA
:101E400031430160006800F00700B04201D001207A
:101E5000E6E72878400705D56068E96820F4E06087
:101E6000084360602878000706D56068296920F477
:101E7000605040EAC100606000F03AF86168F0220A
:101E800092FAA2F201F0F001B2FA82F2D140074ACE
:101E9000515CC840064908600020FFF71DFE002085
:101EA000BEE700000020024000100240B8510008C8
:101EB000000000200148006870470000000000207A
:101EC00008480949006849684FF4E06292FAA2F2B2
:101ED00001F4E061B2FA82F2D140044A515CC84098
:101EE000704700000000002000100240C8510008A8
:101EF00010B519A385B00FCB8DE80F001AA01B4BAE
:101F0000006804905A681A4812F00C011FD0042986
:101F10001DD008291BD14FF4701494FAA4F402F4D4
:101F20007011B4FA84F4E140D2031DF8011010D509
:101F30005A684FF4003393FAA3F302F40032B3FA71
:101F400083F3DA4004AB9A5CB0FBF2F0484305B08F
:101F500010BD08484843FAE70203040506070809CC
:101F60000A0B0C0D0E0F10100102000000100240B1
:101F700000127A0000093D002DE9F84F0446007870
:101F8000F74DC0074FF0010625D068687704C0F30D
:101F90008100012807D06868C0F3810002281BD1A6
:101FA0006868C00318D597FAA7F0B0FA80F040F03F
:101FB0002000400901D0286800E0686A97FAA7F17C
:101FC000B1FA81F101F01F0106FA01F108425ED079
:101FD000606800287CD05AE06068B0F5803F0BD084
:101FE00010B1B0F5A02F11D0286820F480302860FF
:101FF000286820F4802002E0286840F480302860BF
:10200000606828B3FFF7AAFA80460BE0286840F41E
:1020100080202860F0E700BFFFF7A0FAA0EB0800DF
:10202000642871D897FAA7F0B0FA80F040F0200049
:10203000400901D0286800E0686A97FAA7F1B1FA70
:1020400081F101F01F0106FA01F10842E4D01EE01F
:10205000FFF784FA804605E0FFF780FAA0EB08005E
:102060006428DED897FAA7F0B0FA80F040F020009C
:10207000400901D0286800E0686A97FAA7F1B1FA30
:1020800081F101F01F0106FA01F10842E4D1207844
:10209000DFF8D08280074FF000094FF002075BD5D0
:1020A00068684FF0F80B10F00C0F07D06868C0F3A9
:1020B000810002281CD16868C00319D497FAA7F0E0
:1020C000B0FA80F040F02000400902D0286801E01A
:1020D0008BE0686A97FAA7F1B1FA81F101F01F016C
:1020E00006FA01F108422CD0206901287DD128E0B0
:1020F000206990B396FAA6F0B0FA80F048F8206014
:10210000FFF72CFA824607E011E100BFFFF726FA3D
:10211000A0EB0A00022884D897FAA7F0B0FA80F062
:1021200040F02000400901D0286800E0686A97FA72
:10213000A7F1B1FA81F101F01F0106FA01F108429D
:10214000E4D028689BFAABF26169B2FA82F220F01F
:10215000F80091400843286025E0FFE796FAA6F1D1
:10216000B1FA81F148F82190FFF7F8F9824605E0CD
:10217000FFF7F4F9A0EB0A000228CCD897FAA7F0F1
:10218000B0FA80F040F02000400901D0286800E05B
:10219000686A97FAA7F1B1FA81F101F01F0106FA16
:1021A00001F10842E4D1207800076ED5A069B8B3E8
:1021B00096FAA6F0B0FA80F008EB8000C0F88064D0
:1021C000FFF7CCF9824605E0FFF7C8F9A0EB0A005B
:1021D0000228A0D897FAA7F0B0FA80F040F060008B
:1021E000B6EB501F02D128680CE062E197FAA7F025
:1021F000B0FA80F040F06000B7EB501F01D1286AC0
:1022000000E0686A97FAA7F1B1FA81F101F01F01C5
:1022100006FA01F21042D7D00120FFF757F834E058
:10222000FFE796FAA6F1B1FA81F108EB8101C1F856
:102230008094FFF793F9824606E000BFFFF78EF91E
:10224000A0EB0A00022872D897FAA7F0B0FA80F043
:1022500040F06000B6EB501F01D128680BE097FA00
:10226000A7F0B0FA80F040F06000B7EB501F01D14A
:10227000286A00E0686A97FAA7F1B1FA81F101F0E3
:102280001F0106FA01F21042D8D12078400765D527
:10229000E86940F08050E861E869DFF8CCB000F010
:1022A00080500090DBF8001041F48071CBF80010F2
:1022B000FFF754F9824605E0FFF750F9A0EB0A005A
:1022C000642834D8DBF80000C005F5D5E0680128A3
:1022D0000AD008B1052813D0286A20F0010028622E
:1022E000286A20F0040002E0286A40F00100286219
:1022F000E06841F2883B90B3FFF730F982460BE08B
:10230000286A40F004002862EEE700BFFFF726F9D4
:10231000A0EB0A0159450AD897FAA7F0B0FA80F065
:1023200040F04000B6EB501F02D128680CE0A3E05B
:1023300097FAA7F0B0FA80F040F04000B7EB501FDA
:1023400001D1286A00E0686A97FAA7F1B1FA81F131
:1023500001F01F0206FA02F10842D7D031E005E091
:10236000001002400000424200700040FFF7F6F803
:10237000824605E0FFF7F2F8A0EB0A0159457BD849
:1023800097FAA7F0B0FA80F040F04000B6EB501F8B
:1023900001D128680BE097FAA7F0B0FA80F040F07E
:1023A0004000B7EB501F01D1286A00E0686A97FA35
:1023B000A7F1B1FA81F101F01F0206FA02F1084219
:1023C000D8D1E06980B36968C1F38101022970D076
:1023D0004FF080714F000228484609D091FAA1F1D0
:1023E000B1FA81F148F82100FFF7B8F8044669E036
:1023F0008A4691FAA1F1B1FA81F1C14648F821006B
:10240000FFF7ACF8804605E0FFF7A8F8A0EB08005E
:10241000022854D897FAA7F0B0FA80F040F02000D4
:10242000400902D0286801E061E0686A97FAA7F1E4
:10243000B1FA81F101F01F0106FA01F10842E3D17E
:10244000206AB0F5803F05D16868A16820F40030AB
:1024500008436860D4E908010843696821F47411ED
:10246000084368609AFAAAF0B0FA80F049F8206050
:10247000FFF774F8044606E021E000BFFFF76EF8AE
:10248000001B02281BD897FAA7F0B0FA80F040F0A2
:102490002000400901D0286800E0686A97FAA7F197
:1024A000B1FA81F101F01F0106FA01F10842E5D00D
:1024B0001DE01EE0FFF752F8001B022802D903209E
:1024C000BDE8F88F97FAA7F0B0FA80F040F020004E
:1024D000400901D0286800E0686A97FAA7F1B1FACC
:1024E00081F101F01F0106FA01F10842E2D100205A
:1024F000E6E70120E4E7000010B5040003D094F8FB
:10250000510010B104E0012010BD204600F038F861
:10251000022084F851002068016821F04001016028
:10252000D4E901010843D4E9031211430843616966
:102530000843218B01F400710843E1690843216AD3
:102540000843A16A084321680860A069042101EAE0
:102550001040616A0843216848602168E06A0861A8
:102560002068C16921F40061C1610449002008703C
:102570006065012084F85100002010BD7800002023
:1025800010B50068124986B088421ED11148C16951
:1025900041F48041C161C0690F4C00F48040049057
:1025A0004FF42040009002200190032003906946E0
:1025B0002046FEF7E7FE00214FF48040CDE9000100
:1025C000029169462046FEF7DDFE06B010BD000010
:1025D0000038004000100240000C01402DE9F84393
:1025E0000025DDF820800446ADF8005090F8510039
:1025F000012803D094F8510022287DD169B162B13D
:102600005BB194F85000012876D0012684F8506020
:1026100094F85100012803D005E00120BDE8F883BB
:10262000322084F851006565A263A387E3872163A4
:10263000A386E386A564E564A06A4FF40057B84218
:1026400009D12068016821F4005101602068016807
:1026500041F40051016020680168490603D4016813
:1026600041F040010160E0684FF48271B0F5006F05
:10267000606807D0002867D088426ED1E08E0128BC
:1026800062D06AE020B188420CD1E08E012809D1E5
:10269000206B21680088C860206B801C2063E08E5E
:1026A000401EE086E08E80B9A06AB84244D120681E
:1026B000016841F4805101603EE02068C068A16B70
:1026C0000880A06B801CA0639EE04346002202218C
:1026D000204601F061FA002874D1206B216800883F
:1026E000C860206B801C2063E08E401E0004000C3C
:1026F000E08609D1A06A00E0C5E0B84204D12068B4
:10270000016841F4805101604346002201212046C6
:1027100001F042FA00286FD12068C068A16B0880E0
:10272000A06B801CA063E08F401EE087E08E002835
:10273000CBD1606800286AD143460022012120469F
:1027400001F02AFAF0BBB8E7206B411C2163216835
:102750000078C860E08E401EE086E08E98B9A06ADE
:10276000B84204D12068016841F4805101604346B9
:1027700000220121204601F00FFA18BB2068C06832
:10278000A16B087040E0434600220221204601F080
:1027900003FAB8B9206B411C216321680078C86036
:1027A000E08E401E0004000CE08607D1A06AB8420B
:1027B00004D12068016841F4805101600022434641
:1027C000012100E018E0204601F0E6F9A0B92068F8
:1027D000C168A06B421CA2630170E08F401EE087BD
:1027E000E08E0028CFD1606888B9434600220121DD
:1027F000204601F0D1F908B103200FE72068C16835
:10280000A06B421CA2630170E08F401EE087A06AAB
:10281000B8420ED1434600220121204601F0BCF906
:1028200018B1606D40F002000DE02068C068ADF89E
:102830000000434601228021204601F0ADF920B17D
:10284000606D40F010006065D6E784F85160A06AC2
:10285000B84214D120688168C943C9060FD4616D9C
:1028600041F002016165016821F4005101602068B6
:10287000016841F40051016084F85050CDE684F8BD
:1028800050500020CAE60220C8E64FF0E02104289C
:10289000086903D020F004000861704740F004008C
:1028A000FAE7704710B5401EB0F1807F01D30120D8
:1028B00010BD4FF0E02460610F21601700F0ECFDC7
:1028C0000020A06107202061002010BD10B5FFF797
:1028D000E8FF10BDFEE7FEE770470021C1700A4621
:1028E000435C491C5A402029FAD3C270704710B586
:1028F000FFF7D8F8BDE81040FFF7E8BF0D480168C2
:1029000041F00101016041680B4A114041600168DA
:102910000A4A11400160016821F480210160416888
:1029200021F4FE0141604FF41F0181600449C0039E
:1029300008607047001002400000FFF8FFFFF6FE3D
:1029400008ED00E0FEE7000070B50E4605460024E5
:1029500006E000BF01F064FB3046FEF7B7FC641CE4
:10296000AC42F7DB70BD0021AFF3008070B50546C7
:10297000044639B910E000BF01F052FB281B641E69
:10298000FEF7A4FC002CF7DC70BD00BF01F048FB93
:102990002046641EFEF79AFC002CF7DC70BD000098
:1029A000012280210148FEF7D4BD0000000C014047
:1029B00010B5002240210448FEF7CBFD0A20BDE8F7
:1029C0001040002100F09ABC000C014010B5B62266
:1029D0001421182001F024F84FF47A70FEF776FCE9
:1029E0002D4C0F21A07800F00F02182001F018F8EC
:1029F000E078102100F00F02182001F011F80022F9
:102A00001321182001F00CF86420FEF75FFC8022EF
:102A10003621182001F004F820223721182000F078
:102A2000FFFF6420FEF752FC22780F21682000F09F
:102A3000F7FF62781021682000F0F2FF6420FEF7B3
:102A400045FC82224B21102000F0EAFF6420FEF7B3
:102A50003DFC01224B21102000F0E2FF6420FEF734
:102A600035FC20794C21C006020E102000F0D8FF62
:102A70006420FEF72BFC01225121102000F0D0FF32
:102A800002225221102000F0CBFF6420FEF71EFC32
:102A9000BDE8104000F002B85200002038B5294AC5
:102AA0005D21182000F02AFD264A6421921C18207E
:102AB00000F024FD234A5E21521C182000F01EFD68
:102AC000204A6521D21C182000F018FD1D4A7121F2
:102AD000121D182000F012FD1A4A7021521D1820F4
:102AE00000F00CFD02236A466A21102000F0E2FA91
:102AF000144CBDF80000641F022320836A4668213D
:102B0000102000F0D7FABDF80000608302236A4667
:102B10006E21102000F0CEFABDF80000A083022341
:102B20006A466221102000F0C5FABDF80000E0837B
:102B300002236A466C21102000F0BCFABDF80000A8
:102B4000208438BD57000020012240210148FEF7B3
:102B500000BD0000000C014070B50C460546FFF7B3
:102B600027FF04F01F01284600F059FAFF212846EC
:102B700000F042FA0446FFF7E7FF204670BD2DE95A
:102B8000F041002516460C4607460A2901D20120CD
:102B900000E000200EB1012100E0002108430FD029
:102BA000FFF706FF04F01F0040F02001384600F058
:102BB00023FA05463146384600F031FAFFF7C4FFE4
:102BC0002846BDE8F08138B501F020F9182000F062
:102BD0001FFDC8B1682000F01BFDA8B1102000F057
:102BE00017FD88B100248DF800406A462146182060
:102BF00000F084FC9DF800004FF4FA75FA2805D027
:102C000029460A20FFF7A0FE002038BD8DF80040BD
:102C10006A460021682000F071FC9DF800000F2832
:102C2000EED18DF8004001224B21102000F0F8FE7B
:102C30006420FEF74BFB6A464021102000F05EFC4A
:102C40009DF800003228DBD1012038BD10B50022EC
:102C50002D21532000F0E4FE6420FEF737FB08220C
:102C60002D21532000F0DCFE0E4C3121207840F065
:102C70000402532000F0D4FE62782C21532000F08F
:102C8000CFFE00222F21532000F0CAFE00222E2169
:102C9000532000F0C5FE00223821BDE8104053202B
:102CA00000F0BEBE4C00002010B581223E216820FD
:102CB00000F0B6FE01221521682000F0B1FE1922B5
:102CC0001621682000F0ACFE00221721BDE810405C
:102CD000682000F0A5BE000010B5FFF774FF1C4C83
:102CE000207118B1FFF772FE2079D0B900F0AAF96F
:102CF000207008B1FFF7AAFF00F088FAA07008B1B1
:102D000000F0EAF900F0ADFA607018B100F0FCF9DB
:102D1000607810B900F0AFF9E070E07808B1FFF723
:102D2000C3FF01F039F901F047F901F05BF960697F
:102D300010F0FF4F09D0E06810F0FF4F05D0206978
:102D400010F0FF4F01D0012010BD002010BD000089
:102D5000080000200749024600200B7913B11046F5
:102D600000F06EBC8978002902D0104600F0C9BB83
:102D700070470000080000203EB51848164901259C
:102D800001608915C0E902150021416103244FF457
:102D900060220461C2614160FDF752FFC0B90520A5
:102DA0000095CDE9015069460C48FDF791FE78B9D0
:102DB00002200090019069460848FDF789FE38B965
:102DC0000094694605480194FDF782FE002801D071
:102DD00000F0E0F93EBD0000002401402401002085
:102DE0002DE9F0434F4885B0816941F010018161C0
:102DF000816901F010010491816941F02001816134
:102E0000816901F020010491816941F0040181612F
:102E1000816901F004010491816941F00801816137
:102E20008069414D00F008004FF4005404900022E6
:102E300021462846FEF78DFBDFF8F09001224FF483
:102E400082514846FEF785FB002280214846FEF766
:102E500080FB1120CDE900400324694628460394F5
:102E6000FEF790FAA003CDE9000469462846FEF774
:102E700089FA4CF20100CDE90004DFF8B48069461C
:102E80004046FEF77FFAF0202A4E02278DE8C10067
:102E900069464046FEF776FA3F20CDE900046946D0
:102EA0004846FEF76FFAA8140125CDE900056946EA
:102EB00048460395FEF766FA4FF47C50CDE90006CC
:102EC000694602954046FEF75DFAC020CDE900054F
:102ED000694603944846FEF755FA20020090002008
:102EE000CDE9010769464846FEF74CFA0022114633
:102EF0000A20FEF753FE0A20FEF744FE0022114688
:102F00001720FEF74BFE1720FEF73CFE002211466D
:102F10002820FEF743FE2820FEF734FE05B0BDE86A
:102F2000F08300000010024000100140000C01403E
:102F300000080140000031100C4810B50A4901603A
:102F40000B49416000214FF480428160C0E90312C7
:102F500041618161C1610162FEF706FB002801D079
:102F600000F018F910BD0000005800405401002086
:102F7000801A06000F4810B50D4901604FF48271A8
:102F8000416000218160C1604FF400720161C0E9BD
:102F900005120822C0E90721416281620A21C1624B
:102FA000FFF7AAFA002801D000F0F4F810BD0000E5
:102FB00000380040900100200A460721FFF7DFBDDE
:102FC0002DE9F0410746107815460E46002480B1E1
:102FD000FFF7EEFC46F02001384600F020F8295DAE
:102FE000384600F01CF8641CE4B2052CF7D1FFF75A
:102FF000ABFD2046BDE8F08103B583B0FF218DF81D
:10300000041064210091012301AA04A9FFF7E6FA44
:1030100010B1FF2005B000BD9DF80400FAE703B52C
:1030200083B000218DF8041064210091012301AACE
:1030300004A9FFF7D3FA10B1002005B000BD9DF838
:103040000400FAE708B500F0E1FE532000F0E0FAD2
:1030500068B16A460021532000F050FA9DF8000044
:10306000E52806D04FF4FA710A20FFF76DFC002026
:1030700008BD012008BD08B500F0C8FE682000F0BA
:10308000C7FA90B100208DF8000001466A4668201A
:1030900000F034FA9DF80000C0F34500342806D053
:1030A0004FF4FA710A20FFF74FFC002008BD012001
:1030B00008BD00003EB564248DE81C0040000A46AF
:1030C000014601230348FEF761FB08B100203EBD25
:1030D00001203EBD540100200A4810B500780021AF
:1030E0008006020E1E2000F09BFC002201211E2003
:1030F00000F096FC80220221BDE810401E2000F066
:103100008FBC00005000002010B50E4C0F216078DD
:1031100041EA0010C2B22021692000F081FC08229F
:103120002221692000F07CFC207823210007020E78
:10313000692000F075FC00222E21BDE810406920B6
:1031400000F06EBC4E0000200949024600200B79B9
:1031500013B1104600F021BB4B7813B1104600F0BC
:10316000F2B9C978002902D0104600F07FB9704743
:103170000800002010B5046863604368102B0368E2
:1031800003D099600068C26010BD9A600068C16099
:1031900010BD000000215020FFF7E8FB00F036FED4
:1031A000BFF34F8F05480168054A01F4E061114300
:1031B0000160BFF34F8F00BFFDE700000CED00E0A2
:1031C0000400FA052DE9F041FEF7C8F905464FF075
:1031D000E02000248069482223462146FCF7A2FF14
:1031E0004FF47A73A5FB036704FB0373002205FB0E
:1031F0000232301A62EB01024FF47A71401842F148
:103200000001BDE8F0811721FFF7A6BC0EB500F064
:10321000FDFD1E2000F0FCF9F8B16A460A211E20CF
:1032200000F06CF901AA0B211E2000F067F902AA38
:103230000C211E2000F062F99DF80000482807D1FB
:103240009DF80400342803D19DF80800332806D0E7
:103250004FF4FA710A20FFF777FB00200EBD012022
:103260000EBD08B500F0D2FD692000F0D1F980B1A3
:1032700000208DF800006A460F21692000F03EF919
:103280009DF80000D32806D04FF4FA710A20FFF70A
:103290005BFB002008BD012008BD00000B48007842
:1032A00038B1012808D0022809D003280AD000200C
:1032B00070474FF0625070474FF0645070474FF0C6
:1032C000665070474FF06850704700004C00002077
:1032D0000048704735788E3D0749024600200B793B
:1032E00013B1104600F00ABB0978002902D010463D
:1032F00000F09AB870470000080000202DE9F04166
:1033000006460F46FFF75EFF04460D46FFF75AFFDD
:10331000001B61EB0501801BB941F7D3BDE8F081CB
:1033200070B50D4606460021FFF716FC0446C0079F
:1033300001D0204670BD00F07BFE44F00102002168
:103340003046FFF71CFC04462DB12A4610213046BA
:10335000FFF736FE0446FFF723FB0120FDF7B6FF1B
:10336000E7E7000070B514460D46064600F060FE23
:10337000FFF71EFBA0213046FFF751FE07E000BF1C
:1033800015F8011B3046FFF74AFE641EE4B2002C1C
:10339000F6D1FFF7D9FBFFF703FB002070BD00005B
:1033A0000048704748E13A3F0948007838B10128A1
:1033B00007D0022807D0032807D00020704705480F
:1033C000704705487047054870470548704700003A
:1033D0004E0000200000FA3B00007A3C0000FA3C5E
:1033E00000007A3D70B50C4606460021FFF7B4FB9D
:1033F000054600F01DFE25F0010200213046FFF7D2
:10340000BEFB05462CB1224610213046FFF7D8FD01
:103410000546FFF7C5FA0120FDF758FF284670BDA5
:10342000004870470000203F3EB5044600208DF85C
:10343000080002AA3021532000F060F8A0B19DF8E6
:103440000800000610D506236A4632215320FFF7F4
:1034500031FEBDF800002080BDF802006080BDF89C
:103460000400A08001203EBD00203EBD1CB50446E6
:1034700008236A461B216820FFF71CFEBDF80200E6
:1034800040BA2080BDF8040040BA6080BDF8060054
:1034900040BAA08001201CBD0907090E002806DAE9
:1034A00000F00F0000F1E02080F8141D704700F1DB
:1034B000E02080F8001470470A48007805280ED2F2
:1034C000DFE800F00B0907050300074870470748CD
:1034D0007047074870470748704707487047002003
:1034E000704700005200002071BD793B00C0F93BDD
:1034F00000C0793C00C0F93C00C0793D0123FFF7D2
:10350000D9BD3EB5044600208DF8080002AA092165
:103510001E20FFF7F3FF9DF80810084012D0062385
:103520006A4603211E20FFF7C5FDBDF8000040BA22
:103530002080BDF8040040BA6080BDF8020040BAA7
:10354000A08001203EBD3EB5044600208DF8080055
:1035500002AA27216920FFF7D1FFC0B19DF808001A
:10356000000614D506236A46A8216920FFF7A2FDAC
:10357000BDF8000020809DF801009DF8031040EA8E
:1035800001206080BDF80400A08001203EBD002025
:103590003EBD70B514460D460646FFF709FA612197
:1035A0003046FFF729FD07E0FF213046FFF724FDF5
:1035B000641E05F8010BE4B2002CF5D1FFF7C4FA44
:1035C00017213046FFF7C8FA10F0010403D040215C
:1035D0003046FFF7F1FC204670BD00000B488078B4
:1035E000032807D0052808D0082809D00C280AD0BD
:1035F000002070474FF06A5070474FF06C50704792
:103600004FF06E5070474FF07050704752000020DE
:1036100010B504461E20FFF7A6F961004FF47A7337
:1036200005220648FEF710F808B1002010BD00F092
:10363000E5FBFA20FDF74AFE012010BD54010020F1
:103640002DE9FC41044608236A4642211020FFF779
:1036500031FD9DF80600C00762D0BDF90210BDF92A
:103660000000CF10BDF90410C0104E10BDF80610B8
:103670008D08294600F0A6F84042208029463846A9
:1036800000F0D2F8404260802946304600F0FEF853
:10369000404201B22348A180B4F90020B0F90C30B7
:1036A0009A4200DD8281B4F90020B0F90E309A42CE
:1036B00000DAC281B0F90C20B0F90E301A44238828
:1036C00002EBD272A3EB62022280B4F90220B0F9BD
:1036D00010309A4200DD0282B0F912309A4200DACC
:1036E0004282B0F91030B0F912502B4403EBD3737F
:1036F000A2EB63026280B0F91420914200DD818266
:10370000B0F91620914200DAC182B0F91420B0F964
:103710001600104400EBD070A1EB6000A0800120E7
:10372000BDE8FC815200002030B593B0012000902C
:1037300000040025CDE901050224CDE907404FF43E
:10374000E01009906846FEF717FC90B90AA90F200F
:1037500081E831006002CDE90D0502210AA8FEF7DB
:10376000E5FA30B9A00311900F940FA8FEF748FABC
:1037700008B1FFF70FFDFEF79DFB4FF47A71B0FB28
:10378000F1F0FFF78FF80420FFF77FF800221146D1
:10379000501EFEF703FA13B030BD1CB504460623D5
:1037A0006A4602216820FFF785FCBDF80000404210
:1037B0006080BDF802002080BDF80400A0800120D8
:1037C0001CBD0000034610B5154813F5805F25D0D9
:1037D000002923D0134A148C002C1FD0A003B0FB67
:1037E000F1F0A0F5804000B200FB00F192F90A4030
:1037F000C9116143547AE40100FB04104FF48011B5
:1038000001EB602092F90710A031484300135843A0
:1038100092F90510401300EBC10000B210BD00008A
:103820000080FFFF52000020034610B5154813F535
:10383000805F25D0002923D0134A148C002C1FD080
:10384000A003B0FBF1F0A0F5804000B200FB00F156
:1038500092F90A40C9116143547AE40100FB041053
:103860004FF4801101EB602092F90810A031484319
:103870000013584392F90610401300EBC10000B248
:1038800010BD00000080FFFF52000020F0B503468D
:10389000184813F5804F2AD0174AB2F91A50002D54
:1038A00027D0148B002C24D0002922D0168C002E77
:1038B0001FD009B236B2B2F91E708E1BB2F91C20AD
:1038C0004900DB1B6143DB03564301F50041A3EBD9
:1038D000A60205EB214192FBF1F3B3F5004F01DBAA
:1038E000430C05E0834203DC024B5B1C00E0034613
:1038F00018B2F0BD0080FFFF520000201CB5044646
:1039000006236A4602211820FFF7D4FBBDF9000008
:10391000C11700EB5170C01040426080BDF9020039
:10392000C11700EB5170C0102080BDF90400C11711
:1039300000EB5170C010A08001201CBD2DE9F84F94
:10394000044600680F46DDF828B001689846164620
:1039500041F4806101602068016841F48071016078
:103960004FF001195B4600224946204600F0CFF88F
:10397000F0BB216807F0FE00086109F1010A5A4610
:103980005146204600F0E3F918B1A06B042811D08D
:1039900036E020684169806900905946204600F071
:1039A0007BF950B1A06B04282AD12068016841F44A
:1039B000007101600120BDE8F88FF5B2B8F1010F88
:1039C00008D02168300A08615946204600F064F9A1
:1039D0000028E7D1206805615946204600F05CF9CF
:1039E0000028DFD12068016841F48071016000E0A7
:1039F00006E05B4600224946204600F088F808B100
:103A00000320D8E72168F8B240F0010008615A4667
:103A10005146204600F09BF90028B6D1CBE70000C4
:103A200017B583B06424012305AA8DE81C0040006B
:103A30000A4601460448FDF795FF10B1002006B084
:103A400010BD0120FBE70000540100202DE9F843E0
:103A5000044600680E46DDF8208001681F461546C2
:103A600041F480710160434600224FF0011120466D
:103A700000F04DF8D8B9216806F0FE000861424612
:103A80001749204600F063F928B1A06B04280ED135
:103A90000120BDE8F88320684169806900904146B3
:103AA000204600F0F9F820B1A06B042811D00320C3
:103AB000EFE7EEB2012F08D02168280A08614146DD
:103AC000204600F0E9F80028EED1206806610020C9
:103AD000DFE72068016841F400710160D8E7000069
:103AE0000200010001684A69D24352050DD44A69B7
:103AF00022F480624A6104218163202180F835101C
:103B0000002180F8341001207047002070472DE913
:103B1000F05F1E4690460C460546FDF71FFD8146A8
:103B20004FF0000A4FF0200BC4F30747B8F1000F25
:103B300009D024E0701C06D0D6B1FDF70FFDA0EB34
:103B40000900B04214D82868012F06D0806924EA01
:103B500000000004000C1BD0ECE74069F7E7701C84
:103B60000DD02EB1FDF7FAFCA0EB0900B04206D94A
:103B700085F835B085F834A00320BDE8F09F2868AB
:103B8000012F07D0806924EA00000004000CE6D071
:103B90000020F2E74069F6E72DE9F0471D46904620
:103BA0000E460446FDF7DAFC07465FEA08004FF0D0
:103BB00000084FF4005A4FF0010926D034E0681C89
:103BC00023D025B1FDF7CAFCC01BA8421DD920682F
:103BD000416821F0E00141602068016821F0400166
:103BE0000160A06A504509D12068016821F40051A4
:103BF00001602068016841F40051016084F851902F
:103C000084F850800320BDE8F0872068806836EA99
:103C10000000D4D10DE0681C06D0002DD7D0FDF7F0
:103C20009DFCC01BA842D2D82068806836EA0000FC
:103C3000F1D00020E7E70000F0B416480221082286
:103C400001707021417082700021C17001710123E7
:103C5000437103238371062303724272FA22C271F5
:103C600053220276452343764E2484764325C57637
:103C7000592606778272C3720473457386732022B5
:103C8000427780F8241080F82310F0BC0146C4303D
:103C900000F0C4B8CC00002070B50D460446FDF716
:103CA0005DFC064619E02046FFF71CFF08B1012025
:103CB00070BD681C11D025B1FDF750FC801BA842D7
:103CC0000BD954F8380F40F0200044F804092020A4
:103CD000607000202070032070BD20684069C043E0
:103CE0000006E0D4002070BD2DE9F041884604466E
:103CF000FDF734FC00250646202721E04169C94331
:103D0000C9060BD4416921F010014161A56384F813
:103D1000357084F834500120BDE8F081B8F1000F0F
:103D200004D0FDF71BFC811B414509D954F8380F1D
:103D300040F0200044F80409677025700320EBE789
:103D400020684169C9434906D8D40020E4E72DE939
:103D5000F04791460D460446FDF700FC82460027D9
:103D60004FF02008C5F3074629E020684069C043AA
:103D7000400512D42068016841F400710160206898
:103D8000416921F4806141610420A06384F8358099
:103D900084F834700120BDE8F087B9F1FF3F0ED000
:103DA000B9F1000F05D0FDF7D9FBA0EB0A01494599
:103DB00005D984F8358084F834700320EBE7206857
:103DC000012E06D0806925EA00000004000CE2D034
:103DD000CBE74069F7E7000070B50546FDF7BEFB8D
:103DE000054E04463068201AA84202D300F018F9A4
:103DF0003460012070BD00004800002000224FF414
:103E000000510148FDF7A5BB0010014001225103FC
:103E10000148FDF79EBB00000010014070B50C4644
:103E2000054600F005F962782078E1780243A07831
:103E30000843024300212846FEF7A1FE2279012112
:103E40002846FEF79CFE627902212846FEF797FE7F
:103E5000A27903212846FEF792FE94F8230094F8F5
:103E6000242000F00F0060F31F1204212846FEF703
:103E700086FEE079052100F07F022846FEF77FFEEE
:103E8000207A617A084340F0010206212846FEF7B5
:103E900076FEA07A28B104F10A020A212846FFF72B
:103EA0008FF8E07B28B104F10F020B212846FFF7C1
:103EB00087F8227D1AB10C212846FEF760FE627D4C
:103EC0001AB10D212846FEF75AFEA27D1AB10E2125
:103ED0002846FEF754FEE27D1AB10F212846FEF770
:103EE0004EFE207E28B104F1180210212846FFF76B
:103EF00067F8627F1AB111212846FEF740FEA27FC3
:103F00001AB112212846FEF73AFEE27F1AB11321B8
:103F10002846FEF734FE94F820201AB114212846D2
:103F2000FEF72DFE94F821201AB115212846FEF740
:103F300026FE94F822201AB116212846FEF71FFE0D
:103F400040212846FFF738F8E221284600F05AF8C9
:103F500030212846FFF730F8E121284600F052F8DA
:103F60006278A07800210243E07802432846FEF7F9
:103F700006FE0A20FDF7AAF96278A0780021024324
:103F8000E07840F0020002432846FEF7F8FD0446C0
:103F9000FEF706FD204670BD10B5064C207910B125
:103FA000FFF71CFB03E0207808B1FFF777F96061A9
:103FB00010BD00000800002010B5094C207910B198
:103FC000FFF77AFA03E0607818B1FFF7EDF9E060E7
:103FD00010BDE0780028FAD0FFF77AF9F7E7000083
:103FE0000800002010B5064C207910B1FFF718FA30
:103FF00003E0A07808B1FFF7D3F9206110BD0000FD
:104000000800002070B50C460546FEF7D1FC21469D
:104010002846FFF704F80446FEF796FD204670BDDB
:104020004FF400510148FDF790BA00000010014024
:10403000002280210148FDF78CBA0000000C0140ED
:104040000721FEF789BD0A6802604A6842608A68F3
:104050008260C968C1607047002141608160C160B1
:104060004FF07E5101607047704713680B605368D2
:104070004B6093688B60D268CA60FFF7E4BF0000B2
:104080002DE9FF4FA1B00446806A0490D4E90B608B
:10409000DDF8B8A00190DDF8C8B0606B00909946DB
:1040A000904601210498FCF759F9074605901290B3
:1040B00001213046FCF752F90A9010900121019835
:1040C000FCF74CF905460F9001210098FCF746F9E2
:1040D000119038460199FCF7D1F8149028460099C0
:1040E000FCF7CCF8049916900846FCF7C7F81F9027
:1040F00031460498FCF7C2F8159001990498FCF732
:10410000BDF8139000990498FCF7B8F8314619905F
:104110000846FCF7B3F81E9030460199FCF7AEF85C
:10412000189030460099FCF7A9F801990E900846BE
:10413000FCF7A4F80D90DDE90010FCF79FF800995A
:1041400008900846FCF79AF8514617900846FCF785
:1041500095F8074649460846FCF790F8054641465B
:104160000846FCF78BF82946FCF730F83946FCF78F
:104170002DF801F00BF8014610F0FF4F7ED04FF004
:104180007E50FCF7ADF8074601464046FCF776F84E
:10419000239039464846FCF771F82490394650463A
:1041A000FCF76CF834992E900846FCF767F83399C1
:1041B00080460846FCF762F8074659460846FCF771
:1041C0005DF83946FCF702F84146FBF7FFFF00F0C7
:1041D000DDFF014610F0FF4FD0D04FF07E50FCF7CE
:1041E0007FF8054601465846FCF748F832902946C4
:1041F0003398FCF743F8339029463498FCF73EF89F
:10420000349032990598FCF739F88346339905982C
:10421000FCF734F8824634990598FCF72FF880466D
:1042200032990A98FCF72AF8814617993298FCF7D8
:1042300025F80B900D993298FCF720F80A903499E4
:104240001098FCF71BF80099FCF718F8074633990B
:104250001098FCF713F80199FCF710F805461E9921
:104260003298FCF70BF81C9040460199FCF706F8D1
:104270001D9050460099FCF701F800E0A3E31B9065
:104280001F993298FBF7FAFF1B99FBF7F1FF1D9975
:10429000FBF79CFF1C99FBF799FF2946FBF796FF5C
:1042A0003946FBF793FF0A99FBF7E2FF0B99FBF7FF
:1042B000DFFF054617993398FBF7E0FF0A90349922
:1042C0000F98FBF7DBFF0099FBF7D8FF07460D9926
:1042D0003398FBF7D3FF0C901E993398FBF7CEFF72
:1042E0000B9048460199FBF7C9FF059031464046BF
:1042F000FBF7C4FF06901F993398FBF7BFFF80467A
:1043000058460099FBF7BAFF4146FBF75FFF069955
:10431000FBF7AEFF0599FBF759FF0B99FBF7A8FFD9
:104320000C99FBF753FF3946FBF750FF0A99FBF74F
:104330009FFF0146FBF7A2FF074629460846FBF709
:104340009DFF3946FBF742FF00F020FF0B901799C5
:104350003498FBF793FF0A900D993498FBF78EFF82
:10436000069033990F98FBF789FF0099FBF786FFBA
:1043700005461E993498FBF781FF0C90484600993A
:10438000FBF77CFF81461F993498FBF777FF804647
:1043900058460199FBF772FF074631465046FBF736
:1043A0006DFF3946FBF764FF4146FBF70FFF4946B7
:1043B000FBF70CFF0C99FBF75BFF2946FBF706FFA9
:1043C0000699FBF755FF0A99FBF700FF8346012189
:1043D0000B98FBF7C3FF039001215846FBF7BEFF84
:1043E00007904FF07C5738461E99FBF741FF0D9917
:1043F000FBF73EFF5946FBF741FF05460E99139820
:10440000FBF7E4FE0B99FBF739FF2946FBF7DEFECD
:104410003499FBF72DFF1A90054601990B98FBF78D
:104420002DFF29461B90FBF729FF81460899159817
:10443000FBF7CCFE5946FBF721FF0546DDE91801E5
:10444000FBF716FF0B99FBF719FF2946FBF7BEFE9A
:104450003399FBF70DFF1990054600990B98FBF770
:104460000DFF8246D04631465846FBF707FF4146CE
:104470001890FBF7FDFE2946FBF700FF80461399D5
:104480000E98FBF7F5FE5946FBF7F8FE0546384651
:104490000D99FBF7EDFE1799FBF7EAFE0B99FBF779
:1044A000EDFE2946FBF792FE3299FBF7E1FE054649
:1044B000139058460199FBF7E1FE29461790FBF748
:1044C000DDFE074601210E98FBF748FF1499FBF724
:1044D000CFFE2399FBF7CCFE0E900F99FBF7CEFE93
:1044E000054601211598FBF739FF1699FBF76EFE7B
:1044F0002499FBF7BDFE14901099FBF7BFFE2946E7
:10450000FBF7B6FE3946FBF7B3FE4146FBF75EFE0E
:104510004946FBF75BFE089031461A9D0798FBF76A
:10452000ADFE01465046FBF7A3FE2946FBF7A6FE6B
:1045300082465846199D0499FBF7A0FE0146159046
:104540001B98FBF743FE2946FBF798FE8146584629
:10455000139D0099FBF792FE29461B90FBF78EFEF8
:10456000804601210D98FBF7F9FE054601211E98B2
:10457000FBF7F4FE4FF07E5B5946FBF77CFE2946C5
:10458000FBF776FE2E99FBF773FE05461690022187
:104590003046FBF7E3FE2946FBF770FE074612990B
:1045A0001498FBF76BFE054611990E98FBF766FE13
:1045B0002946FBF70BFE3946FBF75AFE4146FBF74F
:1045C00005FE4946FBF702FE5146FBF7FFFD05904D
:1045D0001A9D01990798FBF751FE074604990B981D
:1045E000FBF74CFE39460D90FBF742FE2946FBF7E0
:1045F00045FE824631461B9F199D0B98FBF73EFEF8
:1046000039461B90FBF7E2FD2946FBF737FE814652
:104610000398159F80F00040139D0199FBF72EFE33
:104620003946FBF725FE2946FBF728FE8046022186
:10463000169D0198FBF792FE2946FBF71FFE0746E1
:1046400012990E98FBF71AFE054611991498FBF77C
:1046500015FE2946FBF70CFE3946FBF709FE4146DD
:10466000FBF7B4FD4946FBF7B1FD5146FBF7AEFD44
:104670008246DDE91A10FBF701FE8146199D0D996E
:104680001798FBF7F5FD2946FBF7F8FD0746139D44
:1046900000990398FBF7F2FD01461898FBF7E8FD37
:1046A0002946FBF7EBFD80460F991498FBF7E6FDD2
:1046B000054610990E98FBF7E1FD2946FBF786FDAC
:1046C0004146FBF783FD3946FBF780FD4946FBF782
:1046D0007DFD05460146FBF7D1FD81465146084662
:1046E000FBF7CCFD059980460846FBF7C7FD089906
:1046F00007460846FBF7C2FD3946FBF767FD414612
:10470000FBF764FD4946FBF761FD00F03FFD014604
:104710005846FBF7E5FD074601460898FBF7AEFD56
:10472000804639460598FBF7A9FD05903946504665
:10473000FBF7A4FD069039462846FBF79FFD07903E
:104740004046FBF7D4FF07460D464FF07D5000F082
:104750001FFAFBF7CCFF9D4A9D4BFBF7B2FE4FF0D3
:1047600000529C4BFBF7ADFE3A462B46FBF7A9FEE9
:1047700007460D4631990098FBF780FD8146309938
:104780000198FBF77BFD804686F000402F99FBF7F0
:1047900075FD4146FBF76CFD4946FBF769FD4FF09F
:1047A000FF31FBF7DBFDFBF7A2FF3A462B46FBF799
:1047B00082FEFBF7AFFF80460598FBF798FF0746A0
:1047C0000D464FF07D5000F0E3F9FBF790FF7F4A74
:1047D0007F4BFBF776FE4FF000527E4BFBF771FEEE
:1047E0003A462B46FBF76DFE05460F46309900987A
:1047F000FBF744FD824631990198FBF73FFD814666
:104800002F990498FBF73AFD4946FBF7DFFC514628
:10481000FBF72EFD4FF0FF31FBF7A0FDFBF767FF25
:104820003B462A46FBF747FEFBF774FF8246069895
:10483000FBF75DFF07460D464FF07D5000F0A8F9ED
:10484000FBF755FF614A624BFBF73BFE4FF000520E
:10485000604BFBF736FE3A462B46FBF732FE074627
:104860000D462F990098FBF709FD81463046319996
:10487000FBF704FD039030990498FBF7FFFC0399C4
:10488000FBF7F6FC4946FBF7A1FC4FF0FF31FBF7C5
:1048900065FDFBF72CFF3A462B46FBF70CFEFBF7BA
:1048A00039FF81460798FBF722FF05460F464FF078
:1048B0007D5000F06DF9FBF71AFF444A444BFBF7BB
:1048C00000FE4FF00052434BFBF7FBFD3B462A46F0
:1048D000FBF7F7FD07460D462F990198FBF7CEFC35
:1048E000079030463099FBF7C9FC05903199049840
:1048F000FBF7C4FC0599FBF769FC0799FBF7B8FCCB
:104900004FF0FF31FBF72AFDFBF7F1FE3A462B464D
:10491000FBF7D1FDFBF7FEFE074640462299FBF769
:10492000ADFC0499FBF752FC804650462299FBF7F8
:10493000A5FC3146FBF74AFC054648462299FBF7A1
:104940009DFC0199FBF742FC064638462299FBF78D
:1049500095FC0099FBF73AFC07460146FBF78EFCF5
:10496000314607900846FBF789FC824629460846EF
:10497000FBF784FC814641460846FBF77FFC49462D
:10498000FBF724FC5146FBF721FC0799FBF71EFCC3
:1049900000F0FCFB01465846FBF7A2FC81460146AD
:1049A0004046FBF76BFCA06249462846FBF766FCD5
:1049B000E06249463046FBF761FC206349463846D1
:1049C000FBF75CFC606325B0BDE8F08F182D445404
:1049D000FB210940C771CC3F2DE9F74F0D46B2F9D5
:1049E0001400B2F9261088B014460844FBF74AFEBA
:1049F0006E683146FBF742FC0190B4F91200B4F93D
:104A000024100844FBF73EFE3146FBF737FC834693
:104A1000B4F91000B4F922100844FBF733FE314614
:104A2000FBF72CFC8246B4F90E00B4F920100844C0
:104A3000FBF728FEAE683146FBF720FCFBF757FE7C
:104A4000364F374B3A46FBF73CFD0022354BFBF720
:104A5000AAFDFBF75FFE8146B4F90C00B4F91E1005
:104A60000844FBF70FFE3146FBF708FCFBF73FFE5F
:104A70003A462B4BFBF725FD00222A4BFBF793FD13
:104A8000FBF748FE8046B4F90A00B4F91C1008444C
:104A9000FBF7F8FD3146FBF7F1FBFBF728FE3A4642
:104AA0001F4BFBF70EFD00221E4BFBF77CFDFBF7B7
:104AB00031FE0746B4F90810B4F91A000844FBF7B0
:104AC000E1FD29680091FBF7D9FB0646B4F9060021
:104AD000B4F918100844FBF7D5FD0099FBF7CEFB9D
:104AE0000790B4F90400B4F916100844FBF7CAFDA6
:104AF0000099FBF7C3FB019B0246CDE905B38DE8A6
:104B0000C00721682846079BFFF7BAFA08980BB040
:104B10002946BDE8F04F00F007B80000182D4454B6
:104B2000FB2109400080664010B50C46FFF794FA5F
:104B3000A16A0160216B81F000414160616B81607D
:104B4000E16A81F00041C16010BDF0B589B01F4637
:104B500016460D462830FFF77FFAA0F12804002002
:104B600060612061C4E90260C4E9005704A8FFF74E
:104B700073FA024604F128016846FFF776FA6846A0
:104B8000FFF772FA04A8FFF76FFA09B02046F0BDEC
:104B900000F0FCBA02E008C8121F08C1002AFAD1CE
:104BA00070477047002001E001C1121F002AFBD1AD
:104BB0007047000001490860704700008000002035
:104BC000A8B0FCF777FFFEF7AFFDFEF709F9FD4847
:104BD000416941F0010141614069002200F001009A
:104BE000009011460B20FCF7D9FF0B20FCF7CAFF01
:104BF000002211460F20FCF7D1FF0F20FCF7C2FF67
:104C0000FEF7BAF8FEF7B6F9FEF796F9FFF7FEF8E9
:104C10000122ED4D140321462846FCF79AFC1E2084
:104C2000FDF7A1FE002221462846FCF792FCE74C46
:104C30000020691560712846FCF782FC012800D02D
:104C400000206179084460714FF48071DE48FCF700
:104C500077FC012837D000206179084440B26071A8
:104C6000FBF7ACFAFEF7E8FFA07170B3FF284CD059
:104C7000FFF7CCF8FEF730F8E07130B3FFF7C6F875
:104C8000D34D002605F10A001A90801D1990D048D6
:104C9000001DFEF721FB0120FCF718FB1A98FEF718
:104CA00053FA0120FCF712FB1998FEF753F80A207B
:104CB000FCF70CFB761C642EE9DB94F90500002858
:104CC00004DD192003E00220C6E71EE005200025D0
:104CD000BE4C1B900495D4E90431AA460BA8E268A7
:104CE000FFF733FF94F90500022801D0012844D1D1
:104CF000B748A030FCF77AF838B9B54903227031CB
:104D000001F13000FCF7D2F808B1FEF743FA642055
:104D1000FCF7DCFADFF8B892DFF8B8B209F17009F5
:104D2000002609F10C080120FCF7D0FA5FF000041E
:104D300059F82400FBF7AFFC5946FBF79FFA0746EA
:104D400058F82400A449FBF799FA3946FBF73EFAD4
:104D500048F82400641C4146032CE9DB761C642ED1
:104D6000E1DB0A469A49002011F1880152F820300F
:104D700041F82030401C0328F8DB0020064605904F
:104D800007A8FFF769F900219448FEF7C9FA002047
:104D9000834601461E908D4841810181DFF82C92A7
:104DA00099F90500022801D001283CD1DFF82082C2
:104DB000002408F17C088648703050F82400FBF786
:104DC0006AFC8449FBF75AFA074658F824008249DE
:104DD000FBF754FA3946FBF7F9F9804948F8240003
:104DE000843951F82410FBF743FA7D49FBF778FA30
:104DF000FBF764FC7949783951F82420824203D0CA
:104E000041F824004FF0010A641C032CD3DBB9F8ED
:104E10000A10B9F808204846914204D00189A9F83F
:104E20000A104FF0010A4C46D9F81800FEF7D4FFDB
:104E30004FF47A70A061FEF7C5F9C4E90E01D4E918
:104E40000C23801A61EB0301FBF72AFC6549FBF791
:104E500047FA0746644887420FDB5D48001DFEF7AE
:104E60003BFA40EA05081A98FEF76EF940EA08098D
:104E70001998FDF76FFF40EA0905ADB15448544A4F
:104E80000760D4E90E01C4E90C010BA91FA8FFF7C4
:104E9000A3FD1FAA07A923A8FFF7E7F823A8FFF798
:104EA000E3F81FA8FFF7E0F87EB94C48FEF7ABF92E
:104EB000A071059940F3401045EA01060499401C91
:104EC0000E4346EA0A0606407BD0FCF747FB216A00
:104ED000884276D3606A0026401C606231463F48B3
:104EE000FEF780FA6420A061059890B3384B607992
:104EF000283340F080001870B3F80100344D401C96
:104F0000A3F801000020D87004201871002000BF11
:104F100005EB400203EB40019788CF8057898F81D2
:104F2000128A401C4A820328F2DB29482830FDF708
:104F3000D4FC2749202228312848FEF713FA2748B5
:104F4000FEF761F9A071C006F9D50025AA460495BF
:104F500080E0FFE715B36079002540F010011C48A0
:104F600028300170B0F80110491CA0F80110C5707C
:104F700007994160089981600999C1600A990161A6
:104F8000FDF7ABFC1249202228311448FEF7EAF95C
:104F90001248FEF738F9A071C006F9D5BAF1000F32
:104FA00058D00B4F6079283740F0400007F8020BCB
:104FB0004FF0000A37F8010CD146401C27F8010CCD
:104FC00014E05AE000100240000C014008000020EC
:104FD00084000020CDCCCC3D6666663F9001002069
:104FE0000AD7A341002474490AD7A33BDFF88C8178
:104FF00087F801A0D8F80000FBF744FB6049FBF7F5
:105000006FF97860C7F80890D8F80400FBF73AFB0E
:10501000DFF870914946FBF763F9F860D8F80800AB
:10502000FBF730FB4946FBF75BF938616089788014
:10503000A8F16C00FDF751FCA8F16C01202201F1F0
:10504000E400FEF78FF94D487830FEF7DCF8A071E8
:10505000C006F8D5FCF782FA0746FBF7A5F80A2147
:1050600090FBF1F201FB12011B98084438442062C6
:10507000424800217830FEF753F940487830FEF777
:10508000DFFFA071C0F38010D8B33C487830FEF742
:10509000BAF840F30007A0717F1C5AE0A06A2022F2
:1050A000401CA0623548E1697830FEF772FA38B1E9
:1050B0000027E06994F905100278914349D101E095
:1050C0000127F6E7B0F801101E9A91423ED01E91DA
:1050D0000179012908D0022914D0042936D1407958
:1050E00000B10120059031E0FCF738FAE1690122B6
:1050F000B1F8091000EB010B11032348FCF729FA62
:1051000024E028E01D4A0021943A4379DB0706D0C9
:1051100000EB410302EB410CDB88ACF8163043791D
:105120009B0706D500EB410302EB410C9B89ACF8D1
:105130001C3043795B0706D500EB410302EB410CC1
:105140005B8AACF82230491C0329DEDBE169FF20D1
:105150000870002FA2D1BBF1000F3FF41FAEFCF787
:10516000FDF958457FF61AAE00224FF480510648EB
:10517000FCF7EFF94FF0000B10E6000018010020DB
:10518000000048430000C842000C014070B50546CD
:10519000FBF734FB044620F00040C0F1FF40C00F95
:1051A00008D025F00040C0F1FF40C00F04BF01202F
:1051B000FFF700FD204670BD000000000000000069
:1051C00001020304060708090000000001020304AD
:1051D000F05100080000002084000000944B0008FB
:1051E0007452000884000020BC050000A44B000895
:1051F00000A24A04000000000000000000000000BF
:10520000000000000000803F0000803F0000803F61
:10521000E803000020020020000000000000000061
:10522000000000000000000000000000000000007E
:10523000000000000000000000000000000A00065E
:1052400006000203030E00000000000000000083BF
:10525000007D0083007D0083007D000000000000D1
:10526000000000000000000000000000000000003E
:04527000000000003A
:04000005080000ED02
:00000001FF
