:020000040800F2
:10000000B005002001010008F9270008F5270008C5
:10001000F7270008810A00085128000800000000A6
:1000200000000000000000000000000013010008B4
:10003000910A00080000000017010008FB270008D3
:100040001B0100081B0100081B0100081B01000820
:100050001B0100081B0100081B0100081B01000810
:100060001B0100081B0100081B010008850A00088D
:100070001B0100081B0100081B0100081B010008F0
:100080001B0100081B0100081B0100081B010008E0
:100090001B0100081B0100081B0100081B010008D0
:1000A0001B0100081B0100081B0100081B010008C0
:1000B0001B0100081B0100081B0100081B010008B0
:1000C0001B0100081B0100081B0100081B010008A0
:1000D0001B0100081B0100081B0100081B01000890
:1000E0001B0100081B0100081B010008DFF80CD0F1
:1000F00000F01CFC00480047114B0008B005002030
:100100000648804706480047FEE7FEE7FEE7FEE7B1
:10011000FEE7FEE7FEE7FEE7FEE7FEE70928000848
:10012000ED0000082DE9F05F0546002092469B4651
:1001300088460646814640241BE0284641464746FD
:10014000224600F020F853465A46C01A914110D377
:1001500011461846224600F004FB2D1A67EB0108F1
:100160004F4622460120002100F0FBFA17EB000960
:100170004E41201EA4F10104DFDC484631462A46E8
:100180004346BDE8F09F202A04DB203A21FA02F022
:100190000021704721FA02F3D040C2F120029140C1
:1001A00008431946704700000649074A086850434B
:1001B00043F2390210440860400870470149086062
:1001C000704700004C0000206D4EC641D2B201E0E5
:1001D00000F8012B491EFBD270470022F6E710B54C
:1001E00013460A4604461946FFF7F0FF204610BDA5
:1001F000F0B480EA0102D40F4200B2EB410F02D208
:100200000246084611464A0042D0C30DDDB2C1F392
:10021000C752AD1A202D35DAC1F3160141F40002A0
:1002200004B15242C5F1200602FA06F12A411044F7
:10023000B3EBD05F23D0C4B1012DA0EBC35009DCD8
:10024000F0BC4FF0004202EAC352DBB200F50000FE
:1002500000F0B1BA400000F1807000EBC350A0F193
:10026000807040EAD170490009E0490841EAC07154
:10027000A0EBC35000F50000400800EBC350F0BCF9
:1002800000F090BA6142012202EB4101001BF6E747
:10029000F0BC704781F00041AAE780F00040A7E77A
:1002A00080EA010210B502F00043400022D04A006B
:1002B0001FD0010E01EB1261C0F35600C2F35602CB
:1002C00040F4000042F40002A0FB022000047F3949
:1002D000140400D0401C50EA124001D44000491ED2
:1002E000C2B20C0604EBD010401C4008802A02D099
:1002F00003E0002010BD20F00100002900DA0020FA
:10030000184310BD30B480EA010202F0004530F01D
:10031000004221F0004013D090B1C30DD40DC2F3C0
:100320001601C0F31600E41A41F4000140F4000283
:100330007D34914201D3641C00E04900002C02DAB4
:1003400030BC002070474FF400000023914201D3DD
:10035000891A034340084FEA4101F7D151B1914254
:1003600002D14FF0004105E002D24FF0010101E05F
:100370006FF0010103EBC450284430BC00F012BA06
:10038000420005D0C0F3C7525242914201DC002026
:10039000704700EBC15070472DE9FE4F804681EA5F
:1003A0000300C00F0C46009021F0004123F00045EF
:1003B000B8EB0200A94105D24046214690461C46B2
:1003C0000B46024623F00040104347D0270DC7F3E9
:1003D0000A00C3F30A510290401A019040286BDAD8
:1003E000C3F3130040F4801B0098924620B1002311
:1003F000D2EB030A63EB0B0B01985946C0F14002A4
:10040000504600F0AEF906460D4650465946019A50
:1004100000F0B6F910EB08006141002487EA1152A0
:1004200084EAE7731A4340D0009A62B3019A012A22
:100430004FEA075215DC001B61EB02014FF000424E
:1004400002EA0752CDE90042001C41F58011324614
:100450002B4600F01CFA03B0BDE8F08F4046214661
:10046000F9E7001B61EB0201001C41F58013001845
:100470005B412018A2F5001747EB030140EAD57055
:10048000B6196D4111E06D084FEA360645EAC075B0
:100490004FEA0752001B61EB0201001C41F580117D
:1004A00049084FEA30000019514132462B4603B04B
:1004B000BDE8F04F00F0DCB90098012240000023B5
:1004C000D0EB020263EBE073009821464FEAE07440
:1004D000B8EB000061EB0401E9E783F000435BE760
:1004E00081F0004158E72DE9FE4F81EA030404F052
:1004F000004421F0004100944FF0000B23F0004332
:1005000050EA01045ED052EA03045BD0C3F30A54FC
:10051000C1F30A552C44A4F2F3340194A0FB025415
:10052000C1F3130141F48011C3F3130343F48013A7
:1005300001FB024400FB034E840A970A44EA8154FB
:1005400047EA8357A4FB076802958D0A05FB0785D8
:100550004FEA932C04FB0C542705029D4FEA0658E2
:1005600047EA1637B5EB08056EEB070C870E920EBF
:1005700047EA811742EA8312A7FB0201B6EB0B019F
:1005800064EB00042B0D43EA0C335E1844EB1C5063
:10059000DA465146E7FB0201C5F313044FEA0B3379
:1005A00043EA14534FEA0432019C43EA0603A4F1E0
:1005B0000C040294009CCDE900B400F068F903B08B
:1005C000BDE8F08F00200146F9E72DE9F04D81EA02
:1005D000030404F0004B21F0004514464FF0000ADC
:1005E00023F0004150EA050220D054EA01021DD058
:1005F000C5F30A570246C5F31303C1F31300C1F351
:100600000A5640F4801543F48013A7EB0608101B2C
:10061000D64608F2FD3873EB050002D308F1010855
:1006200001E092185B41B8F1000F03DA00200146A7
:10063000BDE8F08D00204FF48011064684460EE0A0
:10064000171B73EB050705D3121B63EB050306436A
:100650004CEA010C49084FEA300092185B4150EA1D
:100660000107EDD152EA030012D082EA040083EAC6
:100670000501084305D0101BAB4106D2012200231F
:1006800006E000224FF0004302E06FF00102531039
:100690001AEB06004CEB085110EB0A0041EB0B0182
:1006A000BDE8F04D00F0E4B870B521F0004303431D
:1006B0000CD0C1F30A550024D5EB040564EB040308
:1006C000D617AD1AB34102DB0020014670BD2018D9
:1006D00041EB025170BDC10F80EAE0700844CA07C7
:1006E0009623002100F067B830B404469623080032
:1006F000214604D0B62330BC002200F05CB820466E
:100700000021F8E700F0004230F000400AD0C10DAF
:1007100001F56071C0F3160042EA0151C2084007BA
:100720001143704700200146704701F0004330B488
:1007300021F0004150EA010206D00A0DA2F56072D4
:10074000C1F31301002A02DC30BC00207047440FC3
:1007500044EAC104C100E01830BC00EBC25000F014
:1007600021B8202A04DB203A00FA02F10020704769
:100770009140C2F1200320FA03F3194390407047DF
:10078000202A06DBCB17203A41FA02F043EAE07355
:1007900006E041FA02F3D040C2F120029140084342
:1007A000194670470029A8BF7047401C490008BF80
:1007B00020F00100704710B4B0FA80FC00FA0CF091
:1007C00050EA010404BF10BC704749B1CCF12004C9
:1007D00021FA04F411FA0CF118BF01212143084356
:1007E000A3EB0C01CB1D4FEA00614FEA102042BF82
:1007F000002010BC704700EBC35010440029A4BF78
:1008000010BC7047401C490008BF20F0010010BC1C
:100810007047F0B4002802DCF0BC00207047C0F341
:10082000C751C0F3160040F40000CA0701D14000D0
:10083000491E3F2202EB6105002211464FF40006DB
:1008400026FA01F31344D418844201D8001B1A4637
:100850004000491C1729F3DD5100814202D24FF0BC
:10086000FF3100E0002102EBC550F0BCFFF79ABF5A
:1008700010B5141E73F1000408DA401C41F10001A8
:1008800092185B411A4301D120F0010010BD2DE9FF
:10089000F04D92469B4611B1B1FA81F202E0B0FAF6
:1008A00080F220329046FFF75CFF04460F4640EA94
:1008B0000A0041EA0B0153465A46084313D0114639
:1008C00053EA010019D0C8F140025046FFF75BFC23
:1008D00005460E46504659464246FFF742FF08433A
:1008E00005D0012004E020463946BDE8F08D002007
:1008F000054346EAE0762C4337430A986305E40A49
:10090000A0EB08000022FD0A44EA47540A3002D551
:1009100000200146E9E7010510196941DDE90845B4
:1009200000196941BDE8F04DA2E70000064C074DF3
:1009300006E0E06840F0010394E8070098471034AF
:10094000AC42F6D3FFF7D6FB804D0008A04D00085F
:1009500070B5044600688168C943C9071CD1816825
:1009600021F00101816000F08BFD05460FE000BF22
:1009700000F086FD401B022809D9A06A40F0100053
:10098000A062E06A40F00100E062012070BD2068D2
:100990008068C043C007EBD0002070BD10B5014691
:1009A000406A826A12F0500F05D0006A026BBDE8FF
:1009B000104008461047816A41F400718162016865
:1009C0008968C1F3424107290CD1C16851B9816AD4
:1009D00021F480718162816AC90403D4816A41F083
:1009E0000101816200F00AF910BD10B5406A816A08
:1009F00041F040018162C16A41F00401C16200F02E
:100A0000FFF810BD10B5406A00F0F9F810BD000005
:100A1000F8B500260446009600688168C943C907F6
:100A200028D0816841F001018160134813490068B2
:100A3000B0FBF1F000E0401E00900028FBD100F078
:100A40001FFD054611E000BF00F01AFD401B022803
:100A50000BD9A06A40F01000A062E06A40F00100EB
:100A6000E06284F824600120F8BD20688068C043FB
:100A7000C007E9D10020F8BD0000002040420F006F
:100A8000FEE70000014800F079BA00007401002080
:100A900070470000F8B50025009590F82420AE4678
:100AA000012A1ED0012280F824204A681F244FF416
:100AB0007873072A17D20668776B93FAA3FCBCFAFF
:100AC0008CFC521E02FB0CFC04FA0CF4A74393FAB4
:100AD000A3F3B3FA83F30C685A4394402743776334
:100AE0002DE00220F8BD06680D2A14D2376B93FA68
:100AF000A3FCBCFA8CFCD21F02FB0CFC04FA0CF425
:100B0000A74393FAA3F3B3FA83F30C685A439440D0
:100B10002743376313E0F76A93FAA3FCBCFA8CFC13
:100B20000D3A02FB0CFC04FA0CF4A74393FAA3F36E
:100B3000B3FA83F30C685A4394402743F7620A6878
:100B40003823072406680A2A14D3F76893FAA3FC0B
:100B5000BCFA8CFC0A3A02FB0CFC04FA0CF4A74326
:100B600093FAA3F3B3FA83F38C685A439440274370
:100B7000F76012E0376993FAA3FCBCFA8CFC02FB25
:100B80000CFC04FA0CF4A74393FAA3F3B3FA83F32F
:100B90008C685A439440274337610A68102A01D071
:100BA000112A20D1124B02689A4217D193681B0276
:100BB00019D4936843F4000393600968102912D193
:100BC0000C490D4A0968B1FBF2F101EB81014900C2
:100BD00000E0491E00910029FBD104E0816A41F048
:100BE00020018162012580F824E02846F8BD00003C
:100BF000002401400000002040420F007047704771
:100C0000704700002DE9F04104004FF0000514D0BA
:100C1000A06A002628B9E66284F82460204600F025
:100C20008BF82046FFF794FEA16A01F01001014302
:100C300004D0A06A40F01000A06277E0A16A21F41D
:100C4000885141F00201A1626268E16902270A430A
:100C5000E16897FAA7F70B46B7FA87F7B9400A4356
:100C6000A1684FF48077B94208D0012906D000214D
:100C7000D4F814C0BCF1010F02D00AE03946F7E7FE
:100C8000F3B1A36A43F02003A362E36A43F00103D4
:100C9000E3622368D3F804C02CF4694C4CEA010CDD
:100CA000C3F804C021688B68DFF884C003EA0C0332
:100CB00013438B60A168B94210D001290ED016E011
:100CC0004FF4604CA3699CFAACFCBCFA8CFC5B1E34
:100CD00003FA0CF30B4343F40061DAE74FF47001BD
:100CE000256991FAA1F1B1FA81F16D1E8D4021685B
:100CF000CB6A23F470032B43CB62216889680D4BC8
:100D00001940914208D1E662A16A21F0020141F046
:100D10000101A162BDE8F081A06A20F0020040F06C
:100D20001000A062E06A40F00100E0620120F1E7FB
:100D3000FDF7E1FFFE0E1FFF30B5054600681749BD
:100D400085B0884228D11648816941F400718161DB
:100D50008069694600F400700490FE200090032032
:100D60000190104800F0A0FA104C0F4820600020BD
:100D70006060A0608020E060800020618000606191
:100D80002020A0610002E061204600F02DFA08B1A9
:100D900002F06CF92C62656205B030BD00240140A0
:100DA00000100240000801400800024074010020C9
:100DB00070B5044690F8240001280DD0012084F875
:100DC00024002046FFF724FE02004FF0000005D06B
:100DD00084F82400104670BD022070BDA16A40F264
:100DE0000123994341F48071A1621F4D23681F497B
:100DF000AB4218D10E6816F4702F14D0A66A46F4D0
:100E00008016A6620E68760505D5A66A26F40056F9
:100E100046F48056A662A66AF6040AD5E66A26F06B
:100E20000606E66206E0A66A26F48016A6625E68FA
:100E3000E9E7E06284F824006FF00200186020689F
:100E40008368C3F34243072B05D1A84208D1096840
:100E500011F4702F04D0816841F480118160B9E7EA
:100E6000816841F4A001F9E7002801400424014011
:100E70002DE9F047894604463B4900683B4F0E1D6B
:100E80009046884201D0B84207D1306810F4702FE4
:100E900003D001252846BDE8F08794F824000128F6
:100EA0000CD0012084F824002046FFF7B1FD050096
:100EB0004FF0000004D084F82400EBE70220EAE7BA
:100EC000A16A40F60162914341F48071A1622168F8
:100ED000B94218D1326812F4702F14D0A16A41F4CB
:100EE0008011A1623168490505D5A16A21F400513C
:100EF00041F48051A162A16AC9040AD5E16A21F0D6
:100F00000601E16206E0A26A22F48012A262496848
:100F1000E9E7E06284F82400216A15488862216AC2
:100F20001448C862216A1448086321686FF00200FF
:100F300008602068816841F48071816021684346BF
:100F40004A464C31206A00F077F920688168C1F385
:100F500042410729816803D041F48011816099E7FB
:100F600041F4A001FAE700000024014000280140FC
:100F70009D090008050A0008EB0900082DE9F05F4B
:100F8000DFF860820446D8F80020DFF858B2954DAB
:100F9000944E944F0068DFF84C92DFF848A20BF1B2
:100FA000080B1C35303644374FF400614FF4004CC9
:100FB0004FF4002E09F158090AF16C0A584501D185
:100FC000082316E0A84201D1802312E0B04201D1EB
:100FD0000B460EE0B84201D163460AE0484501D114
:100FE000734606E0504502D14FF4000301E04FF094
:100FF00000631A4231D00268D24312072DD402682E
:1010000022F0080202602068584501D1082114E04E
:10101000A84201D1802110E0B0420ED0B84201D1E7
:1010200061460AE0484501D1714606E0504502D1CB
:101030004FF4000101E04FF00061C8F80410606B4C
:1010400040F001006063042084F82100002084F84F
:101050002000216B09B1204688476248D0F800C0C3
:101060004FF4806120680A010B044FF4802E58452C
:1010700002D14FF0040816E0A84202D14FF0400818
:1010800011E0B04201D188460DE0B84201D190464E
:1010900009E0484501D1F04605E0504502D14FF442
:1010A000800800E098461CEA080F33D0D0F800C052
:1010B0006FEA0C0C5FEA4C7C2CD4D0F800C05FEADD
:1010C0008C6C05D4D0F800C02CF0040CC0F800C023
:1010D0002068584501D1042113E0A84201D14021E4
:1010E0000FE0B0420DD0B84201D1114609E04845A9
:1010F00001D1714605E0504502D14FF4800100E076
:10110000194638484160112084F82100E16A09B18C
:1011100020468847334AD2F800C05B462068511504
:101120004FF4005B4FF4003E984202D14FF00208AA
:1011300017E0A84202D14FF0200812E0B04201D1DE
:1011400088460EE0B84201D1D8460AE0484501D1B0
:10115000F04606E0504502D14FF4001801E04FF090
:1011600000781CEA080F3BD0D0F800C06FEA0C0CE6
:101170005FEA8C7C34D4D0F800C05FEA8C6C05D474
:10118000D0F800C02CF0020CC0F800C020689842D3
:1011900001D1022114E0A84201D1202110E0B04287
:1011A0000ED0B84201D159460AE0484501D17146F6
:1011B00006E0504502D14FF4001101E04FF00071FC
:1011C0005160606B6063012084F82100002084F886
:1011D0002000A16A002903D02046BDE8F05F08473F
:1011E000BDE8F09F0000024070B520B190F82110DA
:1011F000002411B103E0012070BD80F820400221DD
:1012000080F8211003681A6843F6F0718A43D0E928
:1012100001152943D0E9035635432943456929433C
:1012200085692943C5692943114319604463012134
:1012300080F82110002070BD70B5044690F82000A1
:10124000012823D0012084F82000022084F8210006
:101250002068056825F001050560204601F0F6FECE
:101260002068016841F0020101602068016841F0D6
:10127000040101602068016841F0080101602068F4
:10128000016841F001010160002070BD022070BDC5
:1012900031B500F0F5F8044600F0F2F80099001BB3
:1012A0008842F9D338BD00002DE9F84FDFF890A14E
:1012B00000220AF1040B144601274FF00F090BF12D
:1012C000040E00BF0B6807FA04F52B40AB4274D143
:1012D000DFF870C14E68A6EB0C0866452BD00DDC1C
:1012E000032E34D005DC36B3012E19D0022E2FD1B7
:1012F0001BE0112E16D0122E2AD119E0B8F5881F46
:1013000019D006DCB8F5803F15D0B8F5801F1FD185
:1013100011E0B8F5001F0ED0B8F5041F18D10AE08F
:10132000CA6815E0CA68121D12E0CA6808320FE0E8
:10133000CA680C320CE08A682AB1012A4FF0080210
:1013400003D0456104E0042202E0056100E00022D0
:10135000FF2B01D8064601E000F104064FEA8405A0
:1013600001D9A5F12005D6F800C009FA05F82CEA44
:10137000080C02FA05F54CEA050CC6F800C04D68E9
:10138000ED0057D5304DAE6946F00106AE61AD694E
:1013900024F0030605F0010500952C4D06EB050C25
:1013A000DCF80850A6074FEA167809FA08F6B543A4
:1013B000274EB04202D1002610E03BE0254EB0425D
:1013C00001D101260AE0244EB04201D1022605E0F7
:1013D000224EB04201D1032600E0042606FA08F6A8
:1013E0002E43CCF808604D68DAF80060ED035546EE
:1013F00001D51E4300E09E432E604D68DBF800607F
:10140000AD035D4601D51E4300E09E432E604D684E
:10141000DEF80060ED02754601D51E4300E09E43F4
:101420002E604D68AD020E4D2E6801D51E4300E0C2
:101430009E432E60641C102CFFF444AFBDE8F88F6F
:1014400000040140000011100010024000000140A3
:1014500000080140000C0140001001400014014050
:101460000C0401408068084000D001207047C26829
:101470004A40C26070470AB1016170470904FBE746
:1014800001480068704700004400002070B5040067
:1014900004D094F83500002510B106E0012070BD9D
:1014A00084F83450204600F06BFA242084F835008C
:1014B0002068016821F00101016000F091FC014603
:1014C00028482268B1FBF0F05060274A63689342D5
:1014D00006D94FF4967358434FF47A73B0FBF3F088
:1014E0002368401C18626068904208D84000B1FB35
:1014F000F0F0C0F30B01042916D2042014E0A26816
:1015000052B100EBC00202EB0010B1FBF0F040F46E
:101510004040010507D007E000EB4000B1FBF0F0D0
:1015200040F40040F5E701202168C861D4E90701D3
:10153000084321680860D4E90310084321688860E3
:10154000D4E9050108432168C8602068016841F0BA
:1015500001010160A563202084F8350084F836502D
:10156000002070BD40420F00A08601002DE9FF4F12
:10157000044690F8350081B099468B460125202815
:1015800073D142F2107301224849204602F003F958
:1015900000286AD194F83400012866D0012084F82C
:1015A00034002068016821F400610160242084F87F
:1015B00035000026A66320272068016841F4807169
:1015C00001604B4600224FF00111204602F0E3F883
:1015D00000285CD121680BF0FE000861FFF750FF86
:1015E0002168804648694969C0F3400094F8352075
:1015F000C1F380214FF0A00A14E000BFB9F1000F41
:1016000005D0FFF73DFFA0EB0801494501D984F85B
:1016100035A0216848694969C0F3400094F8352035
:10162000C1F38021084301D1A02AE7D184F83570A5
:1016300020684169C943890718D4016841F40071E1
:101640000160206841698069009042F210730122B4
:101650001649204602F09FF8C8B984F8357084F81E
:101660003460002005B0BDE8F08F1DE0016841F452
:10167000007101602068416921F48061416142F29A
:10168000107301220949204602F085F808B10320B1
:10169000E8E7284603996D1C88428DD384F835709D
:1016A00084F834600120DDE70220DBE7020010004F
:1016B0002DE9F84F04460AA8984690E8600294F88D
:1016C000350092468B4620287BD1002D61D0002E1C
:1016D0005FD042F2107301226949204602F05BF8A4
:1016E0000028F1D194F8340001286AD0012084F850
:1016F00034002068016821F400610160222084F830
:101700003500402084F836000027A7634346524640
:1017100059462046CDF8009001F055FF28B1A06B46
:1017200084F83470042834D072E0012E1AD0206876
:10173000DFF85081022E01682ED041F480610160F3
:101740002068416980690090032E74D8012E18D05A
:10175000022E2ED04B4600224146204602F01BF8B6
:1017600080BB42E02068016821F48061016072B6AC
:101770002068416981690091016841F4007101604C
:1017800062B64946204602F011F9E0B1A06B20286C
:101790003ED00120BDE8F88F41F40061016072B6CF
:1017A0002068416981690091016821F480610160CC
:1017B00062B64B4600224146204601F0ECFF08B9D4
:1017C00005E05AE024E02068006928704CE072B619
:1017D0002068016841F40071016020680069287088
:1017E00062B62068006968703EE02068016821F4F4
:1017F0008061016072B62068006905F8010B761EF1
:10180000B6B24B4600224146204601F0C4FF08B163
:101810000320BFE72068016841F40071016020687F
:10182000006905F8010B62B62068006905F8010B34
:10183000B61E15E0FFE74946204602F0B7F800283B
:10184000A4D12068006905F8010B2068761EB6B2A5
:101850004169C943490704D4006905F8010B761EA4
:10186000B6B2002E7FF470AF202084F8350084F8E3
:10187000367084F8347000208CE702208AE700007C
:1018800002001000040001002DE9F84F0446DDE9D4
:101890000A6590F83500DDF83080994692468B460F
:1018A000202868D1002E64D0002D62D042F210733F
:1018B00001223249204601F06EFFE8BB94F8340063
:1018C000012858D0012084F834002068016821F4F0
:1018D00000610160212084F83500402084F8360042
:1018E0000027A7634B46524659462046CDF8008054
:1018F00001F0F0FE28B1A06B84F83470042838D0D1
:1019000007E04146204602F029F828B1A06B0428E0
:101910002AD00320BDE8F88F216816F8010B086172
:1019200020686D1EADB24169C943490707D445B16E
:1019300016F8011B016100E01DE06D1EADB2002D27
:10194000DFD14146204602F009F80028DED154F8E4
:10195000350B016841F400710160202004F81E0974
:10196000E77767770020D5E72068016841F40071C8
:1019700001600120CEE70220CCE700000200100049
:1019800000B500680C4985B0884213D14FF440601F
:101990000090122001900320039069460748FFF74A
:1019A00083FC0748C16941F48001C161C06900F44A
:1019B0008000049005B000BD00580040000C0140BC
:1019C0000010024002480168491C01607047000095
:1019D00044000020074810B5016841F01001016083
:1019E000032000F08BF8002000F006F800F016F855
:1019F000002010BD0020024010B5044600F0EAF9B6
:101A00004FF47A71B0FBF1F000F0DCFE00222146C9
:101A1000501E00F053F8002010BD00001F4808B50C
:101A2000816941F001018161806900F0010000904D
:101A3000032000F063F8002211466FF00B0000F065
:101A40003DF8002211466FF00A0000F037F800223E
:101A500011466FF0090000F031F800221146501FC6
:101A600000F02CF800221146101F00F027F8002289
:101A70001146901E00F022F800221146501E00F080
:101A80001DF80748416821F0E06141F08061416044
:101A9000416821F0E061416008BD00000010024093
:101AA0000000014000F01F02012191404009800028
:101AB00000F1E020C0F8001170470000F0B40E4BB8
:101AC0001B680C46C3F30223C3F10705042D00D99C
:101AD0000425191D072901D2002300E0DB1E012681
:101AE00006FA05F1491E214099409E40761E164097
:101AF0003143F0BC01F0FEBB0CED00E0064900F004
:101B0000070208684FF6FF03184040EA0220034A24
:101B100010430860704700000CED00E00000FA057B
:101B20002DE9F84305460078454CC00774D0E069BC
:101B300040F08050E061E069424E00F0805000903B
:101B4000306840F480703060FFF79AFC074604E08C
:101B5000FFF796FCC01B642833D83068C005F7D562
:101B6000206A10F4407051D0A98801F4407181427C
:101B70004CD0206A0126310491FAA1F2B2FA82F225
:101B80009300314A20F440701344C3F8006491FA82
:101B9000A1F1B1FA81F102EB81010023C1F8003417
:101BA0002062C00732D0FFF76BFC074641F288394C
:101BB0004FF0020808E000BFFFF762FCC11B494577
:101BC00002D90320BDE8F88398FAA8F1B1FA81F1AF
:101BD00041F040014046B6EB511F01D121680BE0B6
:101BE00090FAA0F1B1FA81F141F04001B0EB511F40
:101BF00001D1216A00E0616A98FAA8F0B0FA80F099
:101C000000F01F0206FA02F00142D5D0206A69688E
:101C100020F44070084320622878800705D560686A
:101C2000A96820F44040084360602878C00605D5C4
:101C30006068E96820F48000084360600020C1E724
:101C40000010024000700040000042422DE9F047C1
:101C5000DFF8708105460E46D8F8000000F0070056
:101C6000B0420CD2D8F8001021F007013143C8F877
:101C70000010D8F8000000F00700B04277D12878B3
:101C8000514C800705D56068A96820F0F000084332
:101C900060602878C00759D06968012001290DD0FB
:101CA000022929D05FF0020393FAA3F2B2FA82F27A
:101CB00042F02002520904D0226803E04FF40033BE
:101CC000F2E7626A93FAA3F3B3FA83F303F01F0314
:101CD000984002424BD0606820F0030008436060E7
:101CE000FFF7CEFB6968074641F2883001290DD025
:101CF0000229814617D025E04FF00073D4E700BFDA
:101D0000FFF7BEFBC11B494501D918E08146606859
:101D1000C0F381000128F3D118E000BFFFF7B0FB4A
:101D2000C11B49450BD86068C0F381000228F5D17A
:101D30000CE000BFFFF7A4FBC11B494502D90320FB
:101D4000BDE8F087606810F00C0FF3D1D8F80010F0
:101D5000404601F00701B1420BD9016821F00701AB
:101D600031430160006800F00700B04201D001205B
:101D7000E6E72878400705D56068E96820F4E06068
:101D8000084360602878000706D56068296920F458
:101D9000605040EAC100606000F03AF86168F022EB
:101DA00092FAA2F201F0F001B2FA82F2D140074AAF
:101DB000515CC840064908600020FFF71DFE002066
:101DC000BEE700000020024000100240684D0008FD
:101DD000000000200148006870470000000000205B
:101DE00008480949006849684FF4E06292FAA2F293
:101DF00001F4E061B2FA82F2D140044A515CC84079
:101E0000704700000000002000100240784D0008DC
:101E100010B519A385B00FCB8DE80F001AA01B4B8E
:101E2000006804905A681A4812F00C011FD0042967
:101E30001DD008291BD14FF4701494FAA4F402F4B5
:101E40007011B4FA84F4E140D2031DF8011010D5EA
:101E50005A684FF4003393FAA3F302F40032B3FA52
:101E600083F3DA4004AB9A5CB0FBF2F0484305B070
:101E700010BD08484843FAE70203040506070809AD
:101E80000A0B0C0D0E0F1010010200000010024092
:101E900000127A0000093D002DE9F84F0446007851
:101EA000F74DC0074FF0010625D068687704C0F3EE
:101EB0008100012807D06868C0F3810002281BD187
:101EC0006868C00318D597FAA7F0B0FA80F040F020
:101ED0002000400901D0286800E0686A97FAA7F15D
:101EE000B1FA81F101F01F0106FA01F108425ED05A
:101EF000606800287CD05AE06068B0F5803F0BD065
:101F000010B1B0F5A02F11D0286820F480302860DF
:101F1000286820F4802002E0286840F4803028609F
:101F2000606828B3FFF7ACFA80460BE0286840F4FD
:101F300080202860F0E700BFFFF7A2FAA0EB0800BE
:101F4000642871D897FAA7F0B0FA80F040F020002A
:101F5000400901D0286800E0686A97FAA7F1B1FA51
:101F600081F101F01F0106FA01F10842E4D01EE000
:101F7000FFF786FA804605E0FFF782FAA0EB08003B
:101F80006428DED897FAA7F0B0FA80F040F020007D
:101F9000400901D0286800E0686A97FAA7F1B1FA11
:101FA00081F101F01F0106FA01F10842E4D1207825
:101FB000DFF8D08280074FF000094FF002075BD5B1
:101FC00068684FF0F80B10F00C0F07D06868C0F38A
:101FD000810002281CD16868C00319D497FAA7F0C1
:101FE000B0FA80F040F02000400902D0286801E0FB
:101FF0008BE0686A97FAA7F1B1FA81F101F01F014D
:1020000006FA01F108422CD0206901287DD128E090
:10201000206990B396FAA6F0B0FA80F048F82060F4
:10202000FFF72EFA824607E011E100BFFFF728FA1A
:10203000A0EB0A00022884D897FAA7F0B0FA80F043
:1020400040F02000400901D0286800E0686A97FA53
:10205000A7F1B1FA81F101F01F0106FA01F108427E
:10206000E4D028689BFAABF26169B2FA82F220F000
:10207000F80091400843286025E0FFE796FAA6F1B2
:10208000B1FA81F148F82190FFF7FAF9824605E0AC
:10209000FFF7F6F9A0EB0A000228CCD897FAA7F0D0
:1020A000B0FA80F040F02000400901D0286800E03C
:1020B000686A97FAA7F1B1FA81F101F01F0106FAF7
:1020C00001F10842E4D1207800076ED5A069B8B3C9
:1020D00096FAA6F0B0FA80F008EB8000C0F88064B1
:1020E000FFF7CEF9824605E0FFF7CAF9A0EB0A0038
:1020F0000228A0D897FAA7F0B0FA80F040F060006C
:10210000B6EB501F02D128680CE062E197FAA7F005
:10211000B0FA80F040F06000B7EB501F01D1286AA0
:1021200000E0686A97FAA7F1B1FA81F101F01F01A6
:1021300006FA01F21042D7D00120FFF7A9F834E0E7
:10214000FFE796FAA6F1B1FA81F108EB8101C1F837
:102150008094FFF795F9824606E000BFFFF790F9FB
:10216000A0EB0A00022872D897FAA7F0B0FA80F024
:1021700040F06000B6EB501F01D128680BE097FAE1
:10218000A7F0B0FA80F040F06000B7EB501F01D12B
:10219000286A00E0686A97FAA7F1B1FA81F101F0C4
:1021A0001F0106FA01F21042D8D12078400765D508
:1021B000E86940F08050E861E869DFF8CCB000F0F1
:1021C00080500090DBF8001041F48071CBF80010D3
:1021D000FFF756F9824605E0FFF752F9A0EB0A0037
:1021E000642834D8DBF80000C005F5D5E068012884
:1021F0000AD008B1052813D0286A20F0010028620F
:10220000286A20F0040002E0286A40F001002862F9
:10221000E06841F2883B90B3FFF732F982460BE069
:10222000286A40F004002862EEE700BFFFF728F9B3
:10223000A0EB0A0159450AD897FAA7F0B0FA80F046
:1022400040F04000B6EB501F02D128680CE0A3E03C
:1022500097FAA7F0B0FA80F040F04000B7EB501FBB
:1022600001D1286A00E0686A97FAA7F1B1FA81F112
:1022700001F01F0206FA02F10842D7D031E005E072
:10228000001002400000424200700040FFF7F8F8E2
:10229000824605E0FFF7F4F8A0EB0A0159457BD828
:1022A00097FAA7F0B0FA80F040F04000B6EB501F6C
:1022B00001D128680BE097FAA7F0B0FA80F040F05F
:1022C0004000B7EB501F01D1286A00E0686A97FA16
:1022D000A7F1B1FA81F101F01F0206FA02F10842FA
:1022E000D8D1E06980B36968C1F38101022970D057
:1022F0004FF080714F000228484609D091FAA1F1B1
:10230000B1FA81F148F82100FFF7BAF8044669E014
:102310008A4691FAA1F1B1FA81F1C14648F821004B
:10232000FFF7AEF8804605E0FFF7AAF8A0EB08003B
:10233000022854D897FAA7F0B0FA80F040F02000B5
:10234000400902D0286801E061E0686A97FAA7F1C5
:10235000B1FA81F101F01F0106FA01F10842E3D15F
:10236000206AB0F5803F05D16868A16820F400308C
:1023700008436860D4E908010843696821F47411CE
:10238000084368609AFAAAF0B0FA80F049F8206031
:10239000FFF776F8044606E021E000BFFFF770F88B
:1023A000001B02281BD897FAA7F0B0FA80F040F083
:1023B0002000400901D0286800E0686A97FAA7F178
:1023C000B1FA81F101F01F0106FA01F10842E5D0EE
:1023D0001DE01EE0FFF754F8001B022802D903207D
:1023E000BDE8F88F97FAA7F0B0FA80F040F020002F
:1023F000400901D0286800E0686A97FAA7F1B1FAAD
:1024000081F101F01F0106FA01F10842E2D100203A
:10241000E6E70120E4E7000010B5040003D094F8DB
:10242000510010B104E0012010BD204600F038F842
:10243000022084F851002068016821F04001016009
:10244000D4E901010843D4E9031211430843616947
:102450000843218B01F400710843E1690843216AB4
:102460000843A16A084321680860A069042101EAC1
:102470001040616A0843216848602168E06A086189
:102480002068C16921F40061C1610449002008701D
:102490006065012084F85100002010BD4800002034
:1024A00010B50068124986B088421ED11148C16932
:1024B00041F48041C161C0690F4C00F48040049038
:1024C0004FF42040009002200190032003906946C1
:1024D0002046FEF7E9FE00214FF48040CDE90001DF
:1024E000029169462046FEF7DFFE06B010BD0000EF
:1024F0000038004000100240000C01402DE9F84374
:102500000025DDF820800446ADF8005090F8510019
:10251000012803D094F8510022287DD169B162B11D
:102520005BB194F85000012876D0012684F8506001
:1025300094F85100012803D005E00120BDE8F8839C
:10254000322084F851006565A263A387E387216385
:10255000A386E386A564E564A06A4FF40057B842F9
:1025600009D12068016821F40051016020680168E8
:1025700041F40051016020680168490603D40168F4
:1025800041F040010160E0684FF48271B0F5006FE6
:10259000606807D0002867D088426ED1E08E01289D
:1025A00062D06AE020B188420CD1E08E012809D1C6
:1025B000206B21680088C860206B801C2063E08E3F
:1025C000401EE086E08E80B9A06AB84244D12068FF
:1025D000016841F4805101603EE02068C068A16B51
:1025E0000880A06B801CA0639EE04346002202216D
:1025F000204601F015F9002874D1206B216800886D
:10260000C860206B801C2063E08E401E0004000C1C
:10261000E08609D1A06A00E0C5E0B84204D1206894
:10262000016841F4805101604346002201212046A7
:1026300001F0F6F800286FD12068C068A16B08800F
:10264000A06B801CA063E08F401EE087E08E002816
:10265000CBD1606800286AD1434600220121204680
:1026600001F0DEF8F0BBB8E7206B411C2163216864
:102670000078C860E08E401EE086E08E98B9A06ABF
:10268000B84204D12068016841F48051016043469A
:1026900000220121204601F0C3F818BB2068C06861
:1026A000A16B087040E0434600220221204601F061
:1026B000B7F8B8B9206B411C216321680078C86065
:1026C000E08E401E0004000CE08607D1A06AB842EC
:1026D00004D12068016841F4805101600022434622
:1026E000012100E018E0204601F09AF8A0B9206826
:1026F000C168A06B421CA2630170E08F401EE0879E
:10270000E08E0028CFD1606888B9434600220121BD
:10271000204601F085F808B103200FE72068C16862
:10272000A06B421CA2630170E08F401EE087A06A8C
:10273000B8420ED1434600220121204601F070F834
:1027400018B1606D40F002000DE02068C068ADF87F
:102750000000434601228021204601F061F820B1AB
:10276000606D40F010006065D6E784F85160A06AA3
:10277000B84214D120688168C943C9060FD4616D7D
:1027800041F002016165016821F400510160206897
:10279000016841F40051016084F85050CDE684F89E
:1027A00050500020CAE60220C8E64FF0E02104287D
:1027B000086903D020F004000861704740F004006D
:1027C000FAE7704710B5401EB0F1807F01D30120B9
:1027D00010BD4FF0E02460610F21601700F08AFD0A
:1027E0000020A06107202061002010BD10B5FFF778
:1027F000E8FF10BDFEE7FEE7704710B5FFF7E2F80F
:10280000BDE81040FFF7F2BF0D48016841F001013B
:10281000016041680B4A1140416001680A4A114059
:102820000160016821F480210160416821F4FE010A
:1028300041604FF41F0181600449C0030860704784
:10284000001002400000FFF8FFFFF6FE08ED00E078
:10285000FEE7000070B50E460546002406E000BF06
:1028600001F040FA3046FEF713FD641CAC42F7DB82
:1028700070BD0021AFF3008070B50546044639B93C
:1028800010E000BF01F02EFA281B641EFEF700FDC9
:10289000002CF7DC70BD00BF01F024FA2046641E56
:1028A000FEF7F6FC002CF7DC70BD00000122802151
:1028B0000148FEF7E0BD0000000C014010B5002209
:1028C00040210448FEF7D7FD0A20BDE81040002152
:1028D00000F084BC000C014010B5B6221421182071
:1028E00000F0E2FE4FF47A70FEF7D2FC2D4C0F217F
:1028F000A07800F00F02182000F0D6FEE07810213A
:1029000000F00F02182000F0CFFE00221321182043
:1029100000F0CAFE6420FEF7BBFC8022362118209E
:1029200000F0C2FE20223721182000F0BDFE6420F6
:10293000FEF7AEFC22780F21682000F0B5FE627829
:102940001021682000F0B0FE6420FEF7A1FC822276
:102950004B21102000F0A8FE6420FEF799FC012214
:102960004B21102000F0A0FE6420FEF791FC20799E
:102970004C21C006020E102000F096FE6420FEF7E7
:1029800087FC17225121102000F08EFE5122522187
:10299000102000F089FE6420FEF77AFCBDE81040AC
:1029A00000F002B82E0000201CB500208DF80000B9
:1029B0006A465D21182000F0CFFC2D4C9DF80000E8
:1029C0006A4660716421182000F0C6FC9DF8000082
:1029D000E0716A465E21182000F0BEFC9DF8000000
:1029E000A0716A466521182000F0B6FC9DF8000031
:1029F00020726A467121182000F0AEFC9DF800009C
:102A000060726A467021182000F0A6FC9DF8000054
:102A1000A072022301AA6A21102000F0B7FABDF8C3
:102A20000400A081022301AA6821102000F0AEFA60
:102A3000BDF80400E081022301AA6E21102000F0FD
:102A4000A5FABDF804002082022301AA6221102009
:102A500000F09CFABDF804006082022301AA6C21F8
:102A6000102000F093FABDF80400A0821CBD000005
:102A70002E000020012240210148FEF7FCBC00008E
:102A8000000C014070B50C460546FFF717FF04F037
:102A90001F01284600F02FFAFF21284600F018FAFF
:102AA0000446FFF7E7FF204670BD2DE9F041002501
:102AB00016460C4607460A2901D2012000E00020F4
:102AC0000EB1012100E0002108430FD0FFF7F6FE10
:102AD00004F01F0040F02001384600F0F9F90546E7
:102AE0003146384600F007FAFFF7C4FF2846BDE834
:102AF000F08138B500F0ECFF182000F093FCC8B16D
:102B0000682000F08FFCA8B1102000F08BFC88B189
:102B100000248DF800406A462146182000F01CFC75
:102B20009DF800004FF4FA75FA2805D029460A20CE
:102B3000FFF790FE002038BD8DF800406A46002166
:102B4000682000F009FC9DF800000F28EED18DF8F8
:102B5000004001224B21102000F0A6FD6420FEF76A
:102B600097FB6A464021102000F0F6FB9DF800001C
:102B70003228DBD1012038BD10B500222D21532091
:102B800000F092FD6420FEF783FB08222D215320E4
:102B900000F08AFD0E4C3121207840F004025320D1
:102BA00000F082FD62782C21532000F07DFD002290
:102BB0002F21532000F078FD00222E21532000F019
:102BC00073FD00223821BDE81040532000F06CBD99
:102BD0002800002010B581223E21682000F064FD0D
:102BE00001221521682000F05FFD192216216820BE
:102BF00000F05AFD00221721BDE81040682000F0C7
:102C000053BD000010B5FFF774FF1C4C207118B1C4
:102C1000FFF762FE2079D0B900F080F9207008B18A
:102C2000FFF7AAFF00F062FAA07008B100F0C0F947
:102C300000F087FA607018B100F0D2F9607810B92E
:102C400000F085F9E070E07808B1FFF7C3FF01F00C
:102C500005F801F013F801F027F8206910F0FF4F94
:102C600009D0A06810F0FF4F05D0E06810F0FF4FCA
:102C700001D0012010BD002010BD00000400002084
:102C80000749024600200B7913B1104600F0E2BB61
:102C90008978002902D0104600F061BB704700001F
:102CA000040000203EB5274825490124016089150C
:102CB000C0E902140021416107254FF4602205613B
:102CC000C2614160FDF79EFFB8BB009401940324EC
:102CD00069461C480294FDF7DDFE70BB022000909F
:102CE000019069461748FDF7D5FE30BB0094694650
:102CF00014480194FDF7CEFEF8B90420009001902D
:102D000069461048FDF7C6FEB8B90520009001904D
:102D100069460C48FDF7BEFE78B906200090019088
:102D200069460848FDF7B6FE38B90095694605487A
:102D30000195FDF7AFFE002801D000F097F93EBDE8
:102D400000240140B0000020F0B52E4885B0816914
:102D500041F010018161816901F0100104918169E4
:102D600041F020018161816901F0200104918169B4
:102D700041F004018161816901F0040104918169DC
:102D800041F00801816180691F4E00F008004FF496
:102D900000540490002221463046FEF76CFB1B4F86
:102DA000002288213846FEF766FB01224021384682
:102DB000FEF761FB00941124032569463046039514
:102DC0000194FEF771FA40F20330009000200226D1
:102DD000CDE9010669463846FEF766FA0820CDE9D6
:102DE0000004694603963846FEF75EFAC02000905C
:102DF00001200190694603953846FEF755FA05B063
:102E0000F0BD00000010024000100140000C014025
:102E10000C4810B50A4901600B49416000214FF48C
:102E200080428160C0E9031241618161C161016238
:102E3000FEF72CFB002801D000F018F910BD0000AF
:102E400000580040E0000020801A06000F4810B52E
:102E50000D4901604FF48271416000218160C160C1
:102E60004FF400720161C0E905120822C0E9072190
:102E7000416281620A21C162FFF7CEFA002801D0C7
:102E800000F0F4F810BD0000003800401C010020E4
:102E90000A460721FFF709BE2DE9F04107461078E1
:102EA00015460E46002480B1FFF708FD46F02001CC
:102EB000384600F020F8295D384600F01CF8641C04
:102EC000E4B2052CF7D1FFF7D5FD2046BDE8F0812F
:102ED00003B583B0FF218DF8041064210091012314
:102EE00001AA04A9FFF70AFB10B1FF2005B000BD3D
:102EF0009DF80400FAE703B583B000218DF80410B3
:102F000064210091012301AA04A9FFF7F7FA10B187
:102F1000002005B000BD9DF80400FAE708B500F0F8
:102F2000D7FD532000F07EFA68B16A460021532095
:102F300000F012FA9DF80000E52806D04FF4FA716F
:102F40000A20FFF787FC002008BD012008BD08B556
:102F500000F0BEFD682000F065FA90B100208DF809
:102F6000000001466A46682000F0F6F99DF800006E
:102F7000C0F34500342806D04FF4FA710A20FFF759
:102F800069FC002008BD012008BD00003EB5642496
:102F90008DE81C0040000A46014601230348FEF765
:102FA00087FB08B100203EBD01203EBDE0000020AF
:102FB0000A4810B5007800218006020E1E2000F09D
:102FC00073FB002201211E2000F06EFB80220221F3
:102FD000BDE810401E2000F067BB00002C00002060
:102FE00010B50E4C0F21607841EA0010C2B22021CA
:102FF000692000F059FB08222221692000F054FBCF
:10300000207823210007020E692000F04DFB0022EA
:103010002E21BDE81040692000F046BB2A000020A8
:103020000949024600200B7913B1104600F097BA07
:103030004B7813B1104600F0B4B9C978002902D01A
:10304000104600F041B970470400002010B5046834
:1030500063604368102B036803D099600068C26006
:1030600010BD9A600068C16010BD000000215020B2
:10307000FFF702FC00F02CFDBFF34F8F05480168FD
:10308000054A01F4E06111430160BFF34F8F00BFB7
:10309000FDE700000CED00E00400FA052DE9F04129
:1030A000FEF7EEF905464FF0E02000248069482243
:1030B00023462146FDF736F84FF47A73A5FB0367E4
:1030C00004FB0373002205FB0232301A62EB01029B
:1030D0004FF47A71401842F10001BDE8F0813022CE
:1030E0000721FFF7E2BC1721FFF7CCBC0EB500F0BB
:1030F000EFFC1E2000F096F9F8B16A460A211E2066
:1031000000F02AF901AA0B211E2000F025F902AADD
:103110000C211E2000F020F99DF80000482807D15E
:103120009DF80400342803D19DF80800332806D008
:103130004FF4FA710A20FFF78DFB00200EBD01202D
:103140000EBD08B500F0C4FC692000F06BF980B139
:1031500000208DF800006A460F21692000F0FCF87D
:103160009DF80000D32806D04FF4FA710A20FFF72B
:1031700071FB002008BD012008BD00000B4800784D
:1031800038B1012808D0022809D003280AD000202D
:1031900070474FF0625070474FF0645070474FF0E7
:1031A000665070474FF068507047000028000020BC
:1031B0000048704735788E3D0749024600200B795C
:1031C00013B1104600F0DFB90978002902D010468B
:1031D00000F058B870470000040000202DE9F041CD
:1031E00006460F46FFF75AFF04460D46FFF756FF07
:1031F000001B61EB0501801BB941F7D3BDE8F081ED
:1032000070B514460D460646FFF758FBA021304620
:10321000FFF771FE07E000BF15F8011B3046FFF70E
:103220006AFE641EE4B2002CF6D1FFF723FCFFF720
:103230003DFB002070BD00000048704748E13A3F68
:103240000948007838B1012807D0022807D00328A0
:1032500007D000207047054870470548704705486B
:1032600070470548704700002A0000200000FA3B24
:1032700000007A3C0000FA3C00007A3D00487047AC
:103280000000203F3EB5044600208DF8080002AA49
:103290003021532000F060F8A0B19DF8080000062E
:1032A00010D506236A4632215320FFF76FFEBDF882
:1032B00000002080BDF802006080BDF80400A080FE
:1032C00001203EBD00203EBD1CB5044608236A46D1
:1032D0001B216820FFF75AFEBDF8020040BA20808B
:1032E000BDF8040040BA6080BDF8060040BAA08076
:1032F00001201CBD0907090E002806DA00F00F00A6
:1033000000F1E02080F8141D704700F1E02080F803
:10331000001470470A48007805280ED2DFE800F054
:103320000B0907050300074870470748704707481F
:1033300070470748704707487047002070470000F3
:103340002E00002071BD793B00C0F93B00C0793CE4
:1033500000C0F93C00C0793D0123FFF717BE3EB520
:10336000044600208DF8080002AA09211E20FFF75C
:10337000F3FF9DF80810084012D006236A46032187
:103380001E20FFF703FEBDF8000040BA2080BDF804
:10339000040040BA6080BDF8020040BAA08001205D
:1033A0003EBD3EB5044600208DF8080002AA272144
:1033B0006920FFF7D1FFC0B19DF80800000614D5C1
:1033C00006236A46A8216920FFF7E0FDBDF800004A
:1033D00020809DF801009DF8031040EA01206080E4
:1033E000BDF80400A08001203EBD00203EBD0000CD
:1033F0000B488078032807D0052808D0082809D072
:103400000C280AD0002070474FF06A5070474FF0E8
:103410006C5070474FF06E5070474FF070507047CF
:103420002E00002010B504461E20FFF722FA61008E
:103430004FF47A7305220648FEF798F808B1002089
:1034400010BD00F03DFBFA20FDF722FF012010BD6A
:10345000E00000207CB5044608236A464221102083
:10346000FFF794FD9DF80600C0073BD0BDF80600AD
:103470001D4982080023888A8503002A01D0164648
:1034800000E00646B5FBF6F691F90560C3EBC6060B
:10349000668000D01046B5FBF0F091F9060003EB12
:1034A000C0002080B1F91200B1F91050C0F1000045
:1034B0004FEAC033888A00B2A2EB000000FB05F09F
:1034C000A3EBA0034FEA42008A89B1F90E1000FB7A
:1034D00002F000F5004001EB204093FBF0F0A080EB
:1034E0004FF001007CBD00002E00002030B593B0ED
:1034F0000120009000040025CDE901050224CDE95A
:1035000007404FF4E01009906846FEF7C5FC90B9FB
:103510000AA90F2081E831006002CDE90D050221E2
:103520000AA8FEF793FB30B9A00311900F940FA8DF
:10353000FEF7F6FA08B1FFF799FDFEF74BFC4FF4E2
:103540007A71B0FBF1F0FFF73DF90420FFF72DF998
:1035500000221146501EFEF7B1FA13B030BD1CB563
:10356000044606236A4602216820FFF70FFDBDF8D6
:10357000000040426080BDF802002080BDF80400D9
:10358000A08001201CBD1CB5044606236A4602210A
:103590001820FFF7FBFCBDF90000C11700EB5170CC
:1035A000C01040426080BDF90200C11700EB5170AD
:1035B000C0102080BDF90400C11700EB5170C0108D
:1035C000A08001201CBD2DE9F84F044600680F467D
:1035D000DDF828B001689846164641F48061016024
:1035E0002068016841F4807101604FF001195B4669
:1035F00000224946204600F0CEF8F0BB216807F0D3
:10360000FE00086109F1010A5A465146204600F0C1
:1036100000FA18B1A06B042811D036E02068416987
:10362000806900905946204600F098F950B1A06B8F
:1036300004282AD12068016841F40071016001204A
:10364000BDE8F88FF5B2B8F1010F08D02168300A53
:1036500008615946204600F081F90028E7D120682A
:1036600005615946204600F079F90028DFD120682D
:10367000016841F48071016000E006E05B460022D1
:103680004946204600F087F808B10320D8E72168B2
:10369000F8B240F0010008615A465146204600F059
:1036A000B8F90028B6D1CBE717B583B0642401235D
:1036B00005AA8DE81C0040000A4601460448FEF7B2
:1036C000E3F810B1002006B010BD0120FBE70000B8
:1036D000E00000202DE9F843044600680E46DDF8BE
:1036E000208001681F46154641F480710160434601
:1036F00000224FF00111204600F04DF8D8B92168A2
:1037000006F0FE00086142461749204600F081F9A4
:1037100028B1A06B04280ED10120BDE8F8832068F1
:103720004169806900904146204600F017F920B1B8
:10373000A06B042811D00320EFE7EEB2012F08D0D0
:103740002168280A08614146204600F007F9002850
:10375000EED1206806610020DFE72068016841F4AF
:1037600000710160D8E700000200010001684A69A9
:10377000D24352050DD44A6922F480624A61042181
:103780008163202180F83510002180F83410012059
:103790007047002070472DE9F05F1E4690460C46AA
:1037A0000546FDF76DFE81464FF0000A4FF0200BF5
:1037B000C4F30747B8F1000F09D024E0701C06D00D
:1037C000D6B1FDF75DFEA0EB0900B04214D8286821
:1037D000012F06D0806924EA00000004000C1BD0F1
:1037E000ECE74069F7E7701C0DD02EB1FDF748FEFD
:1037F000A0EB0900B04206D985F835B085F834A0B1
:103800000320BDE8F09F2868012F07D0806924EAD3
:1038100000000004000CE6D00020F2E74069F6E763
:103820002DE9F0471D4690460E460446FDF728FE5A
:1038300007465FEA08004FF000084FF4005A4FF0C7
:10384000010926D034E0681C23D025B1FDF718FE0D
:10385000C01BA8421DD92068416821F0E0014160E9
:103860002068016821F040010160A06A504509D13B
:103870002068016821F4005101602068016841F46A
:103880000051016084F8519084F850800320BDE815
:10389000F0872068806836EA0000D4D10DE0681C0B
:1038A00006D0002DD7D0FDF7EBFDC01BA842D2D823
:1038B0002068806836EA0000F1D00020E7E70000C9
:1038C00070B58AB028216846FCF787FC00210220E9
:1038D0008DF800008DF80410012270208DF805206D
:1038E00003238DF801008DF80630082006238DF89B
:1038F00008308DF802008DF80900FA208DF80700D5
:1039000053238DF8183045248DF819404E25114861
:103910008DF81A5043268DF803108DF81B604079FE
:103920008DF80C50C0308DF80D608DF81C008DF8AE
:103930000E008DF80A308DF80B4020208DF81D0008
:103940008DF823108DF824206946034800F0C8F84C
:103950000AB070BD040000201C01002070B50D46A7
:103960000446FDF78DFD064619E02046FFF7FEFEF2
:1039700008B1012070BD681C11D025B1FDF780FD94
:10398000801BA8420BD954F8380F40F0200044F8AF
:1039900004092020607000202070032070BD206882
:1039A0004069C0430006E0D4002070BD2DE9F0411D
:1039B00088460446FDF764FD00250646202721E0E1
:1039C0004169C943C9060BD4416921F01001416125
:1039D000A56384F8357084F834500120BDE8F08187
:1039E000B8F1000F04D0FDF74BFD811B414509D90B
:1039F00054F8380F40F0200044F80409677025702F
:103A00000320EBE720684169C9434906D8D4002068
:103A1000E4E72DE9F04791460D460446FDF730FDF9
:103A2000824600274FF02008C5F3074629E02068AA
:103A30004069C043400512D42068016841F4007118
:103A400001602068416921F4806141610420A06324
:103A500084F8358084F834700120BDE8F087B9F12E
:103A6000FF3F0ED0B9F1000F05D0FDF709FDA0EB27
:103A70000A01494505D984F8358084F8347003205B
:103A8000EBE72068012E06D0806925EA00000004DB
:103A9000000CE2D0CBE74069F7E7000070B50546BF
:103AA000FDF7EEFC054E04463068201AA84202D30A
:103AB00000F018F93460012070BD000024000020DF
:103AC00000224FF400510148FDF7D5BC0010014021
:103AD000012251030148FDF7CEBC00000010014057
:103AE00070B50C46054600F005F962782078E1785B
:103AF0000243A0780843024300212846FEF7D5FF81
:103B0000227901212846FEF7D0FF6279022128465A
:103B1000FEF7CBFFA27903212846FEF7C6FF94F8F3
:103B2000230094F8242000F00F0060F31F120421FA
:103B30002846FEF7BAFFE079052100F07F0228460B
:103B4000FEF7B3FF207A617A084340F001020621B4
:103B50002846FEF7AAFFA07A28B104F10A020A213A
:103B60002846FFF799F9E07B28B104F10F020B21F9
:103B70002846FFF791F9227D1AB10C212846FEF75D
:103B800094FF627D1AB10D212846FEF78EFFA27DBB
:103B90001AB10E212846FEF788FFE27D1AB10F21E7
:103BA0002846FEF782FF207E28B104F1180210217A
:103BB0002846FFF771F9627F1AB111212846FEF7F6
:103BC00074FFA27F1AB112212846FEF76EFFE27F32
:103BD0001AB113212846FEF768FF94F820201AB185
:103BE00014212846FEF761FF94F821201AB115210F
:103BF0002846FEF75AFF94F822201AB116212846CB
:103C0000FEF753FF40212846FFF742F9E2212846FC
:103C100000F05AF830212846FFF73AF9E12128460A
:103C200000F052F86278A07800210243E078024365
:103C30002846FEF73AFF0A20FDF72AFB6278A078B3
:103C400000210243E07840F0020002432846FEF7DC
:103C50002CFF0446FEF72AFE204670BD10B5064C28
:103C6000207910B1FFF7C4FB03E0207808B1FFF71B
:103C700085FA206110BD00000400002010B5094C39
:103C8000207910B1FFF746FB03E0607818B1FFF729
:103C9000D7FAA06010BDE0780028FAD0FFF788FAC4
:103CA000F7E700000400002010B5064C207910B1A1
:103CB000FFF7E4FA03E0A07808B1FFF7BDFAE0608F
:103CC00010BD00000400002070B50C460546FEF74C
:103CD000F5FD21462846FFF70EF90446FEF7CAFE19
:103CE000204670BD4FF400510148FDF7C0BB0000F5
:103CF00000100140002280210148FDF7BCBB0000FC
:103D0000000C01400A6802604A6842608A6882606A
:103D1000C968C1607047002141608160C1604FF097
:103D20007E5101607047704713680B6053684B60A9
:103D300093688B60D268CA60FFF7E4BF2DE9FF4F3C
:103D4000B5B00546C0680490286902906869019082
:103D5000A86900909A46914601210498FCF710FB4F
:103D60002E9001210298FCF70BFB2990012101986C
:103D7000FCF706FB2D9001210098FCF701FB2F902A
:103D80000198FCF7BFFC07460A9088460C461F9135
:103D90000498FCF7B7FC0122FCF786FC8346234617
:103DA0003A460591FCF79FFBFCF7BFFC2A90009870
:103DB000FCF7A8FC06460C46384641460122FCF7B3
:103DC00073FC32462346FCF78EFBFCF7AEFC2790D3
:103DD00004990846FCF764FA1E9002990498FCF7CF
:103DE0005FFA179001990498FCF75AFA109000991D
:103DF0000498FCF755FA1B9002990846FCF750FA14
:103E00001D90DDE90110FCF74BFA1A900099029819
:103E1000FCF746FA01990F900846FCF741FA20900A
:103E2000DDE90010FCF73CFA00991C900846FCF70D
:103E300037FA429928900846FCF732FA064651466E
:103E40000846FCF72DFA044649460846FCF728FACE
:103E50002146FCF7CDF93146FCF7CAF900F06EFFB8
:103E6000014610F0FF4F7DD04FF07E50FCF74AFA2C
:103E7000044601464846FCF713FA3790214650465F
:103E8000FCF70EFA389021464298FCF709FA489957
:103E900042900846FCF704FA479904460846FCF7A6
:103EA000FFF9469907460846FCF7FAF93946FCF748
:103EB0009FF92146FCF79CF900F040FF014610F005
:103EC000FF4FD0D04FF07E50FCF71CFA044601465D
:103ED0004698FCF7E5F9469021464798FCF7E0F94B
:103EE000479021464898FCF7DBF948904698FCF744
:103EF00009FCCDE90D010C46064602460B46584624
:103F00000599FCF7F0FAFCF710FC82464798FCF79D
:103F1000F9FB02460B4658460599FCF7E4FAFCF714
:103F200004FC81464898FCF7EDFBCDE90B01024605
:103F30000B4658460599FCF7D6FAFCF7F6FB804687
:103F40000298FCF7DFFB0122CDE91101FCF7ACFB85
:103F500032462346FCF7C7FAFCF7E7FB06462899EA
:103F6000469800E0FEE3FCF79BF9149020994698F0
:103F7000FCF796F9089048992998FCF791F900996F
:103F8000FCF78EF9044647992998FCF789F90199BD
:103F9000FCF786F907461D994698FCF781F91690BB
:103FA00040460199FCF77CF9189048460099FCF7C7
:103FB00077F983461E994698FCF772F95946FCF743
:103FC00069F91899FCF714F91699FCF711F93946B3
:103FD000FCF70EF92146FCF70BF90899FCF75AF9A2
:103FE0001499FCF757F9044628994798FCF758F9B3
:103FF000159048992D98FCF753F90099FCF750F962
:10400000074620994798FCF74BF908901D99479867
:10401000FCF746F9139030460199FCF741F90690F8
:1040200040460299FCF73CF983461E994798FCF7F5
:1040300037F9804650460099FCF732F94146FCF7C3
:10404000D7F85946FCF726F90699FCF7D1F81399E9
:10405000FCF720F90899FCF7CBF83946FCF7C8F8CB
:104060001599FCF717F90146FCF71AF9074621469E
:104070000846FCF715F93946FCF7BAF800F05EFE81
:10408000039028994898FCF70BF9089020994898D4
:10409000FCF706F9139047992D98FCF701F9009960
:1040A000FCF7FEF804461D994898FCF7F9F883469A
:1040B00030460099FCF7F4F880461E994898FCF7C2
:1040C000EFF8074650460199FCF7EAF806464846DD
:1040D0000299FCF7E5F83146FCF7DCF83946FCF7C5
:1040E00087F84146FCF784F85946FCF7D3F8214697
:1040F000FCF77EF81399FCF7CDF80899FCF778F8EF
:10410000059001210398FCF73BF9079001210598E0
:10411000FCF736F90890DDE90B8189462098FCF719
:10412000F1FACDE91810074621910C461D98FCF7CD
:10413000E9FA0022FE4B20911D90FCF7D1F93A4696
:104140002346FCF7CAF904460E460598FCF7DAFA4E
:1041500022463346FCF7C7F9CDE9130106460C4663
:10416000DDE90F10FCF744F80399FCF799F8FCF728
:10417000C9FA32462346CDE91501FCF70DF942464E
:104180004B46FCF7AAF906460C4601990398FCF742
:1041900087F83390FCF7B6FA32462346FCF7A3F9CA
:1041A0008B461E901C991798FCF722F80599FCF78E
:1041B00077F80446DDE91A01FCF76CF80399FCF77F
:1041C0006FF82146FCF714F84799FCF763F80446AA
:1041D000319000990398FCF763F8349006460299F1
:1041E0000598FCF75DF831463090FCF753F821460E
:1041F000FCF756F8FCF786FA2391DDE90D4182467B
:104200000E46DDE90F01FCF745F80599FCF748F883
:10421000FCF778FA109089462898FCF773FA8046E4
:10422000069138460022C24B1899FCF759F94246CC
:10423000069BFCF752F980460F460398FCF762FA9A
:1042400042463B46FCF74FF94B46109AFCF7A4F860
:10425000224633461A911C90FCF73FF904460E465D
:1042600001990598FCF71CF83290FCF74BFA2246AE
:104270003346FCF738F9064688463898FCF742FA88
:1042800006900F462798FCF73DFA04468946179892
:10429000FCF738FA0122FCF707FA4B462246FCF7F6
:1042A0007BF83B46069AFCF718F9044610911B90E0
:1042B0000F462998FCF726FA22463B46CDE917011E
:1042C000FCF711F9069027913798FCF71BFA814605
:1042D00009912A98FCF716FA04460F460F98FCF746
:1042E00011FA0122FCF7E0F922463B46FCF7F5F80B
:1042F0004A46099BFCF7F1F804460F902D980F46AB
:10430000099180F00040FCF7FDF922463B46FCF79E
:10431000EAF8279B069AFCF73FF832464346FCF73B
:10432000DCF85246239BFCF737F85B461E9AFCF7F5
:1043300033F8FCF7FAF90690DDE90B410E46DDE9AA
:1043400013210B46DDE91501FCF726F8224633461A
:10435000FCF7C3F806460C4602990898FBF7A0FF45
:1043600001463498FBF796FFFCF7CCF9324623461A
:10437000FCF7B9F889461E90DDE90410319CFBF783
:104380008FFF01462B903398FBF732FF2146FBF756
:1043900087FFFCF7B7F98B46DDE90D2182460B4616
:1043A0001A991C98FCF799F806460C46009905984E
:1043B000FBF776FF3390FCF7A5F932462346FCF76E
:1043C00092F880460E464298FCF79CF904460F4648
:1043D000012221991998FCF767F92A901991012275
:1043E00020991D98FCF760F90022524BFCF778F8F1
:1043F000199B2A9AFCF771F822463B46FCF76DF8A8
:1044000004460F461D911990DDE911010222FCF7C7
:104410004BF922463B46FCF766F8299120901B9FFA
:10442000109C2E98FCF76EF93A462346FCF75BF891
:104430002C902191099F0F9C2F98FCF763F922463D
:104440003B46CDE91101FCF74EF8219B2C9AFBF776
:10445000A3FF299B209AFCF740F842463346FBF71E
:104460009BFF52465B46FBF797FF4B461E9AFBF7B6
:1044700093FFFCF75AF90590DDE90B410E46DDE9A3
:1044800013210B46DDE91501FBF786FF2246334673
:10449000FCF723F806460C4601990898FBF700FF45
:1044A0000746DDE90301FBF7FBFE39462590FBF7E4
:1044B000F1FEFCF727F932462346FCF714F80646CE
:1044C0000891DDE90210339F319CFBF7E9FE394684
:1044D0002790FBF78DFE2146FBF7E2FEFCF712F971
:1044E0008A46DDE90D2181460B461A991C98FBF797
:1044F000F4FF044607980F4680F00040DDF8AC80DA
:104500000199FBF7CDFE4146FBF7C4FEFCF7FAF834
:1045100022463B46FBF7E7FF80460C460222DDF8C9
:1045200064B01D9F1F990A98FCF7BEF85A4603E035
:104530000000E03F0000F03F3B46FBF7D4FF83461E
:104540001991DDE91101109B1B9AFBF7CCFF0F4677
:10455000129009990F981F9126902E9880F0004094
:10456000FCF7D0F81F9B269AFBF7BDFF3B46129A3B
:10457000FBF712FF5A46199BFBF7AFFF4246234653
:10458000FBF70AFF4A465346FBF706FF3246089BF5
:10459000FBF702FFFCF7C9F80890DDE90B410E4676
:1045A000DDE913210B46DDE91501FBF7F5FE224697
:1045B0003346FBF792FF06460C462798FCF7A2F815
:1045C00032462346FBF78FFF0746DDE93140894637
:1045D0002599FBF75FFE2146FBF762FEFCF792F898
:1045E0008846DDE90D2182460B461A991C98FBF797
:1045F00074FF06460C4600990798FBF751FE0146EA
:104600003098FBF747FEFCF77DF832462346FBF770
:104610006AFF04461B9812900E46DDF840B02D98B4
:10462000FCF770F85B46129AFBF75DFF83460D912D
:10463000DDE91701099B0F9AFBF755FF5A460D9BC1
:10464000FBF7AAFE22463346FBF7A6FE5246434638
:10465000FBF7A2FE3A464B46FBF79EFEFCF765F8D9
:1046600004460146FBF71CFE089980460846FBF706
:1046700017FE059907460846FBF712FE06990646FF
:104680000846FBF70DFE3146FBF7B2FD3946FBF756
:10469000AFFD4146FBF7ACFD00F050FB01464FF08B
:1046A0007E5B5846FBF72EFE064601460698FBF752
:1046B000F7FD074631460598FBF7F2FD05903146B8
:1046C0000898FBF7EDFD089031462046FBF7E8FD22
:1046D00007903846FCF716F806464FF07D580C4612
:1046E000404600F0FEF9FCF70DF89D4A9D4BFBF7A4
:1046F000FAFE4FF000529C4BFBF7F5FE3246234684
:10470000FBF7F1FE06460C4645990098FBF7C8FDFD
:10471000814644990198FBF7C3FD074602984399E7
:1047200080F00040FBF7BCFD3946FBF7B3FD49467E
:10473000FBF7B0FDFBF7E6FF4FF0FF32FBF7B4FFEE
:1047400032462346FBF7C9FEFBF7EFFF824605988A
:10475000FBF7D8FF04460E46404600F0C2F9FBF7CF
:10476000D1FF00E0F9E07E4A7E4BFBF7BCFE4FF044
:1047700000527D4BFBF7B7FE22463346FBF7B3FEF4
:1047800006460C4644990098FBF78AFD81464599F8
:104790000198FBF785FD074643990498FBF780FDD8
:1047A0003946FBF725FD4946FBF774FDFBF7AAFFE9
:1047B0004FF0FF32FBF778FF32462346FBF78DFEC2
:1047C000FBF7B3FF81460898FBF79CFF04460E46B3
:1047D000404600F086F9FBF795FF614A614BFBF715
:1047E00082FE4FF00052604BFBF77DFE22463346BF
:1047F000FBF779FE06460C4643990098FBF750FDFF
:10480000074645990298FBF74BFD09904499049897
:10481000FBF746FD0999FBF73DFD3946FBF7E8FC40
:10482000FBF770FF4FF0FF32FBF73EFF32462346A7
:10483000FBF753FEFBF779FF07460798FBF762FF8C
:1048400006460C46404600F04CF9FBF75BFF444A35
:10485000444BFBF748FE4FF00052434BFBF743FE3F
:1048600032462346FBF73FFE06460C464399019825
:10487000FBF716FD089044990298FBF711FD80465E
:1048800045990498FBF70CFD4146FBF7B1FC0899EC
:10489000FBF700FDFBF736FF4FF0FF32FBF704FF9D
:1048A00032462346FBF719FEFBF73FFF8046504692
:1048B0003699FBF7F5FC0499FBF79AFC0646484647
:1048C0003699FBF7EDFC0299FBF792FC044638465B
:1048D0003699FBF7E5FC0199FBF78AFC0746404651
:1048E0003699FBF7DDFC0099FBF782FC8046014618
:1048F000FBF7D6FC394603900846FBF7D1FC81460E
:1049000021460846FBF7CCFC824631460846FBF7B9
:10491000C7FC5146FBF76CFC4946FBF769FC039961
:10492000FBF766FC00F00AFA01465846FBF7EAFC82
:10493000814601463046FBF7B3FCE8604946204615
:10494000FBF7AEFC286149463846FBF7A9FC6861D5
:1049500049464046FBF7A4FCA86139B0BDE8F08F9A
:10496000182D4454FB210940C7719C3F2DE9F74F96
:1049700088B014460D46B2F91400FBF7ACFE6E6821
:104980003146FBF78DFC0190B4F91200FBF7A3FE52
:104990003146FBF785FC8346B4F91000FBF79BFE1C
:1049A0003146FBF77DFC8246B4F90E00FBF793FE1F
:1049B000AE683146FBF774FCFBF7A4FE2E4F2F4B7D
:1049C0003A46FBF790FD00222D4BFBF7FEFDFBF76F
:1049D000ACFE8146B4F90C00FBF77DFE3146FBF7D7
:1049E0005FFCFBF78FFE3A46244BFBF77CFD002271
:1049F000234BFBF7EAFDFBF798FE8046B4F90A006B
:104A0000FBF769FE3146FBF74BFCFBF77BFE3A46B2
:104A10001A4BFBF768FD0022194BFBF7D6FDFBF79D
:104A200084FE0746B4F90800FBF755FE296800919B
:104A3000FBF736FC0646B4F90600FBF74CFE00997E
:104A4000FBF72EFC0790B4F90400FBF744FE009935
:104A5000FBF726FC01990246CDE905B18DE8C007B8
:104A600021682846079BFFF769F908980BB029468B
:104A7000BDE8F04F00F006B8182D4454FB21094062
:104A80000080664010B50C46FFF745F9E16801600B
:104A9000616981F000414160A1698160216981F013
:104AA0000041C16010BDF0B589B01D4616460C46E8
:104AB0000C30FFF730F9A0F10C0704A887E870006C
:104AC000FFF729F9024607F10C016846FFF72CF9B8
:104AD0006846FFF728F904A8FFF725F909B038461A
:104AE000F0BD00F02BB902E008C8121F08C1002A6F
:104AF000FAD170477047002001E001C1121F002A5F
:104B0000FBD1704701490860704700005000002049
:104B100000219EB0884689460E468A46FCF75AFF19
:104B2000FEF7E4FCFEF710F97F48416941F001010E
:104B300041614069002200F00100009011460B2005
:104B4000FCF7BCFF0B20FCF7ADFFFEF761F9FEF7A9
:104B50007DF9FEF7A7F8FEF7BBFF3220FDF789FECF
:104B6000FEF750F8714CE071A0B1FEF7B1FFFEF70F
:104B7000A7FEA07170B1FF280CD0FEF7A9FF6C480A
:104B8000FCF716F930B96A49072220396848FCF762
:104B90006FF908B1FEF76AFA0020664D60714FF4B4
:104BA00000712846FCF75EFC012800D000206071EF
:104BB0004FF480712846FCF755FC01280CD00020EA
:104BC0006179084440B26071FBF7F8FA94F9050086
:104BD000012803DD322002E00220F1E70A200E90D6
:104BE000D4E9033100270FA8A268FFF75CFF4FF05C
:104BF000010B08A8FFF78FF84C4C6069FEF74EFFD9
:104C00004FF47A706061E07980B149485838FEF716
:104C1000D3FA054646485238FEF702FA40EA050440
:104C200043484C38FEF72CF840EA0407FEF736FA02
:104C300005460C46B0EB080061EB0901FBF754FD9B
:104C40003D49FBF75FFB3A495C39086097B10A467A
:104C50000027A846A1460FA916A8FFF787FE16AAA7
:104C600008A91AA8FFF760F81AA8FFF75CF816A8B9
:104C7000FFF759F8B5EB0A0074EB060003D20120E8
:104C8000FCF706FBB8E7BBF1000F0BD128486C30EE
:104C9000FEF729FA2549887140F34010401C5FEA6D
:104CA000000BA9D0214E64204FF0000B706120480A
:104CB0006C30FEF714FA1E4A7079463A40F0100044
:104CC000107050781146401C507000209070089869
:104CD000C2F803000998C2F807000A98C2F80B004E
:104CE0000B98C2F80F0000200346CE5C5B1C70409E
:104CF000202BFAD390700E4820226C30FEF780FAF9
:104D0000FBF752FA0A2190FBF1F201FB120000EBD3
:104D10004001C1EBC0110E9800EBC100C61710EBAB
:104D2000050A664168E70000001002400400002008
:104D3000B0000020000C01400024744970B5054605
:104D4000FBF767FD044620F00040C0F1FF40C00FB4
:104D500008D025F00040C0F1FF40C00F04BF012083
:104D6000FFF7D0FE204670BD0000000000000000EC
:104D70000102030406070809000000000102030401
:104D8000A04D00080000002054000000E64A000882
:104D9000F44D0008540000205C050000F64A0008AD
:104DA00000A24A0400000000000100000000803F53
:104DB0000000803F0000803FE8030000000000008A
:104DC0000000000000000000000A000606000407C2
:104DD000030E0700000000000000000000000000BB
:104DE00000000000000000000000000000000000C3
:044DF00000000000BF
:04000005080000ED02
:00000001FF
