:020000040800F2
:100000000006002001010008E9280008E528000892
:10001000E7280008D50A000855290008000000005C
:1000200000000000000000000000000013010008B4
:10003000E50A00080000000017010008FF2800087A
:100040001B0100081B0100081B0100081B01000820
:100050001B0100081B010008E70A0008ED0A000860
:100060001B0100081B010008F30A0008D90A000858
:100070001B0100081B0100081B0100081B010008F0
:100080001B0100081B0100081B0100081B010008E0
:100090001B0100081B0100081B010008F90A0008E9
:1000A0001B0100081B0100081B0100081B010008C0
:1000B0001B0100081B0100081B0100081B010008B0
:1000C0001B0100081B0100081B0100081B010008A0
:1000D0001B0100081B0100081B0100081B01000890
:1000E0001B0100081B0100081B010008DFF80CD0F1
:1000F00000F046FC00480047D14C000800060020F4
:100100000648804706480047FEE7FEE7FEE7FEE7B1
:10011000FEE7FEE7FEE7FEE7FEE7FEE70D29000843
:10012000ED0000082DE9F05F0546002092469B4651
:1001300088460646814640241BE0284641464746FD
:10014000224600F020F853465A46C01A914110D377
:1001500011461846224600F02FFB2D1A67EB0108C6
:100160004F4622460120002100F026FB17EB000934
:100170004E41201EA4F10104DFDC484631462A46E8
:100180004346BDE8F09F202A04DB203A21FA02F022
:100190000021704721FA02F3D040C2F120029140C1
:1001A00008431946704700000649074A086850434B
:1001B00043F2390210440860400870470149086062
:1001C00070470000700000206D4EC641D2B201E0C1
:1001D00000F8012B491EFBD270470022F6E710B54C
:1001E00013460A4604461946FFF7F0FF204610BDA5
:1001F00030B504460020034600E05B1C934203D266
:10020000E05CCD5C401BF8D030BDF0B480EA010268
:10021000D40F4200B2EB410F02D20246084611460B
:100220004A0042D0C30DDDB2C1F3C752AD1A202D32
:1002300035DAC1F3160141F4000204B15242C5F1AE
:10024000200602FA06F12A411044B3EBD05F23D016
:10025000C4B1012DA0EBC35009DCF0BC4FF000424B
:1002600002EAC352DBB200F5000000F0CFBA400052
:1002700000F1807000EBC350A0F1807040EAD170B3
:10028000490009E0490841EAC071A0EBC35000F5FC
:100290000000400800EBC350F0BC00F0AEBA614271
:1002A000012202EB4101001BF6E7F0BC704781F030
:1002B0000041AAE780F00040A7E780EA010210B5FC
:1002C00002F00043400022D04A001FD0010E01EB93
:1002D0001261C0F35600C2F3560240F4000042F42B
:1002E0000002A0FB022000047F39140400D0401C4F
:1002F00050EA124001D44000491EC2B20C0604EB81
:10030000D010401C4008802A02D003E0002010BD1D
:1003100020F00100002900DA0020184310BD30B49D
:1003200080EA010202F0004530F0004221F0004076
:1003300013D090B1C30DD40DC2F31601C0F3160053
:10034000E41A41F4000140F400027D34914201D3EB
:10035000641C00E04900002C02DA30BC0020704729
:100360004FF400000023914201D3891A034340084F
:100370004FEA4101F7D151B1914202D14FF0004112
:1003800005E002D24FF0010101E06FF0010103EB43
:10039000C450284430BC00F030BA420005D0C0F34D
:1003A000C7525242914201DC0020704700EBC1501D
:1003B00070472DE9FE4F804681EA0300C00F0C46CE
:1003C000009021F0004123F00045B8EB0200A94164
:1003D00005D24046214690461C460B46024623F075
:1003E0000040104347D0270DC7F30A00C3F30A515A
:1003F0000290401A019040286BDAC3F3130040F4D6
:10040000801B0098924620B10023D2EB030A63EBD5
:100410000B0B01985946C0F14002504600F0CCF950
:1004200006460D4650465946019A00F0D4F910EBA5
:1004300008006141002487EA115284EAE7731A43F5
:1004400040D0009A62B3019A012A4FEA075215DCA4
:10045000001B61EB02014FF0004202EA0752CDE9B6
:100460000042001C41F5801132462B4600F03AFA5A
:1004700003B0BDE8F08F40462146F9E7001B61EB71
:100480000201001C41F5801300185B412018A2F501
:10049000001747EB030140EAD570B6196D4111E032
:1004A0006D084FEA360645EAC0754FEA0752001B51
:1004B00061EB0201001C41F5801149084FEA300050
:1004C0000019514132462B4603B0BDE8F04F00F011
:1004D000FAB90098012240000023D0EB020263EB3E
:1004E000E073009821464FEAE074B8EB000061EB3E
:1004F0000401E9E783F000435BE781F0004158E73E
:100500002DE9FE4F81EA030404F0004421F000418C
:1005100000944FF0000B23F0004350EA01045ED03A
:1005200052EA03045BD0C3F30A54C1F30A552C44C6
:10053000A4F2F3340194A0FB0254C1F3130141F47B
:100540008011C3F3130343F4801301FB024400FB47
:10055000034E840A970A44EA815447EA8357A4FB6E
:10056000076802958D0A05FB07854FEA932C04FB6B
:100570000C542705029D4FEA065847EA1637B5EB9B
:1005800008056EEB070C870E920E47EA811742EAC8
:100590008312A7FB0201B6EB0B0164EB00042B0DE9
:1005A00043EA0C335E1844EB1C50DA465146E7FB35
:1005B0000201C5F313044FEA0B3343EA14534FEA25
:1005C0000432019C43EA0603A4F10C040294009C4B
:1005D000CDE900B400F086F903B0BDE8F08F00204B
:1005E0000146F9E72DE9F04D81EA030404F0004BE0
:1005F00021F0004514464FF0000A23F0004150EA74
:10060000050220D054EA01021DD0C5F30A57024664
:10061000C5F31303C1F31300C1F30A5640F4801568
:1006200043F48013A7EB0608101BD64608F2FD38EA
:1006300073EB050002D308F1010801E092185B4159
:10064000B8F1000F03DA00200146BDE8F08D00206C
:100650004FF48011064684460EE0171B73EB050726
:1006600005D3121B63EB050306434CEA010C490852
:100670004FEA300092185B4150EA0107EDD152EA8F
:10068000030012D082EA040083EA0501084305D082
:10069000101BAB4106D20122002306E000224FF0DE
:1006A000004302E06FF0010253101AEB06004CEB1E
:1006B000085110EB0A0041EB0B01BDE8F04D00F0D2
:1006C00002B970B521F0004303430CD0C1F30A55C1
:1006D0000024D5EB040564EB0403D617AD1AB3412F
:1006E00002DB0020014670BD201841EB025170BDB5
:1006F000C10F80EAE0700844CA079623002100F089
:1007000085B896230022114600F080B830B4044624
:1007100096230800214604D0B62330BC002200F006
:1007200075B820460021F8E7C1F30A5210B5C1F3AD
:10073000130140F2FF3341F480119A4201DA0020A4
:1007400010BD40F233439A42A2F2334203DC5242DC
:10075000FFF719FD10BD904010BD00F0004230F0D1
:1007600000400AD0C10D01F56071C0F3160042EAE5
:100770000151C208400711437047002001467047ED
:1007800001F0004330B421F0004150EA010206D0EC
:100790000A0DA2F56072C1F31301002A02DC30BC1D
:1007A00000207047440F44EAC104C100E01830BC87
:1007B00000EBC25000F021B8202A04DB203A00FAF6
:1007C00002F1002070479140C2F1200320FA03F3A8
:1007D000194390407047202A06DBCB17203A41FA94
:1007E00002F043EAE07306E041FA02F3D040C2F1BE
:1007F000200291400843194670470029A8BF70475E
:10080000401C490008BF20F00100704710B4B0FA46
:1008100080FC00FA0CF050EA010404BF10BC7047E1
:1008200049B1CCF1200421FA04F411FA0CF118BFFB
:10083000012121430843A3EB0C01CB1D4FEA0061CA
:100840004FEA102042BF002010BC704700EBC3509D
:1008500010440029A4BF10BC7047401C490008BFC9
:1008600020F0010010BC7047F0B4002802DCF0BC9E
:1008700000207047C0F3C751C0F3160040F40000D9
:10088000CA0701D14000491E3F2202EB6105002248
:1008900011464FF4000626FA01F31344D41884429B
:1008A00001D8001B1A464000491C1729F3DD5100EE
:1008B000814202D24FF0FF3100E0002102EBC5502F
:1008C000F0BCFFF79ABF10B5141E73F1000408DAEC
:1008D000401C41F1000192185B411A4301D120F004
:1008E000010010BD2DE9F04D92469B4611B1B1FAC1
:1008F00081F202E0B0FA80F220329046FFF75CFF0E
:1009000004460F4640EA0A0041EA0B0153465A46A4
:10091000084313D0114653EA010019D0C8F1400230
:100920005046FFF730FC05460E46504659464246B3
:10093000FFF742FF084305D0012004E02046394676
:10094000BDE8F08D0020054346EAE0762C433743AE
:100950000A986305E40AA0EB08000022FD0A44EAB5
:1009600047540A3002D500200146E9E70105101975
:100970006941DDE9084500196941BDE8F04DA2E78C
:10098000064C074D06E0E06840F0010394E80700DC
:1009900098471034AC42F6D3FFF7ACFBF85100088F
:1009A0001852000870B5044600688168C943C90739
:1009B0001CD1816821F00101816000F0D9FD05465C
:1009C0000FE000BF00F0D4FD401B022809D9A06A47
:1009D00040F01000A062E06A40F00100E0620120F7
:1009E00070BD20688068C043C007EBD0002070BD98
:1009F00010B50146406A826A12F0500F05D0006AB5
:100A0000026BBDE8104008461047816A41F400714E
:100A1000816201688968C1F3424107290CD1C1682C
:100A200051B9816A21F480718162816AC90403D459
:100A3000816A41F00101816200F01EF910BD10B51C
:100A4000406A816A41F040018162C16A41F004015B
:100A5000C16200F013F910BD10B5406A00F00DF945
:100A600010BD0000F8B500260446009600688168B5
:100A7000C943C90728D0816841F00101816013484A
:100A800013490068B0FBF1F000E0401E0090002820
:100A9000FBD100F06DFD054611E000BF00F068FDE0
:100AA000401B02280BD9A06A40F01000A062E06A47
:100AB00040F00100E06284F824600120F8BD206865
:100AC0008068C043C007E9D10020F8BD00000020C5
:100AD00040420F00FEE70000014800F08DBA000020
:100AE000A40100207047012000F04ABC022000F061
:100AF00047BC102000F044BC10B5202000F040FCA2
:100B0000402000F03DFCBDE81040802000F038BCE3
:100B1000F8B50025009590F82420AE46012A1ED095
:100B2000012280F824204A681F244FF47873072A92
:100B300017D20668776B93FAA3FCBCFA8CFC521EA2
:100B400002FB0CFC04FA0CF4A74393FAA3F3B3FAE8
:100B500083F30C685A439440274377632DE00220C7
:100B6000F8BD06680D2A14D2376B93FAA3FCBCFAC1
:100B70008CFCD21F02FB0CFC04FA0CF4A74393FA82
:100B8000A3F3B3FA83F30C685A43944027433763C3
:100B900013E0F76A93FAA3FCBCFA8CFC0D3A02FB53
:100BA0000CFC04FA0CF4A74393FAA3F3B3FA83F30F
:100BB0000C685A4394402743F7620A683823072495
:100BC00006680A2A14D3F76893FAA3FCBCFA8CFCD3
:100BD0000A3A02FB0CFC04FA0CF4A74393FAA3F3C1
:100BE000B3FA83F38C685A4394402743F76012E0CA
:100BF000376993FAA3FCBCFA8CFC02FB0CFC04FAE8
:100C00000CF4A74393FAA3F3B3FA83F38C685A4323
:100C10009440274337610A68102A01D0112A20D155
:100C2000124B02689A4217D193681B0219D4936839
:100C300043F4000393600968102912D10C490D4A4E
:100C40000968B1FBF2F101EB8101490000E0491EA6
:100C500000910029FBD104E0816A41F0200181620A
:100C6000012580F824E02846F8BD0000002401405A
:100C70000000002040420F0070477047704700009E
:100C80002DE9F04104004FF0000514D0A06A0026C1
:100C900028B9E66284F82460204600F08BF82046EC
:100CA000FFF780FEA16A01F01001014304D0A06AA1
:100CB00040F01000A06277E0A16A21F4885141F071
:100CC0000201A1626268E16902270A43E16897FABA
:100CD000A7F70B46B7FA87F7B9400A43A1684FF464
:100CE0008077B94208D0012906D00021D4F814C079
:100CF000BCF1010F02D00AE03946F7E7F3B1A36A6D
:100D000043F02003A362E36A43F00103E362236834
:100D1000D3F804C02CF4694C4CEA010CC3F804C0AD
:100D200021688B68DFF884C003EA0C0313438B60EF
:100D3000A168B94210D001290ED016E04FF4604CE2
:100D4000A3699CFAACFCBCFA8CFC5B1E03FA0CF3A6
:100D50000B4343F40061DAE74FF47001256991FA1F
:100D6000A1F1B1FA81F16D1E8D402168CB6A23F4A7
:100D700070032B43CB62216889680D4B1940914267
:100D800008D1E662A16A21F0020141F00101A162ED
:100D9000BDE8F081A06A20F0020040F01000A062DF
:100DA000E06A40F00100E0620120F1E7FDF7E1FFB9
:100DB000FE0E1FFF30B505460068174985B0884212
:100DC00027D11648816941F40071816180696946C3
:100DD00000F4007004900E20009003200190104851
:100DE00000F0DAFA104C0F4880212060002060608B
:100DF000C4E9020189002161890061612021C4E9FF
:100E00000610204600F02EFA08B102F0A7F92C6275
:100E1000656205B030BD00000024014000100240B2
:100E20000008014008000240A401002070B50446FB
:100E300090F8240001280DD0012084F824002046D9
:100E4000FFF710FE02004FF0000005D084F82400E8
:100E5000104670BD022070BDA16A40F20123994383
:100E600041F48071A1621F4D23681F49AB4218D124
:100E70000E6816F4702F14D0A66A46F48016A66287
:100E80000E68760505D5A66A26F4005646F4805607
:100E9000A662A66AF6040AD5E66A26F00606E662A7
:100EA00006E0A66A26F48016A6625E68E9E7E062BC
:100EB00084F824006FF00200186020688368C3F390
:100EC0004243072B05D1A84208D1096811F4702FBD
:100ED00004D0816841F480118160B9E7816841F4F0
:100EE000A001F9E700280140042401402DE9F04762
:100EF000894604463B4900683B4F0E1D9046884298
:100F000001D0B84207D1306810F4702F03D001250A
:100F10002846BDE8F08794F8240001280CD0012071
:100F200084F824002046FFF79DFD05004FF00000E7
:100F300004D084F82400EBE70220EAE7A16A40F637
:100F40000162914341F48071A1622168B94218D1D4
:100F5000326812F4702F14D0A16A41F48011A1629A
:100F60003168490505D5A16A21F4005141F4805149
:100F7000A162A16AC9040AD5E16A21F00601E16211
:100F800006E0A26A22F48012A2624968E9E7E06200
:100F900084F82400216A15488862216A1448C862CE
:100FA000216A1448086321686FF002000860206815
:100FB000816841F480718160216843464A464C3122
:100FC000206A00F077F920688168C1F3424107295F
:100FD000816803D041F48011816099E741F4A00158
:100FE000FAE700000024014000280140F109000850
:100FF000590A00083F0A00082DE9F05FDFF8608217
:101000000446D8F80020DFF858B2954D944E944F1E
:101010000068DFF84C92DFF848A20BF1080B1C3592
:10102000303644374FF400614FF4004C4FF4002E3B
:1010300009F158090AF16C0A584501D1082316E054
:10104000A84201D1802312E0B04201D10B460EE04C
:10105000B84201D163460AE0484501D1734606E033
:10106000504502D14FF4000301E04FF000631A42F3
:1010700031D00268D24312072DD4026822F0080250
:1010800002602068584501D1082114E0A84201D12E
:10109000802110E0B0420ED0B84201D161460AE092
:1010A000484501D1714606E0504502D14FF4000198
:1010B00001E04FF00061C8F80410606B40F00100DF
:1010C0006063042084F82100002084F82000216B54
:1010D00009B1204688476248D0F800C04FF48061CB
:1010E00020680A010B044FF4802E584502D14FF0BE
:1010F000040816E0A84202D14FF0400811E0B042C7
:1011000001D188460DE0B84201D1904609E048453A
:1011100001D1F04605E0504502D14FF4800800E0CF
:1011200098461CEA080F33D0D0F800C06FEA0C0CC8
:101130005FEA4C7C2CD4D0F800C05FEA8C6C05D4FC
:10114000D0F800C02CF0040CC0F800C0206858454E
:1011500001D1042113E0A84201D140210FE0B042A7
:101160000DD0B84201D1114609E0484501D1714680
:1011700005E0504502D14FF4800100E0194638489F
:101180004160112084F82100E16A09B120468847B6
:10119000334AD2F800C05B46206851154FF4005B1B
:1011A0004FF4003E984202D14FF0020817E0A842E7
:1011B00002D14FF0200812E0B04201D188460EE083
:1011C000B84201D1D8460AE0484501D1F04606E0D0
:1011D000504502D14FF4001801E04FF000781CEAAE
:1011E000080F3BD0D0F800C06FEA0C0C5FEA8C7C93
:1011F00034D4D0F800C05FEA8C6C05D4D0F800C0BD
:101200002CF0020CC0F800C02068984201D10221E5
:1012100014E0A84201D1202110E0B0420ED0B84223
:1012200001D159460AE0484501D1714606E05045D2
:1012300002D14FF4001101E04FF000715160606B7A
:101240006063012084F82100002084F82000A16A56
:10125000002903D02046BDE8F05F0847BDE8F09FB5
:101260000000024070B520B190F82110002411B1A7
:1012700003E0012070BD80F82040022180F8211099
:1012800003681A6843F6F0718A43D0E901152943CF
:10129000D0E90356354329434569294385692943E4
:1012A000C5692943114319604463012180F8211065
:1012B000002070BD70B5044690F82000012823D0AE
:1012C000012084F82000022084F8210020680568AD
:1012D00025F001050560204601F030FF2068016817
:1012E00041F0020101602068016841F004010160E1
:1012F0002068016841F0080101602068016841F040
:1013000001010160002070BD022070BD31B500F008
:101310002FF9044600F02CF90099001B8842F9D3FC
:1013200038BD000010B520281FDA144C124A0128DD
:1013300094F905100DD0022817D1002915D00221EB
:10134000104600F007F90128208912D020F0020091
:101350000AE0002909D00121104600F0FBF801281D
:10136000208903D020F00100208110BD40F0010051
:10137000FAE740F00200F7E7000C01400800002007
:10138000044910B50A68024202D00860FFF7CAFF9C
:1013900010BD0000140401402DE9F84FDFF890A1C2
:1013A00000220AF1040B144601274FF00F090BF13C
:1013B000040E00BF0B6807FA04F52B40AB4274D152
:1013C000DFF870C14E68A6EB0C0866452BD00DDC2B
:1013D000032E34D005DC36B3012E19D0022E2FD1C6
:1013E0001BE0112E16D0122E2AD119E0B8F5881F55
:1013F00019D006DCB8F5803F15D0B8F5801F1FD195
:1014000011E0B8F5001F0ED0B8F5041F18D10AE09E
:10141000CA6815E0CA68121D12E0CA6808320FE0F7
:10142000CA680C320CE08A682AB1012A4FF008021F
:1014300003D0456104E0042202E0056100E00022DF
:10144000FF2B01D8064601E000F104064FEA8405AF
:1014500001D9A5F12005D6F800C009FA05F82CEA53
:10146000080C02FA05F54CEA050CC6F800C04D68F8
:10147000ED0057D5304DAE6946F00106AE61AD695D
:1014800024F0030605F0010500952C4D06EB050C34
:10149000DCF80850A6074FEA167809FA08F6B543B3
:1014A000274EB04202D1002610E03BE0254EB0426C
:1014B00001D101260AE0244EB04201D1022605E006
:1014C000224EB04201D1032600E0042606FA08F6B7
:1014D0002E43CCF808604D68DAF80060ED035546FD
:1014E00001D51E4300E09E432E604D68DBF800608E
:1014F000AD035D4601D51E4300E09E432E604D685E
:10150000DEF80060ED02754601D51E4300E09E4303
:101510002E604D68AD020E4D2E6801D51E4300E0D1
:101520009E432E60641C102CFFF444AFBDE8F88F7E
:1015300000040140000011100010024000000140B2
:1015400000080140000C014000100140001401405F
:101550000C0401408068084000D001207047C26838
:101560004A40C26070470AB1016170470904FBE755
:1015700001480068704700006800002070B5040052
:1015800004D094F83500002510B106E0012070BDAC
:1015900084F83450204600F06BFA242084F835009B
:1015A0002068016821F00101016000F091FC014612
:1015B00028482268B1FBF0F05060274A63689342E4
:1015C00006D94FF4967358434FF47A73B0FBF3F097
:1015D0002368401C18626068904208D84000B1FB44
:1015E000F0F0C0F30B01042916D2042014E0A26825
:1015F00052B100EBC00202EB0010B1FBF0F040F47E
:101600004040010507D007E000EB4000B1FBF0F0DF
:1016100040F40040F5E701202168C861D4E90701E2
:10162000084321680860D4E90310084321688860F2
:10163000D4E9050108432168C8602068016841F0C9
:1016400001010160A563202084F8350084F836503C
:10165000002070BD40420F00A08601002DE9FF4F21
:10166000044690F8350081B099468B460125202824
:1016700073D142F2107301224849204602F06BF9FF
:1016800000286AD194F83400012866D0012084F83B
:1016900034002068016821F400610160242084F88E
:1016A00035000026A66320272068016841F4807178
:1016B00001604B4600224FF00111204602F04BF929
:1016C00000285CD121680BF0FE000861FFF750FF95
:1016D0002168804648694969C0F3400094F8352084
:1016E000C1F380214FF0A00A14E000BFB9F1000F50
:1016F00005D0FFF73DFFA0EB0801494501D984F86B
:1017000035A0216848694969C0F3400094F8352044
:10171000C1F38021084301D1A02AE7D184F83570B4
:1017200020684169C943890718D4016841F40071F0
:101730000160206841698069009042F210730122C3
:101740001649204602F007F9C8B984F8357084F8C4
:101750003460002005B0BDE8F08F1DE0016841F461
:10176000007101602068416921F48061416142F2A9
:10177000107301220949204602F0EDF808B1032058
:10178000E8E7284603996D1C88428DD384F83570AC
:1017900084F834600120DDE70220DBE7020010005E
:1017A0002DE9F84F04460AA8984690E8600294F89C
:1017B000350092468B4620287BD1002D61D0002E2B
:1017C0005FD042F2107301226949204602F0C3F84B
:1017D0000028F1D194F8340001286AD0012084F85F
:1017E00034002068016821F400610160222084F83F
:1017F0003500402084F836000027A7634346524650
:1018000059462046CDF8009001F0BDFF28B1A06BED
:1018100084F83470042834D072E0012E1AD0206885
:10182000DFF85081022E01682ED041F48061016002
:101830002068416980690090032E74D8012E18D069
:10184000022E2ED04B4600224146204602F083F85D
:1018500080BB42E02068016821F48061016072B6BB
:101860002068416981690091016841F4007101605B
:1018700062B64946204602F079F9E0B1A06B202813
:101880003ED00120BDE8F88F41F40061016072B6DE
:101890002068416981690091016821F480610160DB
:1018A00062B64B4600224146204602F054F808B981
:1018B00005E05AE024E02068006928704CE072B628
:1018C0002068016841F40071016020680069287097
:1018D00062B62068006968703EE02068016821F403
:1018E0008061016072B62068006905F8010B761E00
:1018F000B6B24B4600224146204602F02CF808B111
:101900000320BFE72068016841F40071016020688E
:10191000006905F8010B62B62068006905F8010B43
:10192000B61E15E0FFE74946204602F01FF90028E1
:10193000A4D12068006905F8010B2068761EB6B2B4
:101940004169C943490704D4006905F8010B761EB3
:10195000B6B2002E7FF470AF202084F8350084F8F2
:10196000367084F8347000208CE702208AE700008B
:1019700002001000040001002DE9F84F0446DDE9E3
:101980000A6590F83500DDF83080994692468B461E
:10199000202868D1002E64D0002D62D042F210734E
:1019A00001223249204601F0D6FFE8BB94F834000A
:1019B000012858D0012084F834002068016821F4FF
:1019C00000610160212084F83500402084F8360051
:1019D0000027A7634B46524659462046CDF8008063
:1019E00001F058FF28B1A06B84F83470042838D077
:1019F00007E04146204602F091F828B1A06B042888
:101A00002AD00320BDE8F88F216816F8010B086181
:101A100020686D1EADB24169C943490707D445B17D
:101A200016F8011B016100E01DE06D1EADB2002D36
:101A3000DFD14146204602F071F80028DED154F88B
:101A4000350B016841F400710160202004F81E0983
:101A5000E77767770020D5E72068016841F40071D7
:101A600001600120CEE70220CCE700000200100058
:101A700000B500680C4985B0884213D14FF440602E
:101A80000090122001900320039069460748FFF759
:101A900083FC0748C16941F48001C161C06900F459
:101AA0008000049005B000BD00580040000C0140CB
:101AB0000010024002480168491C016070470000A4
:101AC00068000020074810B5016841F0100101606E
:101AD000032000F08BF8002000F006F800F016F864
:101AE000002010BD0020024010B5044600F0EAF9C5
:101AF0004FF47A71B0FBF1F000F0DCFE00222146D9
:101B0000501E00F053F8002010BD00001F4808B51B
:101B1000816941F001018161806900F0010000905C
:101B2000032000F063F8002211466FF00B0000F074
:101B30003DF8002211466FF00A0000F037F800224D
:101B400011466FF0090000F031F800221146501FD5
:101B500000F02CF800221146101F00F027F8002298
:101B60001146901E00F022F800221146501E00F08F
:101B70001DF80748416821F0E06141F08061416053
:101B8000416821F0E061416008BD000000100240A2
:101B90000000014000F01F02012191404009800037
:101BA00000F1E020C0F8001170470000F0B40E4BC7
:101BB0001B680C46C3F30223C3F10705042D00D9AB
:101BC0000425191D072901D2002300E0DB1E012690
:101BD00006FA05F1491E214099409E40761E1640A6
:101BE0003143F0BC01F042BC0CED00E0064900F0CE
:101BF000070208684FF6FF03184040EA0220034A34
:101C000010430860704700000CED00E00000FA058A
:101C10002DE9F84305460078454CC00774D0E069CB
:101C200040F08050E061E069424E00F0805000904A
:101C3000306840F480703060FFF79AFC074604E09B
:101C4000FFF796FCC01B642833D83068C005F7D571
:101C5000206A10F4407051D0A98801F4407181428B
:101C60004CD0206A0126310491FAA1F2B2FA82F234
:101C70009300314A20F440701344C3F8006491FA91
:101C8000A1F1B1FA81F102EB81010023C1F8003426
:101C90002062C00732D0FFF76BFC074641F288395B
:101CA0004FF0020808E000BFFFF762FCC11B494586
:101CB00002D90320BDE8F88398FAA8F1B1FA81F1BE
:101CC00041F040014046B6EB511F01D121680BE0C5
:101CD00090FAA0F1B1FA81F141F04001B0EB511F4F
:101CE00001D1216A00E0616A98FAA8F0B0FA80F0A8
:101CF00000F01F0206FA02F00142D5D0206A69689E
:101D000020F44070084320622878800705D5606879
:101D1000A96820F44040084360602878C00605D5D3
:101D20006068E96820F48000084360600020C1E733
:101D30000010024000700040000042422DE9F047D0
:101D4000DFF8708105460E46D8F8000000F0070065
:101D5000B0420CD2D8F8001021F007013143C8F886
:101D60000010D8F8000000F00700B04277D12878C2
:101D7000514C800705D56068A96820F0F000084341
:101D800060602878C00759D06968012001290DD00A
:101D9000022929D05FF0020393FAA3F2B2FA82F289
:101DA00042F02002520904D0226803E04FF40033CD
:101DB000F2E7626A93FAA3F3B3FA83F303F01F0323
:101DC000984002424BD0606820F0030008436060F6
:101DD000FFF7CEFB6968074641F2883001290DD034
:101DE0000229814617D025E04FF00073D4E700BFE9
:101DF000FFF7BEFBC11B494501D918E08146606869
:101E0000C0F381000128F3D118E000BFFFF7B0FB59
:101E1000C11B49450BD86068C0F381000228F5D189
:101E20000CE000BFFFF7A4FBC11B494502D903200A
:101E3000BDE8F087606810F00C0FF3D1D8F80010FF
:101E4000404601F00701B1420BD9016821F00701BA
:101E500031430160006800F00700B04201D001206A
:101E6000E6E72878400705D56068E96820F4E06077
:101E7000084360602878000706D56068296920F467
:101E8000605040EAC100606000F03AF86168F022FA
:101E900092FAA2F201F0F001B2FA82F2D140074ABE
:101EA000515CC840064908600020FFF71DFE002075
:101EB000BEE700000020024000100240E051000890
:101EC000000000200148006870470000000000206A
:101ED00008480949006849684FF4E06292FAA2F2A2
:101EE00001F4E061B2FA82F2D140044A515CC84088
:101EF000704700000000002000100240F051000870
:101F000010B519A385B00FCB8DE80F001AA01B4B9D
:101F1000006804905A681A4812F00C011FD0042976
:101F20001DD008291BD14FF4701494FAA4F402F4C4
:101F30007011B4FA84F4E140D2031DF8011010D5F9
:101F40005A684FF4003393FAA3F302F40032B3FA61
:101F500083F3DA4004AB9A5CB0FBF2F0484305B07F
:101F600010BD08484843FAE70203040506070809BC
:101F70000A0B0C0D0E0F10100102000000100240A1
:101F800000127A0000093D002DE9F84F0446007860
:101F9000F74DC0074FF0010625D068687704C0F3FD
:101FA0008100012807D06868C0F3810002281BD196
:101FB0006868C00318D597FAA7F0B0FA80F040F02F
:101FC0002000400901D0286800E0686A97FAA7F16C
:101FD000B1FA81F101F01F0106FA01F108425ED069
:101FE000606800287CD05AE06068B0F5803F0BD074
:101FF00010B1B0F5A02F11D0286820F480302860EF
:10200000286820F4802002E0286840F480302860AE
:10201000606828B3FFF7ACFA80460BE0286840F40C
:1020200080202860F0E700BFFFF7A2FAA0EB0800CD
:10203000642871D897FAA7F0B0FA80F040F0200039
:10204000400901D0286800E0686A97FAA7F1B1FA60
:1020500081F101F01F0106FA01F10842E4D01EE00F
:10206000FFF786FA804605E0FFF782FAA0EB08004A
:102070006428DED897FAA7F0B0FA80F040F020008C
:10208000400901D0286800E0686A97FAA7F1B1FA20
:1020900081F101F01F0106FA01F10842E4D1207834
:1020A000DFF8D08280074FF000094FF002075BD5C0
:1020B00068684FF0F80B10F00C0F07D06868C0F399
:1020C000810002281CD16868C00319D497FAA7F0D0
:1020D000B0FA80F040F02000400902D0286801E00A
:1020E0008BE0686A97FAA7F1B1FA81F101F01F015C
:1020F00006FA01F108422CD0206901287DD128E0A0
:10210000206990B396FAA6F0B0FA80F048F8206003
:10211000FFF72EFA824607E011E100BFFFF728FA29
:10212000A0EB0A00022884D897FAA7F0B0FA80F052
:1021300040F02000400901D0286800E0686A97FA62
:10214000A7F1B1FA81F101F01F0106FA01F108428D
:10215000E4D028689BFAABF26169B2FA82F220F00F
:10216000F80091400843286025E0FFE796FAA6F1C1
:10217000B1FA81F148F82190FFF7FAF9824605E0BB
:10218000FFF7F6F9A0EB0A000228CCD897FAA7F0DF
:10219000B0FA80F040F02000400901D0286800E04B
:1021A000686A97FAA7F1B1FA81F101F01F0106FA06
:1021B00001F10842E4D1207800076ED5A069B8B3D8
:1021C00096FAA6F0B0FA80F008EB8000C0F88064C0
:1021D000FFF7CEF9824605E0FFF7CAF9A0EB0A0047
:1021E0000228A0D897FAA7F0B0FA80F040F060007B
:1021F000B6EB501F02D128680CE062E197FAA7F015
:10220000B0FA80F040F06000B7EB501F01D1286AAF
:1022100000E0686A97FAA7F1B1FA81F101F01F01B5
:1022200006FA01F21042D7D00120FFF76FF834E030
:10223000FFE796FAA6F1B1FA81F108EB8101C1F846
:102240008094FFF795F9824606E000BFFFF790F90A
:10225000A0EB0A00022872D897FAA7F0B0FA80F033
:1022600040F06000B6EB501F01D128680BE097FAF0
:10227000A7F0B0FA80F040F06000B7EB501F01D13A
:10228000286A00E0686A97FAA7F1B1FA81F101F0D3
:102290001F0106FA01F21042D8D12078400765D517
:1022A000E86940F08050E861E869DFF8CCB000F000
:1022B00080500090DBF8001041F48071CBF80010E2
:1022C000FFF756F9824605E0FFF752F9A0EB0A0046
:1022D000642834D8DBF80000C005F5D5E068012893
:1022E0000AD008B1052813D0286A20F0010028621E
:1022F000286A20F0040002E0286A40F00100286209
:10230000E06841F2883B90B3FFF732F982460BE078
:10231000286A40F004002862EEE700BFFFF728F9C2
:10232000A0EB0A0159450AD897FAA7F0B0FA80F055
:1023300040F04000B6EB501F02D128680CE0A3E04B
:1023400097FAA7F0B0FA80F040F04000B7EB501FCA
:1023500001D1286A00E0686A97FAA7F1B1FA81F121
:1023600001F01F0206FA02F10842D7D031E005E081
:10237000001002400000424200700040FFF7F8F8F1
:10238000824605E0FFF7F4F8A0EB0A0159457BD837
:1023900097FAA7F0B0FA80F040F04000B6EB501F7B
:1023A00001D128680BE097FAA7F0B0FA80F040F06E
:1023B0004000B7EB501F01D1286A00E0686A97FA25
:1023C000A7F1B1FA81F101F01F0206FA02F1084209
:1023D000D8D1E06980B36968C1F38101022970D066
:1023E0004FF080714F000228484609D091FAA1F1C0
:1023F000B1FA81F148F82100FFF7BAF8044669E024
:102400008A4691FAA1F1B1FA81F1C14648F821005A
:10241000FFF7AEF8804605E0FFF7AAF8A0EB08004A
:10242000022854D897FAA7F0B0FA80F040F02000C4
:10243000400902D0286801E061E0686A97FAA7F1D4
:10244000B1FA81F101F01F0106FA01F10842E3D16E
:10245000206AB0F5803F05D16868A16820F400309B
:1024600008436860D4E908010843696821F47411DD
:10247000084368609AFAAAF0B0FA80F049F8206040
:10248000FFF776F8044606E021E000BFFFF770F89A
:10249000001B02281BD897FAA7F0B0FA80F040F092
:1024A0002000400901D0286800E0686A97FAA7F187
:1024B000B1FA81F101F01F0106FA01F10842E5D0FD
:1024C0001DE01EE0FFF754F8001B022802D903208C
:1024D000BDE8F88F97FAA7F0B0FA80F040F020003E
:1024E000400901D0286800E0686A97FAA7F1B1FABC
:1024F00081F101F01F0106FA01F10842E2D100204A
:10250000E6E70120E4E7000010B5040003D094F8EA
:10251000510010B104E0012010BD204600F038F851
:10252000022084F851002068016821F04001016018
:10253000D4E901010843D4E9031211430843616956
:102540000843218B01F400710843E1690843216AC3
:102550000843A16A084321680860A069042101EAD0
:102560001040616A0843216848602168E06A086198
:102570002068C16921F40061C1610449002008702C
:102580006065012084F85100002010BD6C0000201F
:1025900010B50068124986B088421ED11148C16941
:1025A00041F48041C161C0690F4C00F48040049047
:1025B0004FF42040009002200190032003906946D0
:1025C0002046FEF7E9FE00214FF48040CDE90001EE
:1025D000029169462046FEF7DFFE06B010BD0000FE
:1025E0000038004000100240000C01402DE9F84383
:1025F0000025DDF820800446ADF8005090F8510029
:10260000012803D094F8510022287DD169B162B12C
:102610005BB194F85000012876D0012684F8506010
:1026200094F85100012803D005E00120BDE8F883AB
:10263000322084F851006565A263A387E387216394
:10264000A386E386A564E564A06A4FF40057B84208
:1026500009D12068016821F40051016020680168F7
:1026600041F40051016020680168490603D4016803
:1026700041F040010160E0684FF48271B0F5006FF5
:10268000606807D0002867D088426ED1E08E0128AC
:1026900062D06AE020B188420CD1E08E012809D1D5
:1026A000206B21680088C860206B801C2063E08E4E
:1026B000401EE086E08E80B9A06AB84244D120680E
:1026C000016841F4805101603EE02068C068A16B60
:1026D0000880A06B801CA0639EE04346002202217C
:1026E000204601F07DF9002874D1206B2168008814
:1026F000C860206B801C2063E08E401E0004000C2C
:10270000E08609D1A06A00E0C5E0B84204D12068A3
:10271000016841F4805101604346002201212046B6
:1027200001F05EF900286FD12068C068A16B0880B5
:10273000A06B801CA063E08F401EE087E08E002825
:10274000CBD1606800286AD143460022012120468F
:1027500001F046F9F0BBB8E7206B411C216321680A
:102760000078C860E08E401EE086E08E98B9A06ACE
:10277000B84204D12068016841F4805101604346A9
:1027800000220121204601F02BF918BB2068C06807
:10279000A16B087040E0434600220221204601F070
:1027A0001FF9B8B9206B411C216321680078C8600B
:1027B000E08E401E0004000CE08607D1A06AB842FB
:1027C00004D12068016841F4805101600022434631
:1027D000012100E018E0204601F002F9A0B92068CC
:1027E000C168A06B421CA2630170E08F401EE087AD
:1027F000E08E0028CFD1606888B9434600220121CD
:10280000204601F0EDF808B103200FE72068C16809
:10281000A06B421CA2630170E08F401EE087A06A9B
:10282000B8420ED1434600220121204601F0D8F8DB
:1028300018B1606D40F002000DE02068C068ADF88E
:102840000000434601228021204601F0C9F820B152
:10285000606D40F010006065D6E784F85160A06AB2
:10286000B84214D120688168C943C9060FD4616D8C
:1028700041F002016165016821F4005101602068A6
:10288000016841F40051016084F85050CDE684F8AD
:1028900050500020CAE60220C8E64FF0E02104288C
:1028A000086903D020F004000861704740F004007C
:1028B000FAE7704710B5401EB0F1807F01D30120C8
:1028C00010BD4FF0E02460610F21601700F0CEFDD5
:1028D0000020A06107202061002010BD10B5FFF787
:1028E000E8FF10BDFEE7FEE770470021C1700A4611
:1028F000435C491C5A402029FAD3C270704710B576
:10290000FFF7D8F8BDE81040FFF7E8BF0D480168B1
:1029100041F00101016041680B4A114041600168CA
:102920000A4A11400160016821F480210160416878
:1029300021F4FE0141604FF41F0181600449C0038E
:1029400008607047001002400000FFF8FFFFF6FE2D
:1029500008ED00E0FEE7000070B50E4605460024D5
:1029600006E000BF01F09EFA3046FEF7CFFC641C83
:10297000AC42F7DB70BD0021AFF3008070B50546B7
:10298000044639B910E000BF01F08CFA281B641E20
:10299000FEF7BCFC002CF7DC70BD00BF01F082FA32
:1029A0002046641EFEF7B2FC002CF7DC70BD000070
:1029B000012280210148FEF7D6BD0000000C014035
:1029C00010B5002240210448FEF7CDFD0A20BDE8E5
:1029D0001040002100F076BC000C014010B5B6227A
:1029E0001421182000F040FF4FF47A70FEF78EFC9F
:1029F0002D4C0F21A07800F00F02182000F034FFBA
:102A0000E078102100F00F02182000F02DFF0022C6
:102A10001321182000F028FF6420FEF777FC8022A5
:102A20003621182000F020FF20223721182000F046
:102A30001BFF6420FEF76AFC22780F21682000F05B
:102A400013FF62781021682000F00EFF6420FEF76B
:102A50005DFC82224B21102000F006FF6420FEF76F
:102A600055FC01224B21102000F0FEFE6420FEF7F1
:102A70004DFC20794C21C006020E102000F0F4FE1F
:102A80006420FEF743FC17225121102000F0ECFED9
:102A900051225221102000F0E7FE6420FEF736FCA0
:102AA000BDE8104000F002B8520000201CB5002024
:102AB0008DF800006A465D21182000F009FD2D4CBC
:102AC0009DF800006A4660716421182000F000FD46
:102AD0009DF80000E0716A465E21182000F0F8FCC5
:102AE0009DF80000A0716A466521182000F0F0FCF6
:102AF0009DF8000020726A467121182000F0E8FC61
:102B00009DF8000060726A467021182000F0E0FC19
:102B10009DF80000A072022301AA6A21102000F093
:102B2000ADFABDF80400A081022301AA682110209B
:102B300000F0A4FABDF80400E081022301AA6E218E
:102B4000102000F09BFABDF804002082022301AAA5
:102B50006221102000F092FABDF804006082022386
:102B600001AA6C21102000F089FABDF80400A082AF
:102B70001CBD000052000020012240210148FEF748
:102B8000F2BC0000000C014070B50C460546FFF792
:102B900017FF04F01F01284600F025FAFF21284600
:102BA00000F00EFA0446FFF7E7FF204670BD2DE95E
:102BB000F041002516460C4607460A2901D201209D
:102BC00000E000200EB1012100E0002108430FD0F9
:102BD000FFF7F6FE04F01F0040F02001384600F039
:102BE000EFF905463146384600F0FDF9FFF7C4FF1E
:102BF0002846BDE8F08138B501F04AF8182000F009
:102C0000F1FCC8B1682000F0EDFCA8B1102000F084
:102C1000E9FC88B100248DF800406A46214618205E
:102C200000F056FC9DF800004FF4FA75FA2805D024
:102C300029460A20FFF790FE002038BD8DF800409D
:102C40006A460021682000F043FC9DF800000F2830
:102C5000EED18DF8004001224B21102000F004FE3F
:102C60006420FEF753FB6A464021102000F030FC40
:102C70009DF800003228DBD1012038BD10B50022BC
:102C80002D21532000F0F0FD6420FEF73FFB0822C9
:102C90002D21532000F0E8FD0E4C3121207840F02A
:102CA0000402532000F0E0FD62782C21532000F054
:102CB000DBFD00222F21532000F0D6FD00222E2123
:102CC000532000F0D1FD00223821BDE810405320F0
:102CD00000F0CABD4C00002010B581223E216820C2
:102CE00000F0C2FD01221521682000F0BDFD19226F
:102CF0001621682000F0B8FD00221721BDE8104021
:102D0000682000F0B1BD000010B5FFF774FF1C4C47
:102D1000207118B1FFF762FE2079D0B900F076F982
:102D2000207008B1FFF7AAFF00F054FAA07008B1B4
:102D300000F0B6F900F079FA607018B100F0C8F947
:102D4000607810B900F07BF9E070E07808B1FFF727
:102D5000C3FF01F063F801F071F801F085F86069D4
:102D600010F0FF4F09D0E06810F0FF4F05D0206948
:102D700010F0FF4F01D0012010BD002010BD000059
:102D8000080000200749024600200B7913B11046C5
:102D900000F040BC8978002902D0104600F09BBBAF
:102DA00070470000080000203EB51848164901256C
:102DB00001608915C0E902150021416103244FF427
:102DC00060220461C2614160FDF75AFFC0B905206D
:102DD0000095CDE9015069460C48FDF799FE78B998
:102DE00002200090019069460848FDF791FE38B92D
:102DF0000094694605480194FDF78AFE002801D039
:102E000000F0ACF93EBD000000240140E0000020CD
:102E1000F0B5364885B0816941F010018161816962
:102E200001F010010491816941F020018161816903
:102E300001F020010491816941F0040181618169FF
:102E400001F004010491816941F008018161806908
:102E5000274D00F008004FF4005404900022214652
:102E60002846FEF780FB234F01224FF4825138465B
:102E7000FEF779FB002280213846FEF774FB112013
:102E8000CDE900400324694628460394FEF784FAFE
:102E9000194EF020CDE90006022569460295174833
:102EA000FEF77AFACDE90046694638460295FEF704
:102EB00073FA0126E802CDE9000669463846039612
:102EC000FEF76AFAC020CDE9000669460394384649
:102ED000FEF762FA200200900020CDE90105694664
:102EE0003846FEF759FA05B0F0BD00000010024068
:102EF00000100140000C01400000311000080140AA
:102F00000C4810B50A4901600B49416000214FF49B
:102F100080428160C0E9031241618161C161016247
:102F2000FEF72CFB002801D000F018F910BD0000BE
:102F30000058004010010020801A06000F4810B50C
:102F40000D4901604FF48271416000218160C160D0
:102F50004FF400720161C0E905120822C0E907219F
:102F6000416281620A21C162FFF7CEFA002801D0D6
:102F700000F0F4F810BD0000003800404C010020C3
:102F80000A460721FFF713BE2DE9F04107461078E6
:102F900015460E46002480B1FFF712FD46F02001D1
:102FA000384600F020F8295D384600F01CF8641C13
:102FB000E4B2052CF7D1FFF7DFFD2046BDE8F08134
:102FC00003B583B0FF218DF8041064210091012323
:102FD00001AA04A9FFF70AFB10B1FF2005B000BD4C
:102FE0009DF80400FAE703B583B000218DF80410C2
:102FF00064210091012301AA04A9FFF7F7FA10B197
:10300000002005B000BD9DF80400FAE708B500F007
:103010003FFE532000F0E6FA68B16A4600215320D3
:1030200000F056FA9DF80000E52806D04FF4FA713A
:103030000A20FFF791FC002008BD012008BD08B55B
:1030400000F026FE682000F0CDFA90B100208DF847
:10305000000001466A46682000F03AFA9DF8000038
:10306000C0F34500342806D04FF4FA710A20FFF768
:1030700073FC002008BD012008BD00003EB564249B
:103080008DE81C0040000A46014601230348FEF774
:1030900087FB08B100203EBD01203EBD100100208D
:1030A0000A4810B5007800218006020E1E2000F0AC
:1030B000DBFB002201211E2000F0D6FB8022022132
:1030C000BDE810401E2000F0CFBB000050000020E3
:1030D00010B50E4C0F21607841EA0010C2B22021D9
:1030E000692000F0C1FB08222221692000F0BCFB0E
:1030F000207823210007020E692000F0B5FB002292
:103100002E21BDE81040692000F0AEBB4E0000202B
:103110000949024600200B7913B1104600F0FFBAAE
:103120004B7813B1104600F0F8B9C978002902D0E5
:10313000104600F085B970470800002010B50468FB
:1031400063604368102B036803D099600068C26015
:1031500010BD9A600068C16010BD000000215020C1
:10316000FFF70CFC00F094FDBFF34F8F054801689A
:10317000054A01F4E06111430160BFF34F8F00BFC6
:10318000FDE700000CED00E00400FA052DE9F04138
:10319000FEF7EEF905464FF0E02000248069482252
:1031A00023462146FCF7BEFF4FF47A73A5FB036765
:1031B00004FB0373002205FB0232301A62EB0102AA
:1031C0004FF47A71401842F10001BDE8F0811721F7
:1031D000FFF7DABC0EB500F05BFD1E2000F002FA2E
:1031E000F8B16A460A211E2000F072F901AA0B21EB
:1031F0001E2000F06DF902AA0C211E2000F068F9D3
:103200009DF80000482807D19DF80400342803D118
:103210009DF80800332806D04FF4FA710A20FFF712
:103220009BFB00200EBD01200EBD08B500F030FD57
:10323000692000F0D7F980B100208DF800006A46BF
:103240000F21692000F044F99DF80000D32806D032
:103250004FF4FA710A20FFF77FFB002008BD012020
:1032600008BD00000B48007838B1012808D00228BA
:1032700009D003280AD0002070474FF062507047F1
:103280004FF0645070474FF0665070474FF06850F1
:10329000704700004C0000200048704735788E3D94
:1032A0000749024600200B7913B1104600F04BBAD3
:1032B0000978002902D0104600F0A0B8704700003D
:1032C000080000202DE9F04106460F46FFF75EFF9B
:1032D00004460D46FFF75AFF001B61EB0501801BFA
:1032E000B941F7D3BDE8F08170B50D46064600211F
:1032F000FFF74AFC0446C00701D0204670BD00F02D
:10330000D9FD44F0010200213046FFF750FC04468D
:103310002DB12A4610213046FFF736FE0446E12142
:10332000304600F0B1FDFFF743FB0120FDF7EEFF53
:10333000E3E7000070B514460D460646FFF740FB74
:10334000A0213046FFF74FFE07E000BF15F8011B34
:103350003046FFF748FE641EE4B2002CF6D1FFF7BA
:103360000BFCFFF725FB002070BD000000487047F4
:1033700048E13A3F0948007838B1012807D00228CF
:1033800007D0032807D0002070470548704705483C
:103390007047054870470548704700004E00002000
:1033A0000000FA3B00007A3C0000FA3C00007A3D45
:1033B00070B50C4606460021FFF7E6FB054600F017
:1033C00079FD25F0010200213046FFF7F0FB0546AC
:1033D0002CB1224610213046FFF7D6FD0546E121EB
:1033E000304600F051FDFFF7E3FA0120FDF78EFFB4
:1033F000284670BD004870470000203F3EB5044697
:1034000000208DF8080002AA3021532000F060F857
:10341000A0B19DF80800000610D506236A463221A7
:103420005320FFF72BFEBDF800002080BDF80200FE
:103430006080BDF80400A08001203EBD00203EBD9C
:103440001CB5044608236A461B216820FFF716FEB8
:10345000BDF8020040BA2080BDF8040040BA608088
:10346000BDF8060040BAA08001201CBD0907090E66
:10347000002806DA00F00F0000F1E02080F8141DAB
:10348000704700F1E02080F8001470470A48007887
:1034900005280ED2DFE800F00B09070503000748F6
:1034A0007047074870470748704707487047074804
:1034B00070470020704700005200002071BD793B2A
:1034C00000C0F93B00C0793C00C0F93C00C0793D28
:1034D0000123FFF7D3BD3EB5044600208DF8080058
:1034E00002AA09211E20FFF7F3FF9DF808100840EB
:1034F00012D006236A4603211E20FFF7BFFDBDF848
:10350000000040BA2080BDF8040040BA6080BDF8D9
:10351000020040BAA08001203EBD3EB50446002016
:103520008DF8080002AA27216920FFF7D1FFC0B15A
:103530009DF80800000614D506236A46A8216920D4
:10354000FFF79CFDBDF8000020809DF801009DF86C
:10355000031040EA01206080BDF80400A080012033
:103560003EBD00203EBD70B514460D460646FFF731
:1035700027FA61213046FFF723FD07E0FF2130469F
:10358000FFF71EFD641E05F8010BE4B2002CF5D117
:10359000FFF7F2FA17213046FFF7F6FA10F00104B0
:1035A00003D040213046FFF7EBFC204670BD000001
:1035B0000B488078032807D0052808D0082809D0B0
:1035C0000C280AD0002070474FF06A5070474FF027
:1035D0006C5070474FF06E5070474FF0705070470E
:1035E0005200002010B504461E20FFF7C4F9610008
:1035F0004FF47A7305220648FEF730F808B1002030
:1036000010BD00F03DFBFA20FDF780FE012010BD4B
:10361000100100207CB5044608236A464221102090
:10362000FFF72CFD9DF80600C0073BD0BDF8060053
:103630001D4982080023888A8503002A01D0164686
:1036400000E00646B5FBF6F691F90560C3EBC60649
:10365000668000D01046B5FBF0F091F9060003EB50
:10366000C0002080B1F91200B1F91050C0F1000083
:103670004FEAC033888A00B2A2EB000000FB05F0DD
:10368000A3EBA0034FEA42008A89B1F90E1000FBB8
:1036900002F000F5004001EB204093FBF0F0A08029
:1036A0004FF001007CBD00005200002030B593B007
:1036B0000120009000040025CDE901050224CDE998
:1036C00007404FF4E01009906846FEF75DFC90B9A2
:1036D0000AA90F2081E831006002CDE90D05022121
:1036E0000AA8FEF72BFB30B9A00311900F940FA886
:1036F000FEF78EFA08B1FFF731FDFEF7E3FB4FF45A
:103700007A71B0FBF1F0FFF7D5F80420FFF7C5F8A8
:1037100000221146501EFEF749FA13B030BD1CB509
:10372000044606236A4602216820FFF7A7FCBDF87D
:10373000000040426080BDF802002080BDF8040017
:10374000A08001201CBD1CB5044606236A46022148
:103750001820FFF793FCBDF90000C11700EB517072
:10376000C01040426080BDF90200C11700EB5170EB
:10377000C0102080BDF90400C11700EB5170C010CB
:10378000A08001201CBD2DE9F84F044600680F46BB
:10379000DDF828B001689846164641F48061016062
:1037A0002068016841F4807101604FF001195B46A7
:1037B00000224946204600F0CEF8F0BB216807F011
:1037C000FE00086109F1010A5A465146204600F000
:1037D00000FA18B1A06B042811D036E020684169C6
:1037E000806900905946204600F098F950B1A06BCE
:1037F00004282AD12068016841F400710160012089
:10380000BDE8F88FF5B2B8F1010F08D02168300A91
:1038100008615946204600F081F90028E7D1206868
:1038200005615946204600F079F90028DFD120686B
:10383000016841F48071016000E006E05B4600220F
:103840004946204600F087F808B10320D8E72168F0
:10385000F8B240F0010008615A465146204600F097
:10386000B8F90028B6D1CBE717B583B0642401239B
:1038700005AA8DE81C0040000A4601460448FEF7F0
:103880007BF810B1002006B010BD0120FBE700005E
:10389000100100202DE9F843044600680E46DDF8CB
:1038A000208001681F46154641F48071016043463F
:1038B00000224FF00111204600F04DF8D8B92168E0
:1038C00006F0FE00086142461749204600F081F9E3
:1038D00028B1A06B04280ED10120BDE8F883206830
:1038E0004169806900904146204600F017F920B1F7
:1038F000A06B042811D00320EFE7EEB2012F08D00F
:103900002168280A08614146204600F007F900288E
:10391000EED1206806610020DFE72068016841F4ED
:1039200000710160D8E700000200010001684A69E7
:10393000D24352050DD44A6922F480624A610421BF
:103940008163202180F83510002180F83410012097
:103950007047002070472DE9F05F1E4690460C46E8
:103960000546FDF705FE81464FF0000A4FF0200B9B
:10397000C4F30747B8F1000F09D024E0701C06D04B
:10398000D6B1FDF7F5FDA0EB0900B04214D82868C8
:10399000012F06D0806924EA00000004000C1BD02F
:1039A000ECE74069F7E7701C0DD02EB1FDF7E0FDA4
:1039B000A0EB0900B04206D985F835B085F834A0EF
:1039C0000320BDE8F09F2868012F07D0806924EA12
:1039D00000000004000CE6D00020F2E74069F6E7A2
:1039E0002DE9F0471D4690460E460446FDF7C0FD02
:1039F00007465FEA08004FF000084FF4005A4FF006
:103A0000010926D034E0681C23D025B1FDF7B0FDB4
:103A1000C01BA8421DD92068416821F0E001416027
:103A20002068016821F040010160A06A504509D179
:103A30002068016821F4005101602068016841F4A8
:103A40000051016084F8519084F850800320BDE853
:103A5000F0872068806836EA0000D4D10DE0681C49
:103A600006D0002DD7D0FDF783FDC01BA842D2D8C9
:103A70002068806836EA0000F1D00020E7E7000007
:103A800070B58AB028216846FCF7A7FB0021022008
:103A90008DF800008DF80410012270208DF80520AB
:103AA00003238DF801008DF80630082006238DF8D9
:103AB00008308DF802008DF80900FA208DF8070013
:103AC00053238DF8183045248DF819404E251148A0
:103AD0008DF81A5043268DF803108DF81B6040793D
:103AE0008DF80C50C0308DF80D608DF81C008DF8ED
:103AF0000E008DF80A308DF80B4020208DF81D0047
:103B00008DF823108DF824206946034800F0C8F88A
:103B10000AB070BD080000204C01002070B50D46B1
:103B20000446FDF725FD064619E02046FFF7FEFE98
:103B300008B1012070BD681C11D025B1FDF718FD3A
:103B4000801BA8420BD954F8380F40F0200044F8ED
:103B500004092020607000202070032070BD2068C0
:103B60004069C0430006E0D4002070BD2DE9F0415B
:103B700088460446FDF7FCFC00250646202721E088
:103B80004169C943C9060BD4416921F01001416163
:103B9000A56384F8357084F834500120BDE8F081C5
:103BA000B8F1000F04D0FDF7E3FC811B414509D9B2
:103BB00054F8380F40F0200044F80409677025706D
:103BC0000320EBE720684169C9434906D8D40020A7
:103BD000E4E72DE9F04791460D460446FDF7C8FCA1
:103BE000824600274FF02008C5F3074629E02068E9
:103BF0004069C043400512D42068016841F4007157
:103C000001602068416921F4806141610420A06362
:103C100084F8358084F834700120BDE8F087B9F16C
:103C2000FF3F0ED0B9F1000F05D0FDF7A1FCA0EBCE
:103C30000A01494505D984F8358084F83470032099
:103C4000EBE72068012E06D0806925EA0000000419
:103C5000000CE2D0CBE74069F7E7000070B50546FD
:103C6000FDF786FC054E04463068201AA84202D3B0
:103C700000F018F93460012070BD000048000020F9
:103C800000224FF400510148FDF76DBC00100140C7
:103C9000012251030148FDF766BC000000100140FD
:103CA00070B50C46054600F005F962782078E17899
:103CB0000243A0780843024300212846FEF777FF1D
:103CC000227901212846FEF772FF627902212846F7
:103CD000FEF76DFFA27903212846FEF768FF94F8EE
:103CE000230094F8242000F00F0060F31F12042139
:103CF0002846FEF75CFFE079052100F07F022846A8
:103D0000FEF755FF207A617A084340F00102062150
:103D10002846FEF74CFFA07A28B104F10A020A21D6
:103D20002846FFF731F9E07B28B104F10F020B219F
:103D30002846FFF729F9227D1AB10C212846FEF703
:103D400036FF627D1AB10D212846FEF730FFA27DB5
:103D50001AB10E212846FEF72AFFE27D1AB10F2183
:103D60002846FEF724FF207E28B104F11802102116
:103D70002846FFF709F9627F1AB111212846FEF79C
:103D800016FFA27F1AB112212846FEF710FFE27F2C
:103D90001AB113212846FEF70AFF94F820201AB121
:103DA00014212846FEF703FF94F821201AB11521AB
:103DB0002846FEF7FCFE94F822201AB11621284668
:103DC000FEF7F5FE40212846FFF7DAF8E221284603
:103DD00000F05AF830212846FFF7D2F8E1212846B2
:103DE00000F052F86278A07800210243E0780243A4
:103DF0002846FEF7DCFE0A20FDF788FA6278A078F4
:103E000000210243E07840F0020002432846FEF71A
:103E1000CEFE0446FEF7CCFD204670BD10B5064C24
:103E2000207910B1FFF7C4FB03E0207808B1FFF759
:103E300019FA606110BD00000800002010B5094C9F
:103E4000207910B1FFF722FB03E0607818B1FFF78B
:103E500091FAE06010BDE0780028FAD0FFF71CFA74
:103E6000F7E700000800002010B5064C207910B1DB
:103E7000FFF7C0FA03E0A07808B1FFF777FA2061F6
:103E800010BD00000800002070B50C460546FEF786
:103E900097FD21462846FFF7A6F80446FEF76CFE7C
:103EA000204670BD4FF400510148FDF758BB00009B
:103EB00000100140002280210148FDF754BB0000A2
:103EC000000C01400A6802604A6842608A688260A9
:103ED000C968C1607047002141608160C1604FF0D6
:103EE0007E5101607047704713680B6053684B60E8
:103EF00093688B60D268CA60FFF7E4BF2DE9FF4F7B
:103F0000B5B00546C06804902869029068690190C0
:103F1000A86900909A46914601210498FCF73DFA61
:103F20002E9001210298FCF738FA2990012101987E
:103F3000FCF733FA2D9001210098FCF72EFA2F9010
:103F40000198FCF70AFC07460A9088460C461F9128
:103F50000498FCF702FC0122FCF7B3FB83462346DE
:103F60003A460591FCF7CCFAFCF70AFC2A90009837
:103F7000FCF7F3FB06460C46384641460122FCF7A7
:103F8000A0FB32462346FCF7BBFAFCF7F9FB27906F
:103F900004990846FCF791F91E9002990498FCF7E1
:103FA0008CF9179001990498FCF787F91090009903
:103FB0000498FCF782F91B9002990846FCF77DF9FA
:103FC0001D90DDE90110FCF778F91A90009902982C
:103FD000FCF773F901990F900846FCF76EF92090F1
:103FE000DDE90010FCF769F900991C900846FCF720
:103FF00064F9429928900846FCF75FF90646514655
:104000000846FCF75AF9044649460846FCF755F9B4
:104010002146FCF7FAF83146FCF7F7F801F0CAF848
:10402000014610F0FF4F7DD04FF07E50FCF777F93E
:10403000044601464846FCF740F937902146504671
:10404000FCF73BF9389021464298FCF736F948993D
:1040500042900846FCF731F9479904460846FCF7B8
:104060002CF9469907460846FCF727F93946FCF72C
:10407000CCF82146FCF7C9F801F09CF8014610F095
:10408000FF4FD0D04FF07E50FCF749F9044601466F
:104090004698FCF712F9469021464798FCF70DF92F
:1040A000479021464898FCF708F948904698FCF755
:1040B00054FBCDE90D010C46064602460B46584618
:1040C0000599FCF71DFAFCF75BFB82464798FCF765
:1040D00044FB02460B4658460599FCF711FAFCF7DB
:1040E0004FFB81464898FCF738FBCDE90B010246AF
:1040F0000B4658460599FCF703FAFCF741FB80464E
:104100000298FCF72AFB0122CDE91101FCF7D9FA4C
:1041100032462346FCF7F4F9FCF732FB06462899B1
:10412000469800E0FEE3FCF7C8F814902099469802
:10413000FCF7C3F8089048992998FCF7BEF8009955
:10414000FCF7BBF8044647992998FCF7B6F80199A3
:10415000FCF7B3F807461D994698FCF7AEF81690A1
:1041600040460199FCF7A9F8189048460099FCF7D9
:10417000A4F883461E994698FCF79FF85946FCF729
:1041800096F81899FCF741F81699FCF73EF839466D
:10419000FCF73BF82146FCF738F80899FCF787F85C
:1041A0001499FCF784F8044628994798FCF785F899
:1041B000159048992D98FCF780F80099FCF77DF848
:1041C000074620994798FCF778F808901D9947987A
:1041D000FCF773F8139030460199FCF76EF80690DF
:1041E00040460299FCF769F883461E994798FCF708
:1041F00064F8804650460099FCF75FF84146FCF7AA
:1042000004F85946FCF753F80699FBF7FEFF13999B
:10421000FCF74DF80899FBF7F8FF3946FBF7F5FF77
:104220001599FCF744F80146FCF747F80746214684
:104230000846FCF742F83946FBF7E7FF00F0BAFF03
:10424000039028994898FCF738F8089020994898E6
:10425000FCF733F8139047992D98FCF72EF8009946
:10426000FCF72BF804461D994898FCF726F883467E
:1042700030460099FCF721F880461E994898FCF7D3
:104280001CF8074650460199FCF717F806464846C1
:104290000299FCF712F83146FCF709F83946FBF7AA
:1042A000B4FF4146FBF7B1FF5946FCF700F8214641
:1042B000FBF7ABFF1399FBF7FAFF0899FBF7A5FF94
:1042C000059001210398FCF768F8079001210598F3
:1042D000FCF763F80890DDE90B8189462098FCF72C
:1042E0003CFACDE91810074621910C461D98FCF7C1
:1042F00034FA0022FE4B20911D90FCF7FEF83A465E
:104300002346FCF7F7F804460E460598FCF725FA15
:1043100022463346FCF7F4F8CDE9130106460C4675
:10432000DDE90F10FBF771FF0399FBF7C6FFFCF700
:1043300014FA32462346CDE91501FCF73AF8424615
:104340004B46FCF7D7F806460C4601990398FBF755
:10435000B4FF3390FCF701FA32462346FCF7D0F85D
:104360008B461E901C991798FBF74FFF0599FBF79A
:10437000A4FF0446DDE91A01FBF799FF0399FBF757
:104380009CFF2146FBF741FF4799FBF790FF04464E
:10439000319000990398FBF790FF349006460299FC
:1043A0000598FBF78AFF31463090FBF780FF2146E6
:1043B000FBF783FFFCF7D1F92391DDE90D4182463C
:1043C0000E46DDE90F01FBF772FF0599FBF775FF5C
:1043D000FCF7C3F9109089462898FCF7BEF980468F
:1043E000069138460022C24B1899FCF786F84246DF
:1043F000069BFCF77FF880460F460398FCF7ADF963
:1044000042463B46FCF77CF84B46109AFBF7D1FF3F
:10441000224633461A911C90FCF76CF804460E466F
:1044200001990598FBF749FF3290FCF796F922466F
:104430003346FCF765F8064688463898FCF78DF950
:1044400006900F462798FCF788F904468946179886
:10445000FCF783F90122FCF734F94B462246FBF7BF
:10446000A8FF3B46069AFCF745F8044610911B90BE
:104470000F462998FCF771F922463B46CDE9170112
:10448000FCF73EF8069027913798FCF766F98146CD
:1044900009912A98FCF761F904460F460F98FCF73A
:1044A0005CF90122FCF70DF922463B46FCF722F8A5
:1044B0004A46099BFCF71EF804460F902D980F46BC
:1044C000099180F00040FCF748F922463B46FCF792
:1044D00017F8279B069AFBF76CFF32464346FCF71A
:1044E00009F85246239BFBF764FF5B461E9AFBF7D5
:1044F00060FFFCF745F90690DDE90B410E46DDE96A
:1045000013210B46DDE91501FBF753FF2246334625
:10451000FBF7F0FF06460C4602990898FBF7CDFE24
:1045200001463498FBF7C3FEFCF717F932462346E1
:10453000FBF7E6FF89461E90DDE90410319CFBF78E
:10454000BCFE01462B903398FBF75FFE2146FBF73C
:10455000B4FEFCF702F98B46DDE90D2182460B46DD
:104560001A991C98FBF7C6FF06460C460099059859
:10457000FBF7A3FE3390FCF7F0F832462346FBF737
:10458000BFFF80460E464298FCF7E7F804460F4608
:10459000012221991998FCF794F82A901991012287
:1045A00020991D98FCF78DF80022524BFBF7A5FFD0
:1045B000199B2A9AFBF79EFF22463B46FBF79AFF80
:1045C00004460F461D911990DDE911010222FCF706
:1045D00078F822463B46FBF793FF299120901B9FDA
:1045E000109C2E98FCF7B9F83A462346FBF788FF53
:1045F0002C902191099F0F9C2F98FCF7AEF8224632
:104600003B46CDE91101FBF77BFF219B2C9AFBF781
:10461000D0FE299B209AFBF76DFF42463346FBF7FD
:10462000C8FE52465B46FBF7C4FE4B461E9AFBF79C
:10463000C0FEFCF7A5F80590DDE90B410E46DDE96B
:1046400013210B46DDE91501FBF7B3FE2246334685
:10465000FBF750FF06460C4601990898FBF72DFE24
:104660000746DDE90301FBF728FE39462590FBF7F5
:104670001EFEFCF772F832462346FBF741FF064662
:104680000891DDE90210339F319CFBF716FE394695
:104690002790FBF7BAFD2146FBF70FFEFCF75DF80C
:1046A0008A46DDE90D2181460B461A991C98FBF7D5
:1046B00021FF044607980F4680F00040DDF8AC80EB
:1046C0000199FBF7FAFD4146FBF7F1FDFCF745F8D0
:1046D00022463B46FBF714FF80460C460222DDF8DB
:1046E00064B01D9F1F990A98FBF7EBFF5A4603E041
:1046F0000000E03F0000F03F3B46FBF701FF834630
:104700001991DDE91101109B1B9AFBF7F9FE0F4689
:10471000129009990F981F9126902E9880F00040D2
:10472000FCF71BF81F9B269AFBF7EAFE3B46129A02
:10473000FBF73FFE5A46199BFBF7DCFE4246234639
:10474000FBF737FE4A465346FBF733FE3246089BDB
:10475000FBF72FFEFCF714F80890DDE90B410E463D
:10476000DDE913210B46DDE91501FBF722FE2246A8
:104770003346FBF7BFFE06460C462798FBF7EDFFD6
:1047800032462346FBF7BCFE0746DDE93140894649
:104790002599FBF78CFD2146FBF78FFDFBF7DDFF2D
:1047A0008846DDE90D2182460B461A991C98FBF7D5
:1047B000A1FE06460C4600990798FBF77EFD0146D0
:1047C0003098FBF774FDFBF7C8FF32462346FBF732
:1047D00097FE04461B9812900E46DDF840B02D98C7
:1047E000FBF7BBFF5B46129AFBF78AFE83460D91EF
:1047F000DDE91701099B0F9AFBF782FE5A460D9BD4
:10480000FBF7D7FD22463346FBF7D3FD524643461E
:10481000FBF7CFFD3A464B46FBF7CBFDFBF7B0FF6E
:1048200004460146FBF749FD089980460846FBF718
:1048300044FD059907460846FBF73FFD06990646E5
:104840000846FBF73AFD3146FBF7DFFC3946FBF73C
:10485000DCFC4146FBF7D9FC00F0ACFC01464FF014
:104860007E5B5846FBF75BFD064601460698FBF764
:1048700024FD074631460598FBF71FFD059031469C
:104880000898FBF71AFD089031462046FBF715FD06
:1048900007903846FBF761FF06464FF07D580C46FF
:1048A000404600F0FEF9FBF758FF9D4A9D4BFBF791
:1048B00027FE4FF000529C4BFBF722FE3246234668
:1048C000FBF71EFE06460C4645990098FBF7F5FCE3
:1048D000814644990198FBF7F0FC074602984399FA
:1048E00080F00040FBF7E9FC3946FBF7E0FC494665
:1048F000FBF7DDFCFBF731FF4FF0FF32FBF7E1FE8A
:1049000032462346FBF7F6FDFBF73AFF8246059851
:10491000FBF723FF04460E46404600F0C2F9FBF7C2
:104920001CFF00E0F9E07E4A7E4BFBF7E9FD4FF00B
:1049300000527D4BFBF7E4FD22463346FBF7E0FDDA
:1049400006460C4644990098FBF7B7FC814645990A
:104950000198FBF7B2FC074643990498FBF7ADFCBE
:104960003946FBF752FC4946FBF7A1FCFBF7F5FE85
:104970004FF0FF32FBF7A5FE32462346FBF7BAFDA8
:10498000FBF7FEFE81460898FBF7E7FE04460E465D
:10499000404600F086F9FBF7E0FE614A614BFBF709
:1049A000AFFD4FF00052604BFBF7AAFD22463346A5
:1049B000FBF7A6FD06460C4643990098FBF77DFCE5
:1049C000074645990298FBF778FC099044990498AA
:1049D000FBF773FC0999FBF76AFC3946FBF715FCFA
:1049E000FBF7BBFE4FF0FF32FBF76BFE3246234670
:1049F000FBF780FDFBF7C4FE07460798FBF7ADFE0B
:104A000006460C46404600F04CF9FBF7A6FE444A29
:104A1000444BFBF775FD4FF00052434BFBF770FD25
:104A200032462346FBF76CFD06460C464399019837
:104A3000FBF743FC089044990298FBF73EFC804644
:104A400045990498FBF739FC4146FBF7DEFB0899D2
:104A5000FBF72DFCFBF781FE4FF0FF32FBF731FE39
:104A600032462346FBF746FDFBF78AFE804650465A
:104A70003699FBF722FC0499FBF7C7FB064648462C
:104A80003699FBF71AFC0299FBF7BFFB0446384640
:104A90003699FBF712FC0199FBF7B7FB0746404636
:104AA0003699FBF70AFC0099FBF7AFFB80460146FD
:104AB000FBF703FC394603900846FBF7FEFB8146F3
:104AC00021460846FBF7F9FB824631460846FBF7CC
:104AD000F4FB5146FBF799FB4946FBF796FB03991C
:104AE000FBF793FB00F066FB01465846FBF717FC0B
:104AF000814601463046FBF7E0FBE8604946204628
:104B0000FBF7DBFB286149463846FBF7D6FB6861BB
:104B100049464046FBF7D1FBA86139B0BDE8F08FAC
:104B2000182D4454FB210940C7719C3F2DE9F74FD4
:104B300088B014460D46B2F91400FBF7D9FD6E6833
:104B40003146FBF7BAFB0190B4F91200FBF7D0FD38
:104B50003146FBF7B2FB8346B4F91000FBF7C8FD02
:104B60003146FBF7AAFB8246B4F90E00FBF7C0FD05
:104B7000AE683146FBF7A1FBFBF7EFFD2E4F2F4B45
:104B80003A46FBF7BDFC00222D4BFBF72BFDFBF754
:104B9000F7FD8146B4F90C00FBF7AAFD3146FBF79F
:104BA0008CFBFBF7DAFD3A46244BFBF7A9FC00220D
:104BB000234BFBF717FDFBF7E3FD8046B4F90A0032
:104BC000FBF796FD3146FBF778FBFBF7C6FD3A464F
:104BD0001A4BFBF795FC0022194BFBF703FDFBF783
:104BE000CFFD0746B4F90800FBF782FD2968009164
:104BF000FBF763FB0646B4F90600FBF779FD009965
:104C0000FBF75BFB0790B4F90400FBF771FD00991B
:104C1000FBF753FB01990246CDE905B18DE8C007CA
:104C200021682846079BFFF769F908980BB02946C9
:104C3000BDE8F04F00F006B8182D4454FB210940A0
:104C40000080664010B50C46FFF745F9E168016049
:104C5000616981F000414160A1698160216981F051
:104C60000041C16010BDF0B589B01D4616460C4626
:104C70000C30FFF730F9A0F10C0704A887E87000AA
:104C8000FFF729F9024607F10C016846FFF72CF9F6
:104C90006846FFF728F904A8FFF725F909B0384658
:104CA000F0BD00F087BA02E008C8121F08C1002A50
:104CB000FAD170477047002001E001C1121F002A9D
:104CC000FBD1704701490860704700007400002064
:104CD0009EB0FCF7F7FEFEF7E9FCFEF799F8FE48F8
:104CE000416941F0010141614069002200F0010089
:104CF000009011460B20FCF759FF0B20FCF74AFFF0
:104D0000FEF7FEF8FEF71AF9FEF74EF800221146FC
:104D10000620FCF74BFF0620FCF73CFF0022114663
:104D20000720FCF743FF0720FCF734FF0022114661
:104D30000A20FCF73BFF0A20FCF72CFF002211465B
:104D40001720FCF733FF1720FCF724FFFEF7A0FF26
:104D50000122E24D140321462846FCF704FC1E20E4
:104D6000FDF709FE002221462846FCF7FCFBFDF773
:104D7000CBFFDB4CE071A0B1FEF78AFFFEF780FEAF
:104D8000A07170B1FF280CD0FEF782FFD548FCF768
:104D90004DF830B9D34903223039D248FCF7A6F890
:104DA00008B1FEF7DBF9002060714FF4007128466E
:104DB000FCF7D0FB012800D0002060714FF4807117
:104DC000C648FCF7C7FB01280CD0002061790844D5
:104DD00040B26071FBF7F2F994F90500012803DD98
:104DE000192002E00220F1E70520BD4C0A900026C0
:104DF000D4E90431B3460BA8E268FFF734FF94F915
:104E00000500DFF8E0A20228AAF1300A01D001284B
:104E100037D1DFF8D0920025A9F124090120FCF751
:104E200075FA00245AF82400FBF76BFCFBF795FC9D
:104E3000AD4AAE4BFBF764FB0746884659F82400A1
:104E4000FBF75FFCFBF789FCA94AAA4BFBF758FB71
:104E500043463A46FBF7ADFAFBF766FC49F82400F7
:104E6000641C4946032CDDDB6D1C642DD6DB9D4A9A
:104E70000020183A51F8203042F82030401C032816
:104E8000F8DB4FF0010905A8FFF725F89548002148
:104E90006C30FEF729FA002007460146149090482E
:104EA0004181018100248F48303850F82400FBF7FD
:104EB00028FCFBF752FC8C4A8C4BFBF721FBDFF8FC
:104EC00024A20546AAF1240A88465AF82400FBF7D2
:104ED00018FCFBF742FC864A864BFBF711FB2A467F
:104EE0004346FBF766FAFBF71FFC4AF82400641CF4
:104EF000032CD8DB51460C2201F11800FBF778F99E
:104F000048B1AAF1440000F144015C300EC980E8C8
:104F10000E004FF0010B724C60892189884203D04A
:104F2000208960814FF0010BA069FEF797FEDFF842
:104F3000B4A14FF47A70AAF1680AA0610AF10400E2
:104F4000FEF7AEF940EA06050AF10A00FEF7E0F8BE
:104F500040EA05080AF11000FDF714FF40EA0806D0
:104F6000FEF714F9C4E90E01D4E90C2380460D467E
:104F7000801A61EB0301FBF7C9FB5F49FBF7CFF92F
:104F8000CAF800008EB1C4E90C8552460BA915A8D9
:104F9000FFF7CCFD15AA05A919A8FEF7A5FF19A8CA
:104FA000FEF7A1FF15A8FEF79EFFB9F1000F0AD189
:104FB0004C486C30FEF70BF9A07140F34010401CD8
:104FC0005FEA00097ED0FCF7D3FA216A884279D3E0
:104FD00044484FF0000949466C30FEF7E9F9642176
:104FE000A046A16136B398F80500002640F01001F4
:104FF0003C48444652380170B0F80110491CA0F8F2
:105000000110C67005994160069981600799C160D9
:1050100008990161FDF769FC32492022523901F1FA
:10502000BE00FEF787F92F486C30FEF7D0F8A0716C
:10503000C006F8D5BBF1000F6BD02A4C98F80500DC
:10504000523C40F040002070B4F801004FF0000BDB
:10505000401CA4F8010004F13A0A84F803B05D464C
:10506000DAF80000FBF74DFB029004F12E00006817
:10507000FBF747FB0299FBF71AF96FF00A01FBF700
:105080008CF9C4F80600C4F80A50DAF80400FBF7FB
:1050900038FB054604F12E004068FBF732FB294639
:1050A000FBF705F96FF00A01FBF777F9C4F80E007A
:1050B000C4F81200B8F80A00A0800698A06007980B
:1050C000E06000E039E0089820612046FDF70DFC23
:1050D0002022214612E01CE000100240000C01409A
:1050E00008000020E00000209A9999999999B93F09
:1050F000CDCCCCCCCCCCEC3F0024744901F1BE002B
:10510000FEF718F944462948FEF761F8A071C00679
:10511000F9D5FCF72DFA0446FBF746F80A2190FB77
:10512000F1F201FB12010A9808442118C8F8201076
:1051300000211E48FEF7D8F827E01C48FEF747F884
:10514000A071C00721D120221848E169FEF70BFAAF
:10515000E06994F905100278914313D1B0F8011079
:10516000149A91420ED01491007901280AD1FCF7CB
:10517000FFF9E1690122B1F80910471811030C4841
:10518000FCF7F1F9E169FF200870002F3FF48AAEC7
:10519000FCF7EEF9B8427FF685AE00224FF480515D
:1051A0000348FCF7E0F900277CE600004C010020F2
:1051B000000C014070B50546FBF756FB044620F095
:1051C0000040C0F1FF40C00F08D025F00040C0F102
:1051D000FF40C00F04BF0120FFF774FD204670BDE3
:1051E0000000000000000000010203040607080997
:1051F0000000000001020304185200080000002013
:1052000078000000A64C00089052000878000020AA
:1052100088050000B64C000800A24A040000000007
:105220000000000000010000000000000000803FBE
:105230000000803F0000803FE8030000DC01002008
:10524000000000000000000000000000000000005E
:10525000000000000000000000000000000000004E
:1052600000000000000A000606000407030E070005
:10527000000000000000000000000000000000002E
:10528000000000000000000000000000000000001E
:04000005080000ED02
:00000001FF
