:020000040800F2
:1000000010060020010100083528000831280008EA
:1000100033280008BD0A00088D28000800000000F1
:1000200000000000000000000000000013010008B4
:10003000CD0A00080000000017010008372800085A
:100040001B0100081B0100081B0100081B01000820
:100050001B0100081B0100081B0100081B01000810
:100060001B0100081B0100081B010008C10A000851
:100070001B0100081B0100081B0100081B010008F0
:100080001B0100081B0100081B0100081B010008E0
:100090001B0100081B0100081B0100081B010008D0
:1000A0001B0100081B0100081B0100081B010008C0
:1000B0001B0100081B0100081B0100081B010008B0
:1000C0001B0100081B0100081B0100081B010008A0
:1000D0001B0100081B0100081B0100081B01000890
:1000E0001B0100081B0100081B010008DFF80CD0F1
:1000F00000F03AFC00480047114C000810060020B0
:100100000648804706480047FEE7FEE7FEE7FEE7B1
:10011000FEE7FEE7FEE7FEE7FEE7FEE7452800080C
:10012000ED0000082DE9F05F0546002092469B4651
:1001300088460646814640241BE0284641464746FD
:10014000224600F020F853465A46C01A914110D377
:1001500011461846224600F022FB2D1A67EB0108D3
:100160004F4622460120002100F019FB17EB000941
:100170004E41201EA4F10104DFDC484631462A46E8
:100180004346BDE8F09F202A04DB203A21FA02F022
:100190000021704721FA02F3D040C2F120029140C1
:1001A00008431946704700000649074A086850434B
:1001B00043F2390210440860400870470149086062
:1001C00070470000680000206D4EC641D2B201E0C9
:1001D00000F8012B491EFBD270470022F6E710B54C
:1001E00013460A4604461946FFF7F0FF204610BDA5
:1001F000F0B480EA0102D40F4200B2EB410F02D208
:100200000246084611464A0042D0C30DDDB2C1F392
:10021000C752AD1A202D35DAC1F3160141F40002A0
:1002200004B15242C5F1200602FA06F12A411044F7
:10023000B3EBD05F23D0C4B1012DA0EBC35009DCD8
:10024000F0BC4FF0004202EAC352DBB200F50000FE
:1002500000F0CFBA400000F1807000EBC350A0F175
:10026000807040EAD170490009E0490841EAC07154
:10027000A0EBC35000F50000400800EBC350F0BCF9
:1002800000F0AEBA6142012202EB4101001BF6E729
:10029000F0BC704781F00041AAE780F00040A7E77A
:1002A00080EA010210B502F00043400022D04A006B
:1002B0001FD0010E01EB1261C0F35600C2F35602CB
:1002C00040F4000042F40002A0FB022000047F3949
:1002D000140400D0401C50EA124001D44000491ED2
:1002E000C2B20C0604EBD010401C4008802A02D099
:1002F00003E0002010BD20F00100002900DA0020FA
:10030000184310BD30B480EA010202F0004530F01D
:10031000004221F0004013D090B1C30DD40DC2F3C0
:100320001601C0F31600E41A41F4000140F4000283
:100330007D34914201D3641C00E04900002C02DAB4
:1003400030BC002070474FF400000023914201D3DD
:10035000891A034340084FEA4101F7D151B1914254
:1003600002D14FF0004105E002D24FF0010101E05F
:100370006FF0010103EBC450284430BC00F030BAE8
:10038000420005D0C0F3C7525242914201DC002026
:10039000704700EBC15070472DE9FE4F804681EA5F
:1003A0000300C00F0C46009021F0004123F00045EF
:1003B000B8EB0200A94105D24046214690461C46B2
:1003C0000B46024623F00040104347D0270DC7F3E9
:1003D0000A00C3F30A510290401A019040286BDAD8
:1003E000C3F3130040F4801B0098924620B1002311
:1003F000D2EB030A63EB0B0B01985946C0F14002A4
:10040000504600F0CCF906460D4650465946019A32
:1004100000F0D4F910EB08006141002487EA115282
:1004200084EAE7731A4340D0009A62B3019A012A22
:100430004FEA075215DC001B61EB02014FF000424E
:1004400002EA0752CDE90042001C41F58011324614
:100450002B4600F03AFA03B0BDE8F08F4046214643
:10046000F9E7001B61EB0201001C41F58013001845
:100470005B412018A2F5001747EB030140EAD57055
:10048000B6196D4111E06D084FEA360645EAC075B0
:100490004FEA0752001B61EB0201001C41F580117D
:1004A00049084FEA30000019514132462B4603B04B
:1004B000BDE8F04F00F0FAB9009801224000002397
:1004C000D0EB020263EBE073009821464FEAE07440
:1004D000B8EB000061EB0401E9E783F000435BE760
:1004E00081F0004158E72DE9FE4F81EA030404F052
:1004F000004421F0004100944FF0000B23F0004332
:1005000050EA01045ED052EA03045BD0C3F30A54FC
:10051000C1F30A552C44A4F2F3340194A0FB025415
:10052000C1F3130141F48011C3F3130343F48013A7
:1005300001FB024400FB034E840A970A44EA8154FB
:1005400047EA8357A4FB076802958D0A05FB0785D8
:100550004FEA932C04FB0C542705029D4FEA0658E2
:1005600047EA1637B5EB08056EEB070C870E920EBF
:1005700047EA811742EA8312A7FB0201B6EB0B019F
:1005800064EB00042B0D43EA0C335E1844EB1C5063
:10059000DA465146E7FB0201C5F313044FEA0B3379
:1005A00043EA14534FEA0432019C43EA0603A4F1E0
:1005B0000C040294009CCDE900B400F086F903B06D
:1005C000BDE8F08F00200146F9E72DE9F04D81EA02
:1005D000030404F0004B21F0004514464FF0000ADC
:1005E00023F0004150EA050220D054EA01021DD058
:1005F000C5F30A570246C5F31303C1F31300C1F351
:100600000A5640F4801543F48013A7EB0608101B2C
:10061000D64608F2FD3873EB050002D308F1010855
:1006200001E092185B41B8F1000F03DA00200146A7
:10063000BDE8F08D00204FF48011064684460EE0A0
:10064000171B73EB050705D3121B63EB050306436A
:100650004CEA010C49084FEA300092185B4150EA1D
:100660000107EDD152EA030012D082EA040083EAC6
:100670000501084305D0101BAB4106D2012200231F
:1006800006E000224FF0004302E06FF00102531039
:100690001AEB06004CEB085110EB0A0041EB0B0182
:1006A000BDE8F04D00F002B970B521F000430343FE
:1006B0000CD0C1F30A550024D5EB040564EB040308
:1006C000D617AD1AB34102DB0020014670BD2018D9
:1006D00041EB025170BDC10F80EAE0700844CA07C7
:1006E0009623002100F085B896230022114600F0E1
:1006F00080B830B4044696230800214604D0B623BF
:1007000030BC002200F075B820460021F8E7C1F3A4
:100710000A5210B5C1F3130140F2FF3341F48011C6
:100720009A4201DA002010BD40F233439A42A2F20D
:10073000334203DC5242FFF726FD10BD904010BD4E
:1007400000F0004230F000400AD0C10D01F56071A8
:10075000C0F3160042EA0151C20840071143704736
:1007600000200146704701F0004330B421F0004101
:1007700050EA010206D00A0DA2F56072C1F313011E
:10078000002A02DC30BC00207047440F44EAC10458
:10079000C100E01830BC00EBC25000F021B8202AA4
:1007A00004DB203A00FA02F1002070479140C2F1C8
:1007B000200320FA03F3194390407047202A06DBF8
:1007C000CB17203A41FA02F043EAE07306E041FA1F
:1007D00002F3D040C2F1200291400843194670470D
:1007E0000029A8BF7047401C490008BF20F0010045
:1007F000704710B4B0FA80FC00FA0CF050EA010423
:1008000004BF10BC704749B1CCF1200421FA04F4B4
:1008100011FA0CF118BF012121430843A3EB0C018D
:10082000CB1D4FEA00614FEA102042BF002010BCF0
:10083000704700EBC35010440029A4BF10BC7047A0
:10084000401C490008BF20F0010010BC7047F0B404
:10085000002802DCF0BC00207047C0F3C751C0F391
:10086000160040F40000CA0701D14000491E3F2293
:1008700002EB6105002211464FF4000626FA01F34F
:100880001344D418844201D8001B1A464000491C66
:100890001729F3DD5100814202D24FF0FF3100E011
:1008A000002102EBC550F0BCFFF79ABF10B5141E33
:1008B00073F1000408DA401C41F1000192185B4119
:1008C0001A4301D120F0010010BD2DE9F04D9246F0
:1008D0009B4611B1B1FA81F202E0B0FA80F2203207
:1008E0009046FFF75CFF04460F4640EA0A0041EAE3
:1008F0000B0153465A46084313D0114653EA0100F0
:1009000019D0C8F140025046FFF73DFC05460E469F
:10091000504659464246FFF742FF084305D00120A2
:1009200004E020463946BDE8F08D0020054346EA44
:10093000E0762C4337430A986305E40AA0EB0800ED
:100940000022FD0A44EA47540A3002D5002001463D
:10095000E9E7010510196941DDE908450019694118
:10096000BDE8F04DA2E70000064C074D06E0E06848
:1009700040F0010394E8070098471034AC42F6D3E6
:10098000FFF7B8FB904F0008B04F000870B5044661
:1009900000688168C943C9071CD1816821F0010141
:1009A000816000F08BFD05460FE000BF00F086FD82
:1009B000401B022809D9A06A40F01000A062E06A3A
:1009C00040F00100E062012070BD20688068C043F3
:1009D000C007EBD0002070BD10B50146406A826AA6
:1009E00012F0500F05D0006A026BBDE810400846B7
:1009F0001047816A41F40071816201688968C1F31E
:100A0000424107290CD1C16851B9816A21F4807132
:100A10008162816AC90403D4816A41F00101816263
:100A200000F00AF910BD10B5406A816A41F040013A
:100A30008162C16A41F00401C16200F0FFF810BD9B
:100A400010B5406A00F0F9F810BD0000F8B50026B6
:100A50000446009600688168C943C90728D08168A8
:100A600041F001018160134813490068B0FBF1F0C7
:100A700000E0401E00900028FBD100F01FFD05465D
:100A800011E000BF00F01AFD401B02280BD9A06A3C
:100A900040F01000A062E06A40F00100E06284F8DB
:100AA00024600120F8BD20688068C043C007E9D1F8
:100AB0000020F8BD0000002040420F00FEE70000CB
:100AC000014800F079BA0000B4010020704700002E
:100AD000F8B50025009590F82420AE46012A1ED0D6
:100AE000012280F824204A681F244FF47873072AD3
:100AF00017D20668776B93FAA3FCBCFA8CFC521EE3
:100B000002FB0CFC04FA0CF4A74393FAA3F3B3FA28
:100B100083F30C685A439440274377632DE0022007
:100B2000F8BD06680D2A14D2376B93FAA3FCBCFA01
:100B30008CFCD21F02FB0CFC04FA0CF4A74393FAC2
:100B4000A3F3B3FA83F30C685A4394402743376303
:100B500013E0F76A93FAA3FCBCFA8CFC0D3A02FB93
:100B60000CFC04FA0CF4A74393FAA3F3B3FA83F34F
:100B70000C685A4394402743F7620A6838230724D5
:100B800006680A2A14D3F76893FAA3FCBCFA8CFC13
:100B90000A3A02FB0CFC04FA0CF4A74393FAA3F301
:100BA000B3FA83F38C685A4394402743F76012E00A
:100BB000376993FAA3FCBCFA8CFC02FB0CFC04FA28
:100BC0000CF4A74393FAA3F3B3FA83F38C685A4364
:100BD0009440274337610A68102A01D0112A20D196
:100BE000124B02689A4217D193681B0219D493687A
:100BF00043F4000393600968102912D10C490D4A8F
:100C00000968B1FBF2F101EB8101490000E0491EE6
:100C100000910029FBD104E0816A41F0200181624A
:100C2000012580F824E02846F8BD0000002401409A
:100C30000000002040420F007047704770470000DE
:100C40002DE9F04104004FF0000514D0A06A002601
:100C500028B9E66284F82460204600F08BF820462C
:100C6000FFF794FEA16A01F01001014304D0A06ACD
:100C700040F01000A06277E0A16A21F4885141F0B1
:100C80000201A1626268E16902270A43E16897FAFA
:100C9000A7F70B46B7FA87F7B9400A43A1684FF4A4
:100CA0008077B94208D0012906D00021D4F814C0B9
:100CB000BCF1010F02D00AE03946F7E7F3B1A36AAD
:100CC00043F02003A362E36A43F00103E362236875
:100CD000D3F804C02CF4694C4CEA010CC3F804C0EE
:100CE00021688B68DFF884C003EA0C0313438B6030
:100CF000A168B94210D001290ED016E04FF4604C23
:100D0000A3699CFAACFCBCFA8CFC5B1E03FA0CF3E6
:100D10000B4343F40061DAE74FF47001256991FA5F
:100D2000A1F1B1FA81F16D1E8D402168CB6A23F4E7
:100D300070032B43CB62216889680D4B19409142A7
:100D400008D1E662A16A21F0020141F00101A1622D
:100D5000BDE8F081A06A20F0020040F01000A0621F
:100D6000E06A40F00100E0620120F1E7FDF7E1FFF9
:100D7000FE0E1FFF30B505460068174985B0884252
:100D800028D11648816941F4007181618069694602
:100D900000F400700490FE200090032001901048A1
:100DA00000F0A0FA104C0F48206000206060A060A6
:100DB0008020E06080002061800060612020A061D0
:100DC0000002E061204600F02DFA08B102F066F959
:100DD0002C62656205B030BD002401400010024065
:100DE0000008014008000240B401002070B504462C
:100DF00090F8240001280DD0012084F8240020461A
:100E0000FFF724FE02004FF0000005D084F8240014
:100E1000104670BD022070BDA16A40F201239943C3
:100E200041F48071A1621F4D23681F49AB4218D164
:100E30000E6816F4702F14D0A66A46F48016A662C7
:100E40000E68760505D5A66A26F4005646F4805647
:100E5000A662A66AF6040AD5E66A26F00606E662E7
:100E600006E0A66A26F48016A6625E68E9E7E062FC
:100E700084F824006FF00200186020688368C3F3D0
:100E80004243072B05D1A84208D1096811F4702FFD
:100E900004D0816841F480118160B9E7816841F430
:100EA000A001F9E700280140042401402DE9F047A2
:100EB000894604463B4900683B4F0E1D90468842D8
:100EC00001D0B84207D1306810F4702F03D001254B
:100ED0002846BDE8F08794F8240001280CD00120B2
:100EE00084F824002046FFF7B1FD05004FF0000014
:100EF00004D084F82400EBE70220EAE7A16A40F678
:100F00000162914341F48071A1622168B94218D114
:100F1000326812F4702F14D0A16A41F48011A162DA
:100F20003168490505D5A16A21F4005141F4805189
:100F3000A162A16AC9040AD5E16A21F00601E16251
:100F400006E0A26A22F48012A2624968E9E7E06240
:100F500084F82400216A15488862216A1448C8620E
:100F6000216A1448086321686FF002000860206855
:100F7000816841F480718160216843464A464C3162
:100F8000206A00F077F920688168C1F3424107299F
:100F9000816803D041F48011816099E741F4A00198
:100FA000FAE700000024014000280140D9090008A8
:100FB000410A0008270A00082DE9F05FDFF8608287
:100FC0000446D8F80020DFF858B2954D944E944F5F
:100FD0000068DFF84C92DFF848A20BF1080B1C35D3
:100FE000303644374FF400614FF4004C4FF4002E7C
:100FF00009F158090AF16C0A584501D1082316E095
:10100000A84201D1802312E0B04201D10B460EE08C
:10101000B84201D163460AE0484501D1734606E073
:10102000504502D14FF4000301E04FF000631A4233
:1010300031D00268D24312072DD4026822F0080290
:1010400002602068584501D1082114E0A84201D16E
:10105000802110E0B0420ED0B84201D161460AE0D2
:10106000484501D1714606E0504502D14FF40001D8
:1010700001E04FF00061C8F80410606B40F001001F
:101080006063042084F82100002084F82000216B94
:1010900009B1204688476248D0F800C04FF480610B
:1010A00020680A010B044FF4802E584502D14FF0FE
:1010B000040816E0A84202D14FF0400811E0B04207
:1010C00001D188460DE0B84201D1904609E048457B
:1010D00001D1F04605E0504502D14FF4800800E010
:1010E00098461CEA080F33D0D0F800C06FEA0C0C09
:1010F0005FEA4C7C2CD4D0F800C05FEA8C6C05D43D
:10110000D0F800C02CF0040CC0F800C0206858458E
:1011100001D1042113E0A84201D140210FE0B042E7
:101120000DD0B84201D1114609E0484501D17146C0
:1011300005E0504502D14FF4800100E019463848DF
:101140004160112084F82100E16A09B120468847F6
:10115000334AD2F800C05B46206851154FF4005B5B
:101160004FF4003E984202D14FF0020817E0A84227
:1011700002D14FF0200812E0B04201D188460EE0C3
:10118000B84201D1D8460AE0484501D1F04606E010
:10119000504502D14FF4001801E04FF000781CEAEE
:1011A000080F3BD0D0F800C06FEA0C0C5FEA8C7CD3
:1011B00034D4D0F800C05FEA8C6C05D4D0F800C0FD
:1011C0002CF0020CC0F800C02068984201D1022126
:1011D00014E0A84201D1202110E0B0420ED0B84264
:1011E00001D159460AE0484501D1714606E0504513
:1011F00002D14FF4001101E04FF000715160606BBB
:101200006063012084F82100002084F82000A16A96
:10121000002903D02046BDE8F05F0847BDE8F09FF5
:101220000000024070B520B190F82110002411B1E7
:1012300003E0012070BD80F82040022180F82110D9
:1012400003681A6843F6F0718A43D0E9011529430F
:10125000D0E9035635432943456929438569294324
:10126000C5692943114319604463012180F82110A5
:10127000002070BD70B5044690F82000012823D0EE
:10128000012084F82000022084F8210020680568ED
:1012900025F001050560204601F0F0FE2068016898
:1012A00041F0020101602068016841F00401016021
:1012B0002068016841F0080101602068016841F080
:1012C00001010160002070BD022070BD31B500F049
:1012D000F5F8044600F0F2F80099001B8842F9D3B3
:1012E00038BD00002DE9F84FDFF890A100220AF187
:1012F000040B144601274FF00F090BF1040E00BF39
:101300000B6807FA04F52B40AB4274D1DFF870C1CB
:101310004E68A6EB0C0866452BD00DDC032E34D0AE
:1013200005DC36B3012E19D0022E2FD11BE0112E71
:1013300016D0122E2AD119E0B8F5881F19D006DC74
:10134000B8F5803F15D0B8F5801F1FD111E0B8F572
:10135000001F0ED0B8F5041F18D10AE0CA6815E0C6
:10136000CA68121D12E0CA6808320FE0CA680C325F
:101370000CE08A682AB1012A4FF0080203D04561C7
:1013800004E0042202E0056100E00022FF2B01D806
:10139000064601E000F104064FEA840501D9A5F1F3
:1013A0002005D6F800C009FA05F82CEA080C02FA64
:1013B00005F54CEA050CC6F800C04D68ED0057D5A0
:1013C000304DAE6946F00106AE61AD6924F003060A
:1013D00005F0010500952C4D06EB050CDCF80850D6
:1013E000A6074FEA167809FA08F6B543274EB04229
:1013F00002D1002610E03BE0254EB04201D101268B
:101400000AE0244EB04201D1022605E0224EB0424D
:1014100001D1032600E0042606FA08F62E43CCF894
:1014200008604D68DAF80060ED03554601D51E43AB
:1014300000E09E432E604D68DBF80060AD035D4622
:1014400001D51E4300E09E432E604D68DEF800602B
:10145000ED02754601D51E4300E09E432E604D68A7
:10146000AD020E4D2E6801D51E4300E09E432E6056
:10147000641C102CFFF444AFBDE8F88F0004014059
:10148000000011100010024000000140000801405F
:10149000000C014000100140001401400C04014008
:1014A0008068084000D001207047C2684A40C2608E
:1014B00070470AB1016170470904FBE70148006801
:1014C000704700006000002070B5040004D094F85C
:1014D0003500002510B106E0012070BD84F83450BD
:1014E000204600F06BFA242084F83500206801685B
:1014F00021F00101016000F091FC014628482268BA
:10150000B1FBF0F05060274A6368934206D94FF46C
:10151000967358434FF47A73B0FBF3F02368401C82
:1015200018626068904208D84000B1FBF0F0C0F348
:101530000B01042916D2042014E0A26852B100EB7A
:10154000C00202EB0010B1FBF0F040F44040010596
:1015500007D007E000EB4000B1FBF0F040F40040A2
:10156000F5E701202168C861D4E907010843216833
:101570000860D4E90310084321688860D4E90501B4
:1015800008432168C8602068016841F001010160DA
:10159000A563202084F8350084F83650002070BD03
:1015A00040420F00A08601002DE9FF4F044690F84D
:1015B000350081B099468B460125202873D142F22F
:1015C000107301224849204602F065F900286AD1CB
:1015D00094F83400012866D0012084F83400206893
:1015E000016821F400610160242084F835000026A0
:1015F000A66320272068016841F4807101604B4692
:1016000000224FF00111204602F045F900285CD17C
:1016100021680BF0FE000861FFF750FF216880464B
:1016200048694969C0F3400094F83520C1F380212E
:101630004FF0A00A14E000BFB9F1000F05D0FFF78A
:101640003DFFA0EB0801494501D984F835A0216888
:1016500048694969C0F3400094F83520C1F38021FE
:10166000084301D1A02AE7D184F835702068416988
:10167000C943890718D4016841F4007101602068EA
:1016800041698069009042F2107301221649204698
:1016900002F001F9C8B984F8357084F8346000208C
:1016A00005B0BDE8F08F1DE0016841F400710160F4
:1016B0002068416921F48061416142F21073012286
:1016C0000949204602F0E7F808B10320E8E7284678
:1016D00003996D1C88428DD384F8357084F834608A
:1016E0000120DDE70220DBE7020010002DE9F84FC2
:1016F00004460AA8984690E8600294F8350092469D
:101700008B4620287BD1002D61D0002E5FD042F285
:10171000107301226949204602F0BDF80028F1D17A
:1017200094F8340001286AD0012084F8340020683D
:10173000016821F400610160222084F83500402016
:1017400084F836000027A763434652465946204690
:10175000CDF8009001F0B7FF28B1A06B84F8347089
:10176000042834D072E0012E1AD02068DFF85081AE
:10177000022E01682ED041F4806101602068416929
:1017800080690090032E74D8012E18D0022E2ED01E
:101790004B4600224146204602F07DF880BB42E0E5
:1017A0002068016821F48061016072B62068416997
:1017B00081690091016841F40071016062B6494697
:1017C000204602F073F9E0B1A06B20283ED0012042
:1017D000BDE8F88F41F40061016072B6206841698C
:1017E00081690091016821F48061016062B64B4615
:1017F00000224146204602F04EF808B905E05AE0C2
:1018000024E02068006928704CE072B62068016806
:1018100041F40071016020680069287062B6206898
:10182000006968703EE02068016821F48061016011
:1018300072B62068006905F8010B761EB6B24B46F9
:1018400000224146204602F026F808B10320BFE7F7
:101850002068016841F4007101602068006905F8A2
:10186000010B62B62068006905F8010BB61E15E091
:10187000FFE74946204602F019F90028A4D1206864
:10188000006905F8010B2068761EB6B24169C943AC
:10189000490704D4006905F8010B761EB6B2002E84
:1018A0007FF470AF202084F8350084F8367084F817
:1018B000347000208CE702208AE70000020010004C
:1018C000040001002DE9F84F0446DDE90A6590F8AF
:1018D0003500DDF83080994692468B46202868D145
:1018E000002E64D0002D62D042F2107301223249E2
:1018F000204601F0D0FFE8BB94F83400012858D00E
:10190000012084F834002068016821F4006101603E
:10191000212084F83500402084F836000027A76392
:101920004B46524659462046CDF8008001F052FF02
:1019300028B1A06B84F83470042838D007E0414601
:10194000204602F08BF828B1A06B04282AD003208F
:10195000BDE8F88F216816F8010B086120686D1E3C
:10196000ADB24169C943490707D445B116F8011B17
:10197000016100E01DE06D1EADB2002DDFD14146DA
:10198000204602F06BF80028DED154F8350B0168D0
:1019900041F400710160202004F81E09E7776777A1
:1019A0000020D5E72068016841F400710160012042
:1019B000CEE70220CCE700000200100000B500686E
:1019C0000C4985B0884213D14FF44060009012203A
:1019D00001900320039069460748FFF783FC0748FE
:1019E000C16941F48001C161C06900F480000490C4
:1019F00005B000BD00580040000C0140001002403E
:101A000002480168491C0160704700006000002026
:101A1000074810B5016841F010010160032000F093
:101A20008BF8002000F006F800F016F8002010BD3A
:101A30000020024010B5044600F0EAF94FF47A7134
:101A4000B0FBF1F000F0DCFE00222146501E00F059
:101A500053F8002010BD00001F4808B5816941F00F
:101A600001018161806900F001000090032000F015
:101A700063F8002211466FF00B0000F03DF80022E1
:101A800011466FF00A0000F037F8002211466FF09F
:101A9000090000F031F800221146501F00F02CF828
:101AA00000221146101F00F027F800221146901E58
:101AB00000F022F800221146501E00F01DF80748E1
:101AC000416821F0E06141F080614160416821F0AE
:101AD000E061416008BD00000010024000000140CC
:101AE00000F01F02012191404009800000F1E02038
:101AF000C0F8001170470000F0B40E4B1B680C4694
:101B0000C3F30223C3F10705042D00D90425191DD1
:101B1000072901D2002300E0DB1E012606FA05F1A9
:101B2000491E214099409E40761E16403143F0BC2C
:101B300001F03CBC0CED00E0064900F0070208682B
:101B40004FF6FF03184040EA0220034A10430860A2
:101B5000704700000CED00E00000FA052DE9F843A5
:101B600005460078454CC00774D0E06940F08050CD
:101B7000E061E069424E00F080500090306840F42F
:101B800080703060FFF79AFC074604E0FFF796FC90
:101B9000C01B642833D83068C005F7D5206A10F41C
:101BA000407051D0A98801F4407181424CD0206A24
:101BB0000126310491FAA1F2B2FA82F29300314A7D
:101BC00020F440701344C3F8006491FAA1F1B1FA13
:101BD00081F102EB81010023C1F800342062C007CB
:101BE00032D0FFF76BFC074641F288394FF002080C
:101BF00008E000BFFFF762FCC11B494502D9032082
:101C0000BDE8F88398FAA8F1B1FA81F141F04001FA
:101C10004046B6EB511F01D121680BE090FAA0F1CC
:101C2000B1FA81F141F04001B0EB511F01D1216ABD
:101C300000E0616A98FAA8F0B0FA80F000F01F02A4
:101C400006FA02F00142D5D0206A696820F440709B
:101C5000084320622878800705D56068A96820F4C9
:101C60004040084360602878C00605D56068E96890
:101C700020F48000084360600020C1E700100240AB
:101C800000700040000042422DE9F047DFF870810B
:101C900005460E46D8F8000000F00700B0420CD20E
:101CA000D8F8001021F007013143C8F80010D8F827
:101CB000000000F00700B04277D12878514C80072F
:101CC00005D56068A96820F0F000084360602878B6
:101CD000C00759D06968012001290DD0022929D0F7
:101CE0005FF0020393FAA3F2B2FA82F242F020020A
:101CF000520904D0226803E04FF40033F2E7626A2D
:101D000093FAA3F3B3FA83F303F01F03984002425C
:101D10004BD0606820F0030008436060FFF7CEFB03
:101D20006968074641F2883001290DD002298146B1
:101D300017D025E04FF00073D4E700BFFFF7BEFBDC
:101D4000C11B494501D918E081466068C0F3810094
:101D50000128F3D118E000BFFFF7B0FBC11B4945D4
:101D60000BD86068C0F381000228F5D10CE000BFF9
:101D7000FFF7A4FBC11B494502D90320BDE8F0874A
:101D8000606810F00C0FF3D1D8F80010404601F055
:101D90000701B1420BD9016821F00701314301600D
:101DA000006800F00700B04201D00120E6E7287883
:101DB000400705D56068E96820F4E060084360608A
:101DC0002878000706D56068296920F4605040EA49
:101DD000C100606000F03AF86168F02292FAA2F265
:101DE00001F0F001B2FA82F2D140074A515CC840DA
:101DF000064908600020FFF71DFE0020BEE7000036
:101E00000020024000100240784F0008000000202F
:101E10000148006870470000000000200848094998
:101E2000006849684FF4E06292FAA2F201F4E061BE
:101E3000B2FA82F2D140044A515CC84070470000B7
:101E40000000002000100240884F000810B519A3C0
:101E500085B00FCB8DE80F001AA01B4B00680490D3
:101E60005A681A4812F00C011FD004291DD0082905
:101E70001BD14FF4701494FAA4F402F47011B4FA64
:101E800084F4E140D2031DF8011010D55A684FF4D4
:101E9000003393FAA3F302F40032B3FA83F3DA4087
:101EA00004AB9A5CB0FBF2F0484305B010BD0848A3
:101EB0004843FAE702030405060708090A0B0C0D5C
:101EC0000E0F1010010200000010024000127A00F4
:101ED00000093D002DE9F84F04460078F74DC00792
:101EE0004FF0010625D068687704C0F3810001280F
:101EF00007D06868C0F3810002281BD16868C0035E
:101F000018D597FAA7F0B0FA80F040F02000400909
:101F100001D0286800E0686A97FAA7F1B1FA81F168
:101F200001F01F0106FA01F108425ED06068002846
:101F30007CD05AE06068B0F5803F0BD010B1B0F5AE
:101F4000A02F11D0286820F480302860286820F461
:101F5000802002E0286840F480302860606828B360
:101F6000FFF7ACFA80460BE0286840F48020286038
:101F7000F0E700BFFFF7A2FAA0EB0800642871D8D1
:101F800097FAA7F0B0FA80F040F02000400901D0A5
:101F9000286800E0686A97FAA7F1B1FA81F101F0C8
:101FA0001F0106FA01F10842E4D01EE0FFF786FAAD
:101FB000804605E0FFF782FAA0EB08006428DED82F
:101FC00097FAA7F0B0FA80F040F02000400901D065
:101FD000286800E0686A97FAA7F1B1FA81F101F088
:101FE0001F0106FA01F10842E4D12078DFF8D0821F
:101FF00080074FF000094FF002075BD568684FF08B
:10200000F80B10F00C0F07D06868C0F381000228AD
:102010001CD16868C00319D497FAA7F0B0FA80F011
:1020200040F02000400902D0286801E08BE0686A97
:1020300097FAA7F1B1FA81F101F01F0106FA01F157
:1020400008422CD0206901287DD128E0206990B376
:1020500096FAA6F0B0FA80F048F82060FFF72EFA62
:10206000824607E011E100BFFFF728FAA0EB0A0063
:10207000022884D897FAA7F0B0FA80F040F0200048
:10208000400901D0286800E0686A97FAA7F1B1FA20
:1020900081F101F01F0106FA01F10842E4D028683D
:1020A0009BFAABF26169B2FA82F220F0F80091403B
:1020B0000843286025E0FFE796FAA6F1B1FA81F11E
:1020C00048F82190FFF7FAF9824605E0FFF7F6F9A4
:1020D000A0EB0A000228CCD897FAA7F0B0FA80F05B
:1020E00040F02000400901D0286800E0686A97FAB3
:1020F000A7F1B1FA81F101F01F0106FA01F10842DE
:10210000E4D1207800076ED5A069B8B396FAA6F09E
:10211000B0FA80F008EB8000C0F88064FFF7CEF9D9
:10212000824605E0FFF7CAF9A0EB0A000228A0D812
:1021300097FAA7F0B0FA80F040F06000B6EB501FBD
:1021400002D128680CE062E197FAA7F0B0FA80F0BB
:1021500040F06000B7EB501F01D1286A00E0686AC8
:1021600097FAA7F1B1FA81F101F01F0106FA01F225
:102170001042D7D00120FFF7A9F834E0FFE796FA24
:10218000A6F1B1FA81F108EB8101C1F88094FFF763
:1021900095F9824606E000BFFFF790F9A0EB0A0030
:1021A000022872D897FAA7F0B0FA80F040F06000E9
:1021B000B6EB501F01D128680BE097FAA7F0B0FAF0
:1021C00080F040F06000B7EB501F01D1286A00E0BA
:1021D000686A97FAA7F1B1FA81F101F01F0106FAD6
:1021E00001F21042D8D12078400765D5E86940F067
:1021F0008050E861E869DFF8CCB000F080500090D2
:10220000DBF8001041F48071CBF80010FFF756F9AD
:10221000824605E0FFF752F9A0EB0A00642834D8A3
:10222000DBF80000C005F5D5E06801280AD008B148
:10223000052813D0286A20F001002862286A20F0BF
:10224000040002E0286A40F001002862E06841F2E0
:10225000883B90B3FFF732F982460BE0286A40F0E2
:1022600004002862EEE700BFFFF728F9A0EB0A019F
:1022700059450AD897FAA7F0B0FA80F040F040002C
:10228000B6EB501F02D128680CE0A3E097FAA7F044
:10229000B0FA80F040F04000B7EB501F01D1286A3F
:1022A00000E0686A97FAA7F1B1FA81F101F01F0224
:1022B00006FA02F10842D7D031E005E000100240F2
:1022C0000000424200700040FFF7F8F8824605E047
:1022D000FFF7F4F8A0EB0A0159457BD897FAA7F06D
:1022E000B0FA80F040F04000B6EB501F01D12868F2
:1022F0000BE097FAA7F0B0FA80F040F04000B7EB9F
:10230000501F01D1286A00E0686A97FAA7F1B1FA74
:1023100081F101F01F0206FA02F10842D8D1E0690A
:1023200080B36968C1F38101022970D04FF08071D8
:102330004F000228484609D091FAA1F1B1FA81F183
:1023400048F82100FFF7BAF8044669E08A4691FA96
:10235000A1F1B1FA81F1C14648F82100FFF7AEF8CA
:10236000804605E0FFF7AAF8A0EB0800022854D841
:1023700097FAA7F0B0FA80F040F02000400902D0B0
:10238000286801E061E0686A97FAA7F1B1FA81F183
:1023900001F01F0106FA01F10842E3D1206AB0F50D
:1023A000803F05D16868A16820F400300843686068
:1023B000D4E908010843696821F47411084368608E
:1023C0009AFAAAF0B0FA80F049F82060FFF776F8A0
:1023D000044606E021E000BFFFF770F8001B02286A
:1023E0001BD897FAA7F0B0FA80F040F0200040091F
:1023F00001D0286800E0686A97FAA7F1B1FA81F184
:1024000001F01F0106FA01F10842E5D01DE01EE0CF
:10241000FFF754F8001B022802D90320BDE8F88F0B
:1024200097FAA7F0B0FA80F040F02000400901D000
:10243000286800E0686A97FAA7F1B1FA81F101F023
:102440001F0106FA01F10842E2D10020E6E701206F
:10245000E4E7000010B5040003D094F8510010B177
:1024600004E0012010BD204600F038F8022084F876
:1024700051002068016821F040010160D4E90101A8
:102480000843D4E903121143084361690843218BCF
:1024900001F400710843E1690843216A0843A16A15
:1024A000084321680860A069042101EA1040616ABC
:1024B0000843216848602168E06A08612068C169B2
:1024C00021F40061C16104490020087060650120A9
:1024D00084F85100002010BD6400002010B5006891
:1024E000124986B088421ED11148C16941F4804129
:1024F000C161C0690F4C00F4804004904FF420404B
:102500000090022001900320039069462046FEF7C8
:10251000E9FE00214FF48040CDE9000102916946B7
:102520002046FEF7DFFE06B010BD00000038004078
:1025300000100240000C01402DE9F8430025DDF8B1
:1025400020800446ADF8005090F85100012803D0D7
:1025500094F8510022287DD169B162B15BB194F841
:102560005000012876D0012684F8506094F851007C
:10257000012803D005E00120BDE8F883322084F86B
:1025800051006565A263A387E3872163A386E38681
:10259000A564E564A06A4FF40057B84209D12068E9
:1025A000016821F4005101602068016841F4005184
:1025B000016020680168490603D4016841F04001C8
:1025C0000160E0684FF48271B0F5006F606807D079
:1025D000002867D088426ED1E08E012862D06AE080
:1025E00020B188420CD1E08E012809D1206B2168EE
:1025F0000088C860206B801C2063E08E401EE0864F
:10260000E08E80B9A06AB84244D12068016841F4E4
:10261000805101603EE02068C068A16B0880A06B1B
:10262000801CA0639EE0434600220221204601F068
:1026300077F9002874D1206B21680088C860206B6E
:10264000801C2063E08E401E0004000CE08609D14F
:10265000A06A00E0C5E0B84204D12068016841F4F6
:1026600080510160434600220121204601F058F9C3
:1026700000286FD12068C068A16B0880A06B801C07
:10268000A063E08F401EE087E08E0028CBD1606819
:1026900000286AD1434600220121204601F040F97A
:1026A000F0BBB8E7206B411C216321680078C8604B
:1026B000E08E401EE086E08E98B9A06AB84204D150
:1026C0002068016841F480510160434600220121E5
:1026D000204601F025F918BB2068C068A16B08707E
:1026E00040E0434600220221204601F019F9B8B922
:1026F000206B411C216321680078C860E08E401E79
:102700000004000CE08607D1A06AB84204D120681A
:10271000016841F48051016000224346012100E03C
:1027200018E0204601F0FCF8A0B92068C168A06B51
:10273000421CA2630170E08F401EE087E08E0028FB
:10274000CFD1606888B9434600220121204601F0BC
:10275000E7F808B103200FE72068C168A06B421CAE
:10276000A2630170E08F401EE087A06AB8420ED1DC
:10277000434600220121204601F0D2F818B1606DD5
:1027800040F002000DE02068C068ADF8000043464C
:1027900001228021204601F0C3F820B1606D40F095
:1027A00010006065D6E784F85160A06AB84214D181
:1027B00020688168C943C9060FD4616D41F00201E8
:1027C0006165016821F4005101602068016841F4ED
:1027D0000051016084F85050CDE684F8505000203C
:1027E000CAE60220C8E64FF0E0210428086903D0B9
:1027F00020F004000861704740F00400FAE77047D9
:1028000010B5401EB0F1807F01D3012010BD4FF004
:10281000E02460610F21601700F0C8FD0020A06176
:1028200007202061002010BD10B5FFF7E8FF10BDA4
:10283000FEE7FEE7704710B5FFF7E2F8BDE810408D
:10284000FFF7F2BF0D48016841F0010101604168E6
:102850000B4A1140416001680A4A11400160016859
:1028600021F480210160416821F4FE0141604FF4B0
:102870001F0181600449C0030860704700100240D6
:102880000000FFF8FFFFF6FE08ED00E0FEE70000A5
:1028900070B50E460546002406E000BF01F0A2FA1E
:1028A0003046FEF713FD641CAC42F7DB70BD00211F
:1028B000AFF3008070B50546044639B910E000BF9B
:1028C00001F090FA281B641EFEF700FD002CF7DCD7
:1028D00070BD00BF01F086FA2046641EFEF7F6FCCC
:1028E000002CF7DC70BD0000012280210148FEF7BA
:1028F000E0BD0000000C014010B50022402104485A
:10290000FEF7D7FD0A20BDE81040002100F07ABC98
:10291000000C014010B5B6221421182000F044FF2D
:102920004FF47A70FEF7D2FC2D4C0F21A07800F006
:102930000F02182000F038FFE078102100F00F029D
:10294000182000F031FF00221321182000F02CFF86
:102950006420FEF7BBFC80223621182000F024FF03
:1029600020223721182000F01FFF6420FEF7AEFC64
:1029700022780F21682000F017FF6278102168206C
:1029800000F012FF6420FEF7A1FC82224B211020F0
:1029900000F00AFF6420FEF799FC01224B21102071
:1029A00000F002FF6420FEF791FC20794C21C00664
:1029B000020E102000F0F8FE6420FEF787FC1722BC
:1029C0005121102000F0F0FE51225221102000F081
:1029D000EBFE6420FEF77AFCBDE8104000F002B880
:1029E0004A0000201CB500208DF800006A465D21D9
:1029F000182000F00DFD2D4C9DF800006A46607116
:102A00006421182000F004FD9DF80000E0716A4682
:102A10005E21182000F0FCFC9DF80000A0716A46C1
:102A20006521182000F0F4FC9DF8000020726A4631
:102A30007121182000F0ECFC9DF8000060726A46DD
:102A40007021182000F0E4FC9DF80000A072022321
:102A500001AA6A21102000F0B1FABDF80400A0819B
:102A6000022301AA6821102000F0A8FABDF8040092
:102A7000E081022301AA6E21102000F09FFABDF828
:102A800004002082022301AA6221102000F096FA9D
:102A9000BDF804006082022301AA6C21102000F01E
:102AA0008DFABDF80400A0821CBD00004A00002081
:102AB000012240210148FEF7FCBC0000000C01404F
:102AC00070B50C460546FFF717FF04F01F012846B6
:102AD00000F029FAFF21284600F012FA0446FFF719
:102AE000E7FF204670BD2DE9F041002516460C4653
:102AF00007460A2901D2012000E000200EB1012181
:102B000000E0002108430FD0FFF7F6FE04F01F009D
:102B100040F02001384600F0F3F9054631463846CA
:102B200000F001FAFFF7C4FF2846BDE8F08138B590
:102B300001F04EF8182000F0F5FCC8B1682000F054
:102B4000F1FCA8B1102000F0EDFC88B100248DF854
:102B500000406A462146182000F05AFC9DF800000B
:102B60004FF4FA75FA2805D029460A20FFF790FE9F
:102B7000002038BD8DF800406A460021682000F032
:102B800047FC9DF800000F28EED18DF8004001228F
:102B90004B21102000F008FE6420FEF797FB6A46E8
:102BA0004021102000F034FC9DF800003228DBD1D9
:102BB000012038BD10B500222D21532000F0F4FD76
:102BC0006420FEF783FB08222D21532000F0ECFD4A
:102BD0000E4C3121207840F00402532000F0E4FD37
:102BE00062782C21532000F0DFFD00222F2153209A
:102BF00000F0DAFD00222E21532000F0D5FD002246
:102C00003821BDE81040532000F0CEBD4400002024
:102C100010B581223E21682000F0C6FD0122152159
:102C2000682000F0C1FD19221621682000F0BCFDCB
:102C300000221721BDE81040682000F0B5BD00005B
:102C400010B5FFF774FF1C4C207118B1FFF762FE3E
:102C50002079D0B900F07AF9207008B1FFF7AAFF07
:102C600000F058FAA07008B100F0BAF900F07DFA4F
:102C7000607018B100F0CCF9607810B900F07FF9FD
:102C8000E070E07808B1FFF7C3FF01F067F801F0EA
:102C900075F801F089F8206910F0FF4F09D0A0689D
:102CA00010F0FF4F05D0E06810F0FF4F01D0012079
:102CB00010BD002010BD000008000020074902469A
:102CC00000200B7913B1104600F044BC897800292C
:102CD00002D0104600F09FBB7047000008000020A3
:102CE0003EB527482549012501608915C0E902152F
:102CF0000021416107244FF460220461C2614160F8
:102D0000FDF79EFFB8BB0095CDE9015469461C480C
:102D1000FDF7DEFE78BB022000900190694618485E
:102D2000FDF7D6FE38BB0320009001906946144899
:102D3000FDF7CEFEF8B904200090019069461048D6
:102D4000FDF7C6FEB8B905200090019069460C4811
:102D5000FDF7BEFE78B9062000900190694608484C
:102D6000FDF7B6FE38B90094694605480194FDF7B1
:102D7000AFFE002801D000F091F93EBD00240140D3
:102D8000F000002070B52B4886B0816941F0100139
:102D90008161816901F010010491816941F0200194
:102DA0008161816901F020010491816941F0040190
:102DB0008161816901F004010491816941F0080198
:102DC000816180691C4D00F008004FF400540490AC
:102DD000002221462846FEF76CFB184E01224FF4D4
:102DE00082513046FEF765FB002280213046FEF717
:102DF00060FB1120CDE90040032469462846039476
:102E0000FEF770FA40F2033000900020019002209B
:102E1000029069463046FEF765FA4FF486500090FE
:102E200001200190694603943046FEF75BFA06B034
:102E300070BD00000010024000100140000C014075
:102E40000C4810B50A4901600B49416000214FF45C
:102E500080428160C0E9031241618161C161016208
:102E6000FEF732FB002801D000F018F910BD000079
:102E70000058004020010020801A06000F4810B5BD
:102E80000D4901604FF48271416000218160C16091
:102E90004FF400720161C0E905120822C0E9072160
:102EA000416281620A21C162FFF7D4FA002801D091
:102EB00000F0F4F810BD0000003800405C01002074
:102EC0000A460721FFF70FBE2DE9F04107461078AB
:102ED00015460E46002480B1FFF70EFD46F0200196
:102EE000384600F020F8295D384600F01CF8641CD4
:102EF000E4B2052CF7D1FFF7DBFD2046BDE8F081F9
:102F000003B583B0FF218DF80410642100910123E3
:102F100001AA04A9FFF710FB10B1FF2005B000BD06
:102F20009DF80400FAE703B583B000218DF8041082
:102F300064210091012301AA04A9FFF7FDFA10B151
:102F4000002005B000BD9DF80400FAE708B500F0C8
:102F50003FFE532000F0E6FA68B16A460021532094
:102F600000F056FA9DF80000E52806D04FF4FA71FB
:102F70000A20FFF78DFC002008BD012008BD08B520
:102F800000F026FE682000F0CDFA90B100208DF808
:102F9000000001466A46682000F03AFA9DF80000F9
:102FA000C0F34500342806D04FF4FA710A20FFF729
:102FB0006FFC002008BD012008BD00003EB5642460
:102FC0008DE81C0040000A46014601230348FEF735
:102FD0008DFB08B100203EBD01203EBD2001002038
:102FE0000A4810B5007800218006020E1E2000F06D
:102FF000DBFB002201211E2000F0D6FB80220221F3
:10300000BDE810401E2000F0CFBB000048000020AB
:1030100010B50E4C0F21607841EA0010C2B2202199
:10302000692000F0C1FB08222221692000F0BCFBCE
:10303000207823210007020E692000F0B5FB002252
:103040002E21BDE81040692000F0AEBB46000020F4
:103050000949024600200B7913B1104600F0FFBA6F
:103060004B7813B1104600F0F8B9C978002902D0A6
:10307000104600F085B970470800002010B50468BC
:1030800063604368102B036803D099600068C260D6
:1030900010BD9A600068C16010BD00000021502082
:1030A000FFF708FC00F094FDBFF34F8F054801685F
:1030B000054A01F4E06111430160BFF34F8F00BF87
:1030C000FDE700000CED00E00400FA052DE9F041F9
:1030D000FEF7F4F905464FF0E0200024806948220D
:1030E00023462146FDF71EF84FF47A73A5FB0367CC
:1030F00004FB0373002205FB0232301A62EB01026B
:103100004FF47A71401842F10001BDE8F0811721B7
:10311000FFF7D6BC0EB500F05BFD1E2000F002FAF2
:10312000F8B16A460A211E2000F072F901AA0B21AB
:103130001E2000F06DF902AA0C211E2000F068F993
:103140009DF80000482807D19DF80400342803D1D9
:103150009DF80800332806D04FF4FA710A20FFF7D3
:1031600097FB00200EBD01200EBD08B500F030FD1C
:10317000692000F0D7F980B100208DF800006A4680
:103180000F21692000F044F99DF80000D32806D0F3
:103190004FF4FA710A20FFF77BFB002008BD0120E5
:1031A00008BD00000B48007838B1012808D002287B
:1031B00009D003280AD0002070474FF062507047B2
:1031C0004FF0645070474FF0665070474FF06850B2
:1031D00070470000440000200048704735788E3D5D
:1031E0000749024600200B7913B1104600F04BBA94
:1031F0000978002902D0104600F0A0B870470000FE
:10320000080000202DE9F04106460F46FFF75EFF5B
:1032100004460D46FFF75AFF001B61EB0501801BBA
:10322000B941F7D3BDE8F08170B50D4606460021DF
:10323000FFF746FC0446C00701D0204670BD00F0F1
:10324000D9FD44F0010200213046FFF74CFC044652
:103250002DB12A4610213046FFF736FE0446E12103
:10326000304600F0B1FDFFF73FFB0120FEF72EF8DE
:10327000E3E7000070B514460D460646FFF73CFB39
:10328000A0213046FFF74FFE07E000BF15F8011BF5
:103290003046FFF748FE641EE4B2002CF6D1FFF77B
:1032A00007FCFFF721FB002070BD000000487047BD
:1032B00048E13A3F0948007838B1012807D0022890
:1032C00007D0032807D000207047054870470548FD
:1032D00070470548704705487047000046000020C9
:1032E0000000FA3B00007A3C0000FA3C00007A3D06
:1032F00070B50C4606460021FFF7E2FB054600F0DC
:1033000079FD25F0010200213046FFF7ECFB054670
:103310002CB1224610213046FFF7D6FD0546E121AB
:10332000304600F051FDFFF7DFFA0120FDF7CEFF38
:10333000284670BD004870470000203F3EB5044657
:1033400000208DF8080002AA3021532000F060F818
:10335000A0B19DF80800000610D506236A46322168
:103360005320FFF72BFEBDF800002080BDF80200BF
:103370006080BDF80400A08001203EBD00203EBD5D
:103380001CB5044608236A461B216820FFF716FE79
:10339000BDF8020040BA2080BDF8040040BA608049
:1033A000BDF8060040BAA08001201CBD0907090E27
:1033B000002806DA00F00F0000F1E02080F8141D6C
:1033C000704700F1E02080F8001470470A48007848
:1033D00005280ED2DFE800F00B09070503000748B7
:1033E00070470748704707487047074870470748C5
:1033F00070470020704700004A00002071BD793BF3
:1034000000C0F93B00C0793C00C0F93C00C0793DE8
:103410000123FFF7D3BD3EB5044600208DF8080018
:1034200002AA09211E20FFF7F3FF9DF808100840AB
:1034300012D006236A4603211E20FFF7BFFDBDF808
:10344000000040BA2080BDF8040040BA6080BDF89A
:10345000020040BAA08001203EBD3EB504460020D7
:103460008DF8080002AA27216920FFF7D1FFC0B11B
:103470009DF80800000614D506236A46A821692095
:10348000FFF79CFDBDF8000020809DF801009DF82D
:10349000031040EA01206080BDF80400A0800120F4
:1034A0003EBD00203EBD70B514460D460646FFF7F2
:1034B00023FA61213046FFF723FD07E0FF21304664
:1034C000FFF71EFD641E05F8010BE4B2002CF5D1D8
:1034D000FFF7EEFA17213046FFF7F2FA10F0010479
:1034E00003D040213046FFF7EBFC204670BD0000C2
:1034F0000B488078032807D0052808D0082809D071
:103500000C280AD0002070474FF06A5070474FF0E7
:103510006C5070474FF06E5070474FF070507047CE
:103520004A00002010B504461E20FFF7C0F96100D4
:103530004FF47A7305220648FEF736F808B10020EA
:1035400010BD00F03DFBFA20FDF7C0FE012010BDCC
:10355000200100207CB5044608236A464221102041
:10356000FFF72CFD9DF80600C0073BD0BDF8060014
:103570001D4982080023888A8503002A01D0164647
:1035800000E00646B5FBF6F691F90560C3EBC6060A
:10359000668000D01046B5FBF0F091F9060003EB11
:1035A000C0002080B1F91200B1F91050C0F1000044
:1035B0004FEAC033888A00B2A2EB000000FB05F09E
:1035C000A3EBA0034FEA42008A89B1F90E1000FB79
:1035D00002F000F5004001EB204093FBF0F0A080EA
:1035E0004FF001007CBD00004A00002030B593B0D0
:1035F0000120009000040025CDE901050224CDE959
:1036000007404FF4E01009906846FEF763FC90B95C
:103610000AA90F2081E831006002CDE90D050221E1
:103620000AA8FEF731FB30B9A00311900F940FA840
:10363000FEF794FA08B1FFF731FDFEF7E9FB4FF40E
:103640007A71B0FBF1F0FFF7DBF80420FFF7CBF85D
:1036500000221146501EFEF74FFA13B030BD1CB5C4
:10366000044606236A4602216820FFF7A7FCBDF83E
:10367000000040426080BDF802002080BDF80400D8
:10368000A08001201CBD1CB5044606236A46022109
:103690001820FFF793FCBDF90000C11700EB517033
:1036A000C01040426080BDF90200C11700EB5170AC
:1036B000C0102080BDF90400C11700EB5170C0108C
:1036C000A08001201CBD2DE9F84F044600680F467C
:1036D000DDF828B001689846164641F48061016023
:1036E0002068016841F4807101604FF001195B4668
:1036F00000224946204600F0CEF8F0BB216807F0D2
:10370000FE00086109F1010A5A465146204600F0C0
:1037100000FA18B1A06B042811D036E02068416986
:10372000806900905946204600F098F950B1A06B8E
:1037300004282AD12068016841F400710160012049
:10374000BDE8F88FF5B2B8F1010F08D02168300A52
:1037500008615946204600F081F90028E7D1206829
:1037600005615946204600F079F90028DFD120682C
:10377000016841F48071016000E006E05B460022D0
:103780004946204600F087F808B10320D8E72168B1
:10379000F8B240F0010008615A465146204600F058
:1037A000B8F90028B6D1CBE717B583B0642401235C
:1037B00005AA8DE81C0040000A4601460448FEF7B1
:1037C00081F810B1002006B010BD0120FBE7000019
:1037D000200100202DE9F843044600680E46DDF87C
:1037E000208001681F46154641F480710160434600
:1037F00000224FF00111204600F04DF8D8B92168A1
:1038000006F0FE00086142461749204600F081F9A3
:1038100028B1A06B04280ED10120BDE8F8832068F0
:103820004169806900904146204600F017F920B1B7
:10383000A06B042811D00320EFE7EEB2012F08D0CF
:103840002168280A08614146204600F007F900284F
:10385000EED1206806610020DFE72068016841F4AE
:1038600000710160D8E700000200010001684A69A8
:10387000D24352050DD44A6922F480624A61042180
:103880008163202180F83510002180F83410012058
:103890007047002070472DE9F05F1E4690460C46A9
:1038A0000546FDF70BFE81464FF0000A4FF0200B56
:1038B000C4F30747B8F1000F09D024E0701C06D00C
:1038C000D6B1FDF7FBFDA0EB0900B04214D8286883
:1038D000012F06D0806924EA00000004000C1BD0F0
:1038E000ECE74069F7E7701C0DD02EB1FDF7E6FD5F
:1038F000A0EB0900B04206D985F835B085F834A0B0
:103900000320BDE8F09F2868012F07D0806924EAD2
:1039100000000004000CE6D00020F2E74069F6E762
:103920002DE9F0471D4690460E460446FDF7C6FDBC
:1039300007465FEA08004FF000084FF4005A4FF0C6
:10394000010926D034E0681C23D025B1FDF7B6FD6F
:10395000C01BA8421DD92068416821F0E0014160E8
:103960002068016821F040010160A06A504509D13A
:103970002068016821F4005101602068016841F469
:103980000051016084F8519084F850800320BDE814
:10399000F0872068806836EA0000D4D10DE0681C0A
:1039A00006D0002DD7D0FDF789FDC01BA842D2D884
:1039B0002068806836EA0000F1D00020E7E70000C8
:1039C00070B58AB028216846FCF707FC0021022068
:1039D0008DF800008DF80410012270208DF805206C
:1039E00003238DF801008DF80630082006238DF89A
:1039F00008308DF802008DF80900FA208DF80700D4
:103A000053238DF8183045248DF819404E25114860
:103A10008DF81A5043268DF803108DF81B604079FD
:103A20008DF80C50C0308DF80D608DF81C008DF8AD
:103A30000E008DF80A308DF80B4020208DF81D0007
:103A40008DF823108DF824206946034800F0C8F84B
:103A50000AB070BD080000205C01002070B50D4662
:103A60000446FDF72BFD064619E02046FFF7FEFE53
:103A700008B1012070BD681C11D025B1FDF71EFDF5
:103A8000801BA8420BD954F8380F40F0200044F8AE
:103A900004092020607000202070032070BD206881
:103AA0004069C0430006E0D4002070BD2DE9F0411C
:103AB00088460446FDF702FD00250646202721E042
:103AC0004169C943C9060BD4416921F01001416124
:103AD000A56384F8357084F834500120BDE8F08186
:103AE000B8F1000F04D0FDF7E9FC811B414509D96D
:103AF00054F8380F40F0200044F80409677025702E
:103B00000320EBE720684169C9434906D8D4002067
:103B1000E4E72DE9F04791460D460446FDF7CEFC5B
:103B2000824600274FF02008C5F3074629E02068A9
:103B30004069C043400512D42068016841F4007117
:103B400001602068416921F4806141610420A06323
:103B500084F8358084F834700120BDE8F087B9F12D
:103B6000FF3F0ED0B9F1000F05D0FDF7A7FCA0EB89
:103B70000A01494505D984F8358084F8347003205A
:103B8000EBE72068012E06D0806925EA00000004DA
:103B9000000CE2D0CBE74069F7E7000070B50546BE
:103BA000FDF78CFC054E04463068201AA84202D36B
:103BB00000F018F93460012070BD000040000020C2
:103BC00000224FF400510148FDF773BC0010014082
:103BD000012251030148FDF76CBC000000100140B8
:103BE00070B50C46054600F005F962782078E1785A
:103BF0000243A0780843024300212846FEF773FFE2
:103C0000227901212846FEF76EFF627902212846BB
:103C1000FEF769FFA27903212846FEF764FF94F8B6
:103C2000230094F8242000F00F0060F31F120421F9
:103C30002846FEF758FFE079052100F07F0228466C
:103C4000FEF751FF207A617A084340F00102062115
:103C50002846FEF748FFA07A28B104F10A020A219B
:103C60002846FFF731F9E07B28B104F10F020B2160
:103C70002846FFF729F9227D1AB10C212846FEF7C4
:103C800032FF627D1AB10D212846FEF72CFFA27D7E
:103C90001AB10E212846FEF726FFE27D1AB10F2148
:103CA0002846FEF720FF207E28B104F118021021DB
:103CB0002846FFF709F9627F1AB111212846FEF75D
:103CC00012FFA27F1AB112212846FEF70CFFE27FF5
:103CD0001AB113212846FEF706FF94F820201AB1E6
:103CE00014212846FEF7FFFE94F821201AB1152171
:103CF0002846FEF7F8FE94F822201AB1162128462D
:103D0000FEF7F1FE40212846FFF7DAF8E2212846C7
:103D100000F05AF830212846FFF7D2F8E121284672
:103D200000F052F86278A07800210243E078024364
:103D30002846FEF7D8FE0A20FDF7C8FA6278A07878
:103D400000210243E07840F0020002432846FEF7DB
:103D5000CAFE0446FEF7C8FD204670BD10B5064CED
:103D6000207910B1FFF7C4FB03E0207808B1FFF71A
:103D700019FA206110BD00000800002010B5094CA0
:103D8000207910B1FFF722FB03E0607818B1FFF74C
:103D900091FAA06010BDE0780028FAD0FFF71CFA75
:103DA000F7E700000800002010B5064C207910B19C
:103DB000FFF7C0FA03E0A07808B1FFF777FAE060F8
:103DC00010BD00000800002070B50C460546FEF747
:103DD00093FD21462846FFF7A6F80446FEF768FE45
:103DE000204670BD4FF400510148FDF75EBB000056
:103DF00000100140002280210148FDF75ABB00005D
:103E0000000C01400A6802604A6842608A68826069
:103E1000C968C1607047002141608160C1604FF096
:103E20007E5101607047704713680B6053684B60A8
:103E300093688B60D268CA60FFF7E4BF2DE9FF4F3B
:103E4000B5B00546C0680490286902906869019081
:103E5000A86900909A46914601210498FCF790FACF
:103E60002E9001210298FCF78BFA299001210198EC
:103E7000FCF786FA2D9001210098FCF781FA2F902B
:103E80000198FCF75DFC07460A9088460C461F9196
:103E90000498FCF755FC0122FCF706FC83462346F8
:103EA0003A460591FCF71FFBFCF75DFC2A90009851
:103EB000FCF746FC06460C46384641460122FCF714
:103EC000F3FB32462346FCF70EFBFCF74CFC279035
:103ED00004990846FCF7E4F91E9002990498FCF74F
:103EE000DFF9179001990498FCF7DAF9109000991E
:103EF0000498FCF7D5F91B9002990846FCF7D0F915
:103F00001D90DDE90110FCF7CBF91A900099029899
:103F1000FCF7C6F901990F900846FCF7C1F920900B
:103F2000DDE90010FCF7BCF900991C900846FCF78D
:103F3000B7F9429928900846FCF7B2F9064651466F
:103F40000846FCF7ADF9044649460846FCF7A8F9CF
:103F50002146FCF74DF93146FCF74AF900F0F6FF2F
:103F6000014610F0FF4F7DD04FF07E50FCF7CAF9AC
:103F7000044601464846FCF793F9379021465046DF
:103F8000FCF78EF9389021464298FCF789F9489958
:103F900042900846FCF784F9479904460846FCF726
:103FA0007FF9469907460846FCF77AF93946FCF747
:103FB0001FF92146FCF71CF900F0C8FF014610F07C
:103FC000FF4FD0D04FF07E50FCF79CF904460146DD
:103FD0004698FCF765F9469021464798FCF760F94A
:103FE000479021464898FCF75BF948904698FCF7C3
:103FF000A7FBCDE90D010C46064602460B46584686
:104000000599FCF770FAFCF7AEFB82464798FCF77F
:1040100097FB02460B4658460599FCF764FAFCF7F5
:10402000A2FB81464898FCF78BFBCDE90B010246C9
:104030000B4658460599FCF756FAFCF794FB804668
:104040000298FCF77DFB0122CDE91101FCF72CFB66
:1040500032462346FCF747FAFCF785FB06462899CB
:10406000469800E0FEE3FCF71BF91490209946986F
:10407000FCF716F9089048992998FCF711F900996E
:10408000FCF70EF9044647992998FCF709F90199BC
:10409000FCF706F907461D994698FCF701F91690BA
:1040A00040460199FCF7FCF8189048460099FCF747
:1040B000F7F883461E994698FCF7F2F85946FCF744
:1040C000E9F81899FCF794F81699FCF791F8394635
:1040D000FCF78EF82146FCF78BF80899FCF7DAF824
:1040E0001499FCF7D7F8044628994798FCF7D8F8B4
:1040F000159048992D98FCF7D3F80099FCF7D0F863
:10410000074620994798FCF7CBF808901D994798E7
:10411000FCF7C6F8139030460199FCF7C1F80690F9
:1041200040460299FCF7BCF883461E994798FCF775
:10413000B7F8804650460099FCF7B2F84146FCF7C4
:1041400057F85946FCF7A6F80699FCF751F8139969
:10415000FCF7A0F80899FCF74BF83946FCF748F84B
:104160001599FCF797F80146FCF79AF8074621469F
:104170000846FCF795F83946FCF73AF800F0E6FEF9
:10418000039028994898FCF78BF808902099489854
:10419000FCF786F8139047992D98FCF781F8009961
:1041A000FCF77EF804461D994898FCF779F8834699
:1041B00030460099FCF774F880461E994898FCF741
:1041C0006FF8074650460199FCF76AF806464846DC
:1041D0000299FCF765F83146FCF75CF83946FCF7C4
:1041E00007F84146FCF704F85946FCF753F8214616
:1041F000FBF7FEFF1399FCF74DF80899FBF7F8FF62
:10420000059001210398FCF7BBF807900121059860
:10421000FCF7B6F80890DDE90B8189462098FCF799
:104220008FFACDE91810074621910C461D98FCF72E
:1042300087FA0022FE4B20911D90FCF751F93A4677
:104240002346FCF74AF904460E460598FCF778FA2F
:1042500022463346FCF747F9CDE9130106460C46E2
:10426000DDE90F10FBF7C4FF0399FCF719F8FCF721
:1042700067FA32462346CDE91501FCF78DF8424630
:104280004B46FCF72AF906460C4601990398FCF7C1
:1042900007F83390FCF754FA32462346FCF723F92B
:1042A0008B461E901C991798FBF7A2FF0599FBF708
:1042B000F7FF0446DDE91A01FBF7ECFF0399FBF772
:1042C000EFFF2146FBF794FF4799FBF7E3FF044616
:1042D000319000990398FBF7E3FF3490064602996A
:1042E0000598FBF7DDFF31463090FBF7D3FF214601
:1042F000FBF7D6FFFCF724FA2391DDE90D41824656
:104300000E46DDE90F01FBF7C5FF0599FBF7C8FF76
:10431000FCF716FA109089462898FCF711FA8046A7
:10432000069138460022C24B1899FCF7D9F842464C
:10433000069BFCF7D2F880460F460398FCF700FA7C
:1043400042463B46FCF7CFF84B46109AFCF724F860
:10435000224633461A911C90FCF7BFF804460E46DD
:1043600001990598FBF79CFF3290FCF7E9F922468A
:104370003346FCF7B8F8064688463898FCF7E0F96B
:1043800006900F462798FCF7DBF9044689461798F4
:10439000FCF7D6F90122FCF787F94B462246FBF7DA
:1043A000FBFF3B46069AFCF798F8044610911B90D9
:1043B0000F462998FCF7C4F922463B46CDE9170180
:1043C000FCF791F8069027913798FCF7B9F98146E8
:1043D00009912A98FCF7B4F904460F460F98FCF7A8
:1043E000AFF90122FCF760F922463B46FCF775F86D
:1043F0004A46099BFCF771F804460F902D980F462A
:10440000099180F00040FCF79BF922463B46FCF7FF
:104410006AF8279B069AFBF7BFFF32464346FCF734
:104420005CF85246239BFBF7B7FF5B461E9AFBF7EF
:10443000B3FFFCF798F90690DDE90B410E46DDE984
:1044400013210B46DDE91501FBF7A6FF2246334693
:10445000FCF743F806460C4602990898FBF720FF44
:1044600001463498FBF716FFFCF76AF932462346FB
:10447000FCF739F889461E90DDE90410319CFBF702
:104480000FFF01462B903398FBF7B2FE2146FBF756
:1044900007FFFCF755F98B46DDE90D2182460B46F7
:1044A0001A991C98FCF719F806460C4600990598CD
:1044B000FBF7F6FE3390FCF743F932462346FCF750
:1044C00012F880460E464298FCF73AF904460F4629
:1044D000012221991998FCF7E7F82A9019910122F5
:1044E00020991D98FCF7E0F80022524BFBF7F8FFEB
:1044F000199B2A9AFBF7F1FF22463B46FBF7EDFF9B
:1045000004460F461D911990DDE911010222FCF7C6
:10451000CBF822463B46FBF7E6FF299120901B9FF4
:10452000109C2E98FCF70CF93A462346FBF7DBFF6C
:104530002C902191099F0F9C2F98FCF701F922469E
:104540003B46CDE91101FBF7CEFF219B2C9AFBF7EF
:1045500023FF299B209AFBF7C0FF42463346FBF717
:104560001BFF52465B46FBF717FF4B461E9AFBF7B5
:1045700013FFFCF7F8F80590DDE90B410E46DDE985
:1045800013210B46DDE91501FBF706FF22463346F2
:10459000FBF7A3FF06460C4601990898FBF780FE3F
:1045A0000746DDE90301FBF77BFE39462590FBF763
:1045B00071FEFCF7C5F832462346FBF794FF06462A
:1045C0000891DDE90210339F319CFBF769FE394603
:1045D0002790FBF70DFE2146FBF762FEFCF7B0F8D3
:1045E0008A46DDE90D2181460B461A991C98FBF796
:1045F00074FF044607980F4680F00040DDF8AC8059
:104600000199FBF74DFE4146FBF744FEFCF798F895
:1046100022463B46FBF767FF80460C460222DDF848
:1046200064B01D9F1F990A98FCF73EF85A4603E0B4
:104630000000E03F0000F03F3B46FBF754FF83469D
:104640001991DDE91101109B1B9AFBF74CFF0F46F6
:10465000129009990F981F9126902E9880F0004093
:10466000FCF76EF81F9B269AFBF73DFF3B46129A1C
:10467000FBF792FE5A46199BFBF72FFF4246234653
:10468000FBF78AFE4A465346FBF786FE3246089BF6
:10469000FBF782FEFCF767F80890DDE90B410E4658
:1046A000DDE913210B46DDE91501FBF775FE224616
:1046B0003346FBF712FF06460C462798FCF740F8F6
:1046C00032462346FBF70FFF0746DDE931408946B6
:1046D0002599FBF7DFFD2146FBF7E2FDFCF730F8FB
:1046E0008846DDE90D2182460B461A991C98FBF796
:1046F000F4FE06460C4600990798FBF7D1FD0146EB
:104700003098FBF7C7FDFCF71BF832462346FBF752
:10471000EAFE04461B9812900E46DDF840B02D9834
:10472000FCF70EF85B46129AFBF7DDFE83460D910F
:10473000DDE91701099B0F9AFBF7D5FE5A460D9B41
:10474000FBF72AFE22463346FBF726FE5246434637
:10475000FBF722FE3A464B46FBF71EFEFCF703F83A
:1047600004460146FBF79CFD089980460846FBF786
:1047700097FD059907460846FBF792FD0699064600
:104780000846FBF78DFD3146FBF732FD3946FBF756
:104790002FFD4146FBF72CFD00F0D8FB01464FF002
:1047A0007E5B5846FBF7AEFD064601460698FBF7D2
:1047B00077FD074631460598FBF772FD05903146B7
:1047C0000898FBF76DFD089031462046FBF768FD21
:1047D00007903846FBF7B4FF06464FF07D580C466D
:1047E000404600F0FEF9FBF7ABFF9D4A9D4BFBF7FF
:1047F0007AFE4FF000529C4BFBF775FE3246234683
:10480000FBF771FE06460C4645990098FBF748FDFC
:10481000814644990198FBF743FD07460298439966
:1048200080F00040FBF73CFD3946FBF733FD49467D
:10483000FBF730FDFBF784FF4FF0FF32FBF734FF4F
:1048400032462346FBF749FEFBF78DFF824605986B
:10485000FBF776FF04460E46404600F0C2F9FBF730
:104860006FFF00E0F9E07E4A7E4BFBF73CFE4FF025
:1048700000527D4BFBF737FE22463346FBF733FEF3
:1048800006460C4644990098FBF70AFD8146459977
:104890000198FBF705FD074643990498FBF700FDD7
:1048A0003946FBF7A5FC4946FBF7F4FCFBF748FF4C
:1048B0004FF0FF32FBF7F8FE32462346FBF70DFEC2
:1048C000FBF751FF81460898FBF73AFF04460E4676
:1048D000404600F086F9FBF733FF614A614BFBF776
:1048E00002FE4FF00052604BFBF7FDFD22463346BF
:1048F000FBF7F9FD06460C4643990098FBF7D0FC00
:10490000074645990298FBF7CBFC09904499049817
:10491000FBF7C6FC0999FBF7BDFC3946FBF768FCC1
:10492000FBF70EFF4FF0FF32FBF7BEFE3246234689
:10493000FBF7D3FDFBF717FF07460798FBF700FFD0
:1049400006460C46404600F04CF9FBF7F9FE444A97
:10495000444BFBF7C8FD4FF00052434BFBF7C3FD40
:1049600032462346FBF7BFFD06460C4643990198A5
:10497000FBF796FC089044990298FBF791FC80465F
:1049800045990498FBF78CFC4146FBF731FC0899EC
:10499000FBF780FCFBF7D4FE4FF0FF32FBF784FE01
:1049A00032462346FBF799FDFBF7DDFE8046504675
:1049B0003699FBF775FC0499FBF71AFC0646484646
:1049C0003699FBF76DFC0299FBF712FC044638465A
:1049D0003699FBF765FC0199FBF70AFC0746404650
:1049E0003699FBF75DFC0099FBF702FC8046014617
:1049F000FBF756FC394603900846FBF751FC81460D
:104A000021460846FBF74CFC824631460846FBF738
:104A100047FC5146FBF7ECFB4946FBF7E9FB0399E2
:104A2000FBF7E6FB00F092FA01465846FBF76AFCFA
:104A3000814601463046FBF733FCE8604946204694
:104A4000FBF72EFC286149463846FBF729FC6861D4
:104A500049464046FBF724FCA86139B0BDE8F08F19
:104A6000182D4454FB210940C7719C3F2DE9F74F95
:104A700088B014460D46B2F91400FBF72CFE6E68A0
:104A80003146FBF70DFC0190B4F91200FBF723FE51
:104A90003146FBF705FC8346B4F91000FBF71BFE1B
:104AA0003146FBF7FDFB8246B4F90E00FBF713FE1F
:104AB000AE683146FBF7F4FBFBF742FE2E4F2F4B5F
:104AC0003A46FBF710FD00222D4BFBF77EFDFBF76E
:104AD0004AFE8146B4F90C00FBF7FDFD3146FBF7B9
:104AE000DFFBFBF72DFE3A46244BFBF7FCFC0022D4
:104AF000234BFBF76AFDFBF736FE8046B4F90A004C
:104B0000FBF7E9FD3146FBF7CBFBFBF719FE3A4615
:104B10001A4BFBF7E8FC0022194BFBF756FDFBF79D
:104B200022FE0746B4F90800FBF7D5FD296800917D
:104B3000FBF7B6FB0646B4F90600FBF7CCFD00997F
:104B4000FBF7AEFB0790B4F90400FBF7C4FD009936
:104B5000FBF7A6FB01990246CDE905B18DE8C00738
:104B600021682846079BFFF769F908980BB029468A
:104B7000BDE8F04F00F006B8182D4454FB21094061
:104B80000080664010B50C46FFF745F9E16801600A
:104B9000616981F000414160A1698160216981F012
:104BA0000041C16010BDF0B589B01D4616460C46E7
:104BB0000C30FFF730F9A0F10C0704A887E870006B
:104BC000FFF729F9024607F10C016846FFF72CF9B7
:104BD0006846FFF728F904A8FFF725F909B0384619
:104BE000F0BD00F0B3B902E008C8121F08C1002AE6
:104BF000FAD170477047002001E001C1121F002A5E
:104C0000FBD1704701490860704700006C0000202C
:104C10009EB0FCF7FDFEFEF7E9FCFEF7B3F8C248D4
:104C2000416941F0010141614069002200F0010049
:104C3000049011460B20FCF75FFF0B20FCF750FFA0
:104C4000FEF7FEF8FEF71AF9FEF74AF8FEF7C0FF86
:104C50000122B64D140321462846FCF72AFC1E20EB
:104C6000FDF725FE002221462846FCF722FCFDF731
:104C7000E7FFAF4CE071A8B1FEF7AAFFFEF7A0FE78
:104C8000A07178B1FF280DD0FEF7A2FFA948FCF76C
:104C9000ADF838B9A74E0722483E311DA548FCF7AC
:104CA00005F908B1FEF7FAF9002060714FF40071C0
:104CB0002846FCF7F5FB012800D0002060714FF476
:104CC00080719A48FCF7ECFB01280CD00020617938
:104CD000084440B26071FBF771FA94F905000128AD
:104CE00003DD192002E00220F1E705200D90904835
:104CF0004FF0000AD0E9033182680EA8FFF753FF96
:104D00004FF001086846FFF786F88A4800216C30AA
:104D1000FEF78AFA0020DFF81C920546A9F1240963
:104D2000B3460C905FF001045BF82400FBF7DCFC59
:104D3000FBF706FD804A814BFBF7D5FB06460F4685
:104D400059F82400FBF7D0FCFBF7FAFC7C4A7D4BBA
:104D5000FBF7C9FB32463B46FBF71EFBFBF7D7FCD4
:104D600049F82400641C082CDEDBDBF810105846E0
:104D7000B1F5807F01D9016901616D4C6069FEF771
:104D80000DFF4FF47A706061E07978B169487C3842
:104D9000FEF726FA064667487638FEF759F90643C5
:104DA00064487038FDF78AFF40EA060AFEF78EF97C
:104DB000C4E90C01D4E90A2306460F46801A61EBC8
:104DC0000301FBF796FC6049FBF79CFA59498039CF
:104DD000BAF1000F086013D00A464FF0000A0EA97E
:104DE00015A8C4E90A67FFF741FE15AA694619A884
:104DF000FFF71AF819A8FFF716F815A8FFF713F828
:104E0000B8F1000F0AD14B486C30FEF780F9A07161
:104E100040F34010401C5FEA00084BD0FCF74EFB0B
:104E2000E169884246D343484FF0000841466C3060
:104E3000FEF75EFA64206061607940F010013D4841
:104E40006A380170B0F80110491CA0F80110002167
:104E5000C17000994160019981600299C160039914
:104E60000161002301461A468E5C521C7340202AC1
:104E7000FAD3C3702F4820226C30FEF7FBF92D487F
:104E80006C30FEF744F9A071C006F8D5FCF716FBAC
:104E90000646FBF789F90A2190FBF1F201FB1201AA
:104EA0000D9808443044E061224800216C30FEF740
:104EB000BBF929E01F486C30FEF729F9A071C00743
:104EC00022D11C4820226C30A169FEF7ECFAA169BE
:104ED00094F905000A78904313D1B1F801000C9AB7
:104EE00090420ED00C90087901280AD1FCF7E6FA1E
:104EF000A1690122B1F80910451811030B48FCF70C
:104F0000D8FAA169FF200870002D3FF40BAFFCF721
:104F1000D5FAA8427FF606AF00224FF4805103482D
:104F2000FCF7C7FA0025FDE600100240000C014026
:104F300008000020F00000209A9999999999B93FAA
:104F4000CDCCCCCCCCCCEC3F0024744970B505461C
:104F5000FBF77DFC044620F00040C0F1FF40C00F8D
:104F600008D025F00040C0F1FF40C00F04BF012071
:104F7000FFF748FE204670BD000000000000000062
:104F800001020304060708090000000001020304EF
:104F9000B04F00080000002070000000E64B000841
:104FA0002050000870000020A0050000F64B00080B
:104FB00000A24A0400000000000000000001000000
:104FC0000000803F0000803F0000803FE8030000B9
:104FD000EC010020000000000000000000000000C4
:104FE00000000000000000000000000000000000C1
:104FF00000000000000A000606000407030E070078
:1050000000000000000000000000000000000000A0
:105010000000000000000000000000000000000090
:04000005080000ED02
:00000001FF
