:020000040800F2
:1000000040040020010100084914000845140008BC
:100010004714000805020008A114000800000000B1
:1000200000000000000000000000000013010008B4
:100030000702000800000000170100084B14000828
:100040001B0100081B0100081B0100081B01000820
:100050001B0100081B0100081B0100081B01000810
:100060001B0100081B0100081B0100081B01000800
:100070001B0100081B0100081B0100081B010008F0
:100080001B0100081B0100081B0100081B010008E0
:100090001B0100081B0100081B0100081B010008D0
:1000A0001B0100081B0100081B0100081B010008C0
:1000B0001B0100081B0100081B0100081B010008B0
:1000C0001B0100081B0100081B0100081B010008A0
:1000D0001B0100081B0100081B0100081B01000890
:1000E0001B0100081B0100081B010008DFF80CD0F1
:1000F00000F018F800480047691600084004002086
:100100000648804706480047FEE7FEE7FEE7FEE7B1
:10011000FEE7FEE7FEE7FEE7FEE7FEE7591400080C
:10012000ED000008064C074D06E0E06840F00103D2
:1001300094E8070098471034AC42F6D3FFF7DAFF93
:10014000C0160008E016000870B504460068816813
:10015000C943C9071CD1816821F00101816000F009
:10016000B1FB05460FE000BF00F0ACFB401B0228CE
:1001700009D9A06A40F01000A062E06A40F00100D6
:10018000E062012070BD20688068C043C007EBD0EA
:10019000002070BDF8B5002604460096006881680E
:1001A000C943C90728D0816841F001018160134823
:1001B00013490068B0FBF1F000E0401E00900028F9
:1001C000FBD100F07FFB054611E000BF00F07AFB99
:1001D000401B02280BD9A06A40F01000A062E06A20
:1001E00040F00100E06284F824600120F8BD20683E
:1001F0008068C043C007E9D10020F8BD000000209E
:1002000040420F00FEE77047F8B50025009590F8D2
:100210002420AE46012A1ED0012280F824204A68FC
:100220001F244FF47873072A17D20668776B93FA66
:10023000A3FCBCFA8CFC521E02FB0CFC04FA0CF46E
:10024000A74393FAA3F3B3FA83F30C685A43944099
:10025000274377632DE00220F8BD06680D2A14D2EB
:10026000376B93FAA3FCBCFA8CFCD21F02FB0CFC8C
:1002700004FA0CF4A74393FAA3F3B3FA83F30C68DC
:100280005A4394402743376313E0F76A93FAA3FC79
:10029000BCFA8CFC0D3A02FB0CFC04FA0CF4A743EC
:1002A00093FAA3F3B3FA83F30C685A4394402743B9
:1002B000F7620A683823072406680A2A14D3F76805
:1002C00093FAA3FCBCFA8CFC0A3A02FB0CFC04FA7D
:1002D0000CF4A74393FAA3F3B3FA83F38C685A435D
:1002E00094402743F76012E0376993FAA3FCBCFA05
:1002F0008CFC02FB0CFC04FA0CF4A74393FAA3F366
:10030000B3FA83F38C685A439440274337610A68F1
:10031000102A01D0112A20D1124B02689A4217D11B
:1003200093681B0219D4936843F40003936009682F
:10033000102912D10C490D4A0968B1FBF2F101EB09
:100340008101490000E0491E00910029FBD104E031
:10035000816A41F020018162012580F824E028466D
:10036000F8BD0000002401400000002040420F00C2
:100370000068C06C704700002DE9F04104004FF0A8
:10038000000514D0A06A002628B9E66284F824602B
:10039000204600F08BF82046FFF7D6FEA16A01F058
:1003A0001001014304D0A06A40F01000A06277E081
:1003B000A16A21F4885141F00201A1626268E169F9
:1003C00002270A43E16897FAA7F70B46B7FA87F7BF
:1003D000B9400A43A1684FF48077B94208D0012997
:1003E00006D00021D4F814C0BCF1010F02D00AE0FD
:1003F0003946F7E7F3B1A36A43F02003A362E36A47
:1004000043F00103E3622368D3F804C02CF4694C81
:100410004CEA010CC3F804C021688B68DFF884C083
:1004200003EA0C0313438B60A168B94210D0012981
:100430000ED016E04FF4604CA3699CFAACFCBCFAF9
:100440008CFC5B1E03FA0CF30B4343F40061DAE708
:100450004FF47001256991FAA1F1B1FA81F16D1E95
:100460008D402168CB6A23F470032B43CB62216853
:1004700089680D4B1940914208D1E662A16A21F0CA
:10048000020141F00101A162BDE8F081A06A20F003
:10049000020040F01000A062E06A40F00100E0625B
:1004A0000120F1E7FDF7E1FFFE0E1FFF00B5006838
:1004B0000B4985B0884210D10A48816941F48061B6
:1004C00081618069694600F4806004900220009098
:1004D00003200190044800F00DF905B000BD0000B4
:1004E0000028014000100240000801402DE9F843B7
:1004F00000260D460446009600F0E4F98046206888
:100500008168C90508D5A06A40F02000A06284F87F
:1005100024600120BDE8F8834168C90503D4C06A9E
:1005200010F4700F26D0022000F074FA38490968E0
:10053000B1FBF0F72068036936490B424FEA6101CD
:100540004FEAA1121BD1C3684FEA611C13EA0C0FDA
:1005500015D103690B4221D1C06810421ED114206D
:100560001FE0681C06D045B300F0ACF9A0EB080012
:10057000A84222D8206800688007F2D52AE00369E3
:100580000B4202D1C168114206D0026922490A42D7
:1005900006D1C068084203D1542002E0292000E0BF
:1005A000FC204743009813E0681C0ED02DB100F0EA
:1005B00089F9A0EB0800A84207D9A06A40F004001E
:1005C000A06284F824600320A4E70098401C0090F7
:1005D000B842E9D321686FF012000860A06A40F4C5
:1005E0000070A06220688068C0F3424007280CD1E8
:1005F000E06850B9A06A20F48070A062A06AC004CC
:1006000003D4A06A40F00100A062002082E700004D
:1006100000000020244992244992240070B5044629
:1006200090F8240001280DD0012084F824002046F1
:10063000FFF7B0FD02004FF0000005D084F8240061
:10064000104670BD022070BDA16A40F2012399439B
:1006500041F48071A1621F4D23681F49AB4218D13C
:100660000E6816F4702F14D0A66A46F48016A6629F
:100670000E68760505D5A66A26F4005646F480561F
:10068000A662A66AF6040AD5E66A26F00606E662BF
:1006900006E0A66A26F48016A6625E68E9E7E062D4
:1006A00084F824006FF00200186020688368C3F3A8
:1006B0004243072B05D1A84208D1096811F4702FD5
:1006C00004D0816841F480118160B9E7816841F408
:1006D000A001F9E7002801400424014031B500F0F1
:1006E000F1F8044600F0EEF80099001B8842F9D3B7
:1006F00038BD00002DE9F84FDFF890A100220AF183
:10070000040B144601274FF00F090BF1040E00BF34
:100710000B6807FA04F52B40AB4274D1DFF870C1C7
:100720004E68A6EB0C0866452BD00DDC032E34D0AA
:1007300005DC36B3012E19D0022E2FD11BE0112E6D
:1007400016D0122E2AD119E0B8F5881F19D006DC70
:10075000B8F5803F15D0B8F5801F1FD111E0B8F56E
:10076000001F0ED0B8F5041F18D10AE0CA6815E0C2
:10077000CA68121D12E0CA6808320FE0CA680C325B
:100780000CE08A682AB1012A4FF0080203D04561C3
:1007900004E0042202E0056100E00022FF2B01D802
:1007A000064601E000F104064FEA840501D9A5F1EF
:1007B0002005D6F800C009FA05F82CEA080C02FA60
:1007C00005F54CEA050CC6F800C04D68ED0057D59C
:1007D000304DAE6946F00106AE61AD6924F0030606
:1007E00005F0010500952C4D06EB050CDCF80850D2
:1007F000A6074FEA167809FA08F6B543274EB04225
:1008000002D1002610E03BE0254EB04201D1012686
:100810000AE0244EB04201D1022605E0224EB04249
:1008200001D1032600E0042606FA08F62E43CCF890
:1008300008604D68DAF80060ED03554601D51E43A7
:1008400000E09E432E604D68DBF80060AD035D461E
:1008500001D51E4300E09E432E604D68DEF8006027
:10086000ED02754601D51E4300E09E432E604D68A3
:10087000AD020E4D2E6801D51E4300E09E432E6052
:10088000641C102CFFF444AFBDE8F88F0004014055
:10089000000011100010024000000140000801405B
:1008A000000C014000100140001401400C04014004
:1008B000C2684A40C26070470AB1016170470904CA
:1008C000FBE7000001480068704700000C000020B2
:1008D00002480168491C0160704700000C000020BC
:1008E000074810B5016841F010010160032000F0D5
:1008F0007FF8002000F006F800F016F8002010BD88
:100900000020024010B5044600F056FA4FF47A7108
:10091000B0FBF1F000F07EFD00222146501E00F0F9
:1009200047F8002010BD00001F4808B5816941F05C
:1009300001018161806900F001000090032000F056
:1009400057F8002211466FF00B0000F031F800223A
:1009500011466FF00A0000F02BF8002211466FF0EC
:10096000090000F025F800221146501F00F020F881
:1009700000221146101F00F01BF800221146901EA5
:1009800000F016F800221146501E00F011F807483A
:10099000416821F0E06141F080614160416821F0EF
:1009A000E061416008BD000000100240000001400D
:1009B000F0B40E4B1B680C46C3F30223C3F10705CA
:1009C000042D00D90425191D072901D2002300E0B8
:1009D000DB1E012606FA05F1491E214099409E4082
:1009E000761E16403143F0BC00F0CABD0CED00E0AD
:1009F000064900F0070208684FF6FF03184040EA76
:100A00000220034A10430860704700000CED00E02C
:100A10000000FA0510B533A401461DCC86B08DE860
:100A20001D0034A0344C006804900020012931D00E
:100A3000022948D010292BD161682268D20127D51C
:100A40004FF4701292FAA2F201F47010B2FA82F22C
:100A5000D040C9031DF8000010D561684FF4003282
:100A600092FAA2F201F40031B2FA82F2D14004AA61
:100A7000515C224AB2FBF1F1484301E0204948436E
:100A80006168490204D440005FF00301B0FBF1F05B
:100A900006B010BD226AC2F30121012903D19207D9
:100AA00001D5C803F4E7022905D1626A920702D58D
:100AB00049F64040ECE70329EAD121688903E7D5EC
:100AC0004FF22440E4E700F07DF961684FF4804282
:100AD00092FAA2F201F44041B2FA82F2D140491CEA
:100AE0004900D3E702030405060708090A0B0C0DA9
:100AF0000E0F1010010200000010024000127A00D8
:100B000000093D002DE9F84305460078454CC00733
:100B100074D0E06940F08050E061E069424E00F03E
:100B200080500090306840F480703060FFF7CAFE5B
:100B3000074604E0FFF7C6FEC01B642833D83068C0
:100B4000C005F7D5206A10F4407051D0A98801F48F
:100B5000407181424CD0206A0126310491FAA1F201
:100B6000B2FA82F29300314A20F440701344C3F881
:100B7000006491FAA1F1B1FA81F102EB8101002345
:100B8000C1F800342062C00732D0FFF79BFE074651
:100B900041F288394FF0020808E000BFFFF792FEEB
:100BA000C11B494502D90320BDE8F88398FAA8F192
:100BB000B1FA81F141F040014046B6EB511F01D13D
:100BC00021680BE090FAA0F1B1FA81F141F0400107
:100BD000B0EB511F01D1216A00E0616A98FAA8F0D8
:100BE000B0FA80F000F01F0206FA02F00142D5D000
:100BF000206A696820F440700843206228788007E2
:100C000005D56068A96820F44040084360602878F2
:100C1000C00605D56068E96820F48000084360607C
:100C20000020C1E700100240007000400000424276
:100C30002DE9F047DFF8708105460E46D8F8000030
:100C400000F00700B0420CD2D8F8001021F00701E4
:100C50003143C8F80010D8F8000000F00700B04297
:100C600077D12878514C800705D56068A96820F0B5
:100C7000F000084360602878C00759D069680120F7
:100C800001290DD0022929D05FF0020393FAA3F2C3
:100C9000B2FA82F242F02002520904D0226803E044
:100CA0004FF40033F2E7626A93FAA3F3B3FA83F3E3
:100CB00003F01F03984002424BD0606820F003000D
:100CC00008436060FFF7FEFD6968074641F288301F
:100CD00001290DD00229814617D025E04FF000737D
:100CE000D4E700BFFFF7EEFDC11B494501D918E06D
:100CF00081466068C0F381000128F3D118E000BF8D
:100D0000FFF7E0FDC11B49450BD86068C0F38100C7
:100D10000228F5D10CE000BFFFF7D4FDC11B494507
:100D200002D90320BDE8F087606810F00C0FF3D102
:100D3000D8F80010404601F00701B1420BD9016814
:100D400021F0070131430160006800F00700B04264
:100D500001D00120E6E72878400705D56068E968FA
:100D600020F4E060084360602878000706D56068DA
:100D7000296920F4605040EAC100606000F03AF850
:100D80006168F02292FAA2F201F0F001B2FA82F266
:100D9000D140074A515CC840064908600020FFF76F
:100DA000B1FD0020BEE7000000200240001002401C
:100DB000A8160008000000200148006870470000E5
:100DC0000000002008480949006849684FF4605253
:100DD00092FAA2F201F46051B2FA82F2D140044ACE
:100DE000515CC84070470000000000200010024025
:100DF000B816000810B519A385B00FCB8DE80F0009
:100E00001AA01B4B006804905A681A4812F00C0193
:100E10001FD004291DD008291BD14FF4701494FA57
:100E2000A4F402F47011B4FA84F4E140D2031DF882
:100E3000011010D55A684FF4003393FAA3F302F46B
:100E40000032B3FA83F3DA4004AB9A5CB0FBF2F001
:100E5000484305B010BD08484843FAE702030405BB
:100E6000060708090A0B0C0D0E0F101001020000F6
:100E70000010024000127A0000093D002DE9F84FF1
:100E800004460078F74DC0074FF0010625D068688A
:100E90007704C0F38100012807D06868C0F381009F
:100EA00002281BD16868C00318D597FAA7F0B0FADA
:100EB00080F040F02000400901D0286800E0686A16
:100EC00097FAA7F1B1FA81F101F01F0106FA01F1D9
:100ED00008425ED0606800287CD05AE06068B0F5B7
:100EE000803F0BD010B1B0F5A02F11D0286820F4AE
:100EF00080302860286820F4802002E0286840F4D0
:100F000080302860606828B3FFF7DCFC80460BE087
:100F1000286840F480202860F0E700BFFFF7D2FC8B
:100F2000A0EB0800642871D897FAA7F0B0FA80F017
:100F300040F02000400901D0286800E0686A97FA74
:100F4000A7F1B1FA81F101F01F0106FA01F108429F
:100F5000E4D01EE0FFF7B6FC804605E0FFF7B2FCE8
:100F6000A0EB08006428DED897FAA7F0B0FA80F06A
:100F700040F02000400901D0286800E0686A97FA34
:100F8000A7F1B1FA81F101F01F0106FA01F108425F
:100F9000E4D12078DFF8D08280074FF000094FF0CD
:100FA00002075BD568684FF0F80B10F00C0F07D004
:100FB0006868C0F3810002281CD16868C00319D496
:100FC00097FAA7F0B0FA80F040F02000400902D074
:100FD000286801E08BE0686A97FAA7F1B1FA81F11D
:100FE00001F01F0106FA01F108422CD02069012806
:100FF0007DD128E0206990B396FAA6F0B0FA80F08F
:1010000048F82060FFF75EFC824607E011E100BF70
:10101000FFF758FCA0EB0A00022884D897FAA7F043
:10102000B0FA80F040F02000400901D0286800E0CC
:10103000686A97FAA7F1B1FA81F101F01F0106FA87
:1010400001F10842E4D028689BFAABF26169B2FA78
:1010500082F220F0F80091400843286025E0FFE785
:1010600096FAA6F1B1FA81F148F82190FFF72AFC2F
:10107000824605E0FFF726FCA0EB0A000228CCD848
:1010800097FAA7F0B0FA80F040F02000400901D0B4
:10109000286800E0686A97FAA7F1B1FA81F101F0D7
:1010A0001F0106FA01F10842E4D1207800076ED54D
:1010B000A069B8B396FAA6F0B0FA80F008EB800009
:1010C000C0F88064FFF7FEFB824605E0FFF7FAFBFD
:1010D000A0EB0A000228A0D897FAA7F0B0FA80F097
:1010E00040F06000B6EB501F02D128680CE062E1CE
:1010F00097FAA7F0B0FA80F040F06000B7EB501F0D
:1011000001D1286A00E0686A97FAA7F1B1FA81F183
:1011100001F01F0106FA01F21042D7D00120FFF7BB
:10112000DDFA34E0FFE796FAA6F1B1FA81F108EBB7
:101130008101C1F88094FFF7C5FB824606E000BF3D
:10114000FFF7C0FBA0EB0A00022872D897FAA7F0BD
:10115000B0FA80F040F06000B6EB501F01D1286873
:101160000BE097FAA7F0B0FA80F040F06000B7EB20
:10117000501F01D1286A00E0686A97FAA7F1B1FA16
:1011800081F101F01F0106FA01F21042D8D1207856
:10119000400765D5E86940F08050E861E869DFF80C
:1011A000CCB000F080500090DBF8001041F480716A
:1011B000CBF80010FFF786FB824605E0FFF782FBC5
:1011C000A0EB0A00642834D8DBF80000C005F5D590
:1011D000E06801280AD008B1052813D0286A20F059
:1011E00001002862286A20F0040002E0286A40F02A
:1011F00001002862E06841F2883B90B3FFF762FB90
:1012000082460BE0286A40F004002862EEE700BF47
:10121000FFF758FBA0EB0A0159450AD897FAA7F047
:10122000B0FA80F040F04000B6EB501F02D12868C1
:101230000CE0A3E097FAA7F0B0FA80F040F040008D
:10124000B7EB501F01D1286A00E0686A97FAA7F14E
:10125000B1FA81F101F01F0206FA02F10842D7D07B
:1012600031E005E000100240000042420070004002
:10127000FFF728FB824605E0FFF724FBA0EB0A01FD
:1012800059457BD897FAA7F0B0FA80F040F04000BB
:10129000B6EB501F01D128680BE097FAA7F0B0FA1F
:1012A00080F040F04000B7EB501F01D1286A00E009
:1012B000686A97FAA7F1B1FA81F101F01F0206FA04
:1012C00002F10842D8D1E06980B36968C1F38101B5
:1012D000022970D04FF080714F000228484609D093
:1012E00091FAA1F1B1FA81F148F82100FFF7EAFA89
:1012F000044669E08A4691FAA1F1B1FA81F1C1464A
:1013000048F82100FFF7DEFA804605E0FFF7DAFA39
:10131000A0EB0800022854D897FAA7F0B0FA80F0A2
:1013200040F02000400902D0286801E061E0686ACE
:1013300097FAA7F1B1FA81F101F01F0106FA01F164
:101340000842E3D1206AB0F5803F05D16868A16802
:1013500020F4003008436860D4E908010843696854
:1013600021F47411084368609AFAAAF0B0FA80F088
:1013700049F82060FFF7A6FA044606E021E000BF26
:10138000FFF7A0FA001B02281BD897FAA7F0B0FAC3
:1013900080F040F02000400901D0286800E0686A31
:1013A00097FAA7F1B1FA81F101F01F0106FA01F1F4
:1013B0000842E5D01DE01EE0FFF784FA001B02287A
:1013C00002D90320BDE8F88F97FAA7F0B0FA80F0B1
:1013D00040F02000400901D0286800E0686A97FAD0
:1013E000A7F1B1FA81F101F01F0106FA01F10842FB
:1013F000E2D10020E6E70120E4E74FF0E0210428F5
:10140000086903D020F004000861704740F0040030
:10141000FAE7704710B5401EB0F1807F01D301207C
:1014200010BD4FF0E02460610F21601700F0A8F8B4
:101430000020A06107202061002010BD10B5FFF73B
:10144000E8FF10BDFEE7FEE7704710B5FFF740FA72
:10145000BDE81040FFF7F2BF0D48016841F00101FF
:10146000016041680B4A1140416001680A4A11401D
:101470000160016821F480210160416821F4FE01CE
:1014800041604FF41F0181600449C0030860704748
:10149000001002400000FFF8FFFFF6FE08ED00E03C
:1014A000FEE700003EB50F480D490025016001240C
:1014B000C0E90254456145604FF460210461C16197
:1014C000FEF75AFF40B9009469460648CDE9014548
:1014D000FEF79AFE002801D000F040F83EBD000063
:1014E000002801401000002030B5194885B08169FE
:1014F00041F010018161816901F01001049181695D
:1015000041F020018161816901F02001049181692C
:1015100041F0040181618069012200F004000D4D59
:101520005403049021462846FFF7C6F91120CDE95F
:1015300000400324694628460394FFF7DBF80420A3
:10154000CDE9000469460448FFF7D4F805B030BD82
:10155000001002400010014000080140BFF34F8F0F
:1015600005480168054A01F4E06111430160BFF3D9
:101570004F8F00BFFDE700000CED00E00400FA050E
:101580000907090E002806DA00F00F0000F1E0203C
:1015900080F8141D704700F1E02080F800147047B7
:1015A00030B593B00120009000040025CDE901057D
:1015B0000224CDE907404FF4E01009906846FFF798
:1015C0005DFC90B90AA90F2081E831006002CDE9E5
:1015D0000D0502210AA8FFF72BFB30B9A0031190DB
:1015E0000F940FA8FFF78EFA08B1FFF7B7FFFFF7C8
:1015F000E3FB4FF47A71B0FBF1F0FFF70BFF04202F
:10160000FFF7FBFE00221146501EFFF7D1F913B081
:1016100030BD000070B50546FFF754F9054E04468D
:101620003068201AA84202D300F006F83460012086
:1016300070BD0000080000204FF400510148FFF782
:1016400037B900000010014002E008C8121F08C1AD
:10165000002AFAD170477047002001E001C1121F33
:10166000002AFBD170470000FFF73AF9FFF798FF17
:10167000FFF73AFFFFF716FF0948FEF7CFFF094CC7
:1016800001210748FEF732FF0028F9D10448FEF790
:101690006FFEA0F6FF7040422060FFF7BBFFEFE750
:1016A00010000020040000200000000000000000E6
:1016B00001020304060708090000000001020304F8
:1016C000E016000800000020100000004816000886
:1016D000F016000810000020300400005816000822
:1016E00000A24A040000000000000000000000000A
:04000005080000ED02
:00000001FF
