:020000040800F2
:10000000800F002001010008D32300089523000879
:10001000D12300087F0900086931000800000000B2
:1000200000000000000000000000000013010008B4
:10003000810900080000000017010008D52300080E
:100040001B0100081B0100081B0100081B01000820
:100050001B0100081B0100081B0100081B01000810
:100060001B0100081B0100081B0100081B01000800
:100070001B0100081B0100081B0100081B010008F0
:100080001B0100081B0100081B0100081B010008E0
:10009000013100081B0100081B0100081B010008BA
:1000A0001B0100081B0100081B0100081B010008C0
:1000B0001B0100081B0100081B0100081B010008B0
:1000C0001B0100081B0100081B0100081B010008A0
:1000D0001B0100081B0100081B0100081B01000890
:1000E0001B0100081B0100081B010008DFF80CD0F1
:1000F00000F008FC004800470D5F0008800F00205A
:100100000648804706480047FEE7FEE7FEE7FEE7B1
:10011000FEE7FEE7FEE7FEE7FEE7FEE7E523000871
:10012000ED0000082DE9F05F0546002092469B4651
:1001300088460646814640241BE0284641464746FD
:10014000224600F020F853465A46C01A914110D377
:1001500011461846224600F0F1FA2D1A67EB010805
:100160004F4622460120002100F0E8FA17EB000973
:100170004E41201EA4F10104DFDC484631462A46E8
:100180004346BDE8F09F202A04DB203A21FA02F022
:100190000021704721FA02F3D040C2F120029140C1
:1001A00008431946704740EA01039B0703D009E062
:1001B00008C9121F08C0042AFAD203E011F8013B53
:1001C00000F8013B521EF9D27047F0B480EA0102F8
:1001D000D40F4200B2EB410F02D20246084611464C
:1001E0004A0042D0C30DDDB2C1F3C752AD1A202D73
:1001F00035DAC1F3160141F4000204B15242C5F1EF
:10020000200602FA06F12A411044B3EBD05F23D056
:10021000C4B1012DA0EBC35009DCF0BC4FF000428B
:1002200002EAC352DBB200F5000000F0B1BA4000B0
:1002300000F1807000EBC350A0F1807040EAD170F3
:10024000490009E0490841EAC071A0EBC35000F53C
:100250000000400800EBC350F0BC00F090BA6142CF
:10026000012202EB4101001BF6E7F0BC704781F070
:100270000041AAE780F00040A7E780EA010210B53C
:1002800002F00043400022D04A001FD0010E01EBD3
:100290001261C0F35600C2F3560240F4000042F46B
:1002A0000002A0FB022000047F39140400D0401C8F
:1002B00050EA124001D44000491EC2B20C0604EBC1
:1002C000D010401C4008802A02D003E0002010BD5E
:1002D00020F00100002900DA0020184310BD30B4DE
:1002E00080EA010202F0004530F0004221F00040B7
:1002F00013D090B1C30DD40DC2F31601C0F3160094
:10030000E41A41F4000140F400027D34914201D32B
:10031000641C00E04900002C02DA30BC0020704769
:100320004FF400000023914201D3891A034340088F
:100330004FEA4101F7D151B1914202D14FF0004152
:1003400005E002D24FF0010101E06FF0010103EB83
:10035000C450284430BC00F012BA420005D0C0F3AB
:10036000C7525242914201DC0020704700EBC1505D
:1003700070472DE9FE4F804681EA0300C00F0C460E
:10038000009021F0004123F00045B8EB0200A941A4
:1003900005D24046214690461C460B46024623F0B5
:1003A0000040104347D0270DC7F30A00C3F30A519A
:1003B0000290401A019040286BDAC3F3130040F416
:1003C000801B0098924620B10023D2EB030A63EB16
:1003D0000B0B01985946C0F14002504600F0AEF9AF
:1003E00006460D4650465946019A00F0B6F910EB04
:1003F00008006141002487EA115284EAE7731A4336
:1004000040D0009A62B3019A012A4FEA075215DCE4
:10041000001B61EB02014FF0004202EA0752CDE9F6
:100420000042001C41F5801132462B4600F01CFAB8
:1004300003B0BDE8F08F40462146F9E7001B61EBB1
:100440000201001C41F5801300185B412018A2F541
:10045000001747EB030140EAD570B6196D4111E072
:100460006D084FEA360645EAC0754FEA0752001B91
:1004700061EB0201001C41F5801149084FEA300090
:100480000019514132462B4603B0BDE8F04F00F051
:10049000DCB90098012240000023D0EB020263EB9C
:1004A000E073009821464FEAE074B8EB000061EB7E
:1004B0000401E9E783F000435BE781F0004158E77E
:1004C0002DE9FE4F81EA030404F0004421F00041CD
:1004D00000944FF0000B23F0004350EA01045ED07B
:1004E00052EA03045BD0C3F30A54C1F30A552C4407
:1004F000A4F2F3340194A0FB0254C1F3130141F4BC
:100500008011C3F3130343F4801301FB024400FB87
:10051000034E840A970A44EA815447EA8357A4FBAE
:10052000076802958D0A05FB07854FEA932C04FBAB
:100530000C542705029D4FEA065847EA1637B5EBDB
:1005400008056EEB070C870E920E47EA811742EA08
:100550008312A7FB0201B6EB0B0164EB00042B0D29
:1005600043EA0C335E1844EB1C50DA465146E7FB75
:100570000201C5F313044FEA0B3343EA14534FEA65
:100580000432019C43EA0603A4F10C040294009C8B
:10059000CDE900B400F068F903B0BDE8F08F0020A9
:1005A0000146F9E72DE9F04D81EA030404F0004B20
:1005B00021F0004514464FF0000A23F0004150EAB4
:1005C000050220D054EA01021DD0C5F30A570246A5
:1005D000C5F31303C1F31300C1F30A5640F48015A9
:1005E00043F48013A7EB0608101BD64608F2FD382B
:1005F00073EB050002D308F1010801E092185B419A
:10060000B8F1000F03DA00200146BDE8F08D0020AC
:100610004FF48011064684460EE0171B73EB050766
:1006200005D3121B63EB050306434CEA010C490892
:100630004FEA300092185B4150EA0107EDD152EACF
:10064000030012D082EA040083EA0501084305D0C2
:10065000101BAB4106D20122002306E000224FF01E
:10066000004302E06FF0010253101AEB06004CEB5E
:10067000085110EB0A0041EB0B01BDE8F04D00F012
:10068000E4B870B521F0004303430CD0C1F30A5520
:100690000024D5EB040564EB0403D617AD1AB3416F
:1006A00002DB0020014670BD201841EB025170BDF5
:1006B000C10F80EAE0700844CA079623002100F0C9
:1006C00067B830B4044696230800214604D0B62308
:1006D00030BC002200F05CB820460021F8E700F0B2
:1006E000004230F000400AD0C10D01F56071C0F346
:1006F000160042EA0151C20840071143704700202A
:100700000146704701F0004330B421F0004150EA47
:10071000010206D00A0DA2F56072C1F31301002A8E
:1007200002DC30BC00207047440F44EAC104C10021
:10073000E01830BC00EBC25000F021B8202A04DBE6
:10074000203A00FA02F1002070479140C2F12003E4
:1007500020FA03F3194390407047202A06DBCB1799
:10076000203A41FA02F043EAE07306E041FA02F36C
:10077000D040C2F120029140084319467047002939
:10078000A8BF7047401C490008BF20F00100704717
:1007900010B4B0FA80FC00FA0CF050EA010404BF77
:1007A00010BC704749B1CCF1200421FA04F411FACD
:1007B0000CF118BF012121430843A3EB0C01CB1D11
:1007C0004FEA00614FEA102042BF002010BC704782
:1007D00000EBC35010440029A4BF10BC7047401C5C
:1007E000490008BF20F0010010BC7047F0B4002899
:1007F00002DCF0BC00207047C0F3C751C0F3160004
:1008000040F40000CA0701D14000491E3F2202EB1C
:100810006105002211464FF4000626FA01F3134445
:10082000D418844201D8001B1A464000491C1729DD
:10083000F3DD5100814202D24FF0FF3100E0002190
:1008400002EBC550F0BCFFF79ABF10B5141E73F150
:10085000000408DA401C41F1000192185B411A4380
:1008600001D120F0010010BD2DE9F04D92469B46CC
:1008700011B1B1FA81F202E0B0FA80F22032904672
:10088000FFF75CFF04460F4640EA0A0041EA0B010D
:1008900053465A46084313D0114653EA010019D073
:1008A000C8F140025046FFF76EFC05460E46504622
:1008B00059464246FFF742FF084305D0012004E0B5
:1008C00020463946BDE8F08D0020054346EAE07633
:1008D0002C4337430A986305E40AA0EB0800002282
:1008E000FD0A44EA47540A3002D500200146E9E7F0
:1008F000010510196941DDE9084500196941BDE8A4
:10090000F04DA2E7064C074D06E0E06840F0010319
:1009100094E8070098471034AC42F6D3FFF7EAFB9F
:10092000286100084861000870B58C1810F8015B58
:1009300015F0070301D110F8013B2A1106D110F878
:10094000012B03E010F8016B01F8016B5B1EF9D17C
:100950002B0705D40023521E0DD401F8013BFAE702
:1009600010F8013BCB1A921C03E013F8015B01F86D
:10097000015B521EF9D5A142D8D3002070BDFEE71D
:10098000704731B500F0F4F8044600F0F1F8009932
:10099000001B8842F9D338BD2DE9F84FDFF890A14C
:1009A00000220AF1040B144601274FF00F090BF146
:1009B000040E00BF0B6807FA04F52B40AB4274D15C
:1009C000DFF870C14E68A6EB0C0866452BD00DDC35
:1009D000032E34D005DC36B3012E19D0022E2FD1D0
:1009E0001BE0112E16D0122E2AD119E0B8F5881F5F
:1009F00019D006DCB8F5803F15D0B8F5801F1FD19F
:100A000011E0B8F5001F0ED0B8F5041F18D10AE0A8
:100A1000CA6815E0CA68121D12E0CA6808320FE001
:100A2000CA680C320CE08A682AB1012A4FF0080229
:100A300003D0456104E0042202E0056100E00022E9
:100A4000FF2B01D8064601E000F104064FEA8405B9
:100A500001D9A5F12005D6F800C009FA05F82CEA5D
:100A6000080C02FA05F54CEA050CC6F800C04D6802
:100A7000ED0057D5304DAE6946F00106AE61AD6967
:100A800024F0030605F0010500952C4D06EB050C3E
:100A9000DCF80850A6074FEA167809FA08F6B543BD
:100AA000274EB04202D1002610E03BE0254EB04276
:100AB00001D101260AE0244EB04201D1022605E010
:100AC000224EB04201D1032600E0042606FA08F6C1
:100AD0002E43CCF808604D68DAF80060ED03554607
:100AE00001D51E4300E09E432E604D68DBF8006098
:100AF000AD035D4601D51E4300E09E432E604D6868
:100B0000DEF80060ED02754601D51E4300E09E430D
:100B10002E604D68AD020E4D2E6801D51E4300E0DB
:100B20009E432E60641C102CFFF444AFBDE8F88F88
:100B300000040140000011100010024000000140BC
:100B400000080140000C0140001001400014014069
:100B50000C0401408068084000D001207047C26842
:100B60004A40C26070470AB1016170470904FBE75F
:100B70000148006870470000BC00002070B5040008
:100B800004D094F83500002510B106E0012070BDB6
:100B900084F83450204600F06BFA242084F83500A5
:100BA0002068016821F00101016000F0EBFE0146C0
:100BB00028482268B1FBF0F05060274A63689342EE
:100BC00006D94FF4967358434FF47A73B0FBF3F0A1
:100BD0002368401C18626068904208D84000B1FB4E
:100BE000F0F0C0F30B01042916D2042014E0A2682F
:100BF00052B100EBC00202EB0010B1FBF0F040F488
:100C00004040010507D007E000EB4000B1FBF0F0E9
:100C100040F40040F5E701202168C861D4E90701EC
:100C2000084321680860D4E90310084321688860FC
:100C3000D4E9050108432168C8602068016841F0D3
:100C400001010160A563202084F8350084F8365046
:100C5000002070BD40420F00A08601002DE9FF4F2B
:100C6000044690F8350081B099468B46012520282E
:100C700073D142F2107301224849204604F016F85D
:100C800000286AD194F83400012866D0012084F845
:100C900034002068016821F400610160242084F898
:100CA00035000026A66320272068016841F4807182
:100CB00001604B4600224FF00111204603F0F6FF81
:100CC00000285CD121680BF0FE000861FFF750FF9F
:100CD0002168804648694969C0F3400094F835208E
:100CE000C1F380214FF0A00A14E000BFB9F1000F5A
:100CF00005D0FFF73DFFA0EB0801494501D984F875
:100D000035A0216848694969C0F3400094F835204E
:100D1000C1F38021084301D1A02AE7D184F83570BE
:100D200020684169C943890718D4016841F40071FA
:100D30000160206841698069009042F210730122CD
:100D40001649204603F0B2FFC8B984F8357084F81C
:100D50003460002005B0BDE8F08F1DE0016841F46B
:100D6000007101602068416921F48061416142F2B3
:100D7000107301220949204603F098FF08B10320AF
:100D8000E8E7284603996D1C88428DD384F83570B6
:100D900084F834600120DDE70220DBE70200100068
:100DA0002DE9F84F04460AA8984690E8600294F8A6
:100DB000350092468B4620287BD1002D61D0002E35
:100DC0005FD042F2107301226949204603F06EFFA2
:100DD0000028F1D194F8340001286AD0012084F869
:100DE00034002068016821F400610160222084F849
:100DF0003500402084F836000027A763434652465A
:100E000059462046CDF8009003F0AEFD28B1A06B06
:100E100084F83470042834D072E0012E1AD020688F
:100E2000DFF85081022E01682ED041F4806101600C
:100E30002068416980690090032E74D8012E18D073
:100E4000022E2ED04B4600224146204603F02EFFB4
:100E500080BB42E02068016821F48061016072B6C5
:100E60002068416981690091016841F40071016065
:100E700062B64946204604F029F8E0B1A06B20286C
:100E80003ED00120BDE8F88F41F40061016072B6E8
:100E90002068416981690091016821F480610160E5
:100EA00062B64B4600224146204603F0FFFE08B9D9
:100EB00005E05AE024E02068006928704CE072B632
:100EC0002068016841F400710160206800692870A1
:100ED00062B62068006968703EE02068016821F40D
:100EE0008061016072B62068006905F8010B761E0A
:100EF000B6B24B4600224146204603F0D7FE08B169
:100F00000320BFE72068016841F400710160206898
:100F1000006905F8010B62B62068006905F8010B4D
:100F2000B61E15E0FFE74946204603F0CFFF002834
:100F3000A4D12068006905F8010B2068761EB6B2BE
:100F40004169C943490704D4006905F8010B761EBD
:100F5000B6B2002E7FF470AF202084F8350084F8FC
:100F6000367084F8347000208CE702208AE7000095
:100F700002001000040001002DE9F84F0446DDE9ED
:100F80000A6590F83500DDF83080994692468B4628
:100F9000202868D1002E64D0002D62D042F2107358
:100FA00001223249204603F081FEE8BB94F8340068
:100FB000012858D0012084F834002068016821F409
:100FC00000610160212084F83500402084F836005B
:100FD0000027A7634B46524659462046CDF800806D
:100FE00003F0B8FD28B1A06B84F83470042838D021
:100FF00007E04146204603F041FF28B1A06B0428DA
:101000002AD00320BDE8F88F216816F8010B08618B
:1010100020686D1EADB24169C943490707D445B187
:1010200016F8011B016100E01DE06D1EADB2002D40
:10103000DFD14146204603F021FF0028DED154F8DD
:10104000350B016841F400710160202004F81E098D
:10105000E77767770020D5E72068016841F40071E1
:1010600001600120CEE70220CCE700000200100062
:1010700000B500680C4985B0884213D14FF4406038
:101080000090122001900320039069460748FFF763
:1010900083FC0748C16941F48001C161C06900F463
:1010A0008000049005B000BD00580040000C0140D5
:1010B0000010024002480168491C016070470000AE
:1010C000BC000020074810B5016841F01001016024
:1010D000032000F08BF8002000F006F800F016F86E
:1010E000002010BD0020024010B5044600F044FC72
:1010F0004FF47A71B0FBF1F001F034F9002221468F
:10110000501E00F053F8002010BD00001F4808B525
:10111000816941F001018161806900F00100009066
:10112000032000F063F8002211466FF00B0000F07E
:101130003DF8002211466FF00A0000F037F8002257
:1011400011466FF0090000F031F800221146501FDF
:1011500000F02CF800221146101F00F027F80022A2
:101160001146901E00F022F800221146501E00F099
:101170001DF80748416821F0E06141F0806141605D
:10118000416821F0E061416008BD000000100240AC
:101190000000014000F01F02012191404009800041
:1011A00000F1E020C0F8001170470000F0B40E4BD1
:1011B0001B680C46C3F30223C3F10705042D00D9B5
:1011C0000425191D072901D2002300E0DB1E01269A
:1011D00006FA05F1491E214099409E40761E1640B0
:1011E0003143F0BC02F090BF0CED00E0064900F086
:1011F000070208684FF6FF03184040EA0220034A3E
:1012000010430860704700000CED00E00000FA0594
:1012100010B50C0605D501F07F0100EB4110283018
:1012200003E000EB411000F5027099B232B10122E7
:101230008272C180190C0181002010BD00228272CF
:101240008180F9E7704700EB4112D0F81C04D26BA3
:1012500001F0ACB900EB4112D0F81C04D2F81C220A
:1012600001F0F9B910B504460A460B0601F07F00FB
:1012700004EB401101D5283101E001F5027108703D
:10128000D009487094F8E803012809D0012084F8B7
:10129000E803206801F056FD002084F8E80310BD43
:1012A000022010BD70B50A460446090602F07F0010
:1012B00003D504EB4011283103E004EB421101F5A2
:1012C000027100258D700870D009487094F8E80309
:1012D000012809D0012084F8E803206801F0DAFD34
:1012E00084F8E853002070BD022070BD70B504463C
:1012F0000D460E0601F07F0004EB401101D52831A8
:1013000001E001F502710870E80948700A61CB70CC
:1013100094F8E803012809D0012084F8E803206844
:1013200001F0E0FB002084F8E80370BD022070BDEE
:1013300070B504460E4601F07F0004EB401101F544
:10134000077100252CC101F81F5C01F8200D94F8ED
:10135000E80301280AD0012084F8E8037006206819
:1013600001F0F2FD84F8E853002070BD022070BD4A
:1013700070B50D460446090605F07F0003D504EB61
:101380004011283103E004EB451101F502710122FF
:101390008A700870E809487094F8E803012807D0BB
:1013A00084F8E823206801F0AAFD680602D006E070
:1013B000022070BD04F57B71206801F069FD0020FA
:1013C00084F8E80370BD70B504460E4601F07F0056
:1013D00004EB40113C3100252CC1012201F81F2CE7
:1013E00001F8200D94F8E803012809D084F8E823D7
:1013F0007006206801F0A8FD84F8E853002070BD55
:10140000022070BD10B50446006801F07FFE0004A4
:1014100002D5204602F0ACFF206801F077FE4005BF
:101420000CD5206830F8441F21F4806101802046EB
:1014300000F0ECF80021204600F0FDF8206801F0F3
:1014400065FE400405D5206830F8441F21F4804132
:101450000180206801F05AFE800405D5206830F82C
:10146000441F21F400510180206801F04FFEC004A8
:1014700013D5206830F8401F21F004010180216855
:101480004FF43D40A1F84000204600F0CCF8206821
:1014900030F8441F21F480510180206801F036FEAD
:1014A00000051AD5206830F8441F21F4006101803E
:1014B000206830F8401F41F008010180206830F8B2
:1014C000401F41F004010180206801F01FFEC0436D
:1014D000C00402D5204600F0E3F8206801F016FEB3
:1014E000800508D5206830F8441F21F40071018080
:1014F000204600F09CF8206801F008FEC00505D5E4
:10150000206830F8441F21F48071018010BD000074
:101510002DE9F04186B004004FF0000504D094F8A6
:10152000E903002620B108E0012006B0BDE8F08103
:1015300084F8E863204600F04BF8032084F8E903C0
:10154000206801F09EFC04F11001142288466846D0
:10155000FEF729FE94E80F0001F0F2FB002120685D
:1015600001F0E7FD5FF0010704EB451080F82970FA
:1015700000F8285F8581C670066146616D1C866132
:101580000F2DF1D35FF0000004EB401181F80962E8
:1015900081F80802888681F80B62C1F81862C1F8E8
:1015A0001C62401CC1F820620F28EDD31422414672
:1015B0006846FEF7F8FD94E80F0001F059FC84F846
:1015C000246084F8E973206801F050FC0020ACE747
:1015D00008B500680B49884212D10B48C16941F433
:1015E0000001C161C069002200F4000000901146B2
:1015F0001420FFF7DBFDBDE808401420FFF7CABD4B
:1016000008BD0000005C00400010024010B5044618
:101610000121D0F81C0401F0DDF8D4F81C04BDE869
:10162000104001F0A6B8D0F81C0401F0C1B8D0F801
:101630001C0401F0C3B810B5044690F8E803012873
:101640000BD0012084F8E80384F82410206801F00E
:1016500072FD002084F8E80310BD022010BDD0F810
:101660001C2400F57B71104601F0BEB810B504468D
:1016700090F8E803012810D0012084F8E80301461F
:101680002046FFF7DFFD206801F0EEFB206801F047
:1016900030FD002084F8E80310BD022010BD0000DA
:1016A00010B50446D0F81C0401F0D9F8A069002850
:1016B00004D00348016841F00601016010BD00003C
:1016C00010ED00E02DE9F84305460078454CC007D1
:1016D00074D0E06940F08050E061E069424E00F073
:1016E00080500090306840F480703060FFF740FA1E
:1016F000074604E0FFF73CFAC01B642833D8306883
:10170000C005F7D5206A10F4407051D0A98801F4C3
:10171000407181424CD0206A0126310491FAA1F235
:10172000B2FA82F29300314A20F440701344C3F8B5
:10173000006491FAA1F1B1FA81F102EB8101002379
:10174000C1F800342062C00732D0FFF711FA074613
:1017500041F288394FF0020808E000BFFFF708FAAD
:10176000C11B494502D90320BDE8F88398FAA8F1C6
:10177000B1FA81F141F040014046B6EB511F01D171
:1017800021680BE090FAA0F1B1FA81F141F040013B
:10179000B0EB511F01D1216A00E0616A98FAA8F00C
:1017A000B0FA80F000F01F0206FA02F00142D5D034
:1017B000206A696820F44070084320622878800716
:1017C00005D56068A96820F4404008436060287827
:1017D000C00605D56068E96820F4800008436060B1
:1017E0000020C1E7001002400070004000004242AB
:1017F0002DE9F047DFF8708105460E46D8F8000065
:1018000000F00700B0420CD2D8F8001021F0070118
:101810003143C8F80010D8F8000000F00700B042CB
:1018200077D12878514C800705D56068A96820F0E9
:10183000F000084360602878C00759D0696801202B
:1018400001290DD0022929D05FF0020393FAA3F2F7
:10185000B2FA82F242F02002520904D0226803E078
:101860004FF40033F2E7626A93FAA3F3B3FA83F317
:1018700003F01F03984002424BD0606820F0030041
:1018800008436060FFF774F96968074641F28830E1
:1018900001290DD00229814617D025E04FF00073B1
:1018A000D4E700BFFFF764F9C11B494501D918E02F
:1018B00081466068C0F381000128F3D118E000BFC1
:1018C000FFF756F9C11B49450BD86068C0F381008A
:1018D0000228F5D10CE000BFFFF74AF9C11B4945CA
:1018E00002D90320BDE8F087606810F00C0FF3D137
:1018F000D8F80010404601F00701B1420BD9016849
:1019000021F0070131430160006800F00700B04298
:1019100001D00120E6E72878400705D56068E9682E
:1019200020F4E060084360602878000706D560680E
:10193000296920F4605040EAC100606000F03AF884
:101940006168F02292FAA2F201F0F001B2FA82F29A
:10195000D140074A515CC840064908600020FFF7A3
:10196000C3FB0020BEE70000002002400010024040
:101970001061000800000020014800687047000066
:101980000000002008480949006849684FF4E062F7
:1019900092FAA2F201F4E061B2FA82F2D140044A72
:1019A000515CC84070470000000000200010024059
:1019B0002061000810B519A385B00FCB8DE80F008A
:1019C0001AA01B4B006804905A681A4812F00C01C8
:1019D0001FD004291DD008291BD14FF4701494FA8C
:1019E000A4F402F47011B4FA84F4E140D2031DF8B7
:1019F000011010D55A684FF4003393FAA3F302F4A0
:101A00000032B3FA83F3DA4004AB9A5CB0FBF2F035
:101A1000484305B010BD08484843FAE702030405EF
:101A2000060708090A0B0C0D0E0F1010010200002A
:101A30000010024000127A0000093D002DE9F84F25
:101A400004460078F74DC0074FF0010625D06868BE
:101A50007704C0F38100012807D06868C0F38100D3
:101A600002281BD16868C00318D597FAA7F0B0FA0E
:101A700080F040F02000400901D0286800E0686A4A
:101A800097FAA7F1B1FA81F101F01F0106FA01F10D
:101A900008425ED0606800287CD05AE06068B0F5EB
:101AA000803F0BD010B1B0F5A02F11D0286820F4E2
:101AB00080302860286820F4802002E0286840F404
:101AC00080302860606828B3FFF752F880460BE04A
:101AD000286840F480202860F0E700BFFFF748F84E
:101AE000A0EB0800642871D897FAA7F0B0FA80F04C
:101AF00040F02000400901D0286800E0686A97FAA9
:101B0000A7F1B1FA81F101F01F0106FA01F10842D3
:101B1000E4D01EE0FFF72CF8804605E0FFF728F838
:101B2000A0EB08006428DED897FAA7F0B0FA80F09E
:101B300040F02000400901D0286800E0686A97FA68
:101B4000A7F1B1FA81F101F01F0106FA01F1084293
:101B5000E4D12078DFF8D08280074FF000094FF001
:101B600002075BD568684FF0F80B10F00C0F07D038
:101B70006868C0F3810002281CD16868C00319D4CA
:101B800097FAA7F0B0FA80F040F02000400902D0A8
:101B9000286801E08BE0686A97FAA7F1B1FA81F151
:101BA00001F01F0106FA01F108422CD0206901283A
:101BB0007DD128E0206990B396FAA6F0B0FA80F0C3
:101BC00048F82060FEF7D4FF824607E011E100BF2D
:101BD000FEF7CEFFA0EB0A00022884D897FAA7F000
:101BE000B0FA80F040F02000400901D0286800E001
:101BF000686A97FAA7F1B1FA81F101F01F0106FABC
:101C000001F10842E4D028689BFAABF26169B2FAAC
:101C100082F220F0F80091400843286025E0FFE7B9
:101C200096FAA6F1B1FA81F148F82190FEF7A0FFEB
:101C3000824605E0FEF79CFFA0EB0A000228CCD804
:101C400097FAA7F0B0FA80F040F02000400901D0E8
:101C5000286800E0686A97FAA7F1B1FA81F101F00B
:101C60001F0106FA01F10842E4D1207800076ED581
:101C7000A069B8B396FAA6F0B0FA80F008EB80003D
:101C8000C0F88064FEF774FF824605E0FEF770FF3F
:101C9000A0EB0A000228A0D897FAA7F0B0FA80F0CB
:101CA00040F06000B6EB501F02D128680CE062E102
:101CB00097FAA7F0B0FA80F040F06000B7EB501F41
:101CC00001D1286A00E0686A97FAA7F1B1FA81F1B8
:101CD00001F01F0106FA01F21042D7D00120FEF7F1
:101CE00050FE34E0FFE796FAA6F1B1FA81F108EB75
:101CF0008101C1F88094FEF73BFF824606E000BFF9
:101D0000FEF736FFA0EB0A00022872D897FAA7F078
:101D1000B0FA80F040F06000B6EB501F01D12868A7
:101D20000BE097FAA7F0B0FA80F040F06000B7EB54
:101D3000501F01D1286A00E0686A97FAA7F1B1FA4A
:101D400081F101F01F0106FA01F21042D8D120788A
:101D5000400765D5E86940F08050E861E869DFF840
:101D6000CCB000F080500090DBF8001041F480719E
:101D7000CBF80010FEF7FCFE824605E0FEF7F8FE09
:101D8000A0EB0A00642834D8DBF80000C005F5D5C4
:101D9000E06801280AD008B1052813D0286A20F08D
:101DA00001002862286A20F0040002E0286A40F05E
:101DB00001002862E06841F2883B90B3FEF7D8FE4C
:101DC00082460BE0286A40F004002862EEE700BF7C
:101DD000FEF7CEFEA0EB0A0159450AD897FAA7F004
:101DE000B0FA80F040F04000B6EB501F02D12868F6
:101DF0000CE0A3E097FAA7F0B0FA80F040F04000C2
:101E0000B7EB501F01D1286A00E0686A97FAA7F182
:101E1000B1FA81F101F01F0206FA02F10842D7D0AF
:101E200031E005E000100240000042420070004036
:101E3000FEF79EFE824605E0FEF79AFEA0EB0A0141
:101E400059457BD897FAA7F0B0FA80F040F04000EF
:101E5000B6EB501F01D128680BE097FAA7F0B0FA53
:101E600080F040F04000B7EB501F01D1286A00E03D
:101E7000686A97FAA7F1B1FA81F101F01F0206FA38
:101E800002F10842D8D1E06980B36968C1F38101E9
:101E9000022970D04FF080714F000228484609D0C7
:101EA00091FAA1F1B1FA81F148F82100FEF760FE44
:101EB000044669E08A4691FAA1F1B1FA81F1C1467E
:101EC00048F82100FEF754FE804605E0FEF750FE7C
:101ED000A0EB0800022854D897FAA7F0B0FA80F0D7
:101EE00040F02000400902D0286801E061E0686A03
:101EF00097FAA7F1B1FA81F101F01F0106FA01F199
:101F00000842E3D1206AB0F5803F05D16868A16836
:101F100020F4003008436860D4E908010843696888
:101F200021F47411084368609AFAAAF0B0FA80F0BC
:101F300049F82060FEF71CFE044606E021E000BFE1
:101F4000FEF716FE001B02281BD897FAA7F0B0FA7E
:101F500080F040F02000400901D0286800E0686A65
:101F600097FAA7F1B1FA81F101F01F0106FA01F128
:101F70000842E5D01DE01EE0FEF7FAFD001B022836
:101F800002D90320BDE8F88F97FAA7F0B0FA80F0E5
:101F900040F02000400901D0286800E0686A97FA04
:101FA000A7F1B1FA81F101F01F0106FA01F108422F
:101FB000E2D10020E6E70120E4E7000010B50400CC
:101FC00003D094F8510010B104E0012010BD204668
:101FD00000F038F8022084F851002068016821F0F0
:101FE00040010160D4E901010843D4E9031211431F
:101FF000084361690843218B01F400710843E169DA
:102000000843216A0843A16A084321680860A0695F
:10201000042101EA1040616A084321684860216890
:10202000E06A08612068C16921F40061C161044966
:10203000002008706065012084F85100002010BD68
:10204000C000002010B50068114986B088421CD13C
:102050001048816941F48051816180690E4C00F41F
:1020600080500490A0200090022001900320039053
:1020700069462046FEF790FC00214020CDE9000192
:10208000029169462046FEF787FC06B010BD0000AD
:102090000030014000100240000801402DE9F843E3
:1020A0000025DDF820800446ADF8005090F851007E
:1020B000012803D094F8510022287DD169B162B182
:1020C0005BB194F85000012876D0012684F8506066
:1020D00094F85100012803D005E00120BDE8F88301
:1020E000322084F851006565A263A387E3872163EA
:1020F000A386E386A564E564A06A4FF40057B8425E
:1021000009D12068016821F400510160206801684C
:1021100041F40051016020680168490603D4016858
:1021200041F040010160E0684FF48271B0F5006F4A
:10213000606807D0002867D088426ED1E08E012801
:1021400062D06AE020B188420CD1E08E012809D12A
:10215000206B21680088C860206B801C2063E08EA3
:10216000401EE086E08E80B9A06AB84244D1206863
:10217000016841F4805101603EE02068C068A16BB5
:102180000880A06B801CA0639EE0434600220221D1
:10219000204602F0D0FD002874D1206B2168008811
:1021A000C860206B801C2063E08E401E0004000C81
:1021B000E08609D1A06A00E0C5E0B84204D12068F9
:1021C000016841F48051016043460022012120460C
:1021D00002F0B1FD00286FD12068C068A16B0880B3
:1021E000A06B801CA063E08F401EE087E08E00287B
:1021F000CBD1606800286AD14346002201212046E5
:1022000002F099FDF0BBB8E7206B411C2163216807
:102210000078C860E08E401EE086E08E98B9A06A23
:10222000B84204D12068016841F4805101604346FE
:1022300000220121204602F07EFD18BB2068C06804
:10224000A16B087040E0434600220221204602F0C4
:1022500072FDB8B9206B411C216321680078C86009
:10226000E08E401E0004000CE08607D1A06AB84250
:1022700004D12068016841F4805101600022434686
:10228000012100E018E0204602F055FDA0B92068C9
:10229000C168A06B421CA2630170E08F401EE08702
:1022A000E08E0028CFD1606888B943460022012122
:1022B000204602F040FD08B103200FE72068C16806
:1022C000A06B421CA2630170E08F401EE087A06AF1
:1022D000B8420ED1434600220121204602F02BFDD8
:1022E00018B1606D40F002000DE02068C068ADF8E4
:1022F0000000434601228021204602F01CFD20B14F
:10230000606D40F010006065D6E784F85160A06A07
:10231000B84214D120688168C943C9060FD4616DE1
:1023200041F002016165016821F4005101602068FB
:10233000016841F40051016084F85050CDE684F802
:1023400050500020CAE60220C8E64FF0E0210428E1
:10235000086903D020F004000861704740F00400D1
:10236000FAE7704710B5401EB0F1807F01D301201D
:1023700010BD4FF0E02460610F21601701F0C4FE32
:102380000020A06107202061002010BD10B5FFF7DC
:10239000E8FF10BDFEE7000010B50022084909481B
:1023A00000F0E1F80849074800F07DFA07490548C0
:1023B00000F03CF8BDE81040024800F087BA000089
:1023C0002800002060010020C400002080000020C0
:1023D000FEE7704710B5FEF76DFEBDE81040FFF751
:1023E000D5BF00000D48016841F00101016041685E
:1023F0000B4A1140416001680A4A114001600168BE
:1024000021F480210160416821F4FE0141604FF414
:102410001F0181600449C00308607047001002403A
:102420000000FFF8FFFFF6FE08ED00E00246022084
:10243000002902D00020C2F81C12704710B51346C4
:1024400090F8FC41D0F81822032C09D192F83040C2
:1024500034B9012482F830400A46812100F008FA9C
:10246000002010BD0A4610B501460248FFF7E6FFFE
:1024700040B210BD6001002010B5D0F8142252689F
:102480009047002010BD134610B50A46002100F009
:1024900069F9002010BD134610B50A46002100F06E
:1024A000E7F9002010BD10B50446802100F0C9F9FD
:1024B0002046BDE81040002100F0C3B910B5032349
:1024C000C0F80821C0F8F431C0F80C2113460A46C0
:1024D000002100F047F9002010BD10B505210023B0
:1024E000C0F8F4111A46194600F03CF9002010BD5E
:1024F00010B502238261C0F8F431C26113460A4666
:10250000002100F0B5F9002010BD10B50421002312
:10251000C0F8F4111A46194600F0AAF9002010BDBF
:1025200070B5002300281DD00446002502E06D1C74
:10253000EDB2641C2678002EF9D1022404EB450488
:102540001480CC545B1C0322CA5400245B1C06E09C
:10255000CA545B1CDAB28C54521CD3B2401C0278B1
:10256000002AF5D170BD10B580B1D0F8143213B186
:102570000023C0F8143209B1C0F81012012180F80C
:10258000FC11027000F09CF8002010BD022010BD6C
:1025900010B5D0F82002FEF785FE002010BD10B562
:1025A000D0F82002FEF75EFE002010BD2DE9F041BC
:1025B0001746044641B1D4F8140242698AB394F82C
:1025C000FC01032842D043E0D4F8F411002504F1C3
:1025D0001400022933D1D0E902639E4207D9F31ACD
:1025E00083609AB239462046FFF755FF12E04068F3
:1025F000B0FBF3F103FB1101A1B9984212D3D4F857
:10260000F81188420ED2002211462046FFF743FF00
:10261000C4F8F85100231A461946204600F0A2F8E3
:102620000DE012E0D4F81402C16829B194F8FC015D
:10263000032801D1204688472046FFF74EFF94F833
:102640000002012804D184F8005201E0204690479E
:102650000020BDE8F08170B51546044641B1D4F8BC
:10266000140282693AB394F8FC01032824D025E0CF
:10267000D4F8F41104F5827003291FD1D0E90221A6
:102680008A420BD9531A83600846834200D303461B
:102690009AB229462046FFF7F6FE0FE0D4F814025E
:1026A000016929B194F8FC01032801D1204688472B
:1026B0002046FFF72AFF01E020469047002070BD2A
:1026C00010B51A490446C1F81C04C0F82012184875
:1026D000086008204860022088600120C86000204F
:1026E0008861C86108620846FEF712FF08B101F070
:1026F0008FFB0022D4F820021823114604F5087439
:10270000FEF786FD5823002280212068FEF780FD19
:102710009823002281212068FEF77AFDD823002229
:1027200001212068FEF774FD002010BDA8060020DE
:10273000005C00400A06D0F8200201F07F0100EBA7
:10274000411002D590F82A00704790F80A027047AD
:1027500010B51C461346D0F820022246FEF7C6FDEF
:10276000002010BD10B5D0F82002FEF7E1FD0020DA
:1027700010BD70B50022044640231146FFF7E8FF64
:1027800040252B46002280212046C4F81051FFF737
:10279000DFFF0120256284F8FC01D4F8180228B17B
:1027A000D4F814022179426820469047002070BD79
:1027B00090F8FD1180F8FC110020704710B590F8DA
:1027C000FC11032904D1D0F81412C96901B188475A
:1027D000002010BD01740020704710B5D0F8200211
:1027E000FEF729FF002010BD70B5044600F5027009
:1027F000054600F044F80120C4F8F401B4F80E02D4
:10280000C4F8F80194F8080210F01F010AD0012959
:102810000DD0022910D000F08001204600F011F800
:10282000002070BD2946204600F055F8F8E72946FB
:10283000204600F037F9F3E72946204600F0C4F8B7
:10284000EEE710B5D0F82002FEF792FD002010BD93
:1028500010B5D0F82002FEF709FF002010BD90F857
:10286000FC1180F8FD11042180F8FC110020704754
:1028700010B5D0F82002FEF7A6FD002010BD0A78A2
:1028800002704A7842708A78CB7802EB0322428049
:102890000A794B7902EB032282808A79C97902EBAB
:1028A0000121C18070470246002011B1C2F8141204
:1028B00070470220704710B5D0F8142202241AB1D4
:1028C0001268904700B90024204610BD10B5FFF7EC
:1028D000BFFF002010BD2DE9F04100264B780125F7
:1028E00032460A2B43D2DFE803F03C5842514208FB
:1028F00005422A2701F037FF63E004468888C8B9FB
:10290000C888B8B9887800F07F0794F8FC010328DC
:1029100010D084F8FE7139462046FFF75EFF20464E
:10292000FFF7F3FD1FB1022084F8FC0149E084F8B1
:10293000FC5146E020461AE001F04EFB41E0CB8816
:10294000012B14D190F8FC31022B02D0032B0ED1B5
:1029500004E08260012200F1080114E00122011D5F
:1029600011E090F8FC21022A04D0032A02D0FFF7DC
:102970009AFD26E0C560D0F8041209B10321C160B8
:10298000022200F10C01FFF7B3FD1AE0044648886B
:10299000012816D1C4F804520BE0044690F8FC015B
:1029A000022801D00328C5D14888012809D1C4F8DC
:1029B0000422D4F814028268204690472046FFF78C
:1029C000A4FD3046BDE8F08170B50D460446287878
:1029D00000260979C0F34110012806D06878A0B319
:1029E00001281FD003283FD107E0D4F8140229465C
:1029F000826820469047002070BD94F8FC010228B0
:102A000017D003282CD1688828B921B1802902D099
:102A10002046FFF716FFD4F81402294682682046A4
:102A2000904713E094F8FC01022802D0032817D144
:102A300003E0C9B180291BD116E06888A0B9480617
:102A400004D02046FFF7A4FDE5E703E02046FFF7AA
:102A50005CFD09E094F8FC01022807D003280BD0A4
:102A600029462046FFF71FFD304670BD4806FBD0C3
:102A70002046FFF7E6FEF7E7080601F07F0004EBCB
:102A8000001501D5143501E005F582752046FFF7E4
:102A900051FE00B101202860022229462046FFF79E
:102AA00027FDE1E770B5054690F8FC010C460328C8
:102AB0000DD1207901280AD8D5F814028268284659
:102AC0009047E08830B92846FFF71FFD02E028460E
:102AD000FFF7E9FC002070BD704700000048704718
:102AE000700600202DE9F047CC780A7848F68F135D
:102AF00034B1012C6DD0022C08D0032C13D10BE083
:102B000030F822401C4044F400730AE030F82240C0
:102B10001C4020F8224006E030F822401C4044F4DB
:102B2000C06320F822300C7830F8245048F68F72B9
:102B3000154048F280031D43254320F824508D7A28
:102B400048F6BF7904274BF68F7A48F2C0044CF25E
:102B50008006EDB30D7830F825C048F280180CEAF5
:102B6000020C4CEA080C20F825C0CD88B0F850C003
:102B700025F0010591F800800CEBC80C00EB4C0C23
:102B8000CCF800540D89B0F850C025F0010591F83B
:102B9000008007EBC807674400EB4707C7F80054FD
:102BA0004D78002D0D7830F825704FEA47477DD0DD
:102BB000002F05DA30F825701740374320F82570CC
:102BC0000D7830F825707F0608D530F8257001E0C3
:102BD00024E01DE01740274320F825700C7830F8DA
:102BE00024501540354320F824500C7830F8242028
:102BF00002EA09021A4320F824200A7830F8221049
:102C000001EA0A01194320F822100020BDE8F087EC
:102C100030F822401C4044F4806382E74D78F5B1DF
:102C20008D88B0F8506025F001050F7806EBC706D7
:102C300000EB4606C6F800540D7830F8256076069D
:102C400005D530F825601640264320F825600A781F
:102C500030F8221001EA090181F02001D2E78C88C6
:102C6000B0F8505024F0010491F800C007EBCC07F5
:102C70003D4400EB4505C5F80044B0F850400D78E0
:102C8000062707EBC5052C4400EB44070C694FF6FB
:102C9000FF7C07F580673E2C0CD9C4F34F15E40682
:102CA00001D16D1EADB20CEA852400E01EE044F4B3
:102CB000004407E0C4F34F05E40701D06D1CADB23A
:102CC0000CEA85243C600C7830F824506D0405D55E
:102CD00030F824501540354320F824500A7830F855
:102CE000221001EA0A0181F440518BE7002F05DA36
:102CF00030F825701740374320F825700D7830F8EC
:102D00002560760605D530F825601640264320F864
:102D100025600E7830F826501540254320F82650BF
:102D20000C7830F8242002EA0A0282F440521A4356
:102D300020F824200A7830F8221001EA090161E71E
:102D4000002070472DE9F04391F80A8091F801C006
:102D50000A7848F6BF774BF68F7948F2800348F23D
:102D6000C0054CF2800648F68F74B8F1000F2ED0E3
:102D7000BCF1000F30F822C04FEA4C4C4ED0BCF1F1
:102D8000000F07DA30F822C00CEA040C4CEA060CFB
:102D900020F822C00A7830F822C05FEA4C6C07D5D0
:102DA00030F822C00CEA040C4CEA050C20F822C0D2
:102DB0000A7830F822502540354320F822500C780C
:102DC00030F824203A401A4320F824201BE0BCF1BC
:102DD000000F0ED030F82260760605D530F822605C
:102DE00026402E4320F822600A7830F8221039401D
:102DF0000EE030F822506D0405D530F82250254001
:102E0000354320F822500A7830F8221001EA0901EF
:102E1000194320F822100020BDE8F083BCF1000F18
:102E200007DA30F822C00CEA040C4CEA060C20F851
:102E300022C00A7830F82260760605D530F8226084
:102E400026402E4320F822600E7830F826202240BB
:102E50002A4320F826200C7830F8242002EA0902C0
:102E60001A4320F82420BFE7002070470020704755
:102E7000012120F8401F0021018081800182084645
:102E8000704730F8401F21F43D4101800020704719
:102E90000020704730B54D780A78002D48F68F74C1
:102EA00030F8225048F2800312D06D0607D530F872
:102EB0002250254048F2C004254320F822500A78C9
:102EC00030F8221048F6BF74214081F0300111E043
:102ED0006D0407D530F8225025404CF2800425437C
:102EE00020F822500A7830F822104BF68F742140D7
:102EF00081F44051194320F82210002030BD10B554
:102F00000A7848F2800352B14978002930F822103B
:102F100010D048F6BF74214081F010010FE0018805
:102F20004BF6BF72114081F4805181F010011943BA
:102F3000018007E04BF68F74214081F480511943E2
:102F400020F82210002010BD2DE9F0410D46064664
:102F5000896995F801C00023AA7A022728690C46DE
:102F600048F28008BCF1010F05D0814252D90446D5
:102F7000081AA8614FE0814203D90446081AA861E3
:102F800000E0AB617AB1287836F820104906B6F82F
:102F9000501007EBC000084406EB4000C0F80044A6
:102FA00012D52A8911E0A3B2AA883046696900F0D7
:102FB000C8F8B6F85000297807EBC101084406EBC1
:102FC0004000C0F800441CE0EA88A3B230466969BA
:102FD00000F0B7F8687848F68F7110B1012807D073
:102FE0000FE0287836F820200A4048F2C00105E0BA
:102FF000287836F820200A404CF280010A4326F84F
:103000002020297836F8210048F6BF72104080F061
:10301000300067E0AB6106234FF6FF701AB1BCF1D8
:10302000000F1BD056E0B6F850102A783E2C03EB68
:10303000C202114406EB410202F5806239D9C4F3A1
:103040004F11E30632D000BF00EA812040F4004077
:1030500002E000BF00EA812010603BE0B6F85010AB
:103060002A783E2C07EBC202114406EB410202F51E
:1030700080620BD9C4F34F115FEAC46C01D1491EC1
:1030800089B200EA812141F4004108E0C4F34F0114
:103090005FEAC47C01D0491C89B200EA8121116039
:1030A00069780029BFD001290AD013E0491E89B2EE
:1030B000CAE7C4F34F01E307CCD0491C89B2C9E782
:1030C000B6F85000297807EBC101084406EB400030
:1030D000C0F80044297836F821004BF68F72104072
:1030E00080F4405040EA080026F821000020BDE8A6
:1030F000F08130F8401F41F43D41018000207047CD
:103100000148FEF77FB90000A8060020B0F844008F
:10311000704700005B1C00EB42005B0800F580601C
:1031200006D000BF30F8042B21F8022B5B1EF9D12A
:1031300070470020704711B98021A0F84C10002082
:10314000704710B55B1C00EB42005B0800F5806027
:1031500009D011F8012B5B1E11F8014B42EA042241
:1031600020F8042BF5D110BDFEE7000070B50E4627
:103170000546002406E000BF01F0BAFF3046FDF727
:1031800000FC641CAC42F7DB70BD0021AFF3008093
:1031900070B50546044639B910E000BF01F0A8FF3C
:1031A000281B641EFDF7EDFB002CF7DC70BD00BF93
:1031B00001F09EFF2046641EFDF7E3FB002CF7DCC8
:1031C00070BD000010B5B6221421182001F09AFC41
:1031D0004FF47A70FDF7D5FB2D4C0F21A07800F04D
:1031E0000F02182001F08EFCE078102100F00F0291
:1031F000182001F087FC00221321182001F082FC26
:103200006420FDF7BEFB80223621182001F07AFCF5
:1032100020223721182001F075FC6420FDF7B1FB56
:1032200022780F21682001F06DFC6278102168205F
:1032300001F068FC6420FDF7A4FB82224B211020E2
:1032400001F060FC6420FDF79CFB01224B21102063
:1032500001F058FC6420FDF794FB20794C21C00656
:10326000020E102001F04EFC6420FDF78AFB1722AD
:103270005121102001F046FC51225221102001F072
:1032800041FC6420FDF77DFBBDE8104000F026B84E
:103290009A00002038B50446817A0F480170E16831
:1032A00009784170204600F063FE64200A4A0090CD
:1032B0000223403208492068FEF7F0FE50B1002595
:1032C000204600F033FC04486169403040780870C3
:1032D000284638BD0125F3E7000B00201CB500206F
:1032E0008DF800006A465D21182000F03FFF2D4C4C
:1032F0009DF800006A4660716421182000F036FFD6
:103300009DF80000E0716A465E21182000F02EFF53
:103310009DF80000A0716A466521182000F026FF84
:103320009DF8000020726A467121182000F01EFFEF
:103330009DF8000060726A467021182000F016FFA8
:103340009DF80000A072022301AA6A21102000F05B
:10335000CFFCBDF80400A081022301AA682110203F
:1033600000F0C6FCBDF80400E081022301AA6E2132
:10337000102000F0BDFCBDF804002082022301AA49
:103380006221102000F0B4FCBDF80400608202232A
:1033900001AA6C21102000F0ABFCBDF80400A08253
:1033A0001CBD00009A0000202DE9F04FFF4D87B0B2
:1033B000FD4828604FF400402881FD48686005A85A
:1033C0006861C5F80CD001242C741E20FFF7DDFEC7
:1033D00000224021F648FDF7C6FB0122D103F44844
:1033E000FDF7C1FB002000F021FF4FF0200885F819
:1033F0000A80A7208DF800002846FFF74BFF6420C5
:10340000FDF7BFFA85F80A80A7208DF8000028464E
:10341000FFF740FFC820FDF7B4FA2520A87232203C
:103420008DF800002846FFF735FF2620A8724820B7
:103430008DF800002846FFF72DFF3F20A872772067
:103440008DF800002846FFF725FF802000F0EEFEF3
:10345000814603A8E8604FF0400A8DF80CA00027D1
:103460008DF80D7010208DF80E00E6208DF80F00FD
:103470002120A87204262E74284600F07FFD00EA61
:1034800009098DF80C8008208DF80D0050208DF86A
:103490000E008DF810008DF80FA02320A8720520D3
:1034A0002874284600F06AFD00EA090002908DF8B1
:1034B0000C708DF80D701E208DF80E004FF02A0B49
:1034C00085F80AB04FF0030985F81090284600F0FF
:1034D00055FD029900EA010229208DF80C000292A4
:1034E0002C20A8722C74284600F048FD029A00EAAD
:1034F00002017F208DF80C0002913820A8722C74F4
:10350000284600F03BFD02990840029002208DF809
:103510000C00C1208DF80D00EB208DF80E001C2052
:103520008DF80F003D20A8722E74284600F026FD6D
:10353000029A00EA020197208DF80C0064208DF8B1
:103540000D008DF80E7081208DF80F0002913E2045
:10355000A8722E74284600F011FD02998DF80C70A7
:10356000084002903720A8722C74284600F006FD0F
:103570000146029801400020029100F057FE029996
:1035800008400290C5F80CD02C7485F80A808DF89C
:1035900000902846FFF77EFE0146029801400F206A
:1035A0000291FDF7EEF985F80A808DF80040284673
:1035B000FFF770FE0299084002901920FDF7E1F92B
:1035C00085F80A808DF800902846FFF763FE02997F
:1035D000084002900F20FDF7D4F985F80A808DF895
:1035E00000402846FFF756FE014602980140192088
:1035F0000291FDF7C6F985F80A808DF800902846FB
:10360000FFF748FE029900EA010803A8E8602820B5
:103610008DF80C0032208DF80D0080208DF80E0002
:1036200090208DF80F008DF810703E20A8720520B4
:103630002874284600F0A2FC00EA08080120FDF7E3
:10364000A0F9802000F0F2FD00EA08018DF80CA03E
:103650008DF80D404FF030088DF80E80E2208DF887
:103660000F0002912120A8722E74284600F086FCDB
:1036700002990840029029208DF80C0089208DF8CD
:103680000D0055208DF80E0050208DF810008DF89B
:103690000FA02320A87205202874284600F06EFC95
:1036A000029A00EA020A29208DF80C002C20A87248
:1036B0002C74284600F062FC00EA0A0A55208DF8B6
:1036C0000C00C2208DF80D0009208DF80E00AC20F2
:1036D0008DF80F003120A8722E74284600F04EFCA1
:1036E00000EA0A0A8DF80C7014208DF80D000820ED
:1036F0008DF80E0029208DF80F003320A8722E744B
:10370000284600F03BFC00EA0A0A02208DF80C0073
:10371000C1208DF80D00CB208DF80E001C208DF8F7
:103720000F003D20A8722E74284600F027FC00EA06
:103730000A0A97208DF80C0064208DF80D008DF892
:103740000E708DF80F403E20A8722E74284600F0AF
:1037500015FC00EA0A0A2A208DF80C008DF80D608D
:103760008DF80E707D208DF80F003F20A8722E740A
:10377000284600F003FC00EA0A06002000F056FD8F
:103780000640C5F80CD02C742320A8728DF8009048
:103790002846FFF77FFD06402420A8720A208DF8F6
:1037A0000000284606E0000018040020E80A002077
:1037B000000C0140FFF76EFD06402520A872112085
:1037C0008DF800002846FFF765FD00EA0607262071
:1037D000A8724F208DF800002846FFF75BFD00EA35
:1037E000070661484FF0220A007800284FF02100B8
:1037F000A87217D08DF800402846FFF74BFD00EA6D
:10380000060785F80AA08DF800402846FFF742FD1C
:1038100000EA0706554890F9000001282DD002283B
:103820003FD051E04FF003098DF800905048FFF76A
:1038300031FD00EA060785F80AA08DF800904C4893
:10384000FFF728FD00EA07064748401CE86085F8B6
:103850000AB005202874464800F090FB064085F821
:103860000A80434800F08AFB00EA06073E480A3017
:10387000E8602B20A8722C740DE03B48401CE860E7
:1038800085F80AB005202874394800F077FB00EA73
:10389000060785F80A80364800F070FB00EA070644
:1038A00012E03148801DE86085F80AB005202874D0
:1038B0002F4800F063FB00EA060785F80A802C48D1
:1038C00000F05CFB00EA0706294D31202027C5F8EF
:1038D0000CD02C74A872E8468DF800702846FFF7CB
:1038E000D9FC00EA060420480078C0B14E26AF7229
:1038F0008DF800601E48FFF7CDFC04400020C5F89D
:103900001480A8728DF800001948FFF7C3FC00EA84
:1039100004019DF80000B04203D1012402E03F26DB
:10392000E5E700240C400ED000F0AAFF01F05EF99C
:10393000012240210F48FDF716F901F07DFB07B089
:103940002046BDE8F08F0A214FF4FA70FFF70EFC15
:10395000084D002240212846FDF705F90122D10338
:103960002846FDF700F9EAE7B00000200900002032
:10397000E80A0020000C014038B501F065FB182072
:1039800000F090FCC8B1682000F08CFCA8B11020B9
:1039900000F088FC88B100248DF800406A4621467A
:1039A000182000F0E3FB9DF800004FF4FA75FA28A8
:1039B00005D029460A20FFF7D9FB002038BD8DF835
:1039C00000406A460021682000F0D0FB9DF800000E
:1039D0000F28EED18DF8004001224B21102001F07C
:1039E00091F86420FCF7CDFF6A464021102000F0DA
:1039F000BDFB9DF800003228DBD1012038BD00005E
:103A000010B500222D21532001F07CF86420FCF732
:103A1000B8FF08222D21532001F074F80E4C3121FB
:103A2000207840F00402532001F06CF862782C21D9
:103A3000532001F067F800222F21532001F062F893
:103A400000222E21532001F05DF800223821BDE82C
:103A50001040532001F056B89400002010B5812288
:103A60003E21682001F04EF801221521682001F066
:103A700049F819221621682001F044F80022172184
:103A8000BDE81040682001F03DB8000010B5FFF718
:103A900073FF1C4C207118B1FFF794FB2079D0B94B
:103AA00000F0EEF8207008B1FFF7AAFF00F0E9F986
:103AB000A07008B100F02EF900F00EFA607018B195
:103AC00000F040F9607810B900F0F3F8E070E078A9
:103AD00008B1FFF7C3FF01F0D5FA01F0E3FA01F0F6
:103AE000F7FA606910F0FF4F09D0E06810F0FF4F5F
:103AF00005D0206910F0FF4F01D0012010BD00203B
:103B000010BD0000040000200749024600200B7988
:103B100013B1104600F0DEBB8978002902D01046B0
:103B200000F027BB704700000400002001894068B6
:103B30000122FDF718B80000F0B52E4885B0816964
:103B400041F010018161816901F0100104918169E6
:103B500041F020018161816901F0200104918169B6
:103B600041F004018161816901F0040104918169DE
:103B700041F00801816180691F4F00F008004FF497
:103B800000540490002221463846FCF7ECFF1B4EFF
:103B90000122D1033046FCF7E6FF002240213046E7
:103BA000FCF7E1FF1120CDE90040032569460395AC
:103BB0003846FCF7F1FE48F240000124CDE900044C
:103BC000694603953046FCF7E7FE80200025CDE9E5
:103BD0000005694602943046FCF7DEFE4FF4407063
:103BE000CDE900050220029069463046FCF7D4FE7C
:103BF00005B0F0BD0010024000100140000C014073
:103C00000C4810B50A4901600B49416000214FF48E
:103C100080428160C0E9031241618161C16101623A
:103C2000FCF7ACFF002801D000F0F2F810BD000056
:103C300000580040DC030020801A06000F4810B531
:103C40000D4901604FF48271416000218160C160C3
:103C50004FF400720161C0E905121022C0E907218A
:103C6000416281620A21C162FEF7A8F9002801D0F1
:103C700000F0CEF810BD0000003001401804002014
:103C800008B501F0E1F9532000F00CFB68B16A4679
:103C90000021532000F06AFA9DF80000E52806D0C4
:103CA0004FF4FA710A20FFF761FA002008BD0120E5
:103CB00008BD08B501F0C8F9682000F0F3FA90B12A
:103CC00000208DF8000001466A46682000F04EFA98
:103CD0009DF80000C0F34500342806D04FF4FA7177
:103CE0000A20FFF743FA002008BD012008BD0000AC
:103CF0003EB564248DE81C0040000A4601460123BD
:103D00000348FDF74DF808B100203EBD01203EBD3F
:103D1000DC0300200A4810B5007800218006020E5E
:103D20001E2000F0EFFE002201211E2000F0EAFE1E
:103D300080220221BDE810401E2000F0E3BE0000FA
:103D40009800002010B50E4C0F21607841EA001059
:103D5000C2B22021692000F0D5FE0822222169206C
:103D600000F0D0FE207823210007020E692000F029
:103D7000C9FE00222E21BDE81040692000F0C2BE1D
:103D8000960000200949024600200B7913B1104625
:103D900000F062BD4B7813B1104600F00CBAC97840
:103DA000002902D0104600F099B9704704000020A5
:103DB000F8B516490446807A0870204600F0D8F815
:103DC00064200090237C114A104940325B1C20681B
:103DD000FEF764F90D4D403520B100262046FFF76F
:103DE000A5FE0DE001262046FFF7A0FE002004E01E
:103DF0002918E26849781154401C217C8142F7DC83
:103E0000207C6169285C08703046F8BD000B0020FA
:103E100000215020FFF7BCF901F016F9BFF34F8FD6
:103E200005480168054A01F4E06111430160BFF3F0
:103E30004F8F00BFFDE700000CED00E00400FA0525
:103E40002DE9F041FCF794FE05464FF0E0200024F8
:103E50008069482223462146FCF764F94FF47A73BF
:103E6000A5FB036704FB0373002205FB0232301A33
:103E700062EB01024FF47A71401842F10001BDE893
:103E8000F0810EB501F0E0F81E2000F00BFAF8B159
:103E90006A460A211E2000F069F901AA0B211E20A2
:103EA00000F064F902AA0C211E2000F05FF99DF8D1
:103EB0000000482807D19DF80400342803D19DF85C
:103EC0000800332806D04FF4FA710A20FFF74EF9A4
:103ED00000200EBD01200EBD08B501F0B5F8692027
:103EE00000F0E0F980B100208DF800006A460F2153
:103EF000692000F03BF99DF80000D32806D04FF46C
:103F0000FA710A20FFF732F9002008BD012008BD30
:103F10000B48007838B1012808D0022809D00328BE
:103F20000AD0002070474FF0625070474FF0645045
:103F300070474FF0665070474FF068507047000070
:103F4000940000200048704735788E3D07490246AE
:103F500000200B7913B1104600F0BEBC097800298F
:103F600002D0104600F098B870470000040000200E
:103F7000018940680022FCF7F6BD000038B51549FC
:103F80000446807A0870002004E0E2680B18125C96
:103F90005A70401C227C8242F7DC2046FFF7E8FF83
:103FA00064200090237C0B4A0A4940325B1C206845
:103FB000FEF774F858B100252046FFF7B7FD054914
:103FC000207C4031085C61690870284638BD0125B5
:103FD000F2E70000000B002070B50E461A4D8978FC
:103FE00004462970012928D894F8FC01022802D03F
:103FF000032822D105E099B10320616084F8FC0117
:1040000009E091B1606888420AD0C1B22046FEF74B
:1040100033FA297861602046FEF74DFC02280CD067
:104020002046BDE87040FEF770BA022084F8FC011B
:1040300020466160FEF720FAF2E731462046BDE8EF
:104040007040FEF730BA00005A0100200048704767
:1040500048E13A3F0948007838B1012807D00228E2
:1040600007D0032807D0002070470548704705484F
:1040700070470548704705487047000096000020CB
:104080000000FA3B00007A3C0000FA3C00007A3D58
:10409000004870470000203F3EB5044600208DF8E0
:1040A000080002AA3021532000F060F8A0B19DF86A
:1040B0000800000610D506236A4632215320FFF778
:1040C00017FEBDF800002080BDF802006080BDF83A
:1040D0000400A08001203EBD00203EBD1CB504466A
:1040E00008236A461B216820FFF702FEBDF8020084
:1040F00040BA2080BDF8040040BA6080BDF80600D8
:1041000040BAA08001201CBD0907090E002806DA6C
:1041100000F00F0000F1E02080F8141D704700F15E
:10412000E02080F8001470470A48007805280ED275
:10413000DFE800F00B090705030007487047074850
:104140007047074870470748704707487047002086
:10415000704700009A00002071BD793B00C0F93B18
:1041600000C0793C00C0F93C00C0793D0123FFF755
:10417000BFBD3EB5044600208DF8080002AA092103
:104180001E20FFF7F3FF9DF80810084012D0062309
:104190006A4603211E20FFF7ABFDBDF8000040BAC0
:1041A0002080BDF8040040BA6080BDF8020040BA2B
:1041B000A08001203EBD3EB5044600208DF80800D9
:1041C00002AA27216920FFF7D1FFC0B19DF808009E
:1041D000000614D506236A46A8216920FFF788FD4A
:1041E000BDF8000020809DF801009DF8031040EA12
:1041F00001206080BDF80400A08001203EBD0020A9
:104200003EBD0000084808B5C0F814D0C0F80CD076
:10421000072181720021017400F01EFF002801D0E7
:104220009DF8000008BD0000E80A00207CB50F4C96
:10423000054601A8C4F814D0E060012020740720CE
:10424000A072204600F008FF9DF8000000F08000FA
:10425000A84208D053208DF804005020A0722046B8
:10426000FFF718F87CBD01207CBD0000E80A0020A3
:104270000B488078032807D0052808D0082809D0E3
:104280000C280AD0002070474FF06A5070474FF05A
:104290006C5070474FF06E5070474FF07050704741
:1042A0009A00002010B504461E20FEF76EFF610044
:1042B0004FF47A7305220648FCF7D0FC08B10020C1
:1042C00010BD00F0B9FEFA20FCF75BFB012010BD29
:1042D000DC0300207CB5044608236A4642211020F6
:1042E000FFF706FD9DF80600C0073BD0BDF80600AD
:1042F0001D4982080023888A8503002A01D01646BA
:1043000000E00646B5FBF6F691F90560C3EBC6067C
:10431000668000D01046B5FBF0F091F9060003EB83
:10432000C0002080B1F91200B1F91050C0F10000B6
:104330004FEAC033888A00B2A2EB000000FB05F010
:10434000A3EBA0034FEA42008A89B1F90E1000FBEB
:1043500002F000F5004001EB204093FBF0F0A0805C
:104360004FF001007CBD00009A0000200020704743
:104370002DE9FC5F4FF000080446ADF80480ADF86D
:10438000008048F60F7B4FF002094FF4806692E1FF
:10439000BDF8041011F00F072BD030F82710ADF83E
:1043A0000010BDF80010090478D530F8272040F639
:1043B0008F710A4020F8272004EB471595F8120268
:1043C00005F502750028206869D0297830F8212089
:1043D00052047DD5B0F8503009EBC101194406EB09
:1043E0004101415AC1F309015FEA010A71D0EA882B
:1043F000D0E0BDF80410C9062AD4018801EA0B01F7
:104400000180206804F12805B0F850202B7809EBD2
:10441000C301114406EB4101405AC0F30900606436
:10442000E16B0844E06300212046FCF70CFF94F8A0
:1044300024000028ABD0A8690028A8D194F8240053
:10444000216840F08000A1F84C0084F8248032E11B
:10445000018804F50275ADF80010BDF800100905DB
:104460001ED5B0F850302978062202EBC10119445C
:1044700006EB4101405A04F57B71C0F30903EB617F
:10448000AA882068FEF746FE2068018840F68F72F1
:10449000114001802046FDF7E2F80CE1A0E055E074
:1044A000BDF800100904D2D5028840F68F710A4089
:1044B00002802068B0F850302978062202EBC10152
:1044C000194406EB4101405A83059B0DEB6101E065
:1044D00051E063E008D0AA8869692068FEF71AFEF7
:1044E000E96968690844686100212046FCF7B2FE6A
:1044F0002068B0F85010891D06EB4101014428697D
:104500003E280CD9C0F34F12C00601D1521E92B200
:104510004FF6FF7000EA822040F4004009E0C0F34B
:104520004F02C00701D0521C92B24FF6FF7000EA52
:1045300082200860216808884BF68F72104080F452
:10454000405048F2800210430880B4E0B0F8502098
:104550002B78062101EBC301114406EB4101415ABE
:10456000C1F309015FEA010A24D0AA8853466969A8
:10457000FEF7D0FD1EE0B0F85020062303EBC1018A
:10458000114406EB4101415AC1F309015FEA010AF6
:1045900004D02A8953466969FEF7BCFD2978206852
:1045A00030F8213048F68F72134048F2C0021343AE
:1045B00020F82130E96901EB0A00E861696901EB43
:1045C0000A026A61AB6913B12869504504D9297898
:1045D0002046FCF73FFE03E029782046FCF7A8FEC2
:1045E000BDF80000000666D5206804EB471530F8DA
:1045F000271001EA0B0120F8271095F83200283522
:104600000028206812D0297830F82120B0F85030E6
:1046100052061ED509EBC101194406EB4101405A6F
:1046200083059B0DEB6124D0EA881EE0B0F8503082
:104630002A7809EBC201194406EB4101405A83056F
:104640009B0DEB6121D0AA8869692068FEF779FD8E
:104650001BE0062202EBC101194406EB4101405A5E
:1046600083059B0DEB6104D02A8969692068FEF7F8
:1046700068FD2978206830F8212048F68F731A40A9
:104680004CF280031A4320F821202068B0F8502013
:104690002B7809EBC301114406EB4101405AC0F3EA
:1046A0000900E86169690A186A612978AB692046DE
:1046B00063B1FCF788FE2068B0F84410ADF8041030
:1046C00009043FF565AE0020BDE8FC9FFCF7BBFD8B
:1046D000F1E70000064908B5C1F814D0C8606120B0
:1046E0008872202008740846FFF762FB08BD0000AE
:1046F000E80A002030B593B00120009000040024A7
:10470000CDE901040225CDE907504FF4E0100990EE
:104710006846FDF793F990B90F20CDE90A056802C4
:10472000CDE90C4002210AA80E94FDF761F830B9DA
:1047300010200F9012940FA8FCF7C4FF08B1FFF7E8
:1047400067FBFDF719F94FF47A71B0FBF1F0FDF753
:1047500009FE0420FDF7F9FD00221146501EFCF76A
:1047600025FD13B030BDF8B5044648880D46010A52
:10477000082954D2DFE801F0530409175353495173
:10478000D4F81012207C0A6819E0207C0226002848
:10479000D4F8140205D0C16A6846884701464670BD
:1047A0004AE0816AF8E7C1B2062926D2DFE801F0C3
:1047B000030A0F14191ED4F81012207C4A686946A7
:1047C000904718E0D4F81012207C8A68F7E7D4F8F4
:1047D0001012207CCA68F2E7D4F81012207C0A6913
:1047E000EDE7D4F81012207C4A69E8E7D4F81012FB
:1047F000207C8A69E3E701461EE0C1B2D4F81402C6
:104800006A46836B20469847F5E7207C38B9D4F890
:104810001402416B68468847EDE7207C20B12946A9
:104820002046FDF740FEF8BDD4F81402016B68463F
:104830008847014607204870BDF800000028F2D0E4
:10484000EA88002AEFD0824200D90246ADF8002063
:104850002046FDF74DFEF8BD1CB5044606236A460A
:1048600002216820FFF744FABDF800004042608052
:10487000BDF802002080BDF80400A08001201CBD0E
:1048800038B50B4CE220C4F814D0C4F80CD0A07298
:10489000002020742046FEF7FDFCE121A17228B122
:1048A0002046FEF7F7FC08B1012038BD002038BDD6
:1048B000E80A0020074A08B5C2F814D0D06009B150
:1048C000A02000E0B0209072202010740148FFF773
:1048D00055FB08BDE80A00201CB5044606236A46BD
:1048E00002211820FFF704FABDF90000C11700EB00
:1048F0005170C01040426080BDF90200C11700EB4A
:104900005170C0102080BDF90400C11700EB517038
:10491000C010A08001201CBD0020704770B5064665
:104920000025202303228121FDF712FF20230322EB
:1049300001213046FDF70CFF3420FEF7CFF8C6F812
:10494000180278B10446002084F83000D6F81C0222
:10495000406880472023224601213046FDF702FFB0
:10496000284670BD0125FBE72DE9F84F0446006895
:104970000F46DDF828B001689846164641F480617C
:1049800001602068016841F4807101604FF00119F5
:104990005B4600224946204600F088F9F0BB2168BA
:1049A00007F0FE00086109F1010A5A465146204607
:1049B00000F0ECFA18B1A06B042811D036E02068A2
:1049C0004169806900905946204600F057FA50B17D
:1049D000A06B04282AD12068016841F400710160AD
:1049E0000120BDE8F88FF5B2B8F1010F08D02168B9
:1049F000300A08615946204600F040FA0028E7D105
:104A0000206805615946204600F038FA0028DFD1B9
:104A10002068016841F48071016000E006E05B46B7
:104A200000224946204600F041F908B10320D8E7AA
:104A30002168F8B240F0010008615A46514620460C
:104A400000F0A4FA0028B6D1CBE7000070B5002230
:104A50000D78D0F81832144615F0600526D0202DB8
:104A60004CD14A78921E0A2A1CD2DFE802F01008C4
:104A70001B1B1B1B1B140C05887818623EE00122CF
:104A800003F1200131E04888000A586236E0012233
:104A900003F1240129E00122DA628A791946FDF73F
:104AA0000DFD2BE0FDF7FFFC022070BD4D78062DBB
:104AB00004D00A2D1CD00B2D20D11DE04B882225BF
:104AC000B5EB132F07D1CA88222A00D92222D0F8A9
:104AD0001C120C6808E02125B5EB132F04D1CA88FD
:104AE000074C222A00D922222146FDF701FD05E0CC
:104AF000012203F12801F8E788789862002070BD50
:104B00002C01002017B583B06424012305AA8DE889
:104B10001C0040000A4601460448FCF72DFA10B17B
:104B2000002006B010BD0120FBE70000DC030020E0
:104B30000648074AD0F8181200200B5C1354401C9A
:104B4000C0B22028F9D30020704700006001002087
:104B5000C80A00202DE9F843044600680E46DDF837
:104B6000208001681F46154641F48071016043466C
:104B700000224FF00111204600F098F8D8B92168C2
:104B800006F0FE00086142461749204600F0FEF993
:104B900028B1A06B04280ED10120BDE8F88320685D
:104BA0004169806900904146204600F067F920B1D4
:104BB000A06B042811D00320EFE7EEB2012F08D03C
:104BC0002168280A08614146204600F057F900286C
:104BD000EED1206806610020DFE72068016841F41B
:104BE00000710160D8E70000020001001CB5FF2041
:104BF0008DF80000054827218172C0F80CD00121F2
:104C0000017401A94161FEF745FB1CBDE80A0020C3
:104C1000D0F81802002180F830100846704710B50F
:104C200004468121FDF7BBFC01212046FDF7B7FCBE
:104C3000D4F8180250B1D4F81C0204F50674806848
:104C400080472068FDF748FF00202060002010BD4D
:104C500001684A69D24352050DD44A6922F4806240
:104C60004A6104218163202180F83510002180F8F9
:104C70003410012070470020704770B50546D0F809
:104C80001842D5F81C226178D268207890472023FA
:104C9000224601212846FDF765FD002070BD000079
:104CA0001220088000487047480000202DE9F05F7E
:104CB0001E4690460C460546FBF75AFF81464FF0CC
:104CC000000A4FF0200BC4F30747B8F1000F09D0DA
:104CD00024E0701C06D0D6B1FBF74AFFA0EB090018
:104CE000B04214D82868012F06D0806924EA000059
:104CF0000004000C1BD0ECE74069F7E7701C0DD0F6
:104D00002EB1FBF735FFA0EB0900B04206D985F8BC
:104D100035B085F834A00320BDE8F09F2868012F46
:104D200007D0806924EA00000004000CE6D00020CF
:104D3000F2E74069F6E72DE9F0471D4690460E463A
:104D40000446FBF715FF07465FEA08004FF000082E
:104D50004FF4005A4FF0010926D034E0681C23D0EC
:104D600025B1FBF705FFC01BA8421DD9206841688B
:104D700021F0E00141602068016821F040010160FC
:104D8000A06A504509D12068016821F400510160F2
:104D90002068016841F40051016084F8519084F862
:104DA00050800320BDE8F0872068806836EA000064
:104DB000D4D10DE0681C06D0002DD7D0FBF7D8FE6B
:104DC000C01BA842D2D82068806836EA0000F1D023
:104DD0000020E7E7292101800048704700010020FA
:104DE00010B5D0F81842E16A012908D1D0F81C02A8
:104DF00023786178C268184690470020E06200205E
:104E000010BD000010B50A46024903A0FDF788FB5B
:104E1000004810BD700400204865616454726163ED
:104E20006B65722048494420436F6E6669670000D5
:104E300004200880004870474400002010B50A464E
:104E4000024903A0FDF76CFB004810BD7004002070
:104E500032303136303530312D41000010B50A4640
:104E6000024903A0FDF75CFB004810BD7004002060
:104E700048656164547261636B65720070B50D467C
:104E80000446FBF775FE064619E02046FFF7E0FEF4
:104E900008B1012070BD681C11D025B1FBF768FE78
:104EA000801BA8420BD954F8380F40F0200044F87A
:104EB00004092020607000202070032070BD20684D
:104EC0004069C0430006E0D4002070BD2DE9F041E8
:104ED00088460446FBF74CFE00250646202721E0C5
:104EE0004169C943C9060BD4416921F010014161F0
:104EF000A56384F8357084F834500120BDE8F08152
:104F0000B8F1000F04D0FBF733FE811B414509D9EE
:104F100054F8380F40F0200044F8040967702570F9
:104F20000320EBE720684169C9434906D8D4002033
:104F3000E4E7000010B50A46024903A0FDF7F0FAC5
:104F4000004810BD700400204865616454726163BC
:104F50006B65722048494420496E746572666163CE
:104F60006500000010B50A46024903A0FDF7D8FA13
:104F7000004810BD70040020436F6C747500000081
:104F80000A21018000487047500100202DE9F047B8
:104F900091460D460446FBF7EBFD824600274FF095
:104FA0002008C5F3074629E020684069C043400552
:104FB00012D42068016841F40071016020684169E1
:104FC00021F4806141610420A06384F8358084F875
:104FD00034700120BDE8F087B9F1FF3F0ED0B9F180
:104FE000000F05D0FBF7C4FDA0EB0A01494505D928
:104FF00084F8358084F834700320EBE72068012EB4
:1050000006D0806925EA00000004000CE2D0CBE75E
:105010004069F7E770B50546FBF7AAFD054E044663
:105020003068201AA84202D300F062F834600120F0
:1050300070BD00009000002000224FF40051014894
:10504000FBF791BD00100140012251030148FBF71D
:105050008ABD00000010014038B50446FEF788FF05
:1050600064200090012304F10A0162692068FDF7C1
:1050700015F828B100252046FEF758FD284638BD12
:105080000125F8E710B5064C207910B1FFF7F0F8CC
:1050900003E0207808B1FEF73BFF606110BD00001F
:1050A0000400002010B5094C207910B1FFF73CF83E
:1050B00003E0607818B1FEF7CDFFE06010BDE07846
:1050C0000028FAD0FEF73EFFF7E7000004000020BA
:1050D00010B5064C207910B1FEF7DAFF03E0A07896
:1050E00008B1FEF7B3FF206110BD000004000020EE
:1050F0004FF400510148FBF732BD000000100140A1
:105100000A6802604A6842608A688260C968C16051
:105110007047002141608160C1604FF07E510160A5
:105120007047704713680B6053684B6093688B60DF
:10513000D268CA60FFF7E4BF2DE9FF4FB5B005465E
:10514000C06804902869029068690190A86900907D
:105150009A46914601210498FBF7FFF82E90012111
:105160000298FBF7FAF8299001210198FBF7F5F86E
:105170002D9001210098FBF7F0F82F900198FBF794
:10518000AEFA07460A9088460C461F910498FBF732
:10519000A6FA0122FBF775FA834623463A460591A3
:1051A000FBF78EF9FBF7AEFA2A900098FBF797FA17
:1051B00006460C46384641460122FBF762FA324663
:1051C0002346FBF77DF9FBF79DFA279004990846E3
:1051D000FBF753F81E9002990498FBF74EF81790CE
:1051E00001990498FBF749F8109000990498FBF78F
:1051F00044F81B9002990846FBF73FF81D90DDE943
:105200000110FBF73AF81A9000990298FBF735F86D
:1052100001990F900846FBF730F82090DDE9001067
:10522000FBF72BF800991C900846FBF726F84299EB
:1052300028900846FBF721F8064651460846FBF73A
:105240001CF8044649460846FBF717F82146FAF7CA
:10525000BCFF3146FAF7B9FF00F044FF014610F0F9
:10526000FF4F7DD04FF07E50FBF739F804460146E2
:105270004846FBF702F8379021465046FAF7FDFF03
:10528000389021464298FAF7F8FF4899429008462C
:10529000FAF7F3FF479904460846FAF7EEFF4699F6
:1052A00007460846FAF7E9FF3946FAF78EFF214626
:1052B000FAF78BFF00F016FF014610F0FF4FD0D039
:1052C0004FF07E50FBF70BF8044601464698FAF77C
:1052D000D4FF469021464798FAF7CFFF47902146E2
:1052E0004898FAF7CAFF48904698FBF7F8F9CDE9D5
:1052F0000D010C46064602460B4658460599FBF73B
:10530000DFF8FBF7FFF982464798FBF7E8F902461A
:105310000B4658460599FBF7D3F8FBF7F3F981469E
:105320004898FBF7DCF9CDE90B0102460B465846DD
:105330000599FBF7C5F8FBF7E5F980460298FBF7FE
:10534000CEF90122CDE91101FBF79BF93246234644
:10535000FBF7B6F8FBF7D6F906462899469800E021
:10536000FEE3FAF78AFF149020994698FAF785FF32
:10537000089048992998FAF780FF0099FAF77DFF7D
:10538000044647992998FAF778FF0199FAF775FFCB
:1053900007461D994698FAF770FF16904046019906
:1053A000FAF76BFF189048460099FAF766FF8346B4
:1053B0001E994698FAF761FF5946FAF758FF18996F
:1053C000FAF703FF1699FAF700FF3946FAF7FDFEE0
:1053D0002146FAF7FAFE0899FAF749FF1499FAF705
:1053E00046FF044628994798FAF747FF15904899D1
:1053F0002D98FAF742FF0099FAF73FFF07462099E8
:105400004798FAF73AFF08901D994798FAF735FF41
:10541000139030460199FAF730FF06904046029902
:10542000FAF72BFF83461E994798FAF726FF804626
:1054300050460099FAF721FF4146FAF7C6FE594651
:10544000FAF715FF0699FAF7C0FE1399FAF70FFF5E
:105450000899FAF7BAFE3946FAF7B7FE1599FAF73E
:1054600006FF0146FAF709FF074621460846FAF704
:1054700004FF3946FAF7A9FE00F034FE039028999C
:105480004898FAF7FAFE089020994898FAF7F5FE3E
:10549000139047992D98FAF7F0FE0099FAF7EDFE70
:1054A00004461D994898FAF7E8FE8346304600996D
:1054B000FAF7E3FE80461E994898FAF7DEFE0746A3
:1054C00050460199FAF7D9FE064648460299FAF77E
:1054D000D4FE3146FAF7CBFE3946FAF776FE41465E
:1054E000FAF773FE5946FAF7C2FE2146FAF76DFE47
:1054F0001399FAF7BCFE0899FAF767FE05900121A7
:105500000398FAF72AFF079001210598FAF725FF7B
:105510000890DDE90B8189462098FBF7E0F8CDE99A
:105520001810074621910C461D98FBF7D8F8002269
:10553000FE4B20911D90FAF7C0FF3A462346FAF73A
:10554000B9FF04460E460598FBF7C9F822463346D4
:10555000FAF7B6FFCDE9130106460C46DDE90F1058
:10556000FAF733FE0399FAF788FEFBF7B8F83246EC
:105570002346CDE91501FAF7FCFE42464B46FAF701
:1055800099FF06460C4601990398FAF776FE339088
:10559000FBF7A5F832462346FAF792FF8B461E909A
:1055A0001C991798FAF711FE0599FAF766FE04465A
:1055B000DDE91A01FAF75BFE0399FAF75EFE214670
:1055C000FAF703FE4799FAF752FE04463190009924
:1055D0000398FAF752FE3490064602990598FAF7B6
:1055E0004CFE31463090FAF742FE2146FAF745FE6E
:1055F000FBF775F82391DDE90D4182460E46DDE9A2
:105600000F01FAF734FE0599FAF737FEFBF767F852
:10561000109089462898FBF762F880460691384634
:105620000022C24B1899FAF748FF4246069BFAF748
:1056300041FF80460F460398FBF751F842463B4630
:10564000FAF73EFF4B46109AFAF793FE224633468E
:105650001A911C90FAF72EFF04460E460199059800
:10566000FAF70BFE3290FBF73AF822463346FAF788
:1056700027FF064688463898FBF731F806900F4614
:105680002798FBF72CF8044689461798FBF727F86C
:105690000122FAF7F6FF4B462246FAF76AFE3B462E
:1056A000069AFAF707FF044610911B900F462998B7
:1056B000FBF715F822463B46CDE91701FAF700FF44
:1056C000069027913798FBF70AF8814609912A98A6
:1056D000FBF705F804460F460F98FBF700F8012288
:1056E000FAF7CFFF22463B46FAF7E4FE4A46099B0B
:1056F000FAF7E0FE04460F902D980F46099180F0CE
:105700000040FAF7ECFF22463B46FAF7D9FE279B0A
:10571000069AFAF72EFE32464346FAF7CBFE524679
:10572000239BFAF726FE5B461E9AFAF722FEFAF74B
:10573000E9FF0690DDE90B410E46DDE913210B463A
:10574000DDE91501FAF715FE22463346FAF7B2FEF7
:1057500006460C4602990898FAF78FFD01463498E0
:10576000FAF785FDFAF7BBFF32462346FAF7A8FEA3
:1057700089461E90DDE90410319CFAF77EFD014652
:105780002B903398FAF721FD2146FAF776FDFAF7C8
:10579000A6FF8B46DDE90D2182460B461A991C981F
:1057A000FAF788FE06460C4600990598FAF765FD5B
:1057B0003390FAF794FF32462346FAF781FE80468B
:1057C0000E464298FAF78BFF04460F4601222199B4
:1057D0001998FAF756FF2A901991012220991D98DD
:1057E000FAF74FFF0022524BFAF767FE199B2A9AED
:1057F000FAF760FE22463B46FAF75CFE04460F4687
:105800001D911990DDE911010222FAF73AFF2246B3
:105810003B46FAF755FE299120901B9F109C2E982D
:10582000FAF75DFF3A462346FAF74AFE2C9021919B
:10583000099F0F9C2F98FAF752FF22463B46CDE96D
:105840001101FAF73DFE219B2C9AFAF792FD299B54
:10585000209AFAF72FFE42463346FAF78AFD52465F
:105860005B46FAF786FD4B461E9AFAF782FDFAF779
:1058700049FF0590DDE90B410E46DDE913210B469A
:10588000DDE91501FAF775FD22463346FAF712FEF7
:1058900006460C4601990898FAF7EFFC0746DDE941
:1058A0000301FAF7EAFC39462590FAF7E0FCFAF72B
:1058B00016FF32462346FAF703FE06460891DDE955
:1058C0000210339F319CFAF7D8FC39462790FAF73B
:1058D0007CFC2146FAF7D1FCFAF701FF8A46DDE9A4
:1058E0000D2181460B461A991C98FAF7E3FD0446F0
:1058F00007980F4680F00040DDF8AC800199FAF778
:10590000BCFC4146FAF7B3FCFAF7E9FE22463B46F7
:10591000FAF7D6FD80460C460222DDF864B01D9FE2
:105920001F990A98FAF7ADFE5A4603E00000E03FDF
:105930000000F03F3B46FAF7C3FD83461991DDE9CD
:105940001101109B1B9AFAF7BBFD0F4612900999A3
:105950000F981F9126902E9880F00040FAF7BFFE16
:105960001F9B269AFAF7ACFD3B46129AFAF701FD07
:105970005A46199BFAF79EFD42462346FAF7F9FC70
:105980004A465346FAF7F5FC3246089BFAF7F1FC13
:10599000FAF7B8FE0890DDE90B410E46DDE9132168
:1059A0000B46DDE91501FAF7E4FC22463346FAF727
:1059B00081FD06460C462798FAF791FE32462346AB
:1059C000FAF77EFD0746DDE9314089462599FAF769
:1059D0004EFC2146FAF751FCFAF781FE8846DDE9D4
:1059E0000D2182460B461A991C98FAF763FD06466C
:1059F0000C4600990798FAF740FC01463098FAF7F0
:105A000036FCFAF76CFE32462346FAF759FD044697
:105A10001B9812900E46DDF840B02D98FAF75FFE05
:105A20005B46129AFAF74CFD83460D91DDE91701AA
:105A3000099B0F9AFAF744FD5A460D9BFAF799FC19
:105A400022463346FAF795FC52464346FAF791FC54
:105A50003A464B46FAF78DFCFAF754FE04460146E7
:105A6000FAF70BFC089980460846FAF706FC0599F8
:105A700007460846FAF701FC069906460846FAF773
:105A8000FCFB3146FAF7A1FB3946FAF79EFB41468B
:105A9000FAF79BFB00F026FB01464FF07E5B584671
:105AA000FAF71DFC064601460698FAF7E6FB07469C
:105AB00031460598FAF7E1FB059031460898FAF768
:105AC000DCFB089031462046FAF7D7FB07903846B2
:105AD000FAF705FE06464FF07D580C46404600F0AA
