:020000040800F2
:10000000C004002001010008991900089519000892
:100010009719000805090008F11900080000000000
:1000200000000000000000000000000013010008B4
:100030000709000800000000170100089B190008CC
:100040001B0100081B0100081B0100081B01000820
:100050001B0100081B0100081B0100081B01000810
:100060001B0100081B0100081B0100081B01000800
:100070001B0100081B0100081B0100081B010008F0
:100080001B0100081B0100081B0100081B010008E0
:100090001B0100081B0100081B0100081B010008D0
:1000A0001B0100081B0100081B0100081B010008C0
:1000B0001B0100081B0100081B0100081B010008B0
:1000C0001B0100081B0100081B0100081B010008A0
:1000D0001B0100081B0100081B0100081B01000890
:1000E0001B0100081B0100081B010008DFF80CD0F1
:1000F00000F0F6FB00480047CD360008C0040020A1
:100100000648804706480047FEE7FEE7FEE7FEE7B1
:10011000FEE7FEE7FEE7FEE7FEE7FEE7A9190008B7
:10012000ED0000082DE9F05F0546002092469B4651
:1001300088460646814640241BE0284641464746FD
:10014000224600F020F853465A46C01A914110D377
:1001500011461846224600F0DFFA2D1A67EB010817
:100160004F4622460120002100F0D6FA17EB000985
:100170004E41201EA4F10104DFDC484631462A46E8
:100180004346BDE8F09F202A04DB203A21FA02F022
:100190000021704721FA02F3D040C2F120029140C1
:1001A000084319467047F0B480EA0102D40F4200B8
:1001B000B2EB410F02D20246084611464A0042D035
:1001C000C30DDDB2C1F3C752AD1A202D35DAC1F32C
:1001D000160141F4000204B15242C5F1200602FAB0
:1001E00006F12A411044B3EBD05F23D0C4B1012DF6
:1001F000A0EBC35009DCF0BC4FF0004202EAC3524E
:10020000DBB200F5000000F0B1BA400000F18070F0
:1002100000EBC350A0F1807040EAD170490009E0C2
:10022000490841EAC071A0EBC35000F50000400846
:1002300000EBC350F0BC00F090BA6142012202EB27
:100240004101001BF6E7F0BC704781F00041AAE7CE
:1002500080F00040A7E780EA010210B502F00043F9
:10026000400022D04A001FD0010E01EB1261C0F302
:100270005600C2F3560240F4000042F40002A0FB14
:10028000022000047F39140400D0401C50EA1240C0
:1002900001D44000491EC2B20C0604EBD010401C31
:1002A0004008802A02D003E0002010BD20F00100A9
:1002B000002900DA0020184310BD30B480EA0102A2
:1002C00002F0004530F0004221F0004013D090B120
:1002D000C30DD40DC2F31601C0F31600E41A41F4A5
:1002E000000140F400027D34914201D3641C00E01F
:1002F0004900002C02DA30BC002070474FF40000A7
:100300000023914201D3891A034340084FEA410177
:10031000F7D151B1914202D14FF0004105E002D234
:100320004FF0010101E06FF0010103EBC4502844DC
:1003300030BC00F012BA420005D0C0F3C75252429E
:10034000914201DC0020704700EBC15070472DE95D
:10035000FE4F804681EA0300C00F0C46009021F05A
:10036000004123F00045B8EB0200A94105D2404608
:10037000214690461C460B46024623F0004010439F
:1003800047D0270DC7F30A00C3F30A510290401A61
:10039000019040286BDAC3F3130040F4801B0098EF
:1003A000924620B10023D2EB030A63EB0B0B0198BA
:1003B0005946C0F14002504600F0AEF906460D46DF
:1003C00050465946019A00F0B6F910EB0800614119
:1003D000002487EA115284EAE7731A4340D0009A56
:1003E00062B3019A012A4FEA075215DC001B61EB48
:1003F00002014FF0004202EA0752CDE90042001C20
:1004000041F5801132462B4600F01CFA03B0BDE8DE
:10041000F08F40462146F9E7001B61EB0201001C0A
:1004200041F5801300185B412018A2F5001747EB37
:10043000030140EAD570B6196D4111E06D084FEA2D
:10044000360645EAC0754FEA0752001B61EB020110
:10045000001C41F5801149084FEA30000019514154
:1004600032462B4603B0BDE8F04F00F0DCB90098EF
:10047000012240000023D0EB020263EBE0730098FE
:1004800021464FEAE074B8EB000061EB0401E9E7B4
:1004900083F000435BE781F0004158E72DE9FE4F10
:1004A00081EA030404F0004421F0004100944FF07D
:1004B000000B23F0004350EA01045ED052EA03042B
:1004C0005BD0C3F30A54C1F30A552C44A4F2F334AD
:1004D0000194A0FB0254C1F3130141F48011C3F352
:1004E000130343F4801301FB024400FB034E840A10
:1004F000970A44EA815447EA8357A4FB07680295A8
:100500008D0A05FB07854FEA932C04FB0C54270545
:10051000029D4FEA065847EA1637B5EB08056EEB21
:10052000070C870E920E47EA811742EA8312A7FB57
:100530000201B6EB0B0164EB00042B0D43EA0C3314
:100540005E1844EB1C50DA465146E7FB0201C5F346
:1005500013044FEA0B3343EA14534FEA0432019C6D
:1005600043EA0603A4F10C040294009CCDE900B414
:1005700000F068F903B0BDE8F08F00200146F9E70C
:100580002DE9F04D81EA030404F0004B21F0004511
:1005900014464FF0000A23F0004150EA050220D033
:1005A00054EA01021DD0C5F30A570246C5F31303EE
:1005B000C1F31300C1F30A5640F4801543F48013CD
:1005C000A7EB0608101BD64608F2FD3873EB0500B2
:1005D00002D308F1010801E092185B41B8F1000F65
:1005E00003DA00200146BDE8F08D00204FF48011B1
:1005F000064684460EE0171B73EB050705D3121B56
:1006000063EB050306434CEA010C49084FEA30004E
:1006100092185B4150EA0107EDD152EA030012D073
:1006200082EA040083EA0501084305D0101BAB41B0
:1006300006D20122002306E000224FF0004302E030
:100640006FF0010253101AEB06004CEB085110EB4F
:100650000A0041EB0B01BDE8F04D00F0E4B870B5C5
:1006600021F0004303430CD0C1F30A550024D5EB1D
:10067000040564EB0403D617AD1AB34102DB002076
:10068000014670BD201841EB025170BDC10F80EAD8
:10069000E0700844CA079623002100F067B830B420
:1006A000044696230800214604D0B62330BC00221D
:1006B00000F05CB820460021F8E700F0004230F07E
:1006C00000400AD0C10D01F56071C0F3160042EA86
:1006D0000151C2084007114370470020014670478E
:1006E00001F0004330B421F0004150EA010206D08D
:1006F0000A0DA2F56072C1F31301002A02DC30BCBE
:1007000000207047440F44EAC104C100E01830BC27
:1007100000EBC25000F021B8202A04DB203A00FA96
:1007200002F1002070479140C2F1200320FA03F348
:10073000194390407047202A06DBCB17203A41FA34
:1007400002F043EAE07306E041FA02F3D040C2F15E
:10075000200291400843194670470029A8BF7047FE
:10076000401C490008BF20F00100704710B4B0FAE7
:1007700080FC00FA0CF050EA010404BF10BC704782
:1007800049B1CCF1200421FA04F411FA0CF118BF9C
:10079000012121430843A3EB0C01CB1D4FEA00616B
:1007A0004FEA102042BF002010BC704700EBC3503E
:1007B00010440029A4BF10BC7047401C490008BF6A
:1007C00020F0010010BC7047F0B4002802DCF0BC3F
:1007D00000207047C0F3C751C0F3160040F400007A
:1007E000CA0701D14000491E3F2202EB61050022E9
:1007F00011464FF4000626FA01F31344D41884423C
:1008000001D8001B1A464000491C1729F3DD51008E
:10081000814202D24FF0FF3100E0002102EBC550CF
:10082000F0BCFFF79ABF10B5141E73F1000408DA8C
:10083000401C41F1000192185B411A4301D120F0A4
:10084000010010BD2DE9F04D92469B4611B1B1FA61
:1008500081F202E0B0FA80F220329046FFF75CFFAE
:1008600004460F4640EA0A0041EA0B0153465A4645
:10087000084313D0114653EA010019D0C8F14002D1
:100880005046FFF780FC05460E4650465946424604
:10089000FFF742FF084305D0012004E02046394617
:1008A000BDE8F08D0020054346EAE0762C4337434F
:1008B0000A986305E40AA0EB08000022FD0A44EA56
:1008C00047540A3002D500200146E9E70105101916
:1008D0006941DDE9084500196941BDE8F04DA2E72D
:1008E000064C074D06E0E06840F0010394E807007D
:1008F00098471034AC42F6D3FFF7FCFB24380008CD
:1009000044380008FEE7704731B500F0F5F80446BA
:1009100000F0F2F80099001B8842F9D338BD0000BE
:100920002DE9F84FDFF890A100220AF1040B1446DC
:1009300001274FF00F090BF1040E00BF0B6807FAF7
:1009400004F52B40AB4274D1DFF870C14E68A6EBC2
:100950000C0866452BD00DDC032E34D005DC36B3F5
:10096000012E19D0022E2FD11BE0112E16D0122EDF
:100970002AD119E0B8F5881F19D006DCB8F5803FF8
:1009800015D0B8F5801F1FD111E0B8F5001F0ED0AB
:10099000B8F5041F18D10AE0CA6815E0CA68121D2C
:1009A00012E0CA6808320FE0CA680C320CE08A68AC
:1009B0002AB1012A4FF0080203D0456104E0042265
:1009C00002E0056100E00022FF2B01D8064601E0AD
:1009D00000F104064FEA840501D9A5F12005D6F8F7
:1009E00000C009FA05F82CEA080C02FA05F54CEAF1
:1009F000050CC6F800C04D68ED0057D5304DAE6906
:100A000046F00106AE61AD6924F0030605F001056C
:100A100000952C4D06EB050CDCF80850A6074FEAB4
:100A2000167809FA08F6B543274EB04202D10026DF
:100A300010E03BE0254EB04201D101260AE0244EF1
:100A4000B04201D1022605E0224EB04201D1032678
:100A500000E0042606FA08F62E43CCF808604D683C
:100A6000DAF80060ED03554601D51E4300E09E43D1
:100A70002E604D68DBF80060AD035D4601D51E4376
:100A800000E09E432E604D68DEF80060ED02754682
:100A900001D51E4300E09E432E604D68AD020E4D11
:100AA0002E6801D51E4300E09E432E60641C102C6E
:100AB000FFF444AFBDE8F88F0004014000001110BE
:100AC000001002400000014000080140000C0140FD
:100AD00000100140001401400C04014080680840EF
:100AE00000D001207047C2684A40C26070470AB116
:100AF000016170470904FBE7014800687047000086
:100B00004400002070B5040004D094F8350000259E
:100B100010B106E0012070BD84F83450204600F08A
:100B20006BFA242084F835002068016821F0010167
:100B3000016000F0EFFB014628482268B1FBF0F0AD
:100B40005060274A6368934206D94FF4967358431E
:100B50004FF47A73B0FBF3F02368401C18626068AE
:100B6000904208D84000B1FBF0F0C0F30B0104291B
:100B700016D2042014E0A26852B100EBC00202EBCE
:100B80000010B1FBF0F040F44040010507D007E051
:100B900000EB4000B1FBF0F040F40040F5E701202D
:100BA0002168C861D4E90701084321680860D4E9D5
:100BB0000310084321688860D4E9050108432168CF
:100BC000C8602068016841F001010160A563202030
:100BD00084F8350084F83650002070BD40420F0084
:100BE000A08601002DE9FF4F044690F8350081B042
:100BF00099468B460125202873D142F210730122B9
:100C00004849204601F017FD00286AD194F83400C5
:100C1000012866D0012084F834002068016821F49E
:100C200000610160242084F835000026A663202797
:100C30002068016841F4807101604B4600224FF04A
:100C40000111204601F0F7FC00285CD121680BF06F
:100C5000FE000861FFF750FF216880464869496936
:100C6000C0F3400094F83520C1F380214FF0A00A72
:100C700014E000BFB9F1000F05D0FFF73DFFA0EB76
:100C80000801494501D984F835A0216848694969B6
:100C9000C0F3400094F83520C1F38021084301D10E
:100CA000A02AE7D184F8357020684169C9438907D3
:100CB00018D4016841F400710160206841698069BD
:100CC000009042F2107301221649204601F0B3FC55
:100CD000C8B984F8357084F83460002005B0BDE8E8
:100CE000F08F1DE0016841F40071016020684169E6
:100CF00021F48061416142F21073012209492046CA
:100D000001F099FC08B10320E8E7284603996D1C1F
:100D100088428DD384F8357084F834600120DDE793
:100D20000220DBE7020010002DE9F84F04460AA874
:100D3000984690E8600294F8350092468B46202849
:100D40007BD1002D61D0002E5FD042F210730122C2
:100D50006949204601F06FFC0028F1D194F8340075
:100D600001286AD0012084F834002068016821F449
:100D700000610160222084F83500402084F83600AC
:100D80000027A7634346524659462046CDF80090B7
:100D900001F068FB28B1A06B84F83470042834D0CB
:100DA00072E0012E1AD02068DFF85081022E01680F
:100DB0002ED041F480610160206841698069009013
:100DC000032E74D8012E18D0022E2ED04B460022AE
:100DD0004146204601F02FFC80BB42E020680168BC
:100DE00021F48061016072B62068416981690091D7
:100DF000016841F40071016062B64946204601F085
:100E000087FCE0B1A06B20283ED00120BDE8F88F20
:100E100041F40061016072B6206841698169009106
:100E2000016821F48061016062B64B4600224146B0
:100E3000204601F000FC08B905E05AE024E02068F3
:100E4000006928704CE072B62068016841F40071B6
:100E5000016020680069287062B6206800696870C7
:100E60003EE02068016821F48061016072B620686C
:100E7000006905F8010B761EB6B24B4600224146CA
:100E8000204601F0D8FB08B10320BFE720680168C5
:100E900041F4007101602068006905F8010B62B639
:100EA0002068006905F8010BB61E15E0FFE749460A
:100EB000204601F02DFC0028A4D12068006905F827
:100EC000010B2068761EB6B24169C943490704D4B4
:100ED000006905F8010B761EB6B2002E7FF470AFE4
:100EE000202084F8350084F8367084F834700020AF
:100EF0008CE702208AE700000200100004000100D5
:100F00002DE9F84F0446DDE90A6590F83500DDF873
:100F10003080994692468B46202868D1002E64D0B6
:100F2000002D62D042F2107301223249204601F0B6
:100F300082FBE8BB94F83400012858D0012084F8E3
:100F400034002068016821F400610160212084F8E8
:100F50003500402084F836000027A7634B465246F0
:100F600059462046CDF8008001F004FB28B1A06B63
:100F700084F83470042838D007E04146204601F058
:100F80009FFB28B1A06B04282AD00320BDE8F88F6E
:100F9000216816F8010B086120686D1EADB2416929
:100FA000C943490707D445B116F8011B016100E0A8
:100FB0001DE06D1EADB2002DDFD14146204601F08F
:100FC0007FFB0028DED154F8350B016841F4007135
:100FD0000160202004F81E09E77767770020D5E735
:100FE0002068016841F4007101600120CEE7022011
:100FF000CCE700000200100000B500680C4985B085
:10100000884213D14FF440600090122001900320D9
:10101000039069460748FFF783FC0748C16941F41C
:101020008001C161C06900F48000049005B000BD7A
:1010300000580040000C01400010024002480168C6
:10104000491C01607047000044000020074810B5AB
:10105000016841F010010160032000F07FF80020DA
:1010600000F006F800F016F8002010BD0020024045
:1010700010B5044600F048F94FF47A71B0FBF1F076
:1010800000F070FC00222146501E00F047F80020BE
:1010900010BD00001F4808B5816941F00101816160
:1010A000806900F001000090032000F057F8002252
:1010B00011466FF00B0000F031F8002211466FF07E
:1010C0000A0000F02BF8002211466FF0090000F032
:1010D00025F800221146501F00F020F8002211468A
:1010E000101F00F01BF800221146901E00F016F8A9
:1010F00000221146501E00F011F80748416821F007
:10110000E06141F080614160416821F0E06141604F
:1011100008BD00000010024000000140F0B40E4B7A
:101120001B680C46C3F30223C3F10705042D00D945
:101130000425191D072901D2002300E0DB1E01262A
:1011400006FA05F1491E214099409E40761E164040
:101150003143F0BC01F024B80CED00E0064900F08A
:10116000070208684FF6FF03184040EA0220034ACE
:1011700010430860704700000CED00E00000FA0525
:101180002DE9F047DFF8708105460E46D8F80000DB
:1011900000F00700B0420CD2D8F8001021F007018F
:1011A0003143C8F80010D8F8000000F00700B04242
:1011B00077D12878514C800705D56068A96820F060
:1011C000F000084360602878C00759D069680120A2
:1011D00001290DD0022929D05FF0020393FAA3F26E
:1011E000B2FA82F242F02002520904D0226803E0EF
:1011F0004FF40033F2E7626A93FAA3F3B3FA83F38E
:1012000003F01F03984002424BD0606820F00300B7
:1012100008436060FFF770FC6968074641F2883058
:1012200001290DD00229814617D025E04FF0007327
:10123000D4E700BFFFF760FCC11B494501D918E0A6
:1012400081466068C0F381000128F3D118E000BF37
:10125000FFF752FCC11B49450BD86068C0F3810001
:101260000228F5D10CE000BFFFF746FCC11B494541
:1012700002D90320BDE8F087606810F00C0FF3D1AD
:10128000D8F80010404601F00701B1420BD90168BF
:1012900021F0070131430160006800F00700B0420F
:1012A00001D00120E6E72878400705D56068E968A5
:1012B00020F4E060084360602878000706D5606885
:1012C000296920F4605040EAC100606000F03AF8FB
:1012D0006168F02292FAA2F201F0F001B2FA82F211
:1012E000D140074A515CC840064908600020FFF71A
:1012F000BFFE0020BEE700000020024000100240B8
:101300000C38000800000020014800687047000009
:101310000000002008480949006849684FF4E0626D
:1013200092FAA2F201F4E061B2FA82F2D140044AE8
:10133000515CC840704700000000002000100240CF
:101340001C38000810B519A385B00FCB8DE80F002D
:101350001AA01B4B006804905A681A4812F00C013E
:101360001FD004291DD008291BD14FF4701494FA02
:10137000A4F402F47011B4FA84F4E140D2031DF82D
:10138000011010D55A684FF4003393FAA3F302F416
:101390000032B3FA83F3DA4004AB9A5CB0FBF2F0AC
:1013A000484305B010BD08484843FAE70203040566
:1013B000060708090A0B0C0D0E0F101001020000A1
:1013C0000010024000127A0000093D002DE9F84F9C
:1013D00004460078F74DC0074FF0010625D0686835
:1013E0007704C0F38100012807D06868C0F381004A
:1013F00002281BD16868C00318D597FAA7F0B0FA85
:1014000080F040F02000400901D0286800E0686AC0
:1014100097FAA7F1B1FA81F101F01F0106FA01F183
:1014200008425ED0606800287CD05AE06068B0F561
:10143000803F0BD010B1B0F5A02F11D0286820F458
:1014400080302860286820F4802002E0286840F47A
:1014500080302860606828B3FFF74EFB80460BE0C1
:10146000286840F480202860F0E700BFFFF744FBC5
:10147000A0EB0800642871D897FAA7F0B0FA80F0C2
:1014800040F02000400901D0286800E0686A97FA1F
:10149000A7F1B1FA81F101F01F0106FA01F108424A
:1014A000E4D01EE0FFF728FB804605E0FFF724FBB1
:1014B000A0EB08006428DED897FAA7F0B0FA80F015
:1014C00040F02000400901D0286800E0686A97FADF
:1014D000A7F1B1FA81F101F01F0106FA01F108420A
:1014E000E4D12078DFF8D08280074FF000094FF078
:1014F00002075BD568684FF0F80B10F00C0F07D0AF
:101500006868C0F3810002281CD16868C00319D440
:1015100097FAA7F0B0FA80F040F02000400902D01E
:10152000286801E08BE0686A97FAA7F1B1FA81F1C7
:1015300001F01F0106FA01F108422CD020690128B0
:101540007DD128E0206990B396FAA6F0B0FA80F039
:1015500048F82060FFF7D0FA824607E011E100BFAB
:10156000FFF7CAFAA0EB0A00022884D897FAA7F07E
:10157000B0FA80F040F02000400901D0286800E077
:10158000686A97FAA7F1B1FA81F101F01F0106FA32
:1015900001F10842E4D028689BFAABF26169B2FA23
:1015A00082F220F0F80091400843286025E0FFE730
:1015B00096FAA6F1B1FA81F148F82190FFF79CFA6A
:1015C000824605E0FFF798FAA0EB0A000228CCD883
:1015D00097FAA7F0B0FA80F040F02000400901D05F
:1015E000286800E0686A97FAA7F1B1FA81F101F082
:1015F0001F0106FA01F10842E4D1207800076ED5F8
:10160000A069B8B396FAA6F0B0FA80F008EB8000B3
:10161000C0F88064FFF770FA824605E0FFF76CFAC5
:10162000A0EB0A000228A0D897FAA7F0B0FA80F041
:1016300040F06000B6EB501F02D128680CE062E178
:1016400097FAA7F0B0FA80F040F06000B7EB501FB7
:1016500001D1286A00E0686A97FAA7F1B1FA81F12E
:1016600001F01F0106FA01F21042D7D00120FFF766
:101670004BF934E0FFE796FAA6F1B1FA81F108EBF5
:101680008101C1F88094FFF737FA824606E000BF77
:10169000FFF732FAA0EB0A00022872D897FAA7F0F7
:1016A000B0FA80F040F06000B6EB501F01D128681E
:1016B0000BE097FAA7F0B0FA80F040F06000B7EBCB
:1016C000501F01D1286A00E0686A97FAA7F1B1FAC1
:1016D00081F101F01F0106FA01F21042D8D1207801
:1016E000400765D5E86940F08050E861E869DFF8B7
:1016F000CCB000F080500090DBF8001041F4807115
:10170000CBF80010FFF7F8F9824605E0FFF7F4F98F
:10171000A0EB0A00642834D8DBF80000C005F5D53A
:10172000E06801280AD008B1052813D0286A20F003
:1017300001002862286A20F0040002E0286A40F0D4
:1017400001002862E06841F2883B90B3FFF7D4F9CA
:1017500082460BE0286A40F004002862EEE700BFF2
:10176000FFF7CAF9A0EB0A0159450AD897FAA7F082
:10177000B0FA80F040F04000B6EB501F02D128686C
:101780000CE0A3E097FAA7F0B0FA80F040F0400038
:10179000B7EB501F01D1286A00E0686A97FAA7F1F9
:1017A000B1FA81F101F01F0206FA02F10842D7D026
:1017B00031E005E0001002400000424200700040AD
:1017C000FFF79AF9824605E0FFF796F9A0EB0A01C8
:1017D00059457BD897FAA7F0B0FA80F040F0400066
:1017E000B6EB501F01D128680BE097FAA7F0B0FACA
:1017F00080F040F04000B7EB501F01D1286A00E0B4
:10180000686A97FAA7F1B1FA81F101F01F0206FAAE
:1018100002F10842D8D1E06980B36968C1F381015F
:10182000022970D04FF080714F000228484609D03D
:1018300091FAA1F1B1FA81F148F82100FFF75CF9C2
:10184000044669E08A4691FAA1F1B1FA81F1C146F4
:1018500048F82100FFF750F9804605E0FFF74CF902
:10186000A0EB0800022854D897FAA7F0B0FA80F04D
:1018700040F02000400902D0286801E061E0686A79
:1018800097FAA7F1B1FA81F101F01F0106FA01F10F
:101890000842E3D1206AB0F5803F05D16868A168AD
:1018A00020F4003008436860D4E9080108436968FF
:1018B00021F47411084368609AFAAAF0B0FA80F033
:1018C00049F82060FFF718F9044606E021E000BF60
:1018D000FFF712F9001B02281BD897FAA7F0B0FAFD
:1018E00080F040F02000400901D0286800E0686ADC
:1018F00097FAA7F1B1FA81F101F01F0106FA01F19F
:101900000842E5D01DE01EE0FFF7F6F8001B0228B4
:1019100002D90320BDE8F88F97FAA7F0B0FA80F05B
:1019200040F02000400901D0286800E0686A97FA7A
:10193000A7F1B1FA81F101F01F0106FA01F10842A5
:10194000E2D10020E6E70120E4E74FF0E02104289F
:10195000086903D020F004000861704740F00400DB
:10196000FAE7704710B5401EB0F1807F01D3012027
:1019700010BD4FF0E02460610F21601700F010FCF3
:101980000020A06107202061002010BD10B5FFF7E6
:10199000E8FF10BDFEE7FEE7704710B5FFF74EFB0E
:1019A000BDE81040FFF7F2BF0D48016841F00101AA
:1019B000016041680B4A1140416001680A4A1140C8
:1019C0000160016821F480210160416821F4FE0179
:1019D00041604FF41F0181600449C00308607047F3
:1019E000001002400000FFF8FFFFF6FE08ED00E0E7
:1019F000FEE7000070B50E460546002406E000BF75
:101A000000F056FF3046FEF77FFF641CAC42F7DB68
:101A100070BD0021AFF3008070B50546044639B9AA
:101A200010E000BF00F044FF281B641EFEF76CFFAF
:101A3000002CF7DC70BD00BF00F03AFF2046641EAA
:101A4000FEF762FF002CF7DC70BD000010B5B62277
:101A50001421182000F078FD4FF47A70FEF754FF3F
:101A60002D4C0F21A07800F00F02182000F06CFD23
:101A7000E078102100F00F02182000F065FD002230
:101A80001321182000F060FD6420FEF73DFF802246
:101A90003621182000F058FD20223721182000F0B0
:101AA00053FD6420FEF730FF22780F21682000F0FC
:101AB0004BFD62781021682000F046FD6420FEF79F
:101AC00023FF82224B21102000F03EFD6420FEF710
:101AD0001BFF01224B21102000F036FD6420FEF791
:101AE00013FF20794C21C006020E102000F02CFDBF
:101AF0006420FEF709FF17225121102000F024FD79
:101B000051225221102000F01FFD6420FEF7FCFE40
:101B1000BDE8104000F002B82E0000201CB50020E7
:101B20008DF800006A465D21182000F06BFB2D4CFB
:101B30009DF800006A4660716421182000F062FB85
:101B40009DF80000E0716A465E21182000F05AFB03
:101B50009DF80000A0716A466521182000F052FB34
:101B60009DF8000020726A467121182000F04AFB9F
:101B70009DF8000060726A467021182000F042FB58
:101B80009DF80000A072022301AA6A21102000F033
:101B900099F9BDF80400A081022301AA6821102050
:101BA00000F090F9BDF80400E081022301AA6E2143
:101BB000102000F087F9BDF804002082022301AA5A
:101BC0006221102000F07EF9BDF80400608202233B
:101BD00001AA6C21102000F075F9BDF80400A08264
:101BE0001CBD00002E00002038B500F023FE182098
:101BF00000F06EFBC8B1682000F06AFBA8B11020AD
:101C000000F066FB88B100248DF800406A4621464A
:101C1000182000F0F7FA9DF800004FF4FA75FA2842
:101C200005D029460A20FFF7E5FE002038BD8DF8D3
:101C300000406A460021682000F0E4FA9DF80000A8
:101C40000F28EED18DF8004001224B21102000F02A
:101C50007BFC6420FEF758FE6A464021102000F00D
:101C6000D1FA9DF800003228DBD1012038BD0000F8
:101C700010B500222D21532000F066FC6420FEF7F1
:101C800043FE08222D21532000F05EFC0E4C312132
:101C9000207840F00402532000F056FC62782C219A
:101CA000532000F051FC00222F21532000F04CFC67
:101CB00000222E21532000F047FC00223821BDE8ED
:101CC0001040532000F040BC2800002010B58122B5
:101CD0003E21682000F038FC01221521682000F028
:101CE00033FC19221621682000F02EFC0022172157
:101CF000BDE81040682000F027BC000010B5FFF7D9
:101D000073FF1C4C207118B1FFF7A0FE2079D0B9E9
:101D100000F0A0F8207008B1FFF7AAFF00F06BF9FF
:101D2000A07008B100F0E0F800F090F9607018B110
:101D300000F0F2F8607810B900F0A5F8E070E078F3
:101D400008B1FFF7C3FF00F07DFD00F08BFD00F050
:101D50009FFD206910F0FF4F09D0A06810F0FF4FE1
:101D600005D0E06810F0FF4F01D0012010BD002029
:101D700010BD0000040000200749024600200B7936
:101D800013B1104600F0BCBA8978002902D0104681
:101D900000F03BBA704700000400002030B51B483B
:101DA00085B0816941F010018161816901F0100104
:101DB0000491816941F020018161816901F0200174
:101DC0000491816941F0080181618069104D00F042
:101DD00008004FF400540490002221462846FEF7E4
:101DE00086FE1120CDE90040032003906946284675
:101DF000FEF796FD20110090002001900220029035
:101E000069460448FEF78CFD05B030BD0010024065
:101E100000100140000C01400C4810B50A49016057
:101E20000B49416000214FF480428160C0E90312F8
:101E300041618161C1610162FEF764FE002801D049
:101E400000F0A0F810BD0000005800408400002001
:101E5000801A060008B500F0EDFC532000F038FAB7
:101E600068B16A460021532000F0CCF99DF80000CB
:101E7000E52806D04FF4FA710A20FFF7BBFD0020D9
:101E800008BD012008BD08B500F0D4FC682000F0B2
:101E90001FFA90B100208DF8000001466A466820C4
:101EA00000F0B0F99DF80000C0F34500342806D0DA
:101EB0004FF4FA710A20FFF79DFD002008BD0120B4
:101EC00008BD00003EB564248DE81C0040000A46B1
:101ED000014601230348FEF727FF08B100203EBD5D
:101EE00001203EBD840000200A4810B50078002182
:101EF0008006020E1E2000F027FB002201211E207A
:101F000000F022FB80220221BDE810401E2000F0DC
:101F10001BBB00002C00002010B50E4C0F21607878
:101F200041EA0010C2B22021692000F00DFB082216
:101F30002221692000F008FB207823210007020EEF
:101F4000692000F001FB00222E21BDE8104069202D
:101F500000F0FABA2A0000200949024600200B7955
:101F600013B1104600F04ABA4B7813B1104600F096
:101F70006EB9C978002902D0104600F0FBB870474E
:101F80000400002000215020FFF746FD00F052FC25
:101F9000BFF34F8F05480168054A01F4E061114322
:101FA0000160BFF34F8F00BFFDE700000CED00E0C4
:101FB0000400FA052DE9F041FEF79EFD05464FF0BD
:101FC000E02000248069482223462146FEF7AAF833
:101FD0004FF47A73A5FB036704FB0373002205FB30
:101FE0000232301A62EB01024FF47A71401842F16A
:101FF0000001BDE8F0810EB500F01CFC1E2000F0D1
:1020000067F9F8B16A460A211E2000F0FBF801AA20
:102010000B211E2000F0F6F802AA0C211E2000F071
:10202000F1F89DF80000482807D19DF804003428F5
:1020300003D19DF80800332806D04FF4FA710A2026
:10204000FFF7D8FC00200EBD01200EBD08B500F042
:10205000F1FB692000F03CF980B100208DF8000010
:102060006A460F21692000F0CDF89DF80000D328C2
:1020700006D04FF4FA710A20FFF7BCFC002008BD1F
:10208000012008BD0B48007838B1012808D002288B
:1020900009D003280AD0002070474FF062507047E3
:1020A0004FF0645070474FF0665070474FF06850E3
:1020B00070470000280000200048704735788E3DAA
:1020C0000749024600200B7913B1104600F0AAB967
:1020D0000978002902D0104600F02AB870470000A5
:1020E000040000200048704748E13A3F0948007862
:1020F00038B1012807D0022807D0032807D00020D4
:1021000070470548704705487047054870470548BF
:10211000704700002A0000200000FA3B00007A3CD3
:102120000000FA3C00007A3D004870470000203F64
:102130003EB5044600208DF8080002AA3021532045
:1021400000F060F8A0B19DF80800000610D5062345
:102150006A4632215320FFF7B5FEBDF8000020800B
:10216000BDF802006080BDF80400A08001203EBDE3
:1021700000203EBD1CB5044608236A461B2168208A
:10218000FFF7A0FEBDF8020040BA2080BDF80400B1
:1021900040BA6080BDF8060040BAA08001201CBD96
:1021A0000907090E002806DA00F00F0000F1E02010
:1021B00080F8141D704700F1E02080F8001470478B
:1021C0000A48007805280ED2DFE800F00B09070561
:1021D000030007487047074870470748704707489B
:1021E0007047074870470020704700002E0000200D
:1021F00071BD793B00C0F93B00C0793C00C0F93C9F
:1022000000C0793D0123FFF75DBE3EB504460020C6
:102210008DF8080002AA09211E20FFF7F3FF9DF8A0
:102220000810084012D006236A4603211E20FFF73B
:1022300049FEBDF8000040BA2080BDF8040040BA55
:102240006080BDF8020040BAA08001203EBD3EB5CE
:10225000044600208DF8080002AA27216920FFF714
:10226000D1FFC0B19DF80800000614D506236A46C8
:10227000A8216920FFF726FEBDF8000020809DF808
:1022800001009DF8031040EA01206080BDF80400C1
:10229000A08001203EBD00203EBD00000B4880789C
:1022A000032807D0052808D0082809D00C280AD010
:1022B000002070474FF06A5070474FF06C507047E5
:1022C0004FF06E5070474FF0705070472E00002056
:1022D00010B504461E20FFF79CFB61004FF47A7393
:1022E00005220648FEF77EFC08B1002010BD00F074
:1022F00099FAFA20FEF708FB012010BD84000020A7
:102300007CB5044608236A4642211020FFF7DAFD17
:102310009DF80600C0073BD0BDF806001D498208A5
:102320000023888A8503002A01D0164600E006466D
:10233000B5FBF6F691F90560C3EBC606668000D0E2
:102340001046B5FBF0F091F9060003EBC0002080C9
:10235000B1F91200B1F91050C0F100004FEAC033DA
:10236000888A00B2A2EB000000FB05F0A3EBA003FB
:102370004FEA42008A89B1F90E1000FB02F000F525
:10238000004001EB204093FBF0F0A0804FF00100F3
:102390007CBD00002E00002030B58FB001200090E1
:1023A00000040024CDE901040225CDE907504FF4D3
:1023B000E01009906846FFF709F858B90F20CDE9F9
:1023C0000A056802CDE90C4002210AA80E94FEF726
:1023D000D7FE08B1FFF7D6FDFEF796FF4FF47A71EE
:1023E000B0FBF1F0FFF7BEFA0420FFF7AEFA0022CF
:1023F0001146501EFEF792FE0FB030BD1CB50446CC
:1024000006236A4602216820FFF75CFDBDF8000044
:1024100040426080BDF802002080BDF80400A0802A
:1024200001201CBD1CB5044606236A460221182063
:10243000FFF748FDBDF90000C11700EB5170C01057
:1024400040426080BDF90200C11700EB5170C0101E
:102450002080BDF90400C11700EB5170C010A080AE
:1024600001201CBD2DE9F84F044600680F46DDF839
:1024700028B001689846164641F4806101602068E2
:10248000016841F4807101604FF001195B46002240
:102490004946204600F0CFF8F0BB216807F0FE0067
:1024A000086109F1010A5A465146204600F063F9D5
:1024B00018B1A06B042811D036E02068416980690A
:1024C00000905946204600F0FBF850B1A06B04285C
:1024D0002AD12068016841F4007101600120BDE843
:1024E000F88FF5B2B8F1010F08D02168300A086101
:1024F0005946204600F0E4F80028E7D1206805613D
:102500005946204600F0DCF80028DFD12068016839
:1025100041F48071016000E006E05B46002249461C
:10252000204600F088F808B10320D8E72168F8B207
:1025300040F0010008615A465146204600F01BF960
:102540000028B6D1CBE7000017B583B0642401237F
:1025500005AA8DE81C0040000A4601460448FEF723
:10256000CFFC10B1002006B010BD0120FBE7000039
:10257000840000202DE9F843044600680E46DDF88B
:10258000208001681F46154641F480710160434672
:1025900000224FF00111204600F04DF8D8B9216813
:1025A00006F0FE00086142461749204600F0E3F8B5
:1025B00028B1A06B04280ED10120BDE8F883206863
:1025C0004169806900904146204600F079F820B1C9
:1025D000A06B042811D00320EFE7EEB2012F08D042
:1025E0002168280A08614146204600F069F8002861
:1025F000EED1206806610020DFE72068016841F421
:1026000000710160D8E700000200010001684A691A
:10261000D24352050DD44A6922F480624A610421F2
:102620008163202180F83510002180F834100120CA
:102630007047002070472DE9F05F1E4690460C461B
:102640000546FEF759FA81464FF0000A4FF0200B7D
:10265000C4F30747B8F1000F09D024E0701C06D07E
:10266000D6B1FEF749FAA0EB0900B04214D82868A9
:10267000012F06D0806924EA00000004000C1BD062
:10268000ECE74069F7E7701C0DD02EB1FEF734FA85
:10269000A0EB0900B04206D985F835B085F834A022
:1026A0000320BDE8F09F2868012F07D0806924EA45
:1026B00000000004000CE6D00020F2E74069F6E7D5
:1026C00070B50D460446FEF717FA064619E0204697
:1026D000FFF79CFF08B1012070BD681C11D025B127
:1026E000FEF70AFA801BA8420BD954F8380F40F0C5
:1026F000200044F80409202060700020207003208E
:1027000070BD20684069C0430006E0D4002070BD61
:102710002DE9F04188460446FEF7EEF9002506460D
:10272000202721E04169C943C9060BD4416921F042
:1027300010014161A56384F8357084F8345001209C
:10274000BDE8F081B8F1000F04D0FEF7D5F9811B88
:10275000414509D954F8380F40F0200044F80409E5
:10276000677025700320EBE720684169C94349067B
:10277000D8D40020E4E72DE9F04791460D46044601
:10278000FEF7BAF9824600274FF02008C5F3074646
:1027900029E020684069C043400512D420680168E0
:1027A00041F4007101602068416921F48061416158
:1027B0000420A06384F8358084F834700120BDE8DB
:1027C000F087B9F1FF3F0ED0B9F1000F05D0FEF749
:1027D00093F9A0EB0A01494505D984F8358084F8BE
:1027E00034700320EBE72068012E06D0806925EACB
:1027F00000000004000CE2D0CBE74069F7E70000DE
:1028000070B50546FEF778F9054E04463068201A83
:10281000A84202D300F04CF83460012070BD0000E3
:102820002400002000224FF400510148FEF75FB958
:1028300000100140012251030148FEF758B9000081
:102840000010014010B5064C207910B1FFF726FDAD
:1028500003E0207808B1FFF715FC206110BD0000EF
:102860000400002010B5094C207910B1FFF7A8FC36
:1028700003E0607818B1FFF739FCA06010BDE07884
:102880000028FAD0FFF718FCF7E70000040000204A
:1028900010B5064C207910B1FFF746FC03E0A07894
:1028A00008B1FFF71FFCE06010BD0000040000202D
:1028B0004FF400510148FEF716B900000010014026
:1028C0000A6802604A6842608A688260C968C160BA
:1028D0007047002141608160C1604FF07E5101600E
:1028E0007047704713680B6053684B6093688B6048
:1028F000D268CA60FFF7E4BF2DE9FF4FB5B00546C7
:10290000C06804902869029068690190A8690090E5
:102910009A46914601210498FDF70DFD2E90012164
:102920000298FDF708FD299001210198FDF703FDAC
:102930002D9001210098FDF7FEFC2F900198FDF7E6
:10294000BCFE07460A9088460C461F910498FDF786
:10295000B4FE0122FDF783FE834623463A460591E5
:10296000FDF79CFDFDF7BCFE2A900098FDF7A5FE43
:1029700006460C46384641460122FDF770FE3246B7
:102980002346FDF78BFDFDF7ABFE27900499084623
:10299000FDF761FC1E9002990498FDF75CFC17900E
:1029A00001990498FDF757FC109000990498FDF7E1
:1029B00052FC1B9002990846FDF74DFC1D90DDE985
:1029C0000110FDF748FC1A9000990298FDF743FCAE
:1029D00001990F900846FDF73EFC2090DDE90010BC
:1029E000FDF739FC00991C900846FDF734FC42992C
:1029F00028900846FDF72FFC064651460846FDF78D
:102A00002AFC044649460846FDF725FC2146FDF709
:102A1000CAFB3146FDF7C7FB00F0E2FE014610F0AD
:102A2000FF4F7DD04FF07E50FDF747FC0446014636
:102A30004846FDF710FC379021465046FDF70BFC49
:102A4000389021464298FDF706FC48994290084686
:102A5000FDF701FC479904460846FDF7FCFB469943
:102A600007460846FDF7F7FB3946FDF79CFB214674
:102A7000FDF799FB00F0B4FE014610F0FF4FD0D0F7
:102A80004FF07E50FDF719FC044601464698FDF7CD
:102A9000E2FB469021464798FDF7DDFB4790214633
:102AA0004898FDF7D8FB48904698FDF706FECDE91B
:102AB0000D010C46064602460B4658460599FDF7A1
:102AC000EDFCFDF70DFE82464798FDF7F6FD024648
:102AD0000B4658460599FDF7E1FCFDF701FE8146DE
:102AE0004898FDF7EAFDCDE90B0102460B46584632
:102AF0000599FDF7D3FCFDF7F3FD80460298FDF73D
:102B0000DCFD0122CDE91101FDF7A9FD3246234686
:102B1000FDF7C4FCFDF7E4FD06462899469800E061
:102B2000FEE3FDF798FB149020994698FDF793FB80
:102B3000089048992998FDF78EFB0099FDF78BFBCB
:102B4000044647992998FDF786FB0199FDF783FB19
:102B500007461D994698FDF77EFB16904046019961
:102B6000FDF779FB189048460099FDF774FB834602
:102B70001E994698FDF76FFB5946FDF766FB1899BD
:102B8000FDF711FB1699FDF70EFB3946FDF70BFB20
:102B90002146FDF708FB0899FDF757FB1499FDF74F
:102BA00054FB044628994798FDF755FB1590489922
:102BB0002D98FDF750FB0099FDF74DFB0746209936
:102BC0004798FDF748FB08901D994798FDF743FB90
:102BD000139030460199FDF73EFB0690404602995E
:102BE000FDF739FB83461E994798FDF734FB804675
:102BF00050460099FDF72FFB4146FDF7D4FA5946A0
:102C0000FDF723FB0699FDF7CEFA1399FDF71DFB9F
:102C10000899FDF7C8FA3946FDF7C5FA1599FDF789
:102C200014FB0146FDF717FB074621460846FDF752
:102C300012FB3946FDF7B7FA00F0D2FD0390289950
:102C40004898FDF708FB089020994898FDF703FB8A
:102C5000139047992D98FDF7FEFA0099FDF7FBFABE
:102C600004461D994898FDF7F6FA834630460099C8
:102C7000FDF7F1FA80461E994898FDF7ECFA0746F1
:102C800050460199FDF7E7FA064648460299FDF7D6
:102C9000E2FA3146FDF7D9FA3946FDF784FA4146A2
:102CA000FDF781FA5946FDF7D0FA2146FDF77BFA88
:102CB0001399FDF7CAFA0899FDF775FA05900121F5
:102CC0000398FDF738FB079001210598FDF733FBCA
:102CD0000890DDE90B8189462098FDF7EEFCCDE9EF
:102CE0001810074621910C461D98FDF7E6FC0022BE
:102CF000FE4B20911D90FDF7CEFB3A462346FDF793
:102D0000C7FB04460E460598FDF7D7FC224633461E
:102D1000FDF7C4FBCDE9130106460C46DDE90F10B3
:102D2000FDF741FA0399FDF796FAFDF7C6FC324626
:102D30002346CDE91501FDF70AFB42464B46FDF758
:102D4000A7FB06460C4601990398FDF784FA3390D9
:102D5000FDF7B3FC32462346FDF7A0FB8B461E90E1
:102D60001C991798FDF71FFA0599FDF774FA0446A8
:102D7000DDE91A01FDF769FA0399FDF76CFA2146BE
:102D8000FDF711FA4799FDF760FA04463190009972
:102D90000398FDF760FA3490064602990598FDF70E
:102DA0005AFA31463090FDF750FA2146FDF753FAB2
:102DB000FDF783FC2391DDE90D4182460E46DDE9F6
:102DC0000F01FDF742FA0599FDF745FAFDF775FC8D
:102DD000109089462898FDF770FC80460691384689
:102DE0000022C24B1899FDF756FB4246069BFDF7A1
:102DF0004FFB80460F460398FDF75FFC42463B467B
:102E0000FDF74CFB4B46109AFDF7A1FA22463346DC
:102E10001A911C90FDF73CFB04460E46019905985B
:102E2000FDF719FA3290FDF748FC22463346FDF7CC
:102E300035FB064688463898FDF73FFC06900F465E
:102E40002798FDF73AFC044689461798FDF735FCAC
:102E50000122FDF704FC4B462246FDF778FA3B467B
:102E6000069AFDF715FB044610911B900F46299812
:102E7000FDF723FC22463B46CDE91701FDF70EFB8B
:102E8000069027913798FDF718FC814609912A98FA
:102E9000FDF713FC04460F460F98FDF70EFC0122C8
:102EA000FDF7DDFB22463B46FDF7F2FA4A46099B59
:102EB000FDF7EEFA04460F902D980F46099180F029
:102EC0000040FDF7FAFB22463B46FDF7E7FA279B59
:102ED000069AFDF73CFA32464346FDF7D9FA5246C8
:102EE000239BFDF734FA5B461E9AFDF730FAFDF797
:102EF000F7FB0690DDE90B410E46DDE913210B4699
:102F0000DDE91501FDF723FA22463346FDF7C0FA45
:102F100006460C4602990898FDF79DF9014634983B
:102F2000FDF793F9FDF7C9FB32462346FDF7B6FAE4
:102F300089461E90DDE90410319CFDF78CF90146AD
:102F40002B903398FDF72FF92146FDF784F9FDF713
:102F5000B4FB8B46DDE90D2182460B461A991C987D
:102F6000FDF796FA06460C4600990598FDF773F9A9
:102F70003390FDF7A2FB32462346FDF78FFA8046D9
:102F80000E464298FDF799FB04460F46012221990F
:102F90001998FDF764FB2A901991012220991D9838
:102FA000FDF75DFB0022524BFDF775FA199B2A9A3B
:102FB000FDF76EFA22463B46FDF76AFA04460F46D5
:102FC0001D911990DDE911010222FDF748FB22460F
:102FD0003B46FDF763FA299120901B9F109C2E9889
:102FE000FDF76BFB3A462346FDF758FA2C902191EA
:102FF000099F0F9C2F98FDF760FB22463B46CDE9C9
:103000001101FDF74BFA219B2C9AFDF7A0F9299BA2
:10301000209AFDF73DFA42463346FDF798F95246AD
:103020005B46FDF794F94B461E9AFDF790F9FDF7C4
:1030300057FB0590DDE90B410E46DDE913210B46F8
:10304000DDE91501FDF783F922463346FDF720FA45
:1030500006460C4601990898FDF7FDF80746DDE99C
:103060000301FDF7F8F839462590FDF7EEF8FDF776
:1030700024FB32462346FDF711FA06460891DDE9A6
:103080000210339F319CFDF7E6F839462790FDF793
:103090008AF82146FDF7DFF8FDF70FFB8A46DDE9E8
:1030A0000D2181460B461A991C98FDF7F1F904464B
:1030B00007980F4680F00040DDF8AC800199FDF7DD
:1030C000CAF84146FDF7C1F8FDF7F7FA22463B463C
:1030D000FDF7E4F980460C460222DDF864B01D9F3E
:1030E0001F990A98FDF7BBFA5A4603E00000E03F3B
:1030F0000000F03F3B46FDF7D1F983461991DDE929
:103100001101109B1B9AFDF7C9F90F4612900999FE
:103110000F981F9126902E9880F00040FDF7CDFA71
:103120001F9B269AFDF7BAF93B46129AFDF70FF955
:103130005A46199BFDF7ACF942462346FDF707F9BD
:103140004A465346FDF703F93246089BFDF7FFF860
:10315000FDF7C6FA0890DDE90B410E46DDE91321C3
:103160000B46DDE91501FDF7F2F822463346FDF77F
:103170008FF906460C462798FDF79FFA32462346FC
:10318000FDF78CF90746DDE9314089462599FDF7C1
:103190005CF82146FDF75FF8FDF78FFA8846DDE918
:1031A0000D2182460B461A991C98FDF771F90646C7
:1031B0000C4600990798FDF74EF801463098FDF748
:1031C00044F8FDF77AFA32462346FDF767F90446DC
:1031D0001B9812900E46DDF840B02D98FDF76DFA61
:1031E0005B46129AFDF75AF983460D91DDE9170106
:1031F000099B0F9AFDF752F95A460D9BFDF7A7F868
:1032000022463346FDF7A3F852464346FDF79FF8A2
:103210003A464B46FDF79BF8FDF762FA0446014635
:10322000FDF719F8089980460846FDF714F8059946
:1032300007460846FDF70FF8069906460846FDF7CB
:103240000AF83146FCF7AFFF3946FCF7ACFF4146C0
:10325000FCF7A9FF00F0C4FA01464FF07E5B584628
:10326000FDF72BF8064601460698FCF7F4FF0746E3
:1032700031460598FCF7EFFF059031460898FCF7BA
:10328000EAFF089031462046FCF7E5FF07903846F4
:10329000FDF713FA06464FF07D580C46404600F005
:1032A000FEF9FDF70AFA9D4A9D4BFDF7F7F84FF03E
:1032B00000529C4BFDF7F2F832462346FDF7EEF83C
:1032C00006460C4645990098FCF7C5FF814644998F
:1032D0000198FCF7C0FF07460298439980F0004030
:1032E000FCF7B9FF3946FCF7B0FF4946FCF7ADFFE4
:1032F000FDF7E3F94FF0FF32FDF7B1F9324623460F
:10330000FDF7C6F8FDF7ECF982460598FDF7D5F90B
:1033100004460E46404600F0C2F9FDF7CEF900E043
:10332000F9E07E4A7E4BFDF7B9F84FF000527D4B35
:10333000FDF7B4F822463346FDF7B0F806460C46D2
:1033400044990098FCF787FF814645990198FCF75E
:1033500082FF074643990498FCF77DFF3946FCF746
:1033600022FF4946FCF771FFFDF7A7F94FF0FF3246
:10337000FDF775F932462346FDF78AF8FDF7B0F9F7
:1033800081460898FDF799F904460E46404600F03C
:1033900086F9FDF792F9614A614BFDF77FF84FF02E
:1033A0000052604BFDF77AF822463346FDF776F877
:1033B00006460C4643990098FCF74DFF0746459991
:1033C0000298FCF748FF099044990498FCF743FFE2
:1033D0000999FCF73AFF3946FCF7E5FEFDF76DF970
:1033E0004FF0FF32FDF73BF932462346FDF750F828
:1033F000FDF776F907460798FDF75FF906460C4694
:10340000404600F04CF9FDF758F9444A444BFDF7AB
:1034100045F84FF00052434BFDF740F83246234643
:10342000FDF73CF806460C4643990198FCF713FF5C
:10343000089044990298FCF70EFF8046459904983D
:10344000FCF709FF4146FCF7AEFE0899FCF7FDFECC
:10345000FDF733F94FF0FF32FDF701F9324623460D
:10346000FDF716F8FDF73CF9804650463699FCF713
:10347000F2FE0499FCF797FE064648463699FCF79B
:10348000EAFE0299FCF78FFE044638463699FCF7AF
:10349000E2FE0199FCF787FE074640463699FCF7A5
:1034A000DAFE0099FCF77FFE80460146FCF7D3FE6A
:1034B000394603900846FCF7CEFE81462146084671
:1034C000FCF7C9FE824631460846FCF7C4FE514669
:1034D000FCF769FE4946FCF766FE0399FCF763FEBC
:1034E00000F07EF901465846FCF7E7FE81460146AA
:1034F0003046FCF7B0FEE86049462046FCF7ABFEDC
:10350000286149463846FCF7A6FE686149464046B0
:10351000FCF7A1FEA86139B0BDE8F08F182D445426
:10352000FB210940C7719C3F2DE9F74F88B0144635
:103530000D46B2F91400FDF7A9F86E683146FCF7A4
:103540008AFE0190B4F91200FDF7A0F83146FCF7AD
:1035500082FE8346B4F91000FDF798F83146FCF777
:103560007AFE8246B4F90E00FDF790F8AE68314657
:10357000FCF771FEFDF7A1F82E4F2F4B3A46FCF7F2
:103580008DFF00222D4BFCF7FBFFFDF7A9F88146CC
:10359000B4F90C00FDF77AF83146FCF75CFEFDF754
:1035A0008CF83A46244BFCF779FF0022234BFCF7BA
:1035B000E7FFFDF795F88046B4F90A00FDF766F8D5
:1035C0003146FCF748FEFDF778F83A461A4BFCF70F
:1035D00065FF0022194BFCF7D3FFFDF781F8074682
:1035E000B4F90800FDF752F829680091FCF733FEA2
:1035F0000646B4F90600FDF749F80099FCF72BFEE2
:103600000790B4F90400FDF741F80099FCF723FE98
:1036100001990246CDE905B18DE8C0072168284629
:10362000079BFFF769F908980BB02946BDE8F04FF2
:1036300000F006B8182D4454FB2109400080664074
:1036400010B50C46FFF745F9E1680160616981F04A
:1036500000414160A1698160216981F00041C16040
:1036600010BDF0B589B01D4616460C460C30FFF76C
:1036700030F9A0F10C0704A887E87000FFF729F9DA
:10368000024607F10C016846FFF72CF96846FFF780
:1036900028F904A8FFF725F909B03846F0BD00F075
:1036A0009FB802E008C8121F08C1002AFAD170476B
:1036B0007047002001E001C1121F002AFBD17047B2
:1036C00001490860704700004800002000268CB0C7
:1036D000B046FDF7BBFCFEF75FFEFEF75FFBFEF7B3
:1036E0009BFBFFF7A7F84FF400713948FDF7F6F997
:1036F000384C012801D1022060714FF4FA60FDF7C7
:1037000003F9FEF7FBFAA07100285ED0FFF792F8EC
:10371000FFF790F8D4E90331002704A8A268FFF767
:10372000A0FFDFF8B4A04FF47A7BA1464C46D9F84D
:103730001400FFF765F8C4F814B0A07978B10AF165
:103740000400FEF7BDFC044623480A30FEF704FCE3
:10375000044321481030FEF70FFB40EA0407FEF750
:1037600029FC05460C46801B61EB0801FCF797FF1E
:103770001A49FCF7A2FDCAF80000002FD6D04FF47A
:10378000FA71C9F8141000272E46A046124A04A95F
:103790006846FFF7C9FE99F8050040F010010E4891
:1037A000163001704178491C41700099C0F8021030
:1037B0000199C0F806100299C0F80A100399C0F8E0
:1037C0000E106846FFF78DF8B0E7FEF7DBFB000050
:1037D000000C0140040000204C000020002474492B
:1037E00070B50546FCF7F0FF044620F00040C0F13C
:1037F000FF40C00F08D025F00040C0F1FF40C00FCF
:1038000004BF0120FFF75CFF204670BD00000000F0
:103810000000000001020304060708090000000080
:103820000102030444380008000000204C0000009E
:10383000A2360008903800084C00002074040000F4
:10384000B236000800A24A04000000000001000097
:103850000000803F0000803F0000803FE803000040
:10386000000000000000000000000000000A000648
:1038700006000407030E070000000000000000001F
:103880000000000000000000000000000000000038
:04000005080000ED02
:00000001FF
