:020000040800F2
:10000000A004002001010008F1100008ED10000814
:10001000EF100008490100081D1200080000000050
:1000200000000000000000000000000013010008B4
:100030004B0100080000000017010008F310000841
:100040001B0100081B0100081B0100081B01000820
:100050001B0100081B0100081B0100081B01000810
:100060001B0100081B0100081B0100081B01000800
:100070001B0100081B0100081B0100081B010008F0
:100080001B0100081B0100081B0100081B010008E0
:100090001B0100081B0100081B0100084D0100089E
:1000A0001B0100081B0100081B0100081B010008C0
:1000B0001B0100081B0100081B0100081B010008B0
:1000C0001B0100081B0100081B0100081B010008A0
:1000D0001B0100081B0100081B0100081B01000890
:1000E0001B0100081B0100081B010008DFF80CD0F1
:1000F00000F018F80048004701160008A00400208E
:100100000648804706480047FEE7FEE7FEE7FEE7B1
:10011000FEE7FEE7FEE7FEE7FEE7FEE70111000867
:10012000ED000008064C074D06E0E06840F00103D2
:1001300094E8070098471034AC42F6D3FFF7DAFF93
:100140005416000874160008FEE770474FF400705C
:1001500000F00CB831B500F0F9F8044600F0F6F8FC
:100160000099001B8842F9D338BD7047044910B587
:100170000A68024202D00860FFF7F7FF10BD0000D6
:10018000140401402DE9F84FDFF890A100220AF194
:10019000040B144601274FF00F090BF1040E00BFAA
:1001A0000B6807FA04F52B40AB4274D1DFF870C13D
:1001B0004E68A6EB0C0866452BD00DDC032E34D020
:1001C00005DC36B3012E19D0022E2FD11BE0112EE3
:1001D00016D0122E2AD119E0B8F5881F19D006DCE6
:1001E000B8F5803F15D0B8F5801F1FD111E0B8F5E4
:1001F000001F0ED0B8F5041F18D10AE0CA6815E038
:10020000CA68121D12E0CA6808320FE0CA680C32D0
:100210000CE08A682AB1012A4FF0080203D0456138
:1002200004E0042202E0056100E00022FF2B01D877
:10023000064601E000F104064FEA840501D9A5F164
:100240002005D6F800C009FA05F82CEA080C02FAD5
:1002500005F54CEA050CC6F800C04D68ED0057D511
:10026000304DAE6946F00106AE61AD6924F003067B
:1002700005F0010500952C4D06EB050CDCF8085047
:10028000A6074FEA167809FA08F6B543274EB0429A
:1002900002D1002610E03BE0254EB04201D10126FC
:1002A0000AE0244EB04201D1022605E0224EB042BF
:1002B00001D1032600E0042606FA08F62E43CCF806
:1002C00008604D68DAF80060ED03554601D51E431D
:1002D00000E09E432E604D68DBF80060AD035D4694
:1002E00001D51E4300E09E432E604D68DEF800609D
:1002F000ED02754601D51E4300E09E432E604D6819
:10030000AD020E4D2E6801D51E4300E09E432E60C7
:10031000641C102CFFF444AFBDE8F88F00040140CA
:1003200000001110001002400000014000080140D0
:10033000000C014000100140001401400C04014079
:100340000AB1016170470904FBE700000148006839
:10035000704700000400002002480168491C016049
:100360007047000004000020074810B5016841F004
:1003700010010160032000F08BF8002000F006F867
:1003800000F016F8002010BD0020024010B5044611
:1003900000F054F94FF47A71B0FBF1F000F0D5FCA5
:1003A00000222146501E00F053F8002010BD00002E
:1003B0001F4808B5816941F001018161806900F041
:1003C00001000090032000F063F8002211466FF056
:1003D0000B0000F03DF8002211466FF00A0000F01B
:1003E00037F8002211466FF0090000F031F80022C2
:1003F0001146501F00F02CF800221146101F00F08B
:1004000027F800221146901E00F022F80022114623
:10041000501E00F01DF80748416821F0E06141F0EE
:1004200080614160416821F0E061416008BD0000E9
:10043000001002400000014000F01F020121914025
:100440004009800000F1E020C0F800117047000072
:10045000F0B40E4B1B680C46C3F30223C3F107052F
:10046000042D00D90425191D072901D2002300E01D
:10047000DB1E012606FA05F1491E214099409E40E7
:10048000761E16403143F0BC00F0AABF0CED00E030
:10049000064900F0070208684FF6FF03184040EADB
:1004A0000220034A10430860704700000CED00E092
:1004B0000000FA052DE9F047DFF8708105460E4689
:1004C000D8F8000000F00700B0420CD2D8F80010B5
:1004D00021F007013143C8F80010D8F8000000F0FF
:1004E0000700B04277D12878514C800705D5606865
:1004F000A96820F0F000084360602878C00759D050
:100500006968012001290DD0022929D05FF002037A
:1005100093FAA3F2B2FA82F242F02002520904D016
:10052000226803E04FF40033F2E7626A93FAA3F320
:10053000B3FA83F303F01F03984002424BD0606884
:1005400020F0030008436060FFF700FF696807467A
:1005500041F2883001290DD00229814617D025E0CB
:100560004FF00073D4E700BFFFF7F0FEC11B494511
:1005700001D918E081466068C0F381000128F3D1F9
:1005800018E000BFFFF7E2FEC11B49450BD86068C9
:10059000C0F381000228F5D10CE000BFFFF7D6FEC2
:1005A000C11B494502D90320BDE8F087606810F0FF
:1005B0000C0FF3D1D8F80010404601F00701B1420A
:1005C0000BD9016821F0070131430160006800F098
:1005D0000700B04201D00120E6E72878400705D5A2
:1005E0006068E96820F4E0600843606028780007EC
:1005F00006D56068296920F4605040EAC100606057
:1006000000F022F86168F02292FAA2F201F0F00103
:10061000B2FA82F2D140074A515CC84006490860EC
:100620000020FFF7B3FE0020BEE7000000200240DC
:100630000010024044160008000000200148006835
:10064000704700000000002010B519A385B00FCB43
:100650008DE80F001AA01B4B006804905A681A48D6
:1006600012F00C011FD004291DD008291BD14FF412
:10067000701494FAA4F402F47011B4FA84F4E14012
:10068000D2031DF8011010D55A684FF4003393FAC5
:10069000A3F302F40032B3FA83F3DA4004AB9A5CBA
:1006A000B0FBF2F0484305B010BD08484843FAE7F4
:1006B00002030405060708090A0B0C0D0E0F1010A3
:1006C000010200000010024000127A0000093D0003
:1006D0002DE9F84F04460078F74DC0074FF00106AA
:1006E00025D068687704C0F38100012807D06868C6
:1006F000C0F3810002281BD16868C00318D597FA9F
:10070000A7F0B0FA80F040F02000400901D028683E
:1007100000E0686A97FAA7F1B1FA81F101F01F01D0
:1007200006FA01F108425ED0606800287CD05AE0E9
:100730006068B0F5803F0BD010B1B0F5A02F11D09C
:10074000286820F480302860286820F4802002E0A7
:10075000286840F480302860606828B3FFF7F6FD11
:1007600080460BE0286840F480202860F0E700BF56
:10077000FFF7ECFDA0EB0800642871D897FAA7F00A
:10078000B0FA80F040F02000400901D0286800E075
:10079000686A97FAA7F1B1FA81F101F01F0106FA30
:1007A00001F10842E4D01EE0FFF7D0FD804605E0ED
:1007B000FFF7CCFDA0EB08006428DED897FAA7F07D
:1007C000B0FA80F040F02000400901D0286800E035
:1007D000686A97FAA7F1B1FA81F101F01F0106FAF0
:1007E00001F10842E4D12078DFF8D08280074FF091
:1007F00000094FF002075BD568684FF0F80B10F066
:100800000C0F07D06868C0F3810002281CD168680B
:10081000C00319D497FAA7F0B0FA80F040F0200096
:10082000400902D0286801E08BE0686A97FAA7F1D6
:10083000B1FA81F101F01F0106FA01F108422CD052
:10084000206901287DD128E0206990B396FAA6F0AE
:10085000B0FA80F048F82060FFF778FD824607E0A4
:1008600011E100BFFFF772FDA0EB0A00022884D857
:1008700097FAA7F0B0FA80F040F02000400901D0CC
:10088000286800E0686A97FAA7F1B1FA81F101F0EF
:100890001F0106FA01F10842E4D028689BFAABF286
:1008A0006169B2FA82F220F0F800914008432860B2
:1008B00025E0FFE796FAA6F1B1FA81F148F8219018
:1008C000FFF744FD824605E0FFF740FDA0EB0A007C
:1008D0000228CCD897FAA7F0B0FA80F040F02000B8
:1008E000400901D0286800E0686A97FAA7F1B1FAD8
:1008F00081F101F01F0106FA01F10842E4D12078EC
:1009000000076ED5A069B8B396FAA6F0B0FA80F0E9
:1009100008EB8000C0F88064FFF718FD824605E010
:10092000FFF714FDA0EB0A000228A0D897FAA7F061
:10093000B0FA80F040F06000B6EB501F02D128689A
:100940000CE062E197FAA7F0B0FA80F040F06000A6
:10095000B7EB501F01D1286A00E0686A97FAA7F147
:10096000B1FA81F101F01F0106FA01F21042D7D06D
:100970000120FFF7EFFB34E0FFE796FAA6F1B1FAAA
:1009800081F108EB8101C1F88094FFF7DFFC82461A
:1009900006E000BFFFF7DAFCA0EB0A00022872D8DD
:1009A00097FAA7F0B0FA80F040F06000B6EB501F65
:1009B00001D128680BE097FAA7F0B0FA80F040F078
:1009C0006000B7EB501F01D1286A00E0686A97FA0F
:1009D000A7F1B1FA81F101F01F0106FA01F210420C
:1009E000D8D12078400765D5E86940F08050E861AB
:1009F000E869DFF8CCB000F080500090DBF8001020
:100A000041F48071CBF80010FFF7A0FC824605E0AE
:100A1000FFF79CFCA0EB0A00642834D8DBF8000048
:100A2000C005F5D5E06801280AD008B1052813D023
:100A3000286A20F001002862286A20F0040002E001
:100A4000286A40F001002862E06841F2883B90B3D8
:100A5000FFF77CFC82460BE0286A40F00400286225
:100A6000EEE700BFFFF772FCA0EB0A0159450AD878
:100A700097FAA7F0B0FA80F040F04000B6EB501FB4
:100A800002D128680CE0A3E097FAA7F0B0FA80F052
:100A900040F04000B7EB501F01D1286A00E0686ABF
:100AA00097FAA7F1B1FA81F101F01F0206FA02F1FB
:100AB0000842D7D031E005E0001002400000424279
:100AC00000700040FFF742FC824605E0FFF73EFC65
:100AD000A0EB0A0159457BD897FAA7F0B0FA80F04D
:100AE00040F04000B6EB501F01D128680BE097FAA8
:100AF000A7F0B0FA80F040F04000B7EB501F01D1F2
:100B0000286A00E0686A97FAA7F1B1FA81F101F06A
:100B10001F0206FA02F10842D8D1E06980B3696881
:100B2000C1F38101022970D04FF080714F0002287B
:100B3000484609D091FAA1F1B1FA81F148F82100B3
:100B4000FFF704FC044669E08A4691FAA1F1B1FA84
:100B500081F1C14648F82100FFF7F8FB804605E027
:100B6000FFF7F4FBA0EB0800022854D897FAA7F08F
:100B7000B0FA80F040F02000400902D0286801E07F
:100B800061E0686A97FAA7F1B1FA81F101F01F01FB
:100B900006FA01F10842E3D1206AB0F5803F05D1A1
:100BA0006868A16820F4003008436860D4E908014F
:100BB0000843696821F47411084368609AFAAAF03E
:100BC000B0FA80F049F82060FFF7C0FB044606E069
:100BD00021E000BFFFF7BAFB001B02281BD897FAE1
:100BE000A7F0B0FA80F040F02000400901D028685A
:100BF00000E0686A97FAA7F1B1FA81F101F01F01EC
:100C000006FA01F10842E5D01DE01EE0FFF79EFB69
:100C1000001B022802D90320BDE8F88F97FAA7F03D
:100C2000B0FA80F040F02000400901D0286800E0D0
:100C3000686A97FAA7F1B1FA81F101F01F0106FA8B
:100C400001F10842E2D10020E6E70120E4E70000DC
:100C500010B5040003D094F8510010B104E0012055
:100C600010BD204600F038F8022084F851002068BA
:100C7000016821F040010160D4E901010843D4E991
:100C800003121143084361690843218B01F4007189
:100C90000843E1690843216A0843A16A08432168BF
:100CA0000860A069042101EA1040616A08432168D4
:100CB00048602168E06A08612068C16921F4006128
:100CC000C1610449002008706065012084F851006A
:100CD000002010BD0800002010B50068114986B042
:100CE00088421CD11048816941F48051816180693A
:100CF0000E4C00F480500490A0200090022001903F
:100D00000320039069462046FFF73CFA002140206B
:100D1000CDE90001029169462046FFF733FA06B09B
:100D200010BD0000003001400010024000080140EA
:100D30004FF0E0210428086903D020F00400086186
:100D4000704740F00400FAE7704710B5401EB0F15C
:100D5000807F01D3012010BD4FF0E02460610F219E
:100D6000601700F03DFB0020A061072020610020FB
:100D700010BD10B5FFF7E8FF10BD30B590F8382072
:100D8000012A19D0012200F8382F02234370D1E93B
:100D900000342343D1E902452C4323430C69234308
:100DA0004C69896923430B4350F8381C4B644270EB
:100DB00000210170084630BD022030BD30B590F8EA
:100DC0003820012A20D0012280F83820022380F820
:100DD000393003685C6824F070045C6003685C6808
:100DE0000D682C435C6003689C6824F080049C6060
:100DF00003689C6849680C439C6080F83920002196
:100E000080F83810084630BD022030BD10B504000F
:100E100003D094F8390010B107E0012010BD002084
:100E200084F83800204600F00DF8022084F83900DC
:100E3000211D206800F088F9012084F83900002085
:100E400010BD000008B500680649884208D1064870
:100E5000816941F400618161806900F40060009063
:100E600008BD0000002C01400010024070B504468F
:100E700090F83800012817D0012584F83850022056
:100E800084F839002068826822F0770222F47F42D9
:100E900082600868502837D00DDC202859D005DC46
:100EA00088B3102841D151E0022070BD302853D0C2
:100EB00040283AD13FE060282ED070280BD0B0F502
:100EC000805F03D0B0F5005F2FD110E0206881680B
:100ED00021F0070115E0CB68D1E90121206800F07D
:100EE0008FFA2168886840F0770088601DE0CB6841
:100EF000D1E90121206800F083FA2068816841F47B
:100F00008041816011E01EE0CA684968206800F0F5
:100F100045FB5021206806E0CA684968206800F057
:100F20004EFB6021206800F01DFB84F83950002042
:100F300084F8380070BDCA684968206800F02EFB4C
:100F400040212068EFE700212068ECE710212068AD
:100F5000E9E720212068E6E730212068E3E770B563
:100F6000044690F838000D4601280DD0012684F87B
:100F70003860022084F8390042B1042A18D0082AC7
:100F80002AD00C2A4DD139E0022070BD206800F033
:100F900041FA2068816941F0080181612068816916
:100FA00021F004018161206881692A69114311E0FF
:100FB000206800F007F92068816941F400618161CF
:100FC0002068816921F480618161206881692A69D2
:100FD00041EA0221816124E0206800F043FA2068A0
:100FE000C16941F00801C1612068C16921F00401B3
:100FF000C1612068C1692A69114311E0206800F0CD
:101000005DFA2068C16941F40061C1612068C1696D
:1010100021F48061C1612068C1692A6941EA022125
:10102000C16184F83960002084F8380070BD10B5C3
:10103000040003D094F8390010B107E0012010BD7E
:10104000002084F83800204600F00CF8022084F8D4
:101050003900211D206800F077F8012084F839005C
:10106000002010BD7047000010B504460068012242
:1010700000F09CF807492068884203D1416C41F494
:10108000004141642068016841F0010101600020D5
:1010900010BD0000002C014010B50446006800227D
:1010A00000F084F8104B41F2111120688A10984228
:1010B00009D1036A0B4206D1036A134203D1436C80
:1010C00023F4004343642068036A0B4206D1016A9B
:1010D000114203D1016821F001010160012084F86F
:1010E0003900002010BD0000002C0140FEE7FEE7A3
:1010F000704710B5FFF730F9BDE81040FFF739BE73
:101100000D48016841F00101016041680B4A11403E
:10111000416001680A4A11400160016821F48021A0
:101120000160416821F4FE0141604FF41F018160BC
:101130000449C00308607047001002400000FFF837
:10114000FFFFF6FE08ED00E0F0B50268144B154C09
:10115000154D4FF08047984205D0B84203D0A042C9
:1011600001D0A84203D122F070064A683243984267
:1011700005D0B84203D0A04201D0A84203D122F446
:101180004074CA68224302608A68C2620A68826246
:10119000984201D10969016301214161F0BD00005C
:1011A000002C0140000400400008004010B501235D
:1011B000046A8B409C430462036A8A4013430362BF
:1011C00010BD000030B5026A22F010020262026A0D
:1011D000436884690D6824F4E64444EA05248D6874
:1011E00022F0200242EA05120B4DA8420ED1CD6832
:1011F00022F0800242EA05124D6923F4406343EA7B
:1012000085038D6922F0400243EA850343608461CF
:1012100049688163026230BD002C0140FEE7000096
:10122000F0B52B4885B0816941F010018161816979
:1012300001F010010491816941F02001816181690F
:1012400001F020010491816941F00401816181690B
:1012500001F004010491816941F008018161806914
:101260001C4E00F008004FF4005404900022214668
:101270003046FFF765F8184F6511002229463846B9
:10128000FFF75EF81120CDE900400324694630469F
:101290000394FEF777FF0120CDE9005069460394DF
:1012A0003846FEF76FFF680000900C480190002060
:1012B000029069463846FEF765FF00221146172066
:1012C000FFF7C6F81720FFF7B7F805B0F0BD00002C
:1012D0000010024000100140000C014000002110ED
:1012E0000F4810B50D4901604FF482714160002133
:1012F0008160C1604FF400720161C0E905121822DB
:10130000C0E90721416281620A21C162FFF7A0FCA6
:10131000002801D000F052F810BD0000003001405C
:101320000C00002010B5244894B02249016011211E
:101330000024C0E901146421C0E903144461FFF7EB
:1013400065FD78BB4FF480500E900EA91A48FFF748
:101350008DFD38BB1848FFF76AFE18BB129412A91E
:1013600015481394FFF72AFDE0B900944FF400509C
:10137000CDE9044001940294039469460E48069412
:10138000FFF7FBFC70B9602007903220CDE908041C
:101390000A940B940C94002207A907480D94FFF7B8
:1013A000DEFD08B100F00AF8034800F0E3F814B0DD
:1013B00010BD0000002C014064000020BFF34F8FDF
:1013C00005480168054A01F4E06111430160BFF37B
:1013D0004F8F00BFFDE700000CED00E00400FA05B0
:1013E0000907090E002806DA00F00F0000F1E020DE
:1013F00080F8141D704700F1E02080F80014704759
:1014000010B5846842EA032224F47F440A4322434D
:10141000826010BD30B5026A22F001020262026AE7
:101420004368846924F073050C682C4322F002059C
:101430008A682A430A4DA8420BD122F00805CA68DF
:1014400023F440732A434D6922F004021D438B6943
:101450002B434360846149684163026230BD0000F0
:10146000002C014030B5026A22F480720262036AE5
:101470004268C46923F4007324F073050C682C439C
:101480008D6843EA05230C4DA8420ED1CD6823F4A4
:10149000006343EA05234D6922F4405242EA0512F3
:1014A0008D6923F4806342EA05124260C461496891
:1014B000C163036230BD0000002C014030B5026AF8
:1014C00022F480520262046A4268C3690D6823F400
:1014D000E64343EA05238D6824F4005444EA0534C6
:1014E000064DA84204D14D6922F4804242EA851299
:1014F0004260C36149680164046230BD002C014050
:1015000030B58FB00120009000040024CDE9010423
:101510000225CDE907504FF4E01009906846FFF727
:10152000D7F858B90F20CDE90A056802CDE90C407B
:1015300002210AA80E94FEF7BDFF08B1FFF73EFF97
:10154000FFF77CF84FF47A71B0FBF1F0FFF7FDFB89
:101550000420FFF7EDFB00221146501EFEF778FF36
:101560000FB030BD826822F070020A4342F00701DA
:10157000816070471FB500680649884209D180150F
:101580000090022001900320039069460248FEF774
:10159000F9FD1FBD002C01400008014010B5036A91
:1015A000046A24F001040462846924F0F00444EA2B
:1015B000021423F00A020A438461026210BD10B5CE
:1015C000036A23F0100303628369046A23F47043FF
:1015D00043EA023224F0A00343EA0111826101626E
:1015E00010BD02E008C8121F08C1002AFAD17047D6
:1015F0007047002001E001C1121F002AFBD1704793
:10160000FEF7B2FEFFF77CFFFFF70AFEFFF768FE6A
:10161000FFF788FE00210A48FFF726FD4FF46174AA
:1016200000210748FFF720FD6420FEF793FD00210D
:101630000348FFF731FD2046FEF78CFDF0E7000080
:10164000640000200000000000000000010203040C
:101650000607080974160008000000200C000000AE
:10166000E2150008801600080C0000209404000019
:10167000F215000800A24A0400000000000000006B
:04000005080000ED02
:00000001FF
